{
  "contractName": "accountVerification",
  "abi": [
    {
      "inputs": [
        {
          "internalType": "bytes32",
          "name": "pr_k",
          "type": "bytes32"
        }
      ],
      "name": "getPub_kFromPriv_k",
      "outputs": [
        {
          "internalType": "bytes32",
          "name": "",
          "type": "bytes32"
        },
        {
          "internalType": "bytes32",
          "name": "",
          "type": "bytes32"
        }
      ],
      "stateMutability": "pure",
      "type": "function"
    },
    {
      "inputs": [
        {
          "internalType": "bytes32",
          "name": "x",
          "type": "bytes32"
        },
        {
          "internalType": "bytes32",
          "name": "y",
          "type": "bytes32"
        }
      ],
      "name": "getAddressFromPub_k",
      "outputs": [
        {
          "internalType": "bytes20",
          "name": "",
          "type": "bytes20"
        }
      ],
      "stateMutability": "pure",
      "type": "function"
    },
    {
      "inputs": [
        {
          "internalType": "bytes32",
          "name": "pr_k",
          "type": "bytes32"
        },
        {
          "internalType": "address",
          "name": "a",
          "type": "address"
        }
      ],
      "name": "verify",
      "outputs": [
        {
          "internalType": "bool",
          "name": "",
          "type": "bool"
        }
      ],
      "stateMutability": "pure",
      "type": "function"
    }
  ],
  "bytecode": "0x608060405234801561001057600080fd5b5061141c806100206000396000f3fe608060405234801561001057600080fd5b50600436106100415760003560e01c8063248bc80214610046578063b88fbd2d14610077578063c6dc6c5b146100a7575b600080fd5b610060600480360381019061005b9190610e95565b6100d7565b60405161006e929190610ed1565b60405180910390f35b610091600480360381019061008c9190610f58565b6102b4565b60405161009e9190610fb3565b60405180910390f35b6100c160048036038101906100bc9190610fce565b610311565b6040516100ce9190611049565b60405180910390f35b60008060008061029d8560001c73__Secp256k1_____________________________63fae2aea76040518163ffffffff1660e01b8152600401602060405180830381865af415801561012d573d6000803e3d6000fd5b505050506040513d601f19601f82011682018060405250810190610151919061109a565b73__Secp256k1_____________________________63eb2893fc6040518163ffffffff1660e01b8152600401602060405180830381865af415801561019a573d6000803e3d6000fd5b505050506040513d601f19601f820116820180604052508101906101be919061109a565b73__Secp256k1_____________________________63e58e56c86040518163ffffffff1660e01b8152600401602060405180830381865af4158015610207573d6000803e3d6000fd5b505050506040513d601f19601f8201168201806040525081019061022b919061109a565b73__Secp256k1_____________________________63c0988f0f6040518163ffffffff1660e01b8152600401602060405180830381865af4158015610274573d6000803e3d6000fd5b505050506040513d601f19601f82011682018060405250810190610298919061109a565b6103bf565b915091508160001b8160001b935093505050915091565b60008060006102c2856100d7565b9150915060006102d28383610311565b90508060601c73ffffffffffffffffffffffffffffffffffffffff168573ffffffffffffffffffffffffffffffffffffffff1614935050505092915050565b6000808360405160200161032591906110e8565b604051602081830303815290604052905060008360405160200161034991906110e8565b60405160208183030381529060405290506000828260405160200161036f929190611174565b6040516020818303038152906040528051906020012090506000740100000000000000000000000000000000000000008260001c6103ad91906111c7565b90508060601b94505050505092915050565b60008060008060006103d68a8a8a60018b8b6103f9565b9250925092506103e883838389610498565b945094505050509550959350505050565b60008060008089036104135787878792509250925061048c565b60008990506000806000600190505b6000841461047e5760006001851614610451576104448383838f8f8f8e61050f565b8093508194508295505050505b60028461045e9190611227565b935061046d8c8c8c8c8c610b8e565b809c50819d50829e50505050610422565b828282965096509650505050505b96509650969350505050565b60008060006104a78585610d4c565b9050600084806104ba576104b9611198565b5b8283099050600085806104d0576104cf611198565b5b828a099050600086806104e6576104e5611198565b5b87806104f5576104f4611198565b5b8486098a0990508181955095505050505094509492505050565b6000806000808a1480156105235750600089145b1561053657868686925092509250610b81565b6000871480156105465750600086145b1561055957898989925092509250610b81565b610561610e38565b84806105705761056f611198565b5b898a098160006004811061058757610586611258565b5b602002018181525050848061059f5761059e611198565b5b816000600481106105b3576105b2611258565b5b60200201518a09816001600481106105ce576105cd611258565b5b60200201818152505084806105e6576105e5611198565b5b868709816002600481106105fd576105fc611258565b5b602002018181525050848061061557610614611198565b5b8160026004811061062957610628611258565b5b602002015187098160036004811061064457610643611258565b5b6020020181815250506040518060800160405280868061066757610666611198565b5b8360026004811061067b5761067a611258565b5b60200201518e098152602001868061069657610695611198565b5b836003600481106106aa576106a9611258565b5b60200201518d09815260200186806106c5576106c4611198565b5b836000600481106106d9576106d8611258565b5b60200201518b09815260200186806106f4576106f3611198565b5b8360016004811061070857610707611258565b5b60200201518a0981525090508060026004811061072857610727611258565b5b60200201518160006004811061074157610740611258565b5b602002015114158061078357508060036004811061076257610761611258565b5b60200201518160016004811061077b5761077a611258565b5b602002015114155b6107c2576040517f08c379a00000000000000000000000000000000000000000000000000000000081526004016107b9906112e4565b60405180910390fd5b6107ca610e38565b85806107d9576107d8611198565b5b826000600481106107ed576107ec611258565b5b6020020151876107fd9190611304565b8360026004811061081157610810611258565b5b6020020151088160006004811061082b5761082a611258565b5b602002018181525050858061084357610842611198565b5b8260016004811061085757610856611258565b5b6020020151876108679190611304565b8360036004811061087b5761087a611258565b5b6020020151088160016004811061089557610894611258565b5b60200201818152505085806108ad576108ac611198565b5b816000600481106108c1576108c0611258565b5b6020020151826000600481106108da576108d9611258565b5b602002015109816002600481106108f4576108f3611258565b5b602002018181525050858061090c5761090b611198565b5b816000600481106109205761091f611258565b5b60200201518260026004811061093957610938611258565b5b6020020151098160036004811061095357610952611258565b5b6020020181815250506000868061096d5761096c611198565b5b8260036004811061098157610980611258565b5b6020020151886109919190611304565b88806109a05761099f611198565b5b846001600481106109b4576109b3611258565b5b6020020151856001600481106109cd576109cc611258565b5b60200201510908905086806109e5576109e4611198565b5b87806109f4576109f3611198565b5b8880610a0357610a02611198565b5b84600260048110610a1757610a16611258565b5b602002015186600060048110610a3057610a2f611258565b5b60200201510960020988610a449190611304565b8208905060008780610a5957610a58611198565b5b8880610a6857610a67611198565b5b838a610a749190611304565b8a80610a8357610a82611198565b5b86600260048110610a9757610a96611258565b5b602002015188600060048110610ab057610aaf611258565b5b6020020151090884600160048110610acb57610aca611258565b5b60200201510990508780610ae257610ae1611198565b5b8880610af157610af0611198565b5b84600360048110610b0557610b04611258565b5b602002015186600160048110610b1e57610b1d611258565b5b60200201510989610b2f9190611304565b8208905060008880610b4457610b43611198565b5b8980610b5357610b52611198565b5b8b8f0985600060048110610b6a57610b69611258565b5b602002015109905082828297509750975050505050505b9750975097945050505050565b6000806000808603610ba857878787925092509250610d41565b60008480610bb957610bb8611198565b5b898a09905060008580610bcf57610bce611198565b5b898a09905060008680610be557610be4611198565b5b898a09905060008780610bfb57610bfa611198565b5b8880610c0a57610c09611198565b5b848e09600409905060008880610c2357610c22611198565b5b8980610c3257610c31611198565b5b8a80610c4157610c40611198565b5b8586098c098a80610c5557610c54611198565b5b876003090890508880610c6b57610c6a611198565b5b8980610c7a57610c79611198565b5b8384088a610c889190611304565b8a80610c9757610c96611198565b5b8384090894508880610cac57610cab611198565b5b8980610cbb57610cba611198565b5b8a80610cca57610cc9611198565b5b8687096008098a610cdb9190611304565b8a80610cea57610ce9611198565b5b8b80610cf957610cf8611198565b5b888d610d059190611304565b860884090893508880610d1b57610d1a611198565b5b8980610d2a57610d29611198565b5b8c8e09600209925084848497509750975050505050505b955095509592505050565b6000808314158015610d5e5750818314155b8015610d6b575060008214155b610daa576040517f08c379a0000000000000000000000000000000000000000000000000000000008152600401610da190611384565b60405180910390fd5b60008060019050600084905060005b60008714610e2b578682610dcd9190611227565b9050828680610ddf57610dde611198565b5b8780610dee57610ded611198565b5b85840988610dfc9190611304565b86088094508195505050868782610e1391906113a4565b83610e1e9190611304565b8098508193505050610db9565b8394505050505092915050565b6040518060800160405280600490602082028036833780820191505090505090565b600080fd5b6000819050919050565b610e7281610e5f565b8114610e7d57600080fd5b50565b600081359050610e8f81610e69565b92915050565b600060208284031215610eab57610eaa610e5a565b5b6000610eb984828501610e80565b91505092915050565b610ecb81610e5f565b82525050565b6000604082019050610ee66000830185610ec2565b610ef36020830184610ec2565b9392505050565b600073ffffffffffffffffffffffffffffffffffffffff82169050919050565b6000610f2582610efa565b9050919050565b610f3581610f1a565b8114610f4057600080fd5b50565b600081359050610f5281610f2c565b92915050565b60008060408385031215610f6f57610f6e610e5a565b5b6000610f7d85828601610e80565b9250506020610f8e85828601610f43565b9150509250929050565b60008115159050919050565b610fad81610f98565b82525050565b6000602082019050610fc86000830184610fa4565b92915050565b60008060408385031215610fe557610fe4610e5a565b5b6000610ff385828601610e80565b925050602061100485828601610e80565b9150509250929050565b60007fffffffffffffffffffffffffffffffffffffffff00000000000000000000000082169050919050565b6110438161100e565b82525050565b600060208201905061105e600083018461103a565b92915050565b6000819050919050565b61107781611064565b811461108257600080fd5b50565b6000815190506110948161106e565b92915050565b6000602082840312156110b0576110af610e5a565b5b60006110be84828501611085565b91505092915050565b6000819050919050565b6110e26110dd82610e5f565b6110c7565b82525050565b60006110f482846110d1565b60208201915081905092915050565b600081519050919050565b600081905092915050565b60005b8381101561113757808201518184015260208101905061111c565b60008484015250505050565b600061114e82611103565b611158818561110e565b9350611168818560208601611119565b80840191505092915050565b60006111808285611143565b915061118c8284611143565b91508190509392505050565b7f4e487b7100000000000000000000000000000000000000000000000000000000600052601260045260246000fd5b60006111d282611064565b91506111dd83611064565b9250826111ed576111ec611198565b5b828206905092915050565b7f4e487b7100000000000000000000000000000000000000000000000000000000600052601160045260246000fd5b600061123282611064565b915061123d83611064565b92508261124d5761124c611198565b5b828204905092915050565b7f4e487b7100000000000000000000000000000000000000000000000000000000600052603260045260246000fd5b600082825260208201905092915050565b7f557365206a6163446f75626c652066756e6374696f6e20696e73746561640000600082015250565b60006112ce601e83611287565b91506112d982611298565b602082019050919050565b600060208201905081810360008301526112fd816112c1565b9050919050565b600061130f82611064565b915061131a83611064565b9250828203905081811115611332576113316111f8565b5b92915050565b7f496e76616c6964206e756d626572000000000000000000000000000000000000600082015250565b600061136e600e83611287565b915061137982611338565b602082019050919050565b6000602082019050818103600083015261139d81611361565b9050919050565b60006113af82611064565b91506113ba83611064565b92508282026113c881611064565b915082820484148315176113df576113de6111f8565b5b509291505056fea26469706673582212201e990c4ac1f59ad35fb37762dc98cbf17793c52e43102f236cea3ffea3cfb2b964736f6c63430008110033",
  "immutableReferences": {},
  "source": "// SPDX-License-Identifier: GPL-3.0\r\n\r\npragma solidity >=0.8.2 <0.9.0;\r\nimport \"./ECDSA.sol\";\r\nimport \"./Secp256k1.sol\";\r\nimport \"./EllipticCurve.sol\";\r\nimport \"./EllipticCurveFastMult.sol\";\r\n\r\n//import \"hardhat/console.sol\";\r\n\r\ncontract accountVerification{\r\n    \r\n    function getPub_kFromPriv_k(bytes32 pr_k) public pure returns(bytes32, bytes32){\r\n            //uint256 GX=Secp256k1.getGX();\r\n            (uint256 pub_key_x, uint256 pub_key_y) = EllipticCurve.ecMul(uint256(pr_k), Secp256k1.getGX(), Secp256k1.getGY(), Secp256k1.getAA(), Secp256k1.getPP());\r\n            return (bytes32(pub_key_x), bytes32(pub_key_y));\r\n            \r\n    }\r\n\r\n    function getAddressFromPub_k(bytes32 x, bytes32 y) public pure returns (bytes20){\r\n        string memory x_s = string(abi.encodePacked(x));\r\n        string memory y_s = string(abi.encodePacked(y));\r\n        bytes32 hash = (keccak256(abi.encodePacked(x_s,y_s)));\r\n        uint160 u_hash = uint160(uint256(hash) % 2**160);\r\n        return bytes20(u_hash);\r\n    }\r\n\r\n    function verify(bytes32 pr_k, address a) public pure returns(bool){\r\n        (bytes32 pub_key_x, bytes32 pub_key_y) = getPub_kFromPriv_k(pr_k);\r\n        bytes20 addr = getAddressFromPub_k(pub_key_x, pub_key_y);\r\n        return a==address(addr);\r\n    }\r\n\r\n   /* function test(bytes32 b) public pure returns (bytes20){\r\n        (bytes32 x, bytes32 y) = getPub_kFromPriv_k(b);\r\n        return getAddressFromPub_k(x, y);\r\n    } */\r\n}",
  "sourcePath": "C:\\Users\\Feder\\OneDrive\\Documenti\\GitHub\\HouseLocker\\zkp\\contracts\\accountVerification.sol",
  "compiler": {
    "name": "solc",
    "version": "0.8.17+commit.8df45f5f.Emscripten.clang"
  },
  "schemaVersion": "3.4.13",
  "updatedAt": "2023-06-20T15:09:03.176Z",
  "devdoc": {
    "kind": "dev",
    "methods": {},
    "version": 1
  },
  "userdoc": {
    "kind": "user",
    "methods": {},
    "version": 1
  }
}