{
  "contractName": "HelloWorld",
  "abi": [
    {
      "inputs": [],
      "name": "greet",
      "outputs": [
        {
          "internalType": "string",
          "name": "",
          "type": "string"
        }
      ],
      "stateMutability": "view",
      "type": "function"
    },
    {
      "inputs": [],
      "name": "getName",
      "outputs": [
        {
          "internalType": "address",
          "name": "",
          "type": "address"
        }
      ],
      "stateMutability": "view",
      "type": "function"
    }
  ],
  "bytecode": "0x60806040526040518060400160405280600c81526020017f48656c6c6f20576f726c642100000000000000000000000000000000000000008152506000908161004891906102ab565b5034801561005557600080fd5b5061037d565b600081519050919050565b7f4e487b7100000000000000000000000000000000000000000000000000000000600052604160045260246000fd5b7f4e487b7100000000000000000000000000000000000000000000000000000000600052602260045260246000fd5b600060028204905060018216806100dc57607f821691505b6020821081036100ef576100ee610095565b5b50919050565b60008190508160005260206000209050919050565b60006020601f8301049050919050565b600082821b905092915050565b6000600883026101577fffffffffffffffffffffffffffffffffffffffffffffffffffffffffffffffff8261011a565b610161868361011a565b95508019841693508086168417925050509392505050565b6000819050919050565b6000819050919050565b60006101a86101a361019e84610179565b610183565b610179565b9050919050565b6000819050919050565b6101c28361018d565b6101d66101ce826101af565b848454610127565b825550505050565b600090565b6101eb6101de565b6101f68184846101b9565b505050565b5b8181101561021a5761020f6000826101e3565b6001810190506101fc565b5050565b601f82111561025f57610230816100f5565b6102398461010a565b81016020851015610248578190505b61025c6102548561010a565b8301826101fb565b50505b505050565b600082821c905092915050565b600061028260001984600802610264565b1980831691505092915050565b600061029b8383610271565b9150826002028217905092915050565b6102b48261005b565b67ffffffffffffffff8111156102cd576102cc610066565b5b6102d782546100c4565b6102e282828561021e565b600060209050601f8311600181146103155760008415610303578287015190505b61030d858261028f565b865550610375565b601f198416610323866100f5565b60005b8281101561034b57848901518255600182019150602085019450602081019050610326565b868310156103685784890151610364601f891682610271565b8355505b6001600288020188555050505b505050505050565b6102b18061038c6000396000f3fe608060405234801561001057600080fd5b50600436106100365760003560e01c806317d7de7c1461003b578063cfae321714610059575b600080fd5b610043610077565b604051610050919061014e565b60405180910390f35b61006161007f565b60405161006e91906101f9565b60405180910390f35b600033905090565b6000805461008c9061024a565b80601f01602080910402602001604051908101604052809291908181526020018280546100b89061024a565b80156101055780601f106100da57610100808354040283529160200191610105565b820191906000526020600020905b8154815290600101906020018083116100e857829003601f168201915b505050505081565b600073ffffffffffffffffffffffffffffffffffffffff82169050919050565b60006101388261010d565b9050919050565b6101488161012d565b82525050565b6000602082019050610163600083018461013f565b92915050565b600081519050919050565b600082825260208201905092915050565b60005b838110156101a3578082015181840152602081019050610188565b60008484015250505050565b6000601f19601f8301169050919050565b60006101cb82610169565b6101d58185610174565b93506101e5818560208601610185565b6101ee816101af565b840191505092915050565b6000602082019050818103600083015261021381846101c0565b905092915050565b7f4e487b7100000000000000000000000000000000000000000000000000000000600052602260045260246000fd5b6000600282049050600182168061026257607f821691505b6020821081036102755761027461021b565b5b5091905056fea26469706673582212208aa460f4603567802a055ca1b24830e19dd3fe67b4c6ab0595faff79381f7c7964736f6c63430008110033",
  "immutableReferences": {},
  "source": "// SPDX-License-Identifier: MIT\r\n// compiler version must be greater than or equal to 0.8.17 and less than 0.9.0\r\npragma solidity ^0.8.17;\r\n\r\ncontract HelloWorld {\r\n    string public greet = \"Hello World!\";\r\n\r\n    function getName() public view returns (address){\r\n        return msg.sender;\r\n    }\r\n\r\n}",
  "sourcePath": "C:\\Users\\Feder\\OneDrive\\Desktop\\uni\\quartoanno\\blockchain\\prova\\contracts\\prova.sol",
  "compiler": {
    "name": "solc",
    "version": "0.8.17+commit.8df45f5f.Emscripten.clang"
  },
  "schemaVersion": "3.4.13",
  "updatedAt": "2023-06-08T15:26:05.060Z",
  "devdoc": {
    "kind": "dev",
    "methods": {},
    "version": 1
  },
  "userdoc": {
    "kind": "user",
    "methods": {},
    "version": 1
  }
}