{
  "contractName": "Secp256k1",
  "abi": [
    {
      "inputs": [],
      "name": "AA",
      "outputs": [
        {
          "internalType": "uint256",
          "name": "",
          "type": "uint256"
        }
      ],
      "stateMutability": "view",
      "type": "function"
    },
    {
      "inputs": [],
      "name": "BB",
      "outputs": [
        {
          "internalType": "uint256",
          "name": "",
          "type": "uint256"
        }
      ],
      "stateMutability": "view",
      "type": "function"
    },
    {
      "inputs": [],
      "name": "GX",
      "outputs": [
        {
          "internalType": "uint256",
          "name": "",
          "type": "uint256"
        }
      ],
      "stateMutability": "view",
      "type": "function"
    },
    {
      "inputs": [],
      "name": "GY",
      "outputs": [
        {
          "internalType": "uint256",
          "name": "",
          "type": "uint256"
        }
      ],
      "stateMutability": "view",
      "type": "function"
    },
    {
      "inputs": [],
      "name": "N",
      "outputs": [
        {
          "internalType": "uint256",
          "name": "",
          "type": "uint256"
        }
      ],
      "stateMutability": "view",
      "type": "function"
    },
    {
      "inputs": [],
      "name": "PP",
      "outputs": [
        {
          "internalType": "uint256",
          "name": "",
          "type": "uint256"
        }
      ],
      "stateMutability": "view",
      "type": "function"
    },
    {
      "inputs": [],
      "name": "getGX",
      "outputs": [
        {
          "internalType": "uint256",
          "name": "",
          "type": "uint256"
        }
      ],
      "stateMutability": "pure",
      "type": "function"
    },
    {
      "inputs": [],
      "name": "getGY",
      "outputs": [
        {
          "internalType": "uint256",
          "name": "",
          "type": "uint256"
        }
      ],
      "stateMutability": "pure",
      "type": "function"
    },
    {
      "inputs": [],
      "name": "getAA",
      "outputs": [
        {
          "internalType": "uint256",
          "name": "",
          "type": "uint256"
        }
      ],
      "stateMutability": "pure",
      "type": "function"
    },
    {
      "inputs": [],
      "name": "getBB",
      "outputs": [
        {
          "internalType": "uint256",
          "name": "",
          "type": "uint256"
        }
      ],
      "stateMutability": "pure",
      "type": "function"
    },
    {
      "inputs": [],
      "name": "getPP",
      "outputs": [
        {
          "internalType": "uint256",
          "name": "",
          "type": "uint256"
        }
      ],
      "stateMutability": "pure",
      "type": "function"
    },
    {
      "inputs": [],
      "name": "getN",
      "outputs": [
        {
          "internalType": "uint256",
          "name": "",
          "type": "uint256"
        }
      ],
      "stateMutability": "pure",
      "type": "function"
    }
  ],
  "bytecode": "0x6103dd610053600b82828239805160001a607314610046577f4e487b7100000000000000000000000000000000000000000000000000000000600052600060045260246000fd5b30600052607381538281f3fe73000000000000000000000000000000000000000030146080604052600436106100be5760003560e01c8063c52122be1161007b578063c52122be14610177578063c9e525df14610195578063e58e56c8146101b3578063eb2893fc146101d1578063eeeac01e146101ef578063fae2aea71461020d576100be565b806303a507be146100c35780633e955225146100e15780635727dc5c146100ff5780637a308a4c1461011d578063997da8d41461013b578063c0988f0f14610159575b600080fd5b6100cb61022b565b6040516100d8919061038c565b60405180910390f35b6100e961024f565b6040516100f6919061038c565b60405180910390f35b610107610277565b604051610114919061038c565b60405180910390f35b61012561027c565b604051610132919061038c565b60405180910390f35b6101436102a0565b604051610150919061038c565b60405180910390f35b6101616102a5565b60405161016e919061038c565b60405180910390f35b61017f6102cd565b60405161018c919061038c565b60405180910390f35b61019d6102d6565b6040516101aa919061038c565b60405180910390f35b6101bb6102fa565b6040516101c8919061038c565b60405180910390f35b6101d96102ff565b6040516101e6919061038c565b60405180910390f35b6101f7610327565b604051610204919061038c565b60405180910390f35b61021561034b565b604051610222919061038c565b60405180910390f35b7f79be667ef9dcbbac55a06295ce870b07029bfcdb2dce28d959f2815b16f8179881565b60007ffffffffffffffffffffffffffffffffebaaedce6af48a03bbfd25e8cd0364141905090565b600781565b7f483ada7726a3c4655da4fbfc0e1108a8fd17b448a68554199c47d08ffb10d4b881565b600081565b60007ffffffffffffffffffffffffffffffffffffffffffffffffffffffffefffffc2f905090565b60006007905090565b7ffffffffffffffffffffffffffffffffebaaedce6af48a03bbfd25e8cd036414181565b600090565b60007f483ada7726a3c4655da4fbfc0e1108a8fd17b448a68554199c47d08ffb10d4b8905090565b7ffffffffffffffffffffffffffffffffffffffffffffffffffffffffefffffc2f81565b60007f79be667ef9dcbbac55a06295ce870b07029bfcdb2dce28d959f2815b16f81798905090565b6000819050919050565b61038681610373565b82525050565b60006020820190506103a1600083018461037d565b9291505056fea2646970667358221220ab1fcf58649f12a3ff1591884c612d695a22e505e1a59a91bee8e67787ef42bb64736f6c63430008110033",
  "immutableReferences": {},
  "source": "// SPDX-License-Identifier: MIT\r\n\r\npragma solidity >=0.7.3;\r\n\r\nlibrary Secp256k1 {\r\n    uint256 public constant GX = 0x79BE667EF9DCBBAC55A06295CE870B07029BFCDB2DCE28D959F2815B16F81798;\r\n    uint256 public constant GY = 0x483ADA7726A3C4655DA4FBFC0E1108A8FD17B448A68554199C47D08FFB10D4B8;\r\n    uint256 public constant AA = 0;\r\n    uint256 public constant BB = 7;\r\n    uint256 public constant PP = 0xFFFFFFFFFFFFFFFFFFFFFFFFFFFFFFFFFFFFFFFFFFFFFFFFFFFFFFFEFFFFFC2F;\r\n    uint256 public constant N = 0xFFFFFFFFFFFFFFFFFFFFFFFFFFFFFFFEBAAEDCE6AF48A03BBFD25E8CD0364141;\r\n\r\n    function getGX() public pure returns (uint256){\r\n            return GX;\r\n    }\r\n\r\n    function getGY() public pure returns (uint256){\r\n            return GY;\r\n    }\r\n\r\n    function getAA() public pure returns (uint256){\r\n            return AA;\r\n    }\r\n\r\n    function getBB() public pure returns (uint256){\r\n            return BB;\r\n    }\r\n    \r\n    function getPP() public pure returns (uint256){\r\n            return PP;\r\n    }\r\n    function getN() public pure returns (uint256){\r\n            return N;\r\n    }\r\n\r\n}",
  "sourcePath": "C:\\Users\\Feder\\OneDrive\\Documenti\\GitHub\\HouseLocker\\zkp\\contracts\\Secp256k1.sol",
  "compiler": {
    "name": "solc",
    "version": "0.8.17+commit.8df45f5f.Emscripten.clang"
  },
  "schemaVersion": "3.4.13",
  "updatedAt": "2023-06-20T15:09:03.170Z",
  "devdoc": {
    "kind": "dev",
    "methods": {},
    "version": 1
  },
  "userdoc": {
    "kind": "user",
    "methods": {},
    "version": 1
  }
}