{
  "contractName": "zkp",
  "abi": [
    {
      "inputs": [],
      "name": "AA",
      "outputs": [
        {
          "internalType": "uint256",
          "name": "",
          "type": "uint256"
        }
      ],
      "stateMutability": "view",
      "type": "function"
    },
    {
      "inputs": [],
      "name": "BB",
      "outputs": [
        {
          "internalType": "uint256",
          "name": "",
          "type": "uint256"
        }
      ],
      "stateMutability": "view",
      "type": "function"
    },
    {
      "inputs": [],
      "name": "GX",
      "outputs": [
        {
          "internalType": "uint256",
          "name": "",
          "type": "uint256"
        }
      ],
      "stateMutability": "view",
      "type": "function"
    },
    {
      "inputs": [],
      "name": "GY",
      "outputs": [
        {
          "internalType": "uint256",
          "name": "",
          "type": "uint256"
        }
      ],
      "stateMutability": "view",
      "type": "function"
    },
    {
      "inputs": [],
      "name": "PP",
      "outputs": [
        {
          "internalType": "uint256",
          "name": "",
          "type": "uint256"
        }
      ],
      "stateMutability": "view",
      "type": "function"
    },
    {
      "inputs": [
        {
          "internalType": "uint256",
          "name": "x",
          "type": "uint256"
        }
      ],
      "name": "Prover",
      "outputs": [
        {
          "internalType": "uint256",
          "name": "",
          "type": "uint256"
        },
        {
          "internalType": "uint256",
          "name": "",
          "type": "uint256"
        },
        {
          "internalType": "uint256",
          "name": "",
          "type": "uint256"
        }
      ],
      "stateMutability": "pure",
      "type": "function"
    }
  ],
  "bytecode": "0x608060405234801561001057600080fd5b506112b8806100206000396000f3fe608060405234801561001057600080fd5b50600436106100625760003560e01c806303a507be146100675780635727dc5c146100855780636c2b90fd146100a35780637a308a4c146100d5578063997da8d4146100f3578063eeeac01e14610111575b600080fd5b61006f61012f565b60405161007c9190610e39565b60405180910390f35b61008d610153565b60405161009a9190610e39565b60405180910390f35b6100bd60048036038101906100b89190610e85565b610158565b6040516100cc93929190610eb2565b60405180910390f35b6100dd610338565b6040516100ea9190610e39565b60405180910390f35b6100fb61035c565b6040516101089190610e39565b60405180910390f35b610119610361565b6040516101269190610e39565b60405180910390f35b7f79be667ef9dcbbac55a06295ce870b07029bfcdb2dce28d959f2815b16f8179881565b600781565b6000806000807f64eeb8567ad496f244c24c274bb1c2f12e4b32f933bab58a456cb5a5864dc58d60001c90506000806101f5877f79be667ef9dcbbac55a06295ce870b07029bfcdb2dce28d959f2815b16f817987f483ada7726a3c4655da4fbfc0e1108a8fd17b448a68554199c47d08ffb10d4b860007ffffffffffffffffffffffffffffffffffffffffffffffffffffffffefffffc2f610385565b9150915060008061026a857f79be667ef9dcbbac55a06295ce870b07029bfcdb2dce28d959f2815b16f817987f483ada7726a3c4655da4fbfc0e1108a8fd17b448a68554199c47d08ffb10d4b860007ffffffffffffffffffffffffffffffffffffffffffffffffffffffffefffffc2f610385565b91509150600060027f79be667ef9dcbbac55a06295ce870b07029bfcdb2dce28d959f2815b16f817987f483ada7726a3c4655da4fbfc0e1108a8fd17b448a68554199c47d08ffb10d4b8878787876040516020016102cd96959493929190610f0a565b6040516020818303038152906040526040516102e99190610feb565b602060405180830381855afa158015610306573d6000803e3d6000fd5b5050506040513d601f19601f820116820180604052508101906103299190611038565b90505050505050509193909250565b7f483ada7726a3c4655da4fbfc0e1108a8fd17b448a68554199c47d08ffb10d4b881565b600081565b7ffffffffffffffffffffffffffffffffffffffffffffffffffffffffefffffc2f81565b600080600080600061039c8a8a8a60018b8b6103bf565b9250925092506103ae8383838961045e565b945094505050509550959350505050565b60008060008089036103d957878787925092509250610452565b60008990506000806000600190505b6000841461044457600060018516146104175761040a8383838f8f8f8e6104d5565b8093508194508295505050505b60028461042491906110c3565b93506104338c8c8c8c8c610b54565b809c50819d50829e505050506103e8565b828282965096509650505050505b96509650969350505050565b600080600061046d8585610d12565b9050600084806104805761047f611065565b5b82830990506000858061049657610495611065565b5b828a099050600086806104ac576104ab611065565b5b87806104bb576104ba611065565b5b8486098a0990508181955095505050505094509492505050565b6000806000808a1480156104e95750600089145b156104fc57868686925092509250610b47565b60008714801561050c5750600086145b1561051f57898989925092509250610b47565b610527610dfe565b848061053657610535611065565b5b898a098160006004811061054d5761054c6110f4565b5b602002018181525050848061056557610564611065565b5b81600060048110610579576105786110f4565b5b60200201518a0981600160048110610594576105936110f4565b5b60200201818152505084806105ac576105ab611065565b5b868709816002600481106105c3576105c26110f4565b5b60200201818152505084806105db576105da611065565b5b816002600481106105ef576105ee6110f4565b5b602002015187098160036004811061060a576106096110f4565b5b6020020181815250506040518060800160405280868061062d5761062c611065565b5b83600260048110610641576106406110f4565b5b60200201518e098152602001868061065c5761065b611065565b5b836003600481106106705761066f6110f4565b5b60200201518d098152602001868061068b5761068a611065565b5b8360006004811061069f5761069e6110f4565b5b60200201518b09815260200186806106ba576106b9611065565b5b836001600481106106ce576106cd6110f4565b5b60200201518a098152509050806002600481106106ee576106ed6110f4565b5b602002015181600060048110610707576107066110f4565b5b6020020151141580610749575080600360048110610728576107276110f4565b5b602002015181600160048110610741576107406110f4565b5b602002015114155b610788576040517f08c379a000000000000000000000000000000000000000000000000000000000815260040161077f90611180565b60405180910390fd5b610790610dfe565b858061079f5761079e611065565b5b826000600481106107b3576107b26110f4565b5b6020020151876107c391906111a0565b836002600481106107d7576107d66110f4565b5b602002015108816000600481106107f1576107f06110f4565b5b602002018181525050858061080957610808611065565b5b8260016004811061081d5761081c6110f4565b5b60200201518761082d91906111a0565b83600360048110610841576108406110f4565b5b6020020151088160016004811061085b5761085a6110f4565b5b602002018181525050858061087357610872611065565b5b81600060048110610887576108866110f4565b5b6020020151826000600481106108a05761089f6110f4565b5b602002015109816002600481106108ba576108b96110f4565b5b60200201818152505085806108d2576108d1611065565b5b816000600481106108e6576108e56110f4565b5b6020020151826002600481106108ff576108fe6110f4565b5b60200201510981600360048110610919576109186110f4565b5b6020020181815250506000868061093357610932611065565b5b82600360048110610947576109466110f4565b5b60200201518861095791906111a0565b888061096657610965611065565b5b8460016004811061097a576109796110f4565b5b602002015185600160048110610993576109926110f4565b5b60200201510908905086806109ab576109aa611065565b5b87806109ba576109b9611065565b5b88806109c9576109c8611065565b5b846002600481106109dd576109dc6110f4565b5b6020020151866000600481106109f6576109f56110f4565b5b60200201510960020988610a0a91906111a0565b8208905060008780610a1f57610a1e611065565b5b8880610a2e57610a2d611065565b5b838a610a3a91906111a0565b8a80610a4957610a48611065565b5b86600260048110610a5d57610a5c6110f4565b5b602002015188600060048110610a7657610a756110f4565b5b6020020151090884600160048110610a9157610a906110f4565b5b60200201510990508780610aa857610aa7611065565b5b8880610ab757610ab6611065565b5b84600360048110610acb57610aca6110f4565b5b602002015186600160048110610ae457610ae36110f4565b5b60200201510989610af591906111a0565b8208905060008880610b0a57610b09611065565b5b8980610b1957610b18611065565b5b8b8f0985600060048110610b3057610b2f6110f4565b5b602002015109905082828297509750975050505050505b9750975097945050505050565b6000806000808603610b6e57878787925092509250610d07565b60008480610b7f57610b7e611065565b5b898a09905060008580610b9557610b94611065565b5b898a09905060008680610bab57610baa611065565b5b898a09905060008780610bc157610bc0611065565b5b8880610bd057610bcf611065565b5b848e09600409905060008880610be957610be8611065565b5b8980610bf857610bf7611065565b5b8a80610c0757610c06611065565b5b8586098c098a80610c1b57610c1a611065565b5b876003090890508880610c3157610c30611065565b5b8980610c4057610c3f611065565b5b8384088a610c4e91906111a0565b8a80610c5d57610c5c611065565b5b8384090894508880610c7257610c71611065565b5b8980610c8157610c80611065565b5b8a80610c9057610c8f611065565b5b8687096008098a610ca191906111a0565b8a80610cb057610caf611065565b5b8b80610cbf57610cbe611065565b5b888d610ccb91906111a0565b860884090893508880610ce157610ce0611065565b5b8980610cf057610cef611065565b5b8c8e09600209925084848497509750975050505050505b955095509592505050565b6000808314158015610d245750818314155b8015610d31575060008214155b610d70576040517f08c379a0000000000000000000000000000000000000000000000000000000008152600401610d6790611220565b60405180910390fd5b60008060019050600084905060005b60008714610df1578682610d9391906110c3565b9050828680610da557610da4611065565b5b8780610db457610db3611065565b5b85840988610dc291906111a0565b86088094508195505050868782610dd99190611240565b83610de491906111a0565b8098508193505050610d7f565b8394505050505092915050565b6040518060800160405280600490602082028036833780820191505090505090565b6000819050919050565b610e3381610e20565b82525050565b6000602082019050610e4e6000830184610e2a565b92915050565b600080fd5b610e6281610e20565b8114610e6d57600080fd5b50565b600081359050610e7f81610e59565b92915050565b600060208284031215610e9b57610e9a610e54565b5b6000610ea984828501610e70565b91505092915050565b6000606082019050610ec76000830186610e2a565b610ed46020830185610e2a565b610ee16040830184610e2a565b949350505050565b6000819050919050565b610f04610eff82610e20565b610ee9565b82525050565b6000610f168289610ef3565b602082019150610f268288610ef3565b602082019150610f368287610ef3565b602082019150610f468286610ef3565b602082019150610f568285610ef3565b602082019150610f668284610ef3565b602082019150819050979650505050505050565b600081519050919050565b600081905092915050565b60005b83811015610fae578082015181840152602081019050610f93565b60008484015250505050565b6000610fc582610f7a565b610fcf8185610f85565b9350610fdf818560208601610f90565b80840191505092915050565b6000610ff78284610fba565b915081905092915050565b6000819050919050565b61101581611002565b811461102057600080fd5b50565b6000815190506110328161100c565b92915050565b60006020828403121561104e5761104d610e54565b5b600061105c84828501611023565b91505092915050565b7f4e487b7100000000000000000000000000000000000000000000000000000000600052601260045260246000fd5b7f4e487b7100000000000000000000000000000000000000000000000000000000600052601160045260246000fd5b60006110ce82610e20565b91506110d983610e20565b9250826110e9576110e8611065565b5b828204905092915050565b7f4e487b7100000000000000000000000000000000000000000000000000000000600052603260045260246000fd5b600082825260208201905092915050565b7f557365206a6163446f75626c652066756e6374696f6e20696e73746561640000600082015250565b600061116a601e83611123565b915061117582611134565b602082019050919050565b600060208201905081810360008301526111998161115d565b9050919050565b60006111ab82610e20565b91506111b683610e20565b92508282039050818111156111ce576111cd611094565b5b92915050565b7f496e76616c6964206e756d626572000000000000000000000000000000000000600082015250565b600061120a600e83611123565b9150611215826111d4565b602082019050919050565b60006020820190508181036000830152611239816111fd565b9050919050565b600061124b82610e20565b915061125683610e20565b925082820261126481610e20565b9150828204841483151761127b5761127a611094565b5b509291505056fea26469706673582212202dd1f6111df59506f8f5722b181228f46cc37d5da5d204f49bcc494fbc9f10a064736f6c63430008110033",
  "immutableReferences": {},
  "source": "// SPDX-License-Identifier: MIT\r\n// compiler version must be greater than or equal to 0.8.17 and less than 0.9.0\r\npragma solidity ^0.8.17;\r\nimport \"./EllipticCurve.sol\";\r\nimport \"./EllipticCurveFastMult.sol\";\r\n\r\n\r\ncontract zkp{\r\n    uint256 public constant GX = 0x79BE667EF9DCBBAC55A06295CE870B07029BFCDB2DCE28D959F2815B16F81798;\r\n    uint256 public constant GY = 0x483ADA7726A3C4655DA4FBFC0E1108A8FD17B448A68554199C47D08FFB10D4B8;\r\n    uint256 public constant AA = 0;\r\n    uint256 public constant BB = 7;\r\n    uint256 public constant PP = 0xFFFFFFFFFFFFFFFFFFFFFFFFFFFFFFFFFFFFFFFFFFFFFFFFFFFFFFFEFFFFFC2F;\r\n\r\n    function Prover(uint256 x) public pure returns (uint256, uint256, uint256){\r\n            uint256 r = uint256(keccak256(\"wow\"));\r\n            (uint256 hx,uint256 hy) = EllipticCurve.ecMul(x, GX, GY, AA, PP);\r\n            (uint256 ux,uint256 uy) = EllipticCurve.ecMul(r, GX, GY, AA, PP);\r\n            bytes32 c = sha256(abi.encodePacked(GX,GY,hx,hy,ux,uy));\r\n\r\n\r\n    }\r\n\r\n}",
  "sourcePath": "C:\\Users\\Feder\\OneDrive\\Desktop\\uni\\quartoanno\\blockchain\\prova\\contracts\\prova.sol",
  "compiler": {
    "name": "solc",
    "version": "0.8.17+commit.8df45f5f.Emscripten.clang"
  },
  "schemaVersion": "3.4.13",
  "updatedAt": "2023-06-15T13:49:11.141Z",
  "devdoc": {
    "kind": "dev",
    "methods": {},
    "version": 1
  },
  "userdoc": {
    "kind": "user",
    "methods": {},
    "version": 1
  }
}