{
  "contractName": "zkp",
  "abi": [
    {
      "inputs": [],
      "name": "AA",
      "outputs": [
        {
          "internalType": "uint256",
          "name": "",
          "type": "uint256"
        }
      ],
      "stateMutability": "view",
      "type": "function"
    },
    {
      "inputs": [],
      "name": "BB",
      "outputs": [
        {
          "internalType": "uint256",
          "name": "",
          "type": "uint256"
        }
      ],
      "stateMutability": "view",
      "type": "function"
    },
    {
      "inputs": [],
      "name": "GX",
      "outputs": [
        {
          "internalType": "uint256",
          "name": "",
          "type": "uint256"
        }
      ],
      "stateMutability": "view",
      "type": "function"
    },
    {
      "inputs": [],
      "name": "GY",
      "outputs": [
        {
          "internalType": "uint256",
          "name": "",
          "type": "uint256"
        }
      ],
      "stateMutability": "view",
      "type": "function"
    },
    {
      "inputs": [],
      "name": "N",
      "outputs": [
        {
          "internalType": "uint256",
          "name": "",
          "type": "uint256"
        }
      ],
      "stateMutability": "view",
      "type": "function"
    },
    {
      "inputs": [],
      "name": "PP",
      "outputs": [
        {
          "internalType": "uint256",
          "name": "",
          "type": "uint256"
        }
      ],
      "stateMutability": "view",
      "type": "function"
    },
    {
      "inputs": [
        {
          "internalType": "uint256",
          "name": "x",
          "type": "uint256"
        }
      ],
      "name": "Prover",
      "outputs": [
        {
          "internalType": "uint256",
          "name": "",
          "type": "uint256"
        },
        {
          "internalType": "uint256",
          "name": "",
          "type": "uint256"
        },
        {
          "internalType": "uint256",
          "name": "",
          "type": "uint256"
        },
        {
          "internalType": "uint256",
          "name": "",
          "type": "uint256"
        },
        {
          "internalType": "uint256",
          "name": "",
          "type": "uint256"
        },
        {
          "internalType": "uint256",
          "name": "",
          "type": "uint256"
        }
      ],
      "stateMutability": "view",
      "type": "function"
    },
    {
      "inputs": [
        {
          "internalType": "uint256",
          "name": "ux",
          "type": "uint256"
        },
        {
          "internalType": "uint256",
          "name": "uy",
          "type": "uint256"
        },
        {
          "internalType": "uint256",
          "name": "c",
          "type": "uint256"
        },
        {
          "internalType": "uint256",
          "name": "z",
          "type": "uint256"
        },
        {
          "internalType": "uint256",
          "name": "hx",
          "type": "uint256"
        },
        {
          "internalType": "uint256",
          "name": "hy",
          "type": "uint256"
        }
      ],
      "name": "Verifier",
      "outputs": [
        {
          "internalType": "bool",
          "name": "",
          "type": "bool"
        }
      ],
      "stateMutability": "view",
      "type": "function"
    },
    {
      "inputs": [
        {
          "internalType": "uint256",
          "name": "x",
          "type": "uint256"
        }
      ],
      "name": "test",
      "outputs": [
        {
          "internalType": "bool",
          "name": "",
          "type": "bool"
        }
      ],
      "stateMutability": "view",
      "type": "function"
    }
  ],
  "bytecode": "0x608060405273__Secp256k1_____________________________63fae2aea76040518163ffffffff1660e01b8152600401602060405180830381865af41580156200004e573d6000803e3d6000fd5b505050506040513d601f19601f820116820180604052508101906200007491906200030a565b60005573__Secp256k1_____________________________63eb2893fc6040518163ffffffff1660e01b8152600401602060405180830381865af4158015620000c1573d6000803e3d6000fd5b505050506040513d601f19601f82011682018060405250810190620000e791906200030a565b60015573__Secp256k1_____________________________63e58e56c86040518163ffffffff1660e01b8152600401602060405180830381865af415801562000134573d6000803e3d6000fd5b505050506040513d601f19601f820116820180604052508101906200015a91906200030a565b60025573__Secp256k1_____________________________63c52122be6040518163ffffffff1660e01b8152600401602060405180830381865af4158015620001a7573d6000803e3d6000fd5b505050506040513d601f19601f82011682018060405250810190620001cd91906200030a565b60035573__Secp256k1_____________________________63c0988f0f6040518163ffffffff1660e01b8152600401602060405180830381865af41580156200021a573d6000803e3d6000fd5b505050506040513d601f19601f820116820180604052508101906200024091906200030a565b60045573__Secp256k1_____________________________633e9552256040518163ffffffff1660e01b8152600401602060405180830381865af41580156200028d573d6000803e3d6000fd5b505050506040513d601f19601f82011682018060405250810190620002b391906200030a565b600555348015620002c357600080fd5b506200033c565b600080fd5b6000819050919050565b620002e481620002cf565b8114620002f057600080fd5b50565b6000815190506200030481620002d9565b92915050565b600060208284031215620003235762000322620002ca565b5b60006200033384828501620002f3565b91505092915050565b611559806200034c6000396000f3fe608060405234801561001057600080fd5b50600436106100935760003560e01c80637a308a4c116100665780637a308a4c14610139578063997da8d414610157578063c9e525df14610175578063cbfce02014610193578063eeeac01e146101c357610093565b806303a507be1461009857806329e99f07146100b65780635727dc5c146100e65780636c2b90fd14610104575b600080fd5b6100a06101e1565b6040516100ad9190610fbf565b60405180910390f35b6100d060048036038101906100cb919061100b565b6101e7565b6040516100dd9190611053565b60405180910390f35b6100ee610228565b6040516100fb9190610fbf565b60405180910390f35b61011e6004803603810190610119919061100b565b61022e565b6040516101309695949392919061106e565b60405180910390f35b61014161036a565b60405161014e9190610fbf565b60405180910390f35b61015f610370565b60405161016c9190610fbf565b60405180910390f35b61017d610376565b60405161018a9190610fbf565b60405180910390f35b6101ad60048036038101906101a891906110cf565b61037c565b6040516101ba9190611053565b60405180910390f35b6101cb610472565b6040516101d89190610fbf565b60405180910390f35b60005481565b60008060008060008060006101fb8861022e565b955095509550955095509550600061021787878787878761037c565b905080975050505050505050919050565b60035481565b6000806000806000806000600554444260405160200161024f92919061117d565b6040516020818303038152906040528051906020012060001c61027291906111d8565b905060008061028c8a600054600154600254600454610478565b915091506000806102a885600054600154600254600454610478565b9150915060006003838360005460015489896040516020016102cf96959493929190611209565b6040516020818303038152906040526040516102eb91906112ea565b602060405180830381855afa158015610308573d6000803e3d6000fd5b5050506040515160601b60601c73ffffffffffffffffffffffffffffffffffffffff16905060008d8261033b9190611330565b876103469190611372565b90508383838389899c509c509c509c509c509c505050505050505091939550919395565b60015481565b60025481565b60055481565b6000806000610392878686600254600454610478565b915091506000806103ae88600054600154600254600454610478565b915091506000806103c78d8d88886002546004546104b2565b9150915060038d8d6000546001548d8d6040516020016103ec96959493929190611209565b60405160208183030381529060405260405161040891906112ea565b602060405180830381855afa158015610425573d6000803e3d6000fd5b5050506040515160601b60601c73ffffffffffffffffffffffffffffffffffffffff168b14801561045557508184145b801561046057508083145b96505050505050509695505050505050565b60045481565b600080600080600061048f8a8a8a60018b8b610545565b9250925092506104a1838383896105e4565b945094505050509550959350505050565b6000806000806000888b0361050857600086806104d2576104d16111a9565b5b898c08036104e9576000809450945050505061053a565b6104f78b8b60018a8a61065b565b809350819450829550505050610526565b6105198b8b60018c8c60018c610819565b8093508194508295505050505b610532838383896105e4565b945094505050505b965096945050505050565b600080600080890361055f578787879250925092506105d8565b60008990506000806000600190505b600084146105ca576000600185161461059d576105908383838f8f8f8e610819565b8093508194508295505050505b6002846105aa91906113a6565b93506105b98c8c8c8c8c61065b565b809c50819d50829e5050505061056e565b828282965096509650505050505b96509650969350505050565b60008060006105f38585610e98565b905060008480610606576106056111a9565b5b82830990506000858061061c5761061b6111a9565b5b828a09905060008680610632576106316111a9565b5b8780610641576106406111a9565b5b8486098a0990508181955095505050505094509492505050565b60008060008086036106755787878792509250925061080e565b60008480610686576106856111a9565b5b898a0990506000858061069c5761069b6111a9565b5b898a099050600086806106b2576106b16111a9565b5b898a099050600087806106c8576106c76111a9565b5b88806106d7576106d66111a9565b5b848e096004099050600088806106f0576106ef6111a9565b5b89806106ff576106fe6111a9565b5b8a8061070e5761070d6111a9565b5b8586098c098a80610722576107216111a9565b5b876003090890508880610738576107376111a9565b5b8980610747576107466111a9565b5b8384088a61075591906113d7565b8a80610764576107636111a9565b5b8384090894508880610779576107786111a9565b5b8980610788576107876111a9565b5b8a80610797576107966111a9565b5b8687096008098a6107a891906113d7565b8a806107b7576107b66111a9565b5b8b806107c6576107c56111a9565b5b888d6107d291906113d7565b8608840908935088806107e8576107e76111a9565b5b89806107f7576107f66111a9565b5b8c8e09600209925084848497509750975050505050505b955095509592505050565b6000806000808a14801561082d5750600089145b1561084057868686925092509250610e8b565b6000871480156108505750600086145b1561086357898989925092509250610e8b565b61086b610f84565b848061087a576108796111a9565b5b898a09816000600481106108915761089061140b565b5b60200201818152505084806108a9576108a86111a9565b5b816000600481106108bd576108bc61140b565b5b60200201518a09816001600481106108d8576108d761140b565b5b60200201818152505084806108f0576108ef6111a9565b5b868709816002600481106109075761090661140b565b5b602002018181525050848061091f5761091e6111a9565b5b816002600481106109335761093261140b565b5b602002015187098160036004811061094e5761094d61140b565b5b60200201818152505060405180608001604052808680610971576109706111a9565b5b836002600481106109855761098461140b565b5b60200201518e09815260200186806109a05761099f6111a9565b5b836003600481106109b4576109b361140b565b5b60200201518d09815260200186806109cf576109ce6111a9565b5b836000600481106109e3576109e261140b565b5b60200201518b09815260200186806109fe576109fd6111a9565b5b83600160048110610a1257610a1161140b565b5b60200201518a09815250905080600260048110610a3257610a3161140b565b5b602002015181600060048110610a4b57610a4a61140b565b5b6020020151141580610a8d575080600360048110610a6c57610a6b61140b565b5b602002015181600160048110610a8557610a8461140b565b5b602002015114155b610acc576040517f08c379a0000000000000000000000000000000000000000000000000000000008152600401610ac390611497565b60405180910390fd5b610ad4610f84565b8580610ae357610ae26111a9565b5b82600060048110610af757610af661140b565b5b602002015187610b0791906113d7565b83600260048110610b1b57610b1a61140b565b5b60200201510881600060048110610b3557610b3461140b565b5b6020020181815250508580610b4d57610b4c6111a9565b5b82600160048110610b6157610b6061140b565b5b602002015187610b7191906113d7565b83600360048110610b8557610b8461140b565b5b60200201510881600160048110610b9f57610b9e61140b565b5b6020020181815250508580610bb757610bb66111a9565b5b81600060048110610bcb57610bca61140b565b5b602002015182600060048110610be457610be361140b565b5b60200201510981600260048110610bfe57610bfd61140b565b5b6020020181815250508580610c1657610c156111a9565b5b81600060048110610c2a57610c2961140b565b5b602002015182600260048110610c4357610c4261140b565b5b60200201510981600360048110610c5d57610c5c61140b565b5b60200201818152505060008680610c7757610c766111a9565b5b82600360048110610c8b57610c8a61140b565b5b602002015188610c9b91906113d7565b8880610caa57610ca96111a9565b5b84600160048110610cbe57610cbd61140b565b5b602002015185600160048110610cd757610cd661140b565b5b6020020151090890508680610cef57610cee6111a9565b5b8780610cfe57610cfd6111a9565b5b8880610d0d57610d0c6111a9565b5b84600260048110610d2157610d2061140b565b5b602002015186600060048110610d3a57610d3961140b565b5b60200201510960020988610d4e91906113d7565b8208905060008780610d6357610d626111a9565b5b8880610d7257610d716111a9565b5b838a610d7e91906113d7565b8a80610d8d57610d8c6111a9565b5b86600260048110610da157610da061140b565b5b602002015188600060048110610dba57610db961140b565b5b6020020151090884600160048110610dd557610dd461140b565b5b60200201510990508780610dec57610deb6111a9565b5b8880610dfb57610dfa6111a9565b5b84600360048110610e0f57610e0e61140b565b5b602002015186600160048110610e2857610e2761140b565b5b60200201510989610e3991906113d7565b8208905060008880610e4e57610e4d6111a9565b5b8980610e5d57610e5c6111a9565b5b8b8f0985600060048110610e7457610e7361140b565b5b602002015109905082828297509750975050505050505b9750975097945050505050565b6000808314158015610eaa5750818314155b8015610eb7575060008214155b610ef6576040517f08c379a0000000000000000000000000000000000000000000000000000000008152600401610eed90611503565b60405180910390fd5b60008060019050600084905060005b60008714610f77578682610f1991906113a6565b9050828680610f2b57610f2a6111a9565b5b8780610f3a57610f396111a9565b5b85840988610f4891906113d7565b86088094508195505050868782610f5f9190611330565b83610f6a91906113d7565b8098508193505050610f05565b8394505050505092915050565b6040518060800160405280600490602082028036833780820191505090505090565b6000819050919050565b610fb981610fa6565b82525050565b6000602082019050610fd46000830184610fb0565b92915050565b600080fd5b610fe881610fa6565b8114610ff357600080fd5b50565b60008135905061100581610fdf565b92915050565b60006020828403121561102157611020610fda565b5b600061102f84828501610ff6565b91505092915050565b60008115159050919050565b61104d81611038565b82525050565b60006020820190506110686000830184611044565b92915050565b600060c0820190506110836000830189610fb0565b6110906020830188610fb0565b61109d6040830187610fb0565b6110aa6060830186610fb0565b6110b76080830185610fb0565b6110c460a0830184610fb0565b979650505050505050565b60008060008060008060c087890312156110ec576110eb610fda565b5b60006110fa89828a01610ff6565b965050602061110b89828a01610ff6565b955050604061111c89828a01610ff6565b945050606061112d89828a01610ff6565b935050608061113e89828a01610ff6565b92505060a061114f89828a01610ff6565b9150509295509295509295565b6000819050919050565b61117761117282610fa6565b61115c565b82525050565b60006111898285611166565b6020820191506111998284611166565b6020820191508190509392505050565b7f4e487b7100000000000000000000000000000000000000000000000000000000600052601260045260246000fd5b60006111e382610fa6565b91506111ee83610fa6565b9250826111fe576111fd6111a9565b5b828206905092915050565b60006112158289611166565b6020820191506112258288611166565b6020820191506112358287611166565b6020820191506112458286611166565b6020820191506112558285611166565b6020820191506112658284611166565b602082019150819050979650505050505050565b600081519050919050565b600081905092915050565b60005b838110156112ad578082015181840152602081019050611292565b60008484015250505050565b60006112c482611279565b6112ce8185611284565b93506112de81856020860161128f565b80840191505092915050565b60006112f682846112b9565b915081905092915050565b7f4e487b7100000000000000000000000000000000000000000000000000000000600052601160045260246000fd5b600061133b82610fa6565b915061134683610fa6565b925082820261135481610fa6565b9150828204841483151761136b5761136a611301565b5b5092915050565b600061137d82610fa6565b915061138883610fa6565b92508282019050808211156113a05761139f611301565b5b92915050565b60006113b182610fa6565b91506113bc83610fa6565b9250826113cc576113cb6111a9565b5b828204905092915050565b60006113e282610fa6565b91506113ed83610fa6565b925082820390508181111561140557611404611301565b5b92915050565b7f4e487b7100000000000000000000000000000000000000000000000000000000600052603260045260246000fd5b600082825260208201905092915050565b7f557365206a6163446f75626c652066756e6374696f6e20696e73746561640000600082015250565b6000611481601e8361143a565b915061148c8261144b565b602082019050919050565b600060208201905081810360008301526114b081611474565b9050919050565b7f496e76616c6964206e756d626572000000000000000000000000000000000000600082015250565b60006114ed600e8361143a565b91506114f8826114b7565b602082019050919050565b6000602082019050818103600083015261151c816114e0565b905091905056fea26469706673582212204c23d917f62a3e938830dd59008b1fd8547e199151d40563bec1a013d9819c5d64736f6c63430008110033",
  "deployedBytecode": "0x608060405234801561001057600080fd5b50600436106100935760003560e01c80637a308a4c116100665780637a308a4c14610139578063997da8d414610157578063c9e525df14610175578063cbfce02014610193578063eeeac01e146101c357610093565b806303a507be1461009857806329e99f07146100b65780635727dc5c146100e65780636c2b90fd14610104575b600080fd5b6100a06101e1565b6040516100ad9190610fbf565b60405180910390f35b6100d060048036038101906100cb919061100b565b6101e7565b6040516100dd9190611053565b60405180910390f35b6100ee610228565b6040516100fb9190610fbf565b60405180910390f35b61011e6004803603810190610119919061100b565b61022e565b6040516101309695949392919061106e565b60405180910390f35b61014161036a565b60405161014e9190610fbf565b60405180910390f35b61015f610370565b60405161016c9190610fbf565b60405180910390f35b61017d610376565b60405161018a9190610fbf565b60405180910390f35b6101ad60048036038101906101a891906110cf565b61037c565b6040516101ba9190611053565b60405180910390f35b6101cb610472565b6040516101d89190610fbf565b60405180910390f35b60005481565b60008060008060008060006101fb8861022e565b955095509550955095509550600061021787878787878761037c565b905080975050505050505050919050565b60035481565b6000806000806000806000600554444260405160200161024f92919061117d565b6040516020818303038152906040528051906020012060001c61027291906111d8565b905060008061028c8a600054600154600254600454610478565b915091506000806102a885600054600154600254600454610478565b9150915060006003838360005460015489896040516020016102cf96959493929190611209565b6040516020818303038152906040526040516102eb91906112ea565b602060405180830381855afa158015610308573d6000803e3d6000fd5b5050506040515160601b60601c73ffffffffffffffffffffffffffffffffffffffff16905060008d8261033b9190611330565b876103469190611372565b90508383838389899c509c509c509c509c509c505050505050505091939550919395565b60015481565b60025481565b60055481565b6000806000610392878686600254600454610478565b915091506000806103ae88600054600154600254600454610478565b915091506000806103c78d8d88886002546004546104b2565b9150915060038d8d6000546001548d8d6040516020016103ec96959493929190611209565b60405160208183030381529060405260405161040891906112ea565b602060405180830381855afa158015610425573d6000803e3d6000fd5b5050506040515160601b60601c73ffffffffffffffffffffffffffffffffffffffff168b14801561045557508184145b801561046057508083145b96505050505050509695505050505050565b60045481565b600080600080600061048f8a8a8a60018b8b610545565b9250925092506104a1838383896105e4565b945094505050509550959350505050565b6000806000806000888b0361050857600086806104d2576104d16111a9565b5b898c08036104e9576000809450945050505061053a565b6104f78b8b60018a8a61065b565b809350819450829550505050610526565b6105198b8b60018c8c60018c610819565b8093508194508295505050505b610532838383896105e4565b945094505050505b965096945050505050565b600080600080890361055f578787879250925092506105d8565b60008990506000806000600190505b600084146105ca576000600185161461059d576105908383838f8f8f8e610819565b8093508194508295505050505b6002846105aa91906113a6565b93506105b98c8c8c8c8c61065b565b809c50819d50829e5050505061056e565b828282965096509650505050505b96509650969350505050565b60008060006105f38585610e98565b905060008480610606576106056111a9565b5b82830990506000858061061c5761061b6111a9565b5b828a09905060008680610632576106316111a9565b5b8780610641576106406111a9565b5b8486098a0990508181955095505050505094509492505050565b60008060008086036106755787878792509250925061080e565b60008480610686576106856111a9565b5b898a0990506000858061069c5761069b6111a9565b5b898a099050600086806106b2576106b16111a9565b5b898a099050600087806106c8576106c76111a9565b5b88806106d7576106d66111a9565b5b848e096004099050600088806106f0576106ef6111a9565b5b89806106ff576106fe6111a9565b5b8a8061070e5761070d6111a9565b5b8586098c098a80610722576107216111a9565b5b876003090890508880610738576107376111a9565b5b8980610747576107466111a9565b5b8384088a61075591906113d7565b8a80610764576107636111a9565b5b8384090894508880610779576107786111a9565b5b8980610788576107876111a9565b5b8a80610797576107966111a9565b5b8687096008098a6107a891906113d7565b8a806107b7576107b66111a9565b5b8b806107c6576107c56111a9565b5b888d6107d291906113d7565b8608840908935088806107e8576107e76111a9565b5b89806107f7576107f66111a9565b5b8c8e09600209925084848497509750975050505050505b955095509592505050565b6000806000808a14801561082d5750600089145b1561084057868686925092509250610e8b565b6000871480156108505750600086145b1561086357898989925092509250610e8b565b61086b610f84565b848061087a576108796111a9565b5b898a09816000600481106108915761089061140b565b5b60200201818152505084806108a9576108a86111a9565b5b816000600481106108bd576108bc61140b565b5b60200201518a09816001600481106108d8576108d761140b565b5b60200201818152505084806108f0576108ef6111a9565b5b868709816002600481106109075761090661140b565b5b602002018181525050848061091f5761091e6111a9565b5b816002600481106109335761093261140b565b5b602002015187098160036004811061094e5761094d61140b565b5b60200201818152505060405180608001604052808680610971576109706111a9565b5b836002600481106109855761098461140b565b5b60200201518e09815260200186806109a05761099f6111a9565b5b836003600481106109b4576109b361140b565b5b60200201518d09815260200186806109cf576109ce6111a9565b5b836000600481106109e3576109e261140b565b5b60200201518b09815260200186806109fe576109fd6111a9565b5b83600160048110610a1257610a1161140b565b5b60200201518a09815250905080600260048110610a3257610a3161140b565b5b602002015181600060048110610a4b57610a4a61140b565b5b6020020151141580610a8d575080600360048110610a6c57610a6b61140b565b5b602002015181600160048110610a8557610a8461140b565b5b602002015114155b610acc576040517f08c379a0000000000000000000000000000000000000000000000000000000008152600401610ac390611497565b60405180910390fd5b610ad4610f84565b8580610ae357610ae26111a9565b5b82600060048110610af757610af661140b565b5b602002015187610b0791906113d7565b83600260048110610b1b57610b1a61140b565b5b60200201510881600060048110610b3557610b3461140b565b5b6020020181815250508580610b4d57610b4c6111a9565b5b82600160048110610b6157610b6061140b565b5b602002015187610b7191906113d7565b83600360048110610b8557610b8461140b565b5b60200201510881600160048110610b9f57610b9e61140b565b5b6020020181815250508580610bb757610bb66111a9565b5b81600060048110610bcb57610bca61140b565b5b602002015182600060048110610be457610be361140b565b5b60200201510981600260048110610bfe57610bfd61140b565b5b6020020181815250508580610c1657610c156111a9565b5b81600060048110610c2a57610c2961140b565b5b602002015182600260048110610c4357610c4261140b565b5b60200201510981600360048110610c5d57610c5c61140b565b5b60200201818152505060008680610c7757610c766111a9565b5b82600360048110610c8b57610c8a61140b565b5b602002015188610c9b91906113d7565b8880610caa57610ca96111a9565b5b84600160048110610cbe57610cbd61140b565b5b602002015185600160048110610cd757610cd661140b565b5b6020020151090890508680610cef57610cee6111a9565b5b8780610cfe57610cfd6111a9565b5b8880610d0d57610d0c6111a9565b5b84600260048110610d2157610d2061140b565b5b602002015186600060048110610d3a57610d3961140b565b5b60200201510960020988610d4e91906113d7565b8208905060008780610d6357610d626111a9565b5b8880610d7257610d716111a9565b5b838a610d7e91906113d7565b8a80610d8d57610d8c6111a9565b5b86600260048110610da157610da061140b565b5b602002015188600060048110610dba57610db961140b565b5b6020020151090884600160048110610dd557610dd461140b565b5b60200201510990508780610dec57610deb6111a9565b5b8880610dfb57610dfa6111a9565b5b84600360048110610e0f57610e0e61140b565b5b602002015186600160048110610e2857610e2761140b565b5b60200201510989610e3991906113d7565b8208905060008880610e4e57610e4d6111a9565b5b8980610e5d57610e5c6111a9565b5b8b8f0985600060048110610e7457610e7361140b565b5b602002015109905082828297509750975050505050505b9750975097945050505050565b6000808314158015610eaa5750818314155b8015610eb7575060008214155b610ef6576040517f08c379a0000000000000000000000000000000000000000000000000000000008152600401610eed90611503565b60405180910390fd5b60008060019050600084905060005b60008714610f77578682610f1991906113a6565b9050828680610f2b57610f2a6111a9565b5b8780610f3a57610f396111a9565b5b85840988610f4891906113d7565b86088094508195505050868782610f5f9190611330565b83610f6a91906113d7565b8098508193505050610f05565b8394505050505092915050565b6040518060800160405280600490602082028036833780820191505090505090565b6000819050919050565b610fb981610fa6565b82525050565b6000602082019050610fd46000830184610fb0565b92915050565b600080fd5b610fe881610fa6565b8114610ff357600080fd5b50565b60008135905061100581610fdf565b92915050565b60006020828403121561102157611020610fda565b5b600061102f84828501610ff6565b91505092915050565b60008115159050919050565b61104d81611038565b82525050565b60006020820190506110686000830184611044565b92915050565b600060c0820190506110836000830189610fb0565b6110906020830188610fb0565b61109d6040830187610fb0565b6110aa6060830186610fb0565b6110b76080830185610fb0565b6110c460a0830184610fb0565b979650505050505050565b60008060008060008060c087890312156110ec576110eb610fda565b5b60006110fa89828a01610ff6565b965050602061110b89828a01610ff6565b955050604061111c89828a01610ff6565b945050606061112d89828a01610ff6565b935050608061113e89828a01610ff6565b92505060a061114f89828a01610ff6565b9150509295509295509295565b6000819050919050565b61117761117282610fa6565b61115c565b82525050565b60006111898285611166565b6020820191506111998284611166565b6020820191508190509392505050565b7f4e487b7100000000000000000000000000000000000000000000000000000000600052601260045260246000fd5b60006111e382610fa6565b91506111ee83610fa6565b9250826111fe576111fd6111a9565b5b828206905092915050565b60006112158289611166565b6020820191506112258288611166565b6020820191506112358287611166565b6020820191506112458286611166565b6020820191506112558285611166565b6020820191506112658284611166565b602082019150819050979650505050505050565b600081519050919050565b600081905092915050565b60005b838110156112ad578082015181840152602081019050611292565b60008484015250505050565b60006112c482611279565b6112ce8185611284565b93506112de81856020860161128f565b80840191505092915050565b60006112f682846112b9565b915081905092915050565b7f4e487b7100000000000000000000000000000000000000000000000000000000600052601160045260246000fd5b600061133b82610fa6565b915061134683610fa6565b925082820261135481610fa6565b9150828204841483151761136b5761136a611301565b5b5092915050565b600061137d82610fa6565b915061138883610fa6565b92508282019050808211156113a05761139f611301565b5b92915050565b60006113b182610fa6565b91506113bc83610fa6565b9250826113cc576113cb6111a9565b5b828204905092915050565b60006113e282610fa6565b91506113ed83610fa6565b925082820390508181111561140557611404611301565b5b92915050565b7f4e487b7100000000000000000000000000000000000000000000000000000000600052603260045260246000fd5b600082825260208201905092915050565b7f557365206a6163446f75626c652066756e6374696f6e20696e73746561640000600082015250565b6000611481601e8361143a565b915061148c8261144b565b602082019050919050565b600060208201905081810360008301526114b081611474565b9050919050565b7f496e76616c6964206e756d626572000000000000000000000000000000000000600082015250565b60006114ed600e8361143a565b91506114f8826114b7565b602082019050919050565b6000602082019050818103600083015261151c816114e0565b905091905056fea26469706673582212204c23d917f62a3e938830dd59008b1fd8547e199151d40563bec1a013d9819c5d64736f6c63430008110033",
  "immutableReferences": {},
  "source": "// SPDX-License-Identifier: MIT\r\n// compiler version must be greater than or equal to 0.8.17 and less than 0.9.0\r\npragma solidity ^0.8.17;\r\nimport \"./Secp256k1.sol\";\r\nimport \"./EllipticCurve.sol\";\r\nimport \"./EllipticCurveFastMult.sol\";\r\n\r\n//import \"hardhat/console.sol\"; //used for logger\r\n//import \"./SafeMath.sol\";\r\n\r\ncontract zkp{\r\n    uint256 public GX = Secp256k1.getGX();\r\n    uint256 public GY = Secp256k1.getGY();\r\n    uint256 public AA = Secp256k1.getAA();\r\n    uint256 public BB = Secp256k1.getBB();\r\n    uint256 public PP = Secp256k1.getPP();\r\n    uint256 public N = Secp256k1.getN();\r\n\r\n    function Prover(uint256 x) public view returns (uint256, uint256, uint256, uint256, uint256, uint256) {\r\n            uint256 r = uint256(keccak256(abi.encodePacked(block.difficulty, block.timestamp))) % N;\r\n            \r\n            (uint256 hx,uint256 hy) = EllipticCurve.ecMul(x, GX, GY, AA, PP);\r\n            (uint256 ux,uint256 uy) = EllipticCurve.ecMul(r, GX, GY, AA, PP);\r\n            uint256 c256 = uint256(uint160(ripemd160(abi.encodePacked(ux,uy,GX,GY,hx,hy))));\r\n\r\n            uint256 z = r + c256*x;\r\n            return (ux, uy, c256, z, hx, hy);\r\n    }\r\n\r\n    function Verifier(uint256 ux, uint256 uy, uint256 c, uint256 z, uint256 hx, uint256 hy) public view returns (bool){\r\n            (uint256 h_cx, uint256 h_cy) = EllipticCurve.ecMul(c, hx, hy, AA, PP);\r\n            (uint256 point1_x, uint256 point1_y) =  EllipticCurve.ecMul(z, GX, GY, AA, PP);\r\n            (uint256 point2_x, uint256 point2_y) = EllipticCurve.ecAdd(ux, uy, h_cx, h_cy, AA, PP);\r\n            //bool bool1 =  c ==uint256(sha256(abi.encodePacked(ux,uy,GX,GY,hx,hy)));\r\n            //console.log(c);\r\n            //console.log(uint256(uint160(ripemd160(abi.encodePacked(ux,uy,GX,GY,hx,hy)))));\r\n            //console.log(point1_x);\r\n            //console.log(point2_x);\r\n            //console.log(point1_y);\r\n            //console.log(point2_y);\r\n            return c ==uint256(uint160(ripemd160(abi.encodePacked(ux,uy,GX,GY,hx,hy))))  && point1_x == point2_x && point1_y == point2_y;\r\n    }\r\n\r\n        function test (uint256 x) public view returns (bool){\r\n                (uint256 a, uint256 b, uint256 c, uint256 d, uint256 e, uint256 f) = Prover(x);\r\n                bool v = Verifier(a, b, c, d, e, f);\r\n                return v;\r\n        }\r\n}",
  "sourcePath": "C:\\Users\\Feder\\OneDrive\\Documenti\\GitHub\\HouseLocker\\zkp\\contracts\\zkp.sol",
  "compiler": {
    "name": "solc",
    "version": "0.8.17+commit.8df45f5f.Emscripten.clang"
  },
  "schemaVersion": "3.4.13",
  "updatedAt": "2023-06-20T15:09:03.183Z",
  "devdoc": {
    "kind": "dev",
    "methods": {},
    "version": 1
  },
  "userdoc": {
    "kind": "user",
    "methods": {},
    "version": 1
  }
}