{
  "contractName": "accountVerification",
  "abi": [
    {
      "inputs": [
        {
          "internalType": "bytes32",
          "name": "pr_k",
          "type": "bytes32"
        }
      ],
      "name": "getPub_kFromPriv_k",
      "outputs": [
        {
          "internalType": "bytes32",
          "name": "",
          "type": "bytes32"
        },
        {
          "internalType": "bytes32",
          "name": "",
          "type": "bytes32"
        }
      ],
      "stateMutability": "pure",
      "type": "function",
      "constant": true
    },
    {
      "inputs": [
        {
          "internalType": "bytes32",
          "name": "x",
          "type": "bytes32"
        },
        {
          "internalType": "bytes32",
          "name": "y",
          "type": "bytes32"
        }
      ],
      "name": "getAddressFromPub_k",
      "outputs": [
        {
          "internalType": "bytes20",
          "name": "",
          "type": "bytes20"
        }
      ],
      "stateMutability": "pure",
      "type": "function",
      "constant": true
    },
    {
      "inputs": [
        {
          "internalType": "bytes32",
          "name": "pr_k",
          "type": "bytes32"
        },
        {
          "internalType": "address",
          "name": "a",
          "type": "address"
        }
      ],
      "name": "verify",
      "outputs": [
        {
          "internalType": "bool",
          "name": "",
          "type": "bool"
        }
      ],
      "stateMutability": "pure",
      "type": "function",
      "constant": true
    },
    {
      "inputs": [
        {
          "internalType": "bytes32",
          "name": "pr_k",
          "type": "bytes32"
        }
      ],
      "name": "zkp_accountGen",
      "outputs": [
        {
          "internalType": "uint256",
          "name": "",
          "type": "uint256"
        },
        {
          "internalType": "uint256",
          "name": "",
          "type": "uint256"
        },
        {
          "internalType": "uint256",
          "name": "",
          "type": "uint256"
        },
        {
          "internalType": "uint256",
          "name": "",
          "type": "uint256"
        },
        {
          "internalType": "uint256",
          "name": "",
          "type": "uint256"
        },
        {
          "internalType": "uint256",
          "name": "",
          "type": "uint256"
        }
      ],
      "stateMutability": "view",
      "type": "function",
      "constant": true
    },
    {
      "inputs": [
        {
          "internalType": "uint256",
          "name": "ux",
          "type": "uint256"
        },
        {
          "internalType": "uint256",
          "name": "uy",
          "type": "uint256"
        },
        {
          "internalType": "uint256",
          "name": "c",
          "type": "uint256"
        },
        {
          "internalType": "uint256",
          "name": "z",
          "type": "uint256"
        },
        {
          "internalType": "uint256",
          "name": "hx",
          "type": "uint256"
        },
        {
          "internalType": "uint256",
          "name": "hy",
          "type": "uint256"
        }
      ],
      "name": "zkp_accountVer",
      "outputs": [
        {
          "internalType": "bool",
          "name": "",
          "type": "bool"
        }
      ],
      "stateMutability": "view",
      "type": "function",
      "constant": true
    },
    {
      "inputs": [
        {
          "internalType": "uint256",
          "name": "ux",
          "type": "uint256"
        },
        {
          "internalType": "uint256",
          "name": "uy",
          "type": "uint256"
        },
        {
          "internalType": "uint256",
          "name": "c",
          "type": "uint256"
        },
        {
          "internalType": "uint256",
          "name": "z",
          "type": "uint256"
        },
        {
          "internalType": "uint256",
          "name": "hx",
          "type": "uint256"
        },
        {
          "internalType": "uint256",
          "name": "hy",
          "type": "uint256"
        },
        {
          "internalType": "address",
          "name": "addr",
          "type": "address"
        }
      ],
      "name": "zkp_accountVer",
      "outputs": [
        {
          "internalType": "bool",
          "name": "",
          "type": "bool"
        }
      ],
      "stateMutability": "pure",
      "type": "function",
      "constant": true
    },
    {
      "inputs": [
        {
          "internalType": "bytes32",
          "name": "pr_k",
          "type": "bytes32"
        },
        {
          "internalType": "address",
          "name": "addr",
          "type": "address"
        }
      ],
      "name": "sanity_test",
      "outputs": [
        {
          "internalType": "bool",
          "name": "",
          "type": "bool"
        }
      ],
      "stateMutability": "pure",
      "type": "function",
      "constant": true
    },
    {
      "inputs": [
        {
          "internalType": "bytes32",
          "name": "pr_k",
          "type": "bytes32"
        }
      ],
      "name": "sanity_test",
      "outputs": [
        {
          "internalType": "bool",
          "name": "",
          "type": "bool"
        }
      ],
      "stateMutability": "view",
      "type": "function",
      "constant": true
    },
    {
      "inputs": [
        {
          "internalType": "bytes32",
          "name": "pr_k",
          "type": "bytes32"
        },
        {
          "internalType": "address",
          "name": "addr",
          "type": "address"
        }
      ],
      "name": "test",
      "outputs": [
        {
          "internalType": "bool",
          "name": "",
          "type": "bool"
        }
      ],
      "stateMutability": "view",
      "type": "function",
      "constant": true
    }
  ],
  "bytecode": "0x608060405234801561000f575f80fd5b50611b408061001d5f395ff3fe608060405234801561000f575f80fd5b5060043610610091575f3560e01c8063b88fbd2d11610064578063b88fbd2d14610156578063c6dc6c5b14610186578063d18f88fc146101b6578063eabfdb22146101e6578063eb6edd381461021b57610091565b8063248bc802146100955780633946799c146100c6578063478bf16d146100f657806357c35aa614610126575b5f80fd5b6100af60048036038101906100aa91906112de565b61024b565b6040516100bd929190611318565b60405180910390f35b6100e060048036038101906100db9190611399565b61041b565b6040516100ed91906113f1565b60405180910390f35b610110600480360381019061010b9190611399565b610470565b60405161011d91906113f1565b60405180910390f35b610140600480360381019061013b919061143d565b6104a9565b60405161014d91906113f1565b60405180910390f35b610170600480360381019061016b9190611399565b61057d565b60405161017d91906113f1565b60405180910390f35b6101a0600480360381019061019b91906114c6565b6105d7565b6040516101ad919061153e565b60405180910390f35b6101d060048036038101906101cb91906112de565b610680565b6040516101dd91906113f1565b60405180910390f35b61020060048036038101906101fb91906112de565b6106d4565b60405161021296959493929190611566565b60405180910390f35b610235600480360381019061023091906115c5565b610767565b60405161024291906113f1565b60405180910390f35b5f805f80610406855f1c73__Secp256k1_____________________________63fae2aea76040518163ffffffff1660e01b8152600401602060405180830381865af415801561029c573d5f803e3d5ffd5b505050506040513d601f19601f820116820180604052508101906102c09190611676565b73__Secp256k1_____________________________63eb2893fc6040518163ffffffff1660e01b8152600401602060405180830381865af4158015610307573d5f803e3d5ffd5b505050506040513d601f19601f8201168201806040525081019061032b9190611676565b73__Secp256k1_____________________________63e58e56c86040518163ffffffff1660e01b8152600401602060405180830381865af4158015610372573d5f803e3d5ffd5b505050506040513d601f19601f820116820180604052508101906103969190611676565b73__Secp256k1_____________________________63c0988f0f6040518163ffffffff1660e01b8152600401602060405180830381865af41580156103dd573d5f803e3d5ffd5b505050506040513d601f19601f820116820180604052508101906104019190611676565b61083c565b91509150815f1b815f1b935093505050915091565b5f805f6104278561024b565b915091508373ffffffffffffffffffffffffffffffffffffffff1661044c83836105d7565b60601c73ffffffffffffffffffffffffffffffffffffffff16149250505092915050565b5f805f805f805f610480896106d4565b95509550955095509550955061049b8686868686868e610767565b965050505050505092915050565b5f73__zkp___________________________________63cbfce0208888888888886040518763ffffffff1660e01b81526004016104eb969594939291906116b0565b602060405180830381865af4158015610506573d5f803e3d5ffd5b505050506040513d601f19601f8201168201806040525081019061052a9190611739565b801561057157503373ffffffffffffffffffffffffffffffffffffffff16610556845f1b845f1b6105d7565b60601c73ffffffffffffffffffffffffffffffffffffffff16145b90509695505050505050565b5f805f6105898561024b565b915091505f61059883836105d7565b90508060601c73ffffffffffffffffffffffffffffffffffffffff168573ffffffffffffffffffffffffffffffffffffffff1614935050505092915050565b5f80836040516020016105ea9190611784565b60405160208183030381529060405290505f8360405160200161060d9190611784565b60405160208183030381529060405290505f828260405160200161063292919061180a565b6040516020818303038152906040528051906020012090505f74010000000000000000000000000000000000000000825f1c61066e919061185a565b90508060601b94505050505092915050565b5f805f61068c8461024b565b915091503373ffffffffffffffffffffffffffffffffffffffff166106b183836105d7565b60601c73ffffffffffffffffffffffffffffffffffffffff161492505050919050565b5f805f805f8073__zkp___________________________________636c2b90fd885f1c6040518263ffffffff1660e01b8152600401610713919061188a565b60c060405180830381865af415801561072e573d5f803e3d5ffd5b505050506040513d601f19601f8201168201806040525081019061075291906118a3565b95509550955095509550955091939550919395565b5f73__zkp___________________________________63cbfce0208989898989896040518763ffffffff1660e01b81526004016107a9969594939291906116b0565b602060405180830381865af41580156107c4573d5f803e3d5ffd5b505050506040513d601f19601f820116820180604052508101906107e89190611739565b801561082f57508173ffffffffffffffffffffffffffffffffffffffff16610814855f1b855f1b6105d7565b60601c73ffffffffffffffffffffffffffffffffffffffff16145b9050979650505050505050565b5f805f805f6108508a8a8a60018b8b610873565b9250925092506108628383838961090b565b945094505050509550959350505050565b5f805f80890361088b578787879250925092506108ff565b5f8990505f805f600190505b5f84146108f1575f60018516146108c4576108b78383838f8f8f8e61097d565b8093508194508295505050505b6002846108d19190611959565b93506108e08c8c8c8c8c610fe8565b809c50819d50829e50505050610897565b828282965096509650505050505b96509650969350505050565b5f805f610918858561119f565b90505f848061092a5761092961182d565b5b82830990505f858061093f5761093e61182d565b5b828a0990505f86806109545761095361182d565b5b87806109635761096261182d565b5b8486098a0990508181955095505050505094509492505050565b5f805f808a14801561098e57505f89145b156109a157868686925092509250610fdb565b5f871480156109af57505f86145b156109c257898989925092509250610fdb565b6109ca611285565b84806109d9576109d861182d565b5b898a09815f600481106109ef576109ee611989565b5b6020020181815250508480610a0757610a0661182d565b5b815f60048110610a1a57610a19611989565b5b60200201518a0981600160048110610a3557610a34611989565b5b6020020181815250508480610a4d57610a4c61182d565b5b86870981600260048110610a6457610a63611989565b5b6020020181815250508480610a7c57610a7b61182d565b5b81600260048110610a9057610a8f611989565b5b6020020151870981600360048110610aab57610aaa611989565b5b60200201818152505060405180608001604052808680610ace57610acd61182d565b5b83600260048110610ae257610ae1611989565b5b60200201518e0981526020018680610afd57610afc61182d565b5b83600360048110610b1157610b10611989565b5b60200201518d0981526020018680610b2c57610b2b61182d565b5b835f60048110610b3f57610b3e611989565b5b60200201518b0981526020018680610b5a57610b5961182d565b5b83600160048110610b6e57610b6d611989565b5b60200201518a09815250905080600260048110610b8e57610b8d611989565b5b6020020151815f60048110610ba657610ba5611989565b5b6020020151141580610be8575080600360048110610bc757610bc6611989565b5b602002015181600160048110610be057610bdf611989565b5b602002015114155b610c27576040517f08c379a0000000000000000000000000000000000000000000000000000000008152600401610c1e90611a10565b60405180910390fd5b610c2f611285565b8580610c3e57610c3d61182d565b5b825f60048110610c5157610c50611989565b5b602002015187610c619190611a2e565b83600260048110610c7557610c74611989565b5b602002015108815f60048110610c8e57610c8d611989565b5b6020020181815250508580610ca657610ca561182d565b5b82600160048110610cba57610cb9611989565b5b602002015187610cca9190611a2e565b83600360048110610cde57610cdd611989565b5b60200201510881600160048110610cf857610cf7611989565b5b6020020181815250508580610d1057610d0f61182d565b5b815f60048110610d2357610d22611989565b5b6020020151825f60048110610d3b57610d3a611989565b5b60200201510981600260048110610d5557610d54611989565b5b6020020181815250508580610d6d57610d6c61182d565b5b815f60048110610d8057610d7f611989565b5b602002015182600260048110610d9957610d98611989565b5b60200201510981600360048110610db357610db2611989565b5b6020020181815250505f8680610dcc57610dcb61182d565b5b82600360048110610de057610ddf611989565b5b602002015188610df09190611a2e565b8880610dff57610dfe61182d565b5b84600160048110610e1357610e12611989565b5b602002015185600160048110610e2c57610e2b611989565b5b6020020151090890508680610e4457610e4361182d565b5b8780610e5357610e5261182d565b5b8880610e6257610e6161182d565b5b84600260048110610e7657610e75611989565b5b6020020151865f60048110610e8e57610e8d611989565b5b60200201510960020988610ea29190611a2e565b820890505f8780610eb657610eb561182d565b5b8880610ec557610ec461182d565b5b838a610ed19190611a2e565b8a80610ee057610edf61182d565b5b86600260048110610ef457610ef3611989565b5b6020020151885f60048110610f0c57610f0b611989565b5b6020020151090884600160048110610f2757610f26611989565b5b60200201510990508780610f3e57610f3d61182d565b5b8880610f4d57610f4c61182d565b5b84600360048110610f6157610f60611989565b5b602002015186600160048110610f7a57610f79611989565b5b60200201510989610f8b9190611a2e565b820890505f8880610f9f57610f9e61182d565b5b8980610fae57610fad61182d565b5b8b8f09855f60048110610fc457610fc3611989565b5b602002015109905082828297509750975050505050505b9750975097945050505050565b5f805f80860361100057878787925092509250611194565b5f84806110105761100f61182d565b5b898a0990505f85806110255761102461182d565b5b898a0990505f868061103a5761103961182d565b5b898a0990505f878061104f5761104e61182d565b5b888061105e5761105d61182d565b5b848e0960040990505f88806110765761107561182d565b5b89806110855761108461182d565b5b8a806110945761109361182d565b5b8586098c098a806110a8576110a761182d565b5b8760030908905088806110be576110bd61182d565b5b89806110cd576110cc61182d565b5b8384088a6110db9190611a2e565b8a806110ea576110e961182d565b5b83840908945088806110ff576110fe61182d565b5b898061110e5761110d61182d565b5b8a8061111d5761111c61182d565b5b8687096008098a61112e9190611a2e565b8a8061113d5761113c61182d565b5b8b8061114c5761114b61182d565b5b888d6111589190611a2e565b86088409089350888061116e5761116d61182d565b5b898061117d5761117c61182d565b5b8c8e09600209925084848497509750975050505050505b955095509592505050565b5f8083141580156111b05750818314155b80156111bc57505f8214155b6111fb576040517f08c379a00000000000000000000000000000000000000000000000000000000081526004016111f290611aab565b60405180910390fd5b5f80600190505f8490505f5b5f871461127857868261121a9190611959565b905082868061122c5761122b61182d565b5b878061123b5761123a61182d565b5b858409886112499190611a2e565b860880945081955050508687826112609190611ac9565b8361126b9190611a2e565b8098508193505050611207565b8394505050505092915050565b6040518060800160405280600490602082028036833780820191505090505090565b5f80fd5b5f819050919050565b6112bd816112ab565b81146112c7575f80fd5b50565b5f813590506112d8816112b4565b92915050565b5f602082840312156112f3576112f26112a7565b5b5f611300848285016112ca565b91505092915050565b611312816112ab565b82525050565b5f60408201905061132b5f830185611309565b6113386020830184611309565b9392505050565b5f73ffffffffffffffffffffffffffffffffffffffff82169050919050565b5f6113688261133f565b9050919050565b6113788161135e565b8114611382575f80fd5b50565b5f813590506113938161136f565b92915050565b5f80604083850312156113af576113ae6112a7565b5b5f6113bc858286016112ca565b92505060206113cd85828601611385565b9150509250929050565b5f8115159050919050565b6113eb816113d7565b82525050565b5f6020820190506114045f8301846113e2565b92915050565b5f819050919050565b61141c8161140a565b8114611426575f80fd5b50565b5f8135905061143781611413565b92915050565b5f805f805f8060c08789031215611457576114566112a7565b5b5f61146489828a01611429565b965050602061147589828a01611429565b955050604061148689828a01611429565b945050606061149789828a01611429565b93505060806114a889828a01611429565b92505060a06114b989828a01611429565b9150509295509295509295565b5f80604083850312156114dc576114db6112a7565b5b5f6114e9858286016112ca565b92505060206114fa858286016112ca565b9150509250929050565b5f7fffffffffffffffffffffffffffffffffffffffff00000000000000000000000082169050919050565b61153881611504565b82525050565b5f6020820190506115515f83018461152f565b92915050565b6115608161140a565b82525050565b5f60c0820190506115795f830189611557565b6115866020830188611557565b6115936040830187611557565b6115a06060830186611557565b6115ad6080830185611557565b6115ba60a0830184611557565b979650505050505050565b5f805f805f805f60e0888a0312156115e0576115df6112a7565b5b5f6115ed8a828b01611429565b97505060206115fe8a828b01611429565b965050604061160f8a828b01611429565b95505060606116208a828b01611429565b94505060806116318a828b01611429565b93505060a06116428a828b01611429565b92505060c06116538a828b01611385565b91505092959891949750929550565b5f8151905061167081611413565b92915050565b5f6020828403121561168b5761168a6112a7565b5b5f61169884828501611662565b91505092915050565b6116aa8161140a565b82525050565b5f60c0820190506116c35f8301896116a1565b6116d060208301886116a1565b6116dd60408301876116a1565b6116ea60608301866116a1565b6116f760808301856116a1565b61170460a08301846116a1565b979650505050505050565b611718816113d7565b8114611722575f80fd5b50565b5f815190506117338161170f565b92915050565b5f6020828403121561174e5761174d6112a7565b5b5f61175b84828501611725565b91505092915050565b5f819050919050565b61177e611779826112ab565b611764565b82525050565b5f61178f828461176d565b60208201915081905092915050565b5f81519050919050565b5f81905092915050565b5f5b838110156117cf5780820151818401526020810190506117b4565b5f8484015250505050565b5f6117e48261179e565b6117ee81856117a8565b93506117fe8185602086016117b2565b80840191505092915050565b5f61181582856117da565b915061182182846117da565b91508190509392505050565b7f4e487b71000000000000000000000000000000000000000000000000000000005f52601260045260245ffd5b5f6118648261140a565b915061186f8361140a565b92508261187f5761187e61182d565b5b828206905092915050565b5f60208201905061189d5f8301846116a1565b92915050565b5f805f805f8060c087890312156118bd576118bc6112a7565b5b5f6118ca89828a01611662565b96505060206118db89828a01611662565b95505060406118ec89828a01611662565b94505060606118fd89828a01611662565b935050608061190e89828a01611662565b92505060a061191f89828a01611662565b9150509295509295509295565b7f4e487b71000000000000000000000000000000000000000000000000000000005f52601160045260245ffd5b5f6119638261140a565b915061196e8361140a565b92508261197e5761197d61182d565b5b828204905092915050565b7f4e487b71000000000000000000000000000000000000000000000000000000005f52603260045260245ffd5b5f82825260208201905092915050565b7f557365206a6163446f75626c652066756e6374696f6e20696e737465616400005f82015250565b5f6119fa601e836119b6565b9150611a05826119c6565b602082019050919050565b5f6020820190508181035f830152611a27816119ee565b9050919050565b5f611a388261140a565b9150611a438361140a565b9250828203905081811115611a5b57611a5a61192c565b5b92915050565b7f496e76616c6964206e756d6265720000000000000000000000000000000000005f82015250565b5f611a95600e836119b6565b9150611aa082611a61565b602082019050919050565b5f6020820190508181035f830152611ac281611a89565b9050919050565b5f611ad38261140a565b9150611ade8361140a565b9250828202611aec8161140a565b91508282048414831517611b0357611b0261192c565b5b509291505056fea264697066735822122070d13e0be3404de1accdeb39d600379b9dc256d595a53124ee255f126587f44764736f6c63430008140033",
  "immutableReferences": {},
  "source": "// SPDX-License-Identifier: GPL-3.0\n\npragma solidity >=0.8.2 <0.9.0;\nimport \"./ECDSA.sol\";\nimport \"./Secp256k1.sol\";\nimport \"./EllipticCurve.sol\";\nimport \"./EllipticCurveFastMult.sol\";\nimport \"./zkp.sol\";\n\ncontract accountVerification{\n   \n    // Takes in a private key and returns the corresponding public key\n    // Everyone knows the input of a function. DO NOT USE IT IN A PUBLIC BLOCKCHAIN!\n\n    function getPub_kFromPriv_k(bytes32 pr_k) public pure returns(bytes32, bytes32){\n        (uint256 pub_key_x, uint256 pub_key_y) = EllipticCurve.ecMul(uint256(pr_k), Secp256k1.getGX(), Secp256k1.getGY(), Secp256k1.getAA(), Secp256k1.getPP());\n        return (bytes32(pub_key_x), bytes32(pub_key_y));\n    }\n\n    // Takes in a public key and returns the corresponding Ethereum address\n    function getAddressFromPub_k(bytes32 x, bytes32 y) public pure returns (bytes20){\n        string memory x_s = string(abi.encodePacked(x));\n        string memory y_s = string(abi.encodePacked(y));\n        bytes32 hash = (keccak256(abi.encodePacked(x_s,y_s)));\n        uint160 u_hash = uint160(uint256(hash) % 2**160);\n        return bytes20(u_hash);\n    }\n\n    // Takes in a private key and an Ethereum address and returns a boolean value indicating\n    // whether the private key corresponds to the given Ethereum address\n    // Everyone knows the input of a function. DO NOT USE IT IN A PUBLIC BLOCKCHAIN!\n    function verify(bytes32 pr_k, address a) public pure returns(bool){\n        (bytes32 pub_key_x, bytes32 pub_key_y) = getPub_kFromPriv_k(pr_k);\n        bytes20 addr = getAddressFromPub_k(pub_key_x, pub_key_y);\n        return a==address(addr);\n    }\n\n    // Takes in a private key and generates a zero-knowledge proof using the Prover function from the zkp library\n    // Everyone knows the input of a function. DO NOT USE IT IN A PUBLIC BLOCKCHAIN!\n    function zkp_accountGen(bytes32 pr_k) public view returns (uint256, uint256, uint256, uint256, uint256, uint256){\n        return (zkp.Prover(uint256(pr_k)));\n    }\n\n    // This version of the zkp_accountVer function takes in a sextuple generated by the Prover function and returns a boolean value indicating\n    // whether the proof is valid and correspond to the address of the the person that called\n    function zkp_accountVer(uint256 ux, uint256 uy, uint256 c, uint256 z, uint256 hx, uint256 hy) public view returns (bool){      \n        return (zkp.Verifier(ux,uy, c, z, hx, hy)) && address(getAddressFromPub_k(bytes32(hx),bytes32(hy)))==msg.sender;\n    }\n\n    // Takes in a sextuple generated by the Prover function and an Ethereum address and returns a boolean value indicating whether the proof\n    // is valid and corresponds to the given Ethereum address\n    function zkp_accountVer(uint256 ux, uint256 uy, uint256 c, uint256 z, uint256 hx, uint256 hy, address addr) public pure returns (bool){        \n        return (zkp.Verifier(ux, uy, c, z, hx, hy)) && address(getAddressFromPub_k(bytes32(hx),bytes32(hy)))==addr;\n    }\n\n\n    // Takes in a private key and an Ethereum address and performs a sanity check to see if the computation of the\n    // address from the private key is up to date\n    // Everyone knows the input of a function. This is only for test. DO NOT USE IT IN A PUBLIC BLOCKCHAIN!\n    function sanity_test(bytes32 pr_k, address addr) public pure returns (bool){\n        (bytes32 x, bytes32 y) = getPub_kFromPriv_k(pr_k);\n        return address(getAddressFromPub_k(x, y)) == addr;\n    }\n\n    // Takes in a private key and and performs a sanity check to see if the computation of the address\n    // from the private key is up to date, the address is taken directly from the sender\n    // Everyone knows the input of a function. This is only for test. DO NOT USE IT IN A PUBLIC BLOCKCHAIN!\n    function sanity_test(bytes32 pr_k) public view  returns (bool){\n        (bytes32 x, bytes32 y) = getPub_kFromPriv_k(pr_k);\n        return address(getAddressFromPub_k(x, y)) == msg.sender;\n    }\n   \n    // Takes in a private key and an Ethereum address and return whether the private key and the address are associated\n    // using the zkp, the function returns always true if you put your true data up to the correctness of zkp.\n    // Everyone knows the input of a function. This is only for test. DO NOT USE IT IN A PUBLIC BLOCKCHAIN!\n    function test(bytes32 pr_k, address addr) public view returns (bool){\n        (uint256 ux, uint256 uy, uint256 c, uint256 z, uint256 hx, uint256 hy) = zkp_accountGen(pr_k);\n        return zkp_accountVer(ux,  uy,  c,  z,  hx,  hy, addr);\n    }\n}",
  "sourcePath": "/home/davipase/Blockchain/HouseLocker/smart_contracts/Affitto/contracts/accountVerification.sol",
  "compiler": {
    "name": "solc",
    "version": "0.8.20+commit.a1b79de6.Emscripten.clang"
  },
  "schemaVersion": "3.4.14",
  "updatedAt": "2023-06-23T17:56:59.388Z",
  "networkType": "ethereum",
  "devdoc": {
    "kind": "dev",
    "methods": {},
    "version": 1
  },
  "userdoc": {
    "kind": "user",
    "methods": {},
    "version": 1
  }
}