{
  "contractName": "accountVerification",
  "abi": [
    {
      "inputs": [
        {
          "internalType": "bytes32",
          "name": "pr_k",
          "type": "bytes32"
        }
      ],
      "name": "getPub_kFromPriv_k",
      "outputs": [
        {
          "internalType": "bytes32",
          "name": "",
          "type": "bytes32"
        },
        {
          "internalType": "bytes32",
          "name": "",
          "type": "bytes32"
        }
      ],
      "stateMutability": "pure",
      "type": "function",
      "constant": true
    },
    {
      "inputs": [
        {
          "internalType": "bytes32",
          "name": "x",
          "type": "bytes32"
        },
        {
          "internalType": "bytes32",
          "name": "y",
          "type": "bytes32"
        }
      ],
      "name": "getAddressFromPub_k",
      "outputs": [
        {
          "internalType": "bytes20",
          "name": "",
          "type": "bytes20"
        }
      ],
      "stateMutability": "pure",
      "type": "function",
      "constant": true
    },
    {
      "inputs": [
        {
          "internalType": "bytes32",
          "name": "pr_k",
          "type": "bytes32"
        },
        {
          "internalType": "address",
          "name": "a",
          "type": "address"
        }
      ],
      "name": "verify",
      "outputs": [
        {
          "internalType": "bool",
          "name": "",
          "type": "bool"
        }
      ],
      "stateMutability": "pure",
      "type": "function",
      "constant": true
    },
    {
      "inputs": [
        {
          "internalType": "bytes32",
          "name": "pr_k",
          "type": "bytes32"
        }
      ],
      "name": "zkp_accountGen",
      "outputs": [
        {
          "internalType": "uint256",
          "name": "",
          "type": "uint256"
        },
        {
          "internalType": "uint256",
          "name": "",
          "type": "uint256"
        },
        {
          "internalType": "uint256",
          "name": "",
          "type": "uint256"
        },
        {
          "internalType": "uint256",
          "name": "",
          "type": "uint256"
        },
        {
          "internalType": "uint256",
          "name": "",
          "type": "uint256"
        },
        {
          "internalType": "uint256",
          "name": "",
          "type": "uint256"
        }
      ],
      "stateMutability": "view",
      "type": "function",
      "constant": true
    },
    {
      "inputs": [
        {
          "internalType": "uint256",
          "name": "ux",
          "type": "uint256"
        },
        {
          "internalType": "uint256",
          "name": "uy",
          "type": "uint256"
        },
        {
          "internalType": "uint256",
          "name": "c",
          "type": "uint256"
        },
        {
          "internalType": "uint256",
          "name": "z",
          "type": "uint256"
        },
        {
          "internalType": "uint256",
          "name": "hx",
          "type": "uint256"
        },
        {
          "internalType": "uint256",
          "name": "hy",
          "type": "uint256"
        }
      ],
      "name": "zkp_accountVer",
      "outputs": [
        {
          "internalType": "bool",
          "name": "",
          "type": "bool"
        }
      ],
      "stateMutability": "view",
      "type": "function",
      "constant": true
    },
    {
      "inputs": [
        {
          "internalType": "uint256",
          "name": "ux",
          "type": "uint256"
        },
        {
          "internalType": "uint256",
          "name": "uy",
          "type": "uint256"
        },
        {
          "internalType": "uint256",
          "name": "c",
          "type": "uint256"
        },
        {
          "internalType": "uint256",
          "name": "z",
          "type": "uint256"
        },
        {
          "internalType": "uint256",
          "name": "hx",
          "type": "uint256"
        },
        {
          "internalType": "uint256",
          "name": "hy",
          "type": "uint256"
        },
        {
          "internalType": "address",
          "name": "addr",
          "type": "address"
        }
      ],
      "name": "zkp_accountVer",
      "outputs": [
        {
          "internalType": "bool",
          "name": "",
          "type": "bool"
        }
      ],
      "stateMutability": "pure",
      "type": "function",
      "constant": true
    },
    {
      "inputs": [
        {
          "internalType": "bytes32",
          "name": "b",
          "type": "bytes32"
        },
        {
          "internalType": "address",
          "name": "addr",
          "type": "address"
        }
      ],
      "name": "test",
      "outputs": [
        {
          "internalType": "bool",
          "name": "",
          "type": "bool"
        }
      ],
      "stateMutability": "view",
      "type": "function",
      "constant": true
    }
  ],
  "bytecode": "0x6119be61004e600b8282823980515f1a607314610042577f4e487b71000000000000000000000000000000000000000000000000000000005f525f60045260245ffd5b305f52607381538281f3fe7300000000000000000000000000000000000000003014608060405260043610610086575f3560e01c8063b88fbd2d11610064578063b88fbd2d1461011b578063c6dc6c5b1461014b578063eabfdb221461017b578063eb6edd38146101b057610086565b8063248bc8021461008a578063478bf16d146100bb57806357c35aa6146100eb575b5f80fd5b6100a4600480360381019061009f91906111ca565b6101e0565b6040516100b2929190611204565b60405180910390f35b6100d560048036038101906100d09190611285565b6103b0565b6040516100e291906112dd565b60405180910390f35b61010560048036038101906101009190611329565b6103e9565b60405161011291906112dd565b60405180910390f35b61013560048036038101906101309190611285565b6104bd565b60405161014291906112dd565b60405180910390f35b610165600480360381019061016091906113b2565b610517565b604051610172919061142a565b60405180910390f35b610195600480360381019061019091906111ca565b6105c0565b6040516101a796959493929190611452565b60405180910390f35b6101ca60048036038101906101c591906114b1565b610653565b6040516101d791906112dd565b60405180910390f35b5f805f8061039b855f1c73__Secp256k1_____________________________63fae2aea76040518163ffffffff1660e01b8152600401602060405180830381865af4158015610231573d5f803e3d5ffd5b505050506040513d601f19601f820116820180604052508101906102559190611562565b73__Secp256k1_____________________________63eb2893fc6040518163ffffffff1660e01b8152600401602060405180830381865af415801561029c573d5f803e3d5ffd5b505050506040513d601f19601f820116820180604052508101906102c09190611562565b73__Secp256k1_____________________________63e58e56c86040518163ffffffff1660e01b8152600401602060405180830381865af4158015610307573d5f803e3d5ffd5b505050506040513d601f19601f8201168201806040525081019061032b9190611562565b73__Secp256k1_____________________________63c0988f0f6040518163ffffffff1660e01b8152600401602060405180830381865af4158015610372573d5f803e3d5ffd5b505050506040513d601f19601f820116820180604052508101906103969190611562565b610728565b91509150815f1b815f1b935093505050915091565b5f805f805f805f6103c0896105c0565b9550955095509550955095506103db8686868686868e610653565b965050505050505092915050565b5f73__zkp___________________________________63cbfce0208888888888886040518763ffffffff1660e01b815260040161042b96959493929190611452565b602060405180830381865af4158015610446573d5f803e3d5ffd5b505050506040513d601f19601f8201168201806040525081019061046a91906115b7565b80156104b157503373ffffffffffffffffffffffffffffffffffffffff16610496845f1b845f1b610517565b60601c73ffffffffffffffffffffffffffffffffffffffff16145b90509695505050505050565b5f805f6104c9856101e0565b915091505f6104d88383610517565b90508060601c73ffffffffffffffffffffffffffffffffffffffff168573ffffffffffffffffffffffffffffffffffffffff1614935050505092915050565b5f808360405160200161052a9190611602565b60405160208183030381529060405290505f8360405160200161054d9190611602565b60405160208183030381529060405290505f8282604051602001610572929190611688565b6040516020818303038152906040528051906020012090505f74010000000000000000000000000000000000000000825f1c6105ae91906116d8565b90508060601b94505050505092915050565b5f805f805f8073__zkp___________________________________636c2b90fd885f1c6040518263ffffffff1660e01b81526004016105ff9190611708565b60c060405180830381865af415801561061a573d5f803e3d5ffd5b505050506040513d601f19601f8201168201806040525081019061063e9190611721565b95509550955095509550955091939550919395565b5f73__zkp___________________________________63cbfce0208989898989896040518763ffffffff1660e01b815260040161069596959493929190611452565b602060405180830381865af41580156106b0573d5f803e3d5ffd5b505050506040513d601f19601f820116820180604052508101906106d491906115b7565b801561071b57508173ffffffffffffffffffffffffffffffffffffffff16610700855f1b855f1b610517565b60601c73ffffffffffffffffffffffffffffffffffffffff16145b9050979650505050505050565b5f805f805f61073c8a8a8a60018b8b61075f565b92509250925061074e838383896107f7565b945094505050509550959350505050565b5f805f808903610777578787879250925092506107eb565b5f8990505f805f600190505b5f84146107dd575f60018516146107b0576107a38383838f8f8f8e610869565b8093508194508295505050505b6002846107bd91906117d7565b93506107cc8c8c8c8c8c610ed4565b809c50819d50829e50505050610783565b828282965096509650505050505b96509650969350505050565b5f805f610804858561108b565b90505f8480610816576108156116ab565b5b82830990505f858061082b5761082a6116ab565b5b828a0990505f86806108405761083f6116ab565b5b878061084f5761084e6116ab565b5b8486098a0990508181955095505050505094509492505050565b5f805f808a14801561087a57505f89145b1561088d57868686925092509250610ec7565b5f8714801561089b57505f86145b156108ae57898989925092509250610ec7565b6108b6611171565b84806108c5576108c46116ab565b5b898a09815f600481106108db576108da611807565b5b60200201818152505084806108f3576108f26116ab565b5b815f6004811061090657610905611807565b5b60200201518a098160016004811061092157610920611807565b5b6020020181815250508480610939576109386116ab565b5b868709816002600481106109505761094f611807565b5b6020020181815250508480610968576109676116ab565b5b8160026004811061097c5761097b611807565b5b602002015187098160036004811061099757610996611807565b5b602002018181525050604051806080016040528086806109ba576109b96116ab565b5b836002600481106109ce576109cd611807565b5b60200201518e09815260200186806109e9576109e86116ab565b5b836003600481106109fd576109fc611807565b5b60200201518d0981526020018680610a1857610a176116ab565b5b835f60048110610a2b57610a2a611807565b5b60200201518b0981526020018680610a4657610a456116ab565b5b83600160048110610a5a57610a59611807565b5b60200201518a09815250905080600260048110610a7a57610a79611807565b5b6020020151815f60048110610a9257610a91611807565b5b6020020151141580610ad4575080600360048110610ab357610ab2611807565b5b602002015181600160048110610acc57610acb611807565b5b602002015114155b610b13576040517f08c379a0000000000000000000000000000000000000000000000000000000008152600401610b0a9061188e565b60405180910390fd5b610b1b611171565b8580610b2a57610b296116ab565b5b825f60048110610b3d57610b3c611807565b5b602002015187610b4d91906118ac565b83600260048110610b6157610b60611807565b5b602002015108815f60048110610b7a57610b79611807565b5b6020020181815250508580610b9257610b916116ab565b5b82600160048110610ba657610ba5611807565b5b602002015187610bb691906118ac565b83600360048110610bca57610bc9611807565b5b60200201510881600160048110610be457610be3611807565b5b6020020181815250508580610bfc57610bfb6116ab565b5b815f60048110610c0f57610c0e611807565b5b6020020151825f60048110610c2757610c26611807565b5b60200201510981600260048110610c4157610c40611807565b5b6020020181815250508580610c5957610c586116ab565b5b815f60048110610c6c57610c6b611807565b5b602002015182600260048110610c8557610c84611807565b5b60200201510981600360048110610c9f57610c9e611807565b5b6020020181815250505f8680610cb857610cb76116ab565b5b82600360048110610ccc57610ccb611807565b5b602002015188610cdc91906118ac565b8880610ceb57610cea6116ab565b5b84600160048110610cff57610cfe611807565b5b602002015185600160048110610d1857610d17611807565b5b6020020151090890508680610d3057610d2f6116ab565b5b8780610d3f57610d3e6116ab565b5b8880610d4e57610d4d6116ab565b5b84600260048110610d6257610d61611807565b5b6020020151865f60048110610d7a57610d79611807565b5b60200201510960020988610d8e91906118ac565b820890505f8780610da257610da16116ab565b5b8880610db157610db06116ab565b5b838a610dbd91906118ac565b8a80610dcc57610dcb6116ab565b5b86600260048110610de057610ddf611807565b5b6020020151885f60048110610df857610df7611807565b5b6020020151090884600160048110610e1357610e12611807565b5b60200201510990508780610e2a57610e296116ab565b5b8880610e3957610e386116ab565b5b84600360048110610e4d57610e4c611807565b5b602002015186600160048110610e6657610e65611807565b5b60200201510989610e7791906118ac565b820890505f8880610e8b57610e8a6116ab565b5b8980610e9a57610e996116ab565b5b8b8f09855f60048110610eb057610eaf611807565b5b602002015109905082828297509750975050505050505b9750975097945050505050565b5f805f808603610eec57878787925092509250611080565b5f8480610efc57610efb6116ab565b5b898a0990505f8580610f1157610f106116ab565b5b898a0990505f8680610f2657610f256116ab565b5b898a0990505f8780610f3b57610f3a6116ab565b5b8880610f4a57610f496116ab565b5b848e0960040990505f8880610f6257610f616116ab565b5b8980610f7157610f706116ab565b5b8a80610f8057610f7f6116ab565b5b8586098c098a80610f9457610f936116ab565b5b876003090890508880610faa57610fa96116ab565b5b8980610fb957610fb86116ab565b5b8384088a610fc791906118ac565b8a80610fd657610fd56116ab565b5b8384090894508880610feb57610fea6116ab565b5b8980610ffa57610ff96116ab565b5b8a80611009576110086116ab565b5b8687096008098a61101a91906118ac565b8a80611029576110286116ab565b5b8b80611038576110376116ab565b5b888d61104491906118ac565b86088409089350888061105a576110596116ab565b5b8980611069576110686116ab565b5b8c8e09600209925084848497509750975050505050505b955095509592505050565b5f80831415801561109c5750818314155b80156110a857505f8214155b6110e7576040517f08c379a00000000000000000000000000000000000000000000000000000000081526004016110de90611929565b60405180910390fd5b5f80600190505f8490505f5b5f871461116457868261110691906117d7565b9050828680611118576111176116ab565b5b8780611127576111266116ab565b5b8584098861113591906118ac565b8608809450819550505086878261114c9190611947565b8361115791906118ac565b80985081935050506110f3565b8394505050505092915050565b6040518060800160405280600490602082028036833780820191505090505090565b5f80fd5b5f819050919050565b6111a981611197565b81146111b3575f80fd5b50565b5f813590506111c4816111a0565b92915050565b5f602082840312156111df576111de611193565b5b5f6111ec848285016111b6565b91505092915050565b6111fe81611197565b82525050565b5f6040820190506112175f8301856111f5565b61122460208301846111f5565b9392505050565b5f73ffffffffffffffffffffffffffffffffffffffff82169050919050565b5f6112548261122b565b9050919050565b6112648161124a565b811461126e575f80fd5b50565b5f8135905061127f8161125b565b92915050565b5f806040838503121561129b5761129a611193565b5b5f6112a8858286016111b6565b92505060206112b985828601611271565b9150509250929050565b5f8115159050919050565b6112d7816112c3565b82525050565b5f6020820190506112f05f8301846112ce565b92915050565b5f819050919050565b611308816112f6565b8114611312575f80fd5b50565b5f81359050611323816112ff565b92915050565b5f805f805f8060c0878903121561134357611342611193565b5b5f61135089828a01611315565b965050602061136189828a01611315565b955050604061137289828a01611315565b945050606061138389828a01611315565b935050608061139489828a01611315565b92505060a06113a589828a01611315565b9150509295509295509295565b5f80604083850312156113c8576113c7611193565b5b5f6113d5858286016111b6565b92505060206113e6858286016111b6565b9150509250929050565b5f7fffffffffffffffffffffffffffffffffffffffff00000000000000000000000082169050919050565b611424816113f0565b82525050565b5f60208201905061143d5f83018461141b565b92915050565b61144c816112f6565b82525050565b5f60c0820190506114655f830189611443565b6114726020830188611443565b61147f6040830187611443565b61148c6060830186611443565b6114996080830185611443565b6114a660a0830184611443565b979650505050505050565b5f805f805f805f60e0888a0312156114cc576114cb611193565b5b5f6114d98a828b01611315565b97505060206114ea8a828b01611315565b96505060406114fb8a828b01611315565b955050606061150c8a828b01611315565b945050608061151d8a828b01611315565b93505060a061152e8a828b01611315565b92505060c061153f8a828b01611271565b91505092959891949750929550565b5f8151905061155c816112ff565b92915050565b5f6020828403121561157757611576611193565b5b5f6115848482850161154e565b91505092915050565b611596816112c3565b81146115a0575f80fd5b50565b5f815190506115b18161158d565b92915050565b5f602082840312156115cc576115cb611193565b5b5f6115d9848285016115a3565b91505092915050565b5f819050919050565b6115fc6115f782611197565b6115e2565b82525050565b5f61160d82846115eb565b60208201915081905092915050565b5f81519050919050565b5f81905092915050565b5f5b8381101561164d578082015181840152602081019050611632565b5f8484015250505050565b5f6116628261161c565b61166c8185611626565b935061167c818560208601611630565b80840191505092915050565b5f6116938285611658565b915061169f8284611658565b91508190509392505050565b7f4e487b71000000000000000000000000000000000000000000000000000000005f52601260045260245ffd5b5f6116e2826112f6565b91506116ed836112f6565b9250826116fd576116fc6116ab565b5b828206905092915050565b5f60208201905061171b5f830184611443565b92915050565b5f805f805f8060c0878903121561173b5761173a611193565b5b5f61174889828a0161154e565b965050602061175989828a0161154e565b955050604061176a89828a0161154e565b945050606061177b89828a0161154e565b935050608061178c89828a0161154e565b92505060a061179d89828a0161154e565b9150509295509295509295565b7f4e487b71000000000000000000000000000000000000000000000000000000005f52601160045260245ffd5b5f6117e1826112f6565b91506117ec836112f6565b9250826117fc576117fb6116ab565b5b828204905092915050565b7f4e487b71000000000000000000000000000000000000000000000000000000005f52603260045260245ffd5b5f82825260208201905092915050565b7f557365206a6163446f75626c652066756e6374696f6e20696e737465616400005f82015250565b5f611878601e83611834565b915061188382611844565b602082019050919050565b5f6020820190508181035f8301526118a58161186c565b9050919050565b5f6118b6826112f6565b91506118c1836112f6565b92508282039050818111156118d9576118d86117aa565b5b92915050565b7f496e76616c6964206e756d6265720000000000000000000000000000000000005f82015250565b5f611913600e83611834565b915061191e826118df565b602082019050919050565b5f6020820190508181035f83015261194081611907565b9050919050565b5f611951826112f6565b915061195c836112f6565b925082820261196a816112f6565b91508282048414831517611981576119806117aa565b5b509291505056fea2646970667358221220357f809eafdb411df2b7d9bdfb35d76a61553ed7ac7894f46c2aeaef7377889f64736f6c63430008140033",
  "immutableReferences": {},
  "source": "// SPDX-License-Identifier: GPL-3.0\n\npragma solidity >=0.8.2 <0.9.0;\nimport \"./ECDSA.sol\";\nimport \"./Secp256k1.sol\";\nimport \"./EllipticCurve.sol\";\nimport \"./EllipticCurveFastMult.sol\";\nimport \"./zkp.sol\";\n\nlibrary accountVerification{\n    \n    function getPub_kFromPriv_k(bytes32 pr_k) public pure returns(bytes32, bytes32){\n            //uint256 GX=Secp256k1.getGX();\n            (uint256 pub_key_x, uint256 pub_key_y) = EllipticCurve.ecMul(uint256(pr_k), Secp256k1.getGX(), Secp256k1.getGY(), Secp256k1.getAA(), Secp256k1.getPP());\n            return (bytes32(pub_key_x), bytes32(pub_key_y));\n            \n    }\n\n    function getAddressFromPub_k(bytes32 x, bytes32 y) public pure returns (bytes20){\n        string memory x_s = string(abi.encodePacked(x));\n        string memory y_s = string(abi.encodePacked(y));\n        bytes32 hash = (keccak256(abi.encodePacked(x_s,y_s)));\n        uint160 u_hash = uint160(uint256(hash) % 2**160);\n        return bytes20(u_hash);\n    }\n\n    function verify(bytes32 pr_k, address a) public pure returns(bool){\n        (bytes32 pub_key_x, bytes32 pub_key_y) = getPub_kFromPriv_k(pr_k);\n        bytes20 addr = getAddressFromPub_k(pub_key_x, pub_key_y);\n        return a==address(addr);\n    }\n\n\n\n    function zkp_accountGen(bytes32 pr_k) public view returns (uint256, uint256, uint256, uint256, uint256, uint256){\n        //return uint256(pr_k);\n        return (zkp.Prover(uint256(pr_k)));\n    }\n\n    function zkp_accountVer(uint256 ux, uint256 uy, uint256 c, uint256 z, uint256 hx, uint256 hy) public view returns (bool){       \n            return (zkp.Verifier(ux,uy, c, z, hx, hy)) && address(getAddressFromPub_k(bytes32(hx),bytes32(hy)))==msg.sender;\n    }\n\n    function zkp_accountVer(uint256 ux, uint256 uy, uint256 c, uint256 z, uint256 hx, uint256 hy, address addr) public pure returns (bool){        \n            return (zkp.Verifier(ux,uy, c, z, hx, hy)) && address(getAddressFromPub_k(bytes32(hx),bytes32(hy)))==addr;\n    }\n\n\n\n    function test(bytes32 b, address addr) public view returns (bool){\n        (uint256 ux, uint256 uy, uint256 c, uint256 z, uint256 hx, uint256 hy) = zkp_accountGen(b);\n        //address addr = 0xe16C1623c1AA7D919cd2241d8b36d9E79C1Be2A2;\n        return zkp_accountVer(ux,  uy,  c,  z,  hx,  hy, addr);\n    } \n}",
  "sourcePath": "/home/davipase/Blockchain/HouseLocker/smart_contracts/Affitto/contracts/accountVerification.sol",
  "compiler": {
    "name": "solc",
    "version": "0.8.20+commit.a1b79de6.Emscripten.clang"
  },
  "schemaVersion": "3.4.14",
  "updatedAt": "2023-06-23T17:40:01.747Z",
  "networkType": "ethereum",
  "devdoc": {
    "kind": "dev",
    "methods": {},
    "version": 1
  },
  "userdoc": {
    "kind": "user",
    "methods": {},
    "version": 1
  }
}