{
  "contractName": "accountVerification",
  "abi": [
    {
      "inputs": [
        {
          "internalType": "bytes32",
          "name": "pr_k",
          "type": "bytes32"
        }
      ],
      "name": "getPub_kFromPriv_k",
      "outputs": [
        {
          "internalType": "bytes32",
          "name": "",
          "type": "bytes32"
        },
        {
          "internalType": "bytes32",
          "name": "",
          "type": "bytes32"
        }
      ],
      "stateMutability": "pure",
      "type": "function"
    },
    {
      "inputs": [
        {
          "internalType": "bytes32",
          "name": "x",
          "type": "bytes32"
        },
        {
          "internalType": "bytes32",
          "name": "y",
          "type": "bytes32"
        }
      ],
      "name": "getAddressFromPub_k",
      "outputs": [
        {
          "internalType": "bytes20",
          "name": "",
          "type": "bytes20"
        }
      ],
      "stateMutability": "pure",
      "type": "function"
    },
    {
      "inputs": [
        {
          "internalType": "bytes32",
          "name": "pr_k",
          "type": "bytes32"
        },
        {
          "internalType": "address",
          "name": "a",
          "type": "address"
        }
      ],
      "name": "verify",
      "outputs": [
        {
          "internalType": "bool",
          "name": "",
          "type": "bool"
        }
      ],
      "stateMutability": "pure",
      "type": "function"
    },
    {
      "inputs": [
        {
          "internalType": "bytes32",
          "name": "pr_k",
          "type": "bytes32"
        }
      ],
      "name": "zkp_accountGen",
      "outputs": [
        {
          "internalType": "uint256",
          "name": "",
          "type": "uint256"
        },
        {
          "internalType": "uint256",
          "name": "",
          "type": "uint256"
        },
        {
          "internalType": "uint256",
          "name": "",
          "type": "uint256"
        },
        {
          "internalType": "uint256",
          "name": "",
          "type": "uint256"
        },
        {
          "internalType": "uint256",
          "name": "",
          "type": "uint256"
        },
        {
          "internalType": "uint256",
          "name": "",
          "type": "uint256"
        }
      ],
      "stateMutability": "view",
      "type": "function"
    },
    {
      "inputs": [
        {
          "internalType": "uint256",
          "name": "ux",
          "type": "uint256"
        },
        {
          "internalType": "uint256",
          "name": "uy",
          "type": "uint256"
        },
        {
          "internalType": "uint256",
          "name": "c",
          "type": "uint256"
        },
        {
          "internalType": "uint256",
          "name": "z",
          "type": "uint256"
        },
        {
          "internalType": "uint256",
          "name": "hx",
          "type": "uint256"
        },
        {
          "internalType": "uint256",
          "name": "hy",
          "type": "uint256"
        }
      ],
      "name": "zkp_accountVer",
      "outputs": [
        {
          "internalType": "bool",
          "name": "",
          "type": "bool"
        }
      ],
      "stateMutability": "view",
      "type": "function"
    },
    {
      "inputs": [
        {
          "internalType": "uint256",
          "name": "ux",
          "type": "uint256"
        },
        {
          "internalType": "uint256",
          "name": "uy",
          "type": "uint256"
        },
        {
          "internalType": "uint256",
          "name": "c",
          "type": "uint256"
        },
        {
          "internalType": "uint256",
          "name": "z",
          "type": "uint256"
        },
        {
          "internalType": "uint256",
          "name": "hx",
          "type": "uint256"
        },
        {
          "internalType": "uint256",
          "name": "hy",
          "type": "uint256"
        },
        {
          "internalType": "address",
          "name": "addr",
          "type": "address"
        }
      ],
      "name": "zkp_accountVer",
      "outputs": [
        {
          "internalType": "bool",
          "name": "",
          "type": "bool"
        }
      ],
      "stateMutability": "pure",
      "type": "function"
    },
    {
      "inputs": [
        {
          "internalType": "bytes32",
          "name": "pr_k",
          "type": "bytes32"
        },
        {
          "internalType": "address",
          "name": "addr",
          "type": "address"
        }
      ],
      "name": "sanity_test",
      "outputs": [
        {
          "internalType": "bool",
          "name": "",
          "type": "bool"
        }
      ],
      "stateMutability": "pure",
      "type": "function"
    },
    {
      "inputs": [
        {
          "internalType": "bytes32",
          "name": "pr_k",
          "type": "bytes32"
        }
      ],
      "name": "sanity_test",
      "outputs": [
        {
          "internalType": "bool",
          "name": "",
          "type": "bool"
        }
      ],
      "stateMutability": "view",
      "type": "function"
    },
    {
      "inputs": [
        {
          "internalType": "bytes32",
          "name": "pr_k",
          "type": "bytes32"
        },
        {
          "internalType": "address",
          "name": "addr",
          "type": "address"
        }
      ],
      "name": "test",
      "outputs": [
        {
          "internalType": "bool",
          "name": "",
          "type": "bool"
        }
      ],
      "stateMutability": "view",
      "type": "function"
    }
  ],
  "bytecode": "0x611add61004e600b8282823980515f1a607314610042577f4e487b71000000000000000000000000000000000000000000000000000000005f525f60045260245ffd5b305f52607381538281f3fe730000000000000000000000000000000000000000301460806040526004361061009c575f3560e01c8063b88fbd2d1161006f578063b88fbd2d14610161578063c6dc6c5b14610191578063d18f88fc146101c1578063eabfdb22146101f1578063eb6edd38146102265761009c565b8063248bc802146100a05780633946799c146100d1578063478bf16d1461010157806357c35aa614610131575b5f80fd5b6100ba60048036038101906100b591906112e9565b610256565b6040516100c8929190611323565b60405180910390f35b6100eb60048036038101906100e691906113a4565b610426565b6040516100f891906113fc565b60405180910390f35b61011b600480360381019061011691906113a4565b61047b565b60405161012891906113fc565b60405180910390f35b61014b60048036038101906101469190611448565b6104b4565b60405161015891906113fc565b60405180910390f35b61017b600480360381019061017691906113a4565b610588565b60405161018891906113fc565b60405180910390f35b6101ab60048036038101906101a691906114d1565b6105e2565b6040516101b89190611549565b60405180910390f35b6101db60048036038101906101d691906112e9565b61068b565b6040516101e891906113fc565b60405180910390f35b61020b600480360381019061020691906112e9565b6106df565b60405161021d96959493929190611571565b60405180910390f35b610240600480360381019061023b91906115d0565b610772565b60405161024d91906113fc565b60405180910390f35b5f805f80610411855f1c73__Secp256k1_____________________________63fae2aea76040518163ffffffff1660e01b8152600401602060405180830381865af41580156102a7573d5f803e3d5ffd5b505050506040513d601f19601f820116820180604052508101906102cb9190611681565b73__Secp256k1_____________________________63eb2893fc6040518163ffffffff1660e01b8152600401602060405180830381865af4158015610312573d5f803e3d5ffd5b505050506040513d601f19601f820116820180604052508101906103369190611681565b73__Secp256k1_____________________________63e58e56c86040518163ffffffff1660e01b8152600401602060405180830381865af415801561037d573d5f803e3d5ffd5b505050506040513d601f19601f820116820180604052508101906103a19190611681565b73__Secp256k1_____________________________63c0988f0f6040518163ffffffff1660e01b8152600401602060405180830381865af41580156103e8573d5f803e3d5ffd5b505050506040513d601f19601f8201168201806040525081019061040c9190611681565b610847565b91509150815f1b815f1b935093505050915091565b5f805f61043285610256565b915091508373ffffffffffffffffffffffffffffffffffffffff1661045783836105e2565b60601c73ffffffffffffffffffffffffffffffffffffffff16149250505092915050565b5f805f805f805f61048b896106df565b9550955095509550955095506104a68686868686868e610772565b965050505050505092915050565b5f73__zkp___________________________________63cbfce0208888888888886040518763ffffffff1660e01b81526004016104f696959493929190611571565b602060405180830381865af4158015610511573d5f803e3d5ffd5b505050506040513d601f19601f8201168201806040525081019061053591906116d6565b801561057c57503373ffffffffffffffffffffffffffffffffffffffff16610561845f1b845f1b6105e2565b60601c73ffffffffffffffffffffffffffffffffffffffff16145b90509695505050505050565b5f805f61059485610256565b915091505f6105a383836105e2565b90508060601c73ffffffffffffffffffffffffffffffffffffffff168573ffffffffffffffffffffffffffffffffffffffff1614935050505092915050565b5f80836040516020016105f59190611721565b60405160208183030381529060405290505f836040516020016106189190611721565b60405160208183030381529060405290505f828260405160200161063d9291906117a7565b6040516020818303038152906040528051906020012090505f74010000000000000000000000000000000000000000825f1c61067991906117f7565b90508060601b94505050505092915050565b5f805f61069784610256565b915091503373ffffffffffffffffffffffffffffffffffffffff166106bc83836105e2565b60601c73ffffffffffffffffffffffffffffffffffffffff161492505050919050565b5f805f805f8073__zkp___________________________________636c2b90fd885f1c6040518263ffffffff1660e01b815260040161071e9190611827565b60c060405180830381865af4158015610739573d5f803e3d5ffd5b505050506040513d601f19601f8201168201806040525081019061075d9190611840565b95509550955095509550955091939550919395565b5f73__zkp___________________________________63cbfce0208989898989896040518763ffffffff1660e01b81526004016107b496959493929190611571565b602060405180830381865af41580156107cf573d5f803e3d5ffd5b505050506040513d601f19601f820116820180604052508101906107f391906116d6565b801561083a57508173ffffffffffffffffffffffffffffffffffffffff1661081f855f1b855f1b6105e2565b60601c73ffffffffffffffffffffffffffffffffffffffff16145b9050979650505050505050565b5f805f805f61085b8a8a8a60018b8b61087e565b92509250925061086d83838389610916565b945094505050509550959350505050565b5f805f8089036108965787878792509250925061090a565b5f8990505f805f600190505b5f84146108fc575f60018516146108cf576108c28383838f8f8f8e610988565b8093508194508295505050505b6002846108dc91906118f6565b93506108eb8c8c8c8c8c610ff3565b809c50819d50829e505050506108a2565b828282965096509650505050505b96509650969350505050565b5f805f61092385856111aa565b90505f8480610935576109346117ca565b5b82830990505f858061094a576109496117ca565b5b828a0990505f868061095f5761095e6117ca565b5b878061096e5761096d6117ca565b5b8486098a0990508181955095505050505094509492505050565b5f805f808a14801561099957505f89145b156109ac57868686925092509250610fe6565b5f871480156109ba57505f86145b156109cd57898989925092509250610fe6565b6109d5611290565b84806109e4576109e36117ca565b5b898a09815f600481106109fa576109f9611926565b5b6020020181815250508480610a1257610a116117ca565b5b815f60048110610a2557610a24611926565b5b60200201518a0981600160048110610a4057610a3f611926565b5b6020020181815250508480610a5857610a576117ca565b5b86870981600260048110610a6f57610a6e611926565b5b6020020181815250508480610a8757610a866117ca565b5b81600260048110610a9b57610a9a611926565b5b6020020151870981600360048110610ab657610ab5611926565b5b60200201818152505060405180608001604052808680610ad957610ad86117ca565b5b83600260048110610aed57610aec611926565b5b60200201518e0981526020018680610b0857610b076117ca565b5b83600360048110610b1c57610b1b611926565b5b60200201518d0981526020018680610b3757610b366117ca565b5b835f60048110610b4a57610b49611926565b5b60200201518b0981526020018680610b6557610b646117ca565b5b83600160048110610b7957610b78611926565b5b60200201518a09815250905080600260048110610b9957610b98611926565b5b6020020151815f60048110610bb157610bb0611926565b5b6020020151141580610bf3575080600360048110610bd257610bd1611926565b5b602002015181600160048110610beb57610bea611926565b5b602002015114155b610c32576040517f08c379a0000000000000000000000000000000000000000000000000000000008152600401610c29906119ad565b60405180910390fd5b610c3a611290565b8580610c4957610c486117ca565b5b825f60048110610c5c57610c5b611926565b5b602002015187610c6c91906119cb565b83600260048110610c8057610c7f611926565b5b602002015108815f60048110610c9957610c98611926565b5b6020020181815250508580610cb157610cb06117ca565b5b82600160048110610cc557610cc4611926565b5b602002015187610cd591906119cb565b83600360048110610ce957610ce8611926565b5b60200201510881600160048110610d0357610d02611926565b5b6020020181815250508580610d1b57610d1a6117ca565b5b815f60048110610d2e57610d2d611926565b5b6020020151825f60048110610d4657610d45611926565b5b60200201510981600260048110610d6057610d5f611926565b5b6020020181815250508580610d7857610d776117ca565b5b815f60048110610d8b57610d8a611926565b5b602002015182600260048110610da457610da3611926565b5b60200201510981600360048110610dbe57610dbd611926565b5b6020020181815250505f8680610dd757610dd66117ca565b5b82600360048110610deb57610dea611926565b5b602002015188610dfb91906119cb565b8880610e0a57610e096117ca565b5b84600160048110610e1e57610e1d611926565b5b602002015185600160048110610e3757610e36611926565b5b6020020151090890508680610e4f57610e4e6117ca565b5b8780610e5e57610e5d6117ca565b5b8880610e6d57610e6c6117ca565b5b84600260048110610e8157610e80611926565b5b6020020151865f60048110610e9957610e98611926565b5b60200201510960020988610ead91906119cb565b820890505f8780610ec157610ec06117ca565b5b8880610ed057610ecf6117ca565b5b838a610edc91906119cb565b8a80610eeb57610eea6117ca565b5b86600260048110610eff57610efe611926565b5b6020020151885f60048110610f1757610f16611926565b5b6020020151090884600160048110610f3257610f31611926565b5b60200201510990508780610f4957610f486117ca565b5b8880610f5857610f576117ca565b5b84600360048110610f6c57610f6b611926565b5b602002015186600160048110610f8557610f84611926565b5b60200201510989610f9691906119cb565b820890505f8880610faa57610fa96117ca565b5b8980610fb957610fb86117ca565b5b8b8f09855f60048110610fcf57610fce611926565b5b602002015109905082828297509750975050505050505b9750975097945050505050565b5f805f80860361100b5787878792509250925061119f565b5f848061101b5761101a6117ca565b5b898a0990505f85806110305761102f6117ca565b5b898a0990505f8680611045576110446117ca565b5b898a0990505f878061105a576110596117ca565b5b8880611069576110686117ca565b5b848e0960040990505f8880611081576110806117ca565b5b89806110905761108f6117ca565b5b8a8061109f5761109e6117ca565b5b8586098c098a806110b3576110b26117ca565b5b8760030908905088806110c9576110c86117ca565b5b89806110d8576110d76117ca565b5b8384088a6110e691906119cb565b8a806110f5576110f46117ca565b5b838409089450888061110a576111096117ca565b5b8980611119576111186117ca565b5b8a80611128576111276117ca565b5b8687096008098a61113991906119cb565b8a80611148576111476117ca565b5b8b80611157576111566117ca565b5b888d61116391906119cb565b860884090893508880611179576111786117ca565b5b8980611188576111876117ca565b5b8c8e09600209925084848497509750975050505050505b955095509592505050565b5f8083141580156111bb5750818314155b80156111c757505f8214155b611206576040517f08c379a00000000000000000000000000000000000000000000000000000000081526004016111fd90611a48565b60405180910390fd5b5f80600190505f8490505f5b5f871461128357868261122591906118f6565b9050828680611237576112366117ca565b5b8780611246576112456117ca565b5b8584098861125491906119cb565b8608809450819550505086878261126b9190611a66565b8361127691906119cb565b8098508193505050611212565b8394505050505092915050565b6040518060800160405280600490602082028036833780820191505090505090565b5f80fd5b5f819050919050565b6112c8816112b6565b81146112d2575f80fd5b50565b5f813590506112e3816112bf565b92915050565b5f602082840312156112fe576112fd6112b2565b5b5f61130b848285016112d5565b91505092915050565b61131d816112b6565b82525050565b5f6040820190506113365f830185611314565b6113436020830184611314565b9392505050565b5f73ffffffffffffffffffffffffffffffffffffffff82169050919050565b5f6113738261134a565b9050919050565b61138381611369565b811461138d575f80fd5b50565b5f8135905061139e8161137a565b92915050565b5f80604083850312156113ba576113b96112b2565b5b5f6113c7858286016112d5565b92505060206113d885828601611390565b9150509250929050565b5f8115159050919050565b6113f6816113e2565b82525050565b5f60208201905061140f5f8301846113ed565b92915050565b5f819050919050565b61142781611415565b8114611431575f80fd5b50565b5f813590506114428161141e565b92915050565b5f805f805f8060c08789031215611462576114616112b2565b5b5f61146f89828a01611434565b965050602061148089828a01611434565b955050604061149189828a01611434565b94505060606114a289828a01611434565b93505060806114b389828a01611434565b92505060a06114c489828a01611434565b9150509295509295509295565b5f80604083850312156114e7576114e66112b2565b5b5f6114f4858286016112d5565b9250506020611505858286016112d5565b9150509250929050565b5f7fffffffffffffffffffffffffffffffffffffffff00000000000000000000000082169050919050565b6115438161150f565b82525050565b5f60208201905061155c5f83018461153a565b92915050565b61156b81611415565b82525050565b5f60c0820190506115845f830189611562565b6115916020830188611562565b61159e6040830187611562565b6115ab6060830186611562565b6115b86080830185611562565b6115c560a0830184611562565b979650505050505050565b5f805f805f805f60e0888a0312156115eb576115ea6112b2565b5b5f6115f88a828b01611434565b97505060206116098a828b01611434565b965050604061161a8a828b01611434565b955050606061162b8a828b01611434565b945050608061163c8a828b01611434565b93505060a061164d8a828b01611434565b92505060c061165e8a828b01611390565b91505092959891949750929550565b5f8151905061167b8161141e565b92915050565b5f60208284031215611696576116956112b2565b5b5f6116a38482850161166d565b91505092915050565b6116b5816113e2565b81146116bf575f80fd5b50565b5f815190506116d0816116ac565b92915050565b5f602082840312156116eb576116ea6112b2565b5b5f6116f8848285016116c2565b91505092915050565b5f819050919050565b61171b611716826112b6565b611701565b82525050565b5f61172c828461170a565b60208201915081905092915050565b5f81519050919050565b5f81905092915050565b5f5b8381101561176c578082015181840152602081019050611751565b5f8484015250505050565b5f6117818261173b565b61178b8185611745565b935061179b81856020860161174f565b80840191505092915050565b5f6117b28285611777565b91506117be8284611777565b91508190509392505050565b7f4e487b71000000000000000000000000000000000000000000000000000000005f52601260045260245ffd5b5f61180182611415565b915061180c83611415565b92508261181c5761181b6117ca565b5b828206905092915050565b5f60208201905061183a5f830184611562565b92915050565b5f805f805f8060c0878903121561185a576118596112b2565b5b5f61186789828a0161166d565b965050602061187889828a0161166d565b955050604061188989828a0161166d565b945050606061189a89828a0161166d565b93505060806118ab89828a0161166d565b92505060a06118bc89828a0161166d565b9150509295509295509295565b7f4e487b71000000000000000000000000000000000000000000000000000000005f52601160045260245ffd5b5f61190082611415565b915061190b83611415565b92508261191b5761191a6117ca565b5b828204905092915050565b7f4e487b71000000000000000000000000000000000000000000000000000000005f52603260045260245ffd5b5f82825260208201905092915050565b7f557365206a6163446f75626c652066756e6374696f6e20696e737465616400005f82015250565b5f611997601e83611953565b91506119a282611963565b602082019050919050565b5f6020820190508181035f8301526119c48161198b565b9050919050565b5f6119d582611415565b91506119e083611415565b92508282039050818111156119f8576119f76118c9565b5b92915050565b7f496e76616c6964206e756d6265720000000000000000000000000000000000005f82015250565b5f611a32600e83611953565b9150611a3d826119fe565b602082019050919050565b5f6020820190508181035f830152611a5f81611a26565b9050919050565b5f611a7082611415565b9150611a7b83611415565b9250828202611a8981611415565b91508282048414831517611aa057611a9f6118c9565b5b509291505056fea2646970667358221220addf781981ca598681359d35ae358f7b68c3533c9cd2fe1993551a2c3eb478b064736f6c63430008140033",
  "immutableReferences": {},
  "source": "// SPDX-License-Identifier: GPL-3.0\r\n\r\npragma solidity >=0.8.2 <0.9.0;\r\nimport \"./ECDSA.sol\";\r\nimport \"./Secp256k1.sol\";\r\nimport \"./EllipticCurve.sol\";\r\nimport \"./EllipticCurveFastMult.sol\";\r\nimport \"./zkp.sol\";\r\n\r\nlibrary accountVerification{\r\n   \r\n    // Takes in a private key and returns the corresponding public key\r\n    // Everyone knows the input of a function. DO NOT USE IT IN A PUBLIC BLOCKCHAIN!\r\n\r\n    function getPub_kFromPriv_k(bytes32 pr_k) public pure returns(bytes32, bytes32){\r\n        (uint256 pub_key_x, uint256 pub_key_y) = EllipticCurve.ecMul(uint256(pr_k), Secp256k1.getGX(), Secp256k1.getGY(), Secp256k1.getAA(), Secp256k1.getPP());\r\n        return (bytes32(pub_key_x), bytes32(pub_key_y));\r\n    }\r\n\r\n    // Takes in a public key and returns the corresponding Ethereum address\r\n    function getAddressFromPub_k(bytes32 x, bytes32 y) public pure returns (bytes20){\r\n        string memory x_s = string(abi.encodePacked(x));\r\n        string memory y_s = string(abi.encodePacked(y));\r\n        bytes32 hash = (keccak256(abi.encodePacked(x_s,y_s)));\r\n        uint160 u_hash = uint160(uint256(hash) % 2**160);\r\n        return bytes20(u_hash);\r\n    }\r\n\r\n    // Takes in a private key and an Ethereum address and returns a boolean value indicating\r\n    // whether the private key corresponds to the given Ethereum address\r\n    // Everyone knows the input of a function. DO NOT USE IT IN A PUBLIC BLOCKCHAIN!\r\n    function verify(bytes32 pr_k, address a) public pure returns(bool){\r\n        (bytes32 pub_key_x, bytes32 pub_key_y) = getPub_kFromPriv_k(pr_k);\r\n        bytes20 addr = getAddressFromPub_k(pub_key_x, pub_key_y);\r\n        return a==address(addr);\r\n    }\r\n\r\n    // Takes in a private key and generates a zero-knowledge proof using the Prover function from the zkp library\r\n    // Everyone knows the input of a function. DO NOT USE IT IN A PUBLIC BLOCKCHAIN!\r\n    function zkp_accountGen(bytes32 pr_k) public view returns (uint256, uint256, uint256, uint256, uint256, uint256){\r\n        return (zkp.Prover(uint256(pr_k)));\r\n    }\r\n\r\n    // This version of the zkp_accountVer function takes in a sextuple generated by the Prover function and returns a boolean value indicating\r\n    // whether the proof is valid and correspond to the address of the the person that called\r\n    function zkp_accountVer(uint256 ux, uint256 uy, uint256 c, uint256 z, uint256 hx, uint256 hy) public view returns (bool){      \r\n        return (zkp.Verifier(ux,uy, c, z, hx, hy)) && address(getAddressFromPub_k(bytes32(hx),bytes32(hy)))==msg.sender;\r\n    }\r\n\r\n    // Takes in a sextuple generated by the Prover function and an Ethereum address and returns a boolean value indicating whether the proof\r\n    // is valid and corresponds to the given Ethereum address\r\n    function zkp_accountVer(uint256 ux, uint256 uy, uint256 c, uint256 z, uint256 hx, uint256 hy, address addr) public pure returns (bool){        \r\n        return (zkp.Verifier(ux, uy, c, z, hx, hy)) && address(getAddressFromPub_k(bytes32(hx),bytes32(hy)))==addr;\r\n    }\r\n\r\n\r\n    // Takes in a private key and an Ethereum address and performs a sanity check to see if the computation of the\r\n    // address from the private key is up to date\r\n    // Everyone knows the input of a function. This is only for test. DO NOT USE IT IN A PUBLIC BLOCKCHAIN!\r\n    function sanity_test(bytes32 pr_k, address addr) public pure returns (bool){\r\n        (bytes32 x, bytes32 y) = getPub_kFromPriv_k(pr_k);\r\n        return address(getAddressFromPub_k(x, y)) == addr;\r\n    }\r\n\r\n    // Takes in a private key and and performs a sanity check to see if the computation of the address\r\n    // from the private key is up to date, the address is taken directly from the sender\r\n    // Everyone knows the input of a function. This is only for test. DO NOT USE IT IN A PUBLIC BLOCKCHAIN!\r\n    function sanity_test(bytes32 pr_k) public view  returns (bool){\r\n        (bytes32 x, bytes32 y) = getPub_kFromPriv_k(pr_k);\r\n        return address(getAddressFromPub_k(x, y)) == msg.sender;\r\n    }\r\n   \r\n    // Takes in a private key and an Ethereum address and return whether the private key and the address are associated\r\n    // using the zkp, the function returns always true if you put your true data up to the correctness of zkp.\r\n    // Everyone knows the input of a function. This is only for test. DO NOT USE IT IN A PUBLIC BLOCKCHAIN!\r\n    function test(bytes32 pr_k, address addr) public view returns (bool){\r\n        (uint256 ux, uint256 uy, uint256 c, uint256 z, uint256 hx, uint256 hy) = zkp_accountGen(pr_k);\r\n        return zkp_accountVer(ux,  uy,  c,  z,  hx,  hy, addr);\r\n    }\r\n}",
  "sourcePath": "C:\\Users\\annag\\OneDrive\\Desktop\\Varie\\Unitn\\Blockchain\\HouseLocker\\smart_contracts\\Affitto\\contracts\\accountVerification.sol",
  "compiler": {
    "name": "solc",
    "version": "0.8.20+commit.a1b79de6.Emscripten.clang"
  },
  "schemaVersion": "3.4.14",
  "updatedAt": "2023-07-09T13:46:11.004Z",
  "devdoc": {
    "kind": "dev",
    "methods": {},
    "version": 1
  },
  "userdoc": {
    "kind": "user",
    "methods": {},
    "version": 1
  }
}