{
  "contractName": "Affitto",
  "abi": [
    {
      "inputs": [],
      "stateMutability": "nonpayable",
      "type": "constructor"
    },
    {
      "anonymous": false,
      "inputs": [
        {
          "indexed": false,
          "internalType": "string",
          "name": "func",
          "type": "string"
        },
        {
          "indexed": false,
          "internalType": "address",
          "name": "sender",
          "type": "address"
        },
        {
          "indexed": false,
          "internalType": "uint256",
          "name": "value",
          "type": "uint256"
        },
        {
          "indexed": false,
          "internalType": "bytes",
          "name": "data",
          "type": "bytes"
        }
      ],
      "name": "Log",
      "type": "event"
    },
    {
      "stateMutability": "payable",
      "type": "fallback",
      "payable": true
    },
    {
      "stateMutability": "payable",
      "type": "receive",
      "payable": true
    },
    {
      "inputs": [
        {
          "internalType": "bool",
          "name": "role_id",
          "type": "bool"
        },
        {
          "internalType": "uint256",
          "name": "a",
          "type": "uint256"
        },
        {
          "internalType": "uint256",
          "name": "b",
          "type": "uint256"
        },
        {
          "internalType": "uint256",
          "name": "c",
          "type": "uint256"
        },
        {
          "internalType": "uint256",
          "name": "d",
          "type": "uint256"
        },
        {
          "internalType": "uint256",
          "name": "e",
          "type": "uint256"
        },
        {
          "internalType": "uint256",
          "name": "f",
          "type": "uint256"
        }
      ],
      "name": "register_user",
      "outputs": [],
      "stateMutability": "nonpayable",
      "type": "function"
    },
    {
      "inputs": [
        {
          "internalType": "bool",
          "name": "role_id",
          "type": "bool"
        }
      ],
      "name": "register_user",
      "outputs": [],
      "stateMutability": "nonpayable",
      "type": "function"
    },
    {
      "inputs": [
        {
          "internalType": "uint256[]",
          "name": "rooms",
          "type": "uint256[]"
        },
        {
          "internalType": "uint256[]",
          "name": "deposits",
          "type": "uint256[]"
        }
      ],
      "name": "register_rooms",
      "outputs": [],
      "stateMutability": "nonpayable",
      "type": "function"
    },
    {
      "inputs": [
        {
          "internalType": "address payable",
          "name": "renter",
          "type": "address"
        }
      ],
      "name": "initialize",
      "outputs": [],
      "stateMutability": "nonpayable",
      "type": "function"
    },
    {
      "inputs": [
        {
          "internalType": "address payable",
          "name": "renter",
          "type": "address"
        },
        {
          "internalType": "uint256",
          "name": "room_id",
          "type": "uint256"
        }
      ],
      "name": "initialize",
      "outputs": [],
      "stateMutability": "nonpayable",
      "type": "function"
    },
    {
      "inputs": [],
      "name": "student_pay_deposit",
      "outputs": [],
      "stateMutability": "payable",
      "type": "function",
      "payable": true
    },
    {
      "inputs": [
        {
          "internalType": "uint256",
          "name": "contract_id",
          "type": "uint256"
        }
      ],
      "name": "renter_pay_deposit",
      "outputs": [],
      "stateMutability": "payable",
      "type": "function",
      "payable": true
    },
    {
      "inputs": [
        {
          "internalType": "uint256",
          "name": "contract_id",
          "type": "uint256"
        }
      ],
      "name": "withdraw_from_contract",
      "outputs": [],
      "stateMutability": "nonpayable",
      "type": "function"
    },
    {
      "inputs": [
        {
          "internalType": "uint256",
          "name": "contract_id",
          "type": "uint256"
        }
      ],
      "name": "end_contract_successfully",
      "outputs": [
        {
          "internalType": "bool",
          "name": "",
          "type": "bool"
        }
      ],
      "stateMutability": "nonpayable",
      "type": "function"
    },
    {
      "inputs": [
        {
          "internalType": "address",
          "name": "add",
          "type": "address"
        }
      ],
      "name": "get_user_info",
      "outputs": [
        {
          "internalType": "bool",
          "name": "",
          "type": "bool"
        },
        {
          "internalType": "uint256[]",
          "name": "",
          "type": "uint256[]"
        },
        {
          "internalType": "uint256",
          "name": "",
          "type": "uint256"
        },
        {
          "internalType": "bool",
          "name": "",
          "type": "bool"
        }
      ],
      "stateMutability": "view",
      "type": "function",
      "constant": true
    },
    {
      "inputs": [
        {
          "internalType": "address",
          "name": "a",
          "type": "address"
        }
      ],
      "name": "get_room_list",
      "outputs": [
        {
          "internalType": "uint256[]",
          "name": "",
          "type": "uint256[]"
        }
      ],
      "stateMutability": "view",
      "type": "function",
      "constant": true
    },
    {
      "inputs": [
        {
          "internalType": "uint256",
          "name": "contract_id",
          "type": "uint256"
        }
      ],
      "name": "get_contract_info",
      "outputs": [
        {
          "internalType": "uint256",
          "name": "",
          "type": "uint256"
        },
        {
          "internalType": "uint256",
          "name": "",
          "type": "uint256"
        },
        {
          "internalType": "bool",
          "name": "",
          "type": "bool"
        },
        {
          "internalType": "bool",
          "name": "",
          "type": "bool"
        },
        {
          "internalType": "uint256",
          "name": "",
          "type": "uint256"
        },
        {
          "internalType": "uint256",
          "name": "",
          "type": "uint256"
        },
        {
          "internalType": "bool",
          "name": "",
          "type": "bool"
        },
        {
          "internalType": "bool",
          "name": "",
          "type": "bool"
        },
        {
          "internalType": "address",
          "name": "",
          "type": "address"
        },
        {
          "internalType": "address",
          "name": "",
          "type": "address"
        }
      ],
      "stateMutability": "view",
      "type": "function",
      "constant": true
    },
    {
      "inputs": [
        {
          "internalType": "uint256",
          "name": "room_id",
          "type": "uint256"
        }
      ],
      "name": "get_deposit_in_wei",
      "outputs": [
        {
          "internalType": "uint256",
          "name": "",
          "type": "uint256"
        }
      ],
      "stateMutability": "view",
      "type": "function",
      "constant": true
    },
    {
      "inputs": [
        {
          "internalType": "uint256",
          "name": "room_id",
          "type": "uint256"
        }
      ],
      "name": "get_room_info",
      "outputs": [
        {
          "internalType": "uint256",
          "name": "",
          "type": "uint256"
        },
        {
          "internalType": "address",
          "name": "",
          "type": "address"
        },
        {
          "internalType": "bool",
          "name": "",
          "type": "bool"
        },
        {
          "internalType": "uint256",
          "name": "",
          "type": "uint256"
        }
      ],
      "stateMutability": "view",
      "type": "function",
      "constant": true
    },
    {
      "inputs": [
        {
          "internalType": "address",
          "name": "addr",
          "type": "address"
        },
        {
          "internalType": "uint256",
          "name": "contract_id",
          "type": "uint256"
        }
      ],
      "name": "check_if_already_paid",
      "outputs": [
        {
          "internalType": "bool",
          "name": "",
          "type": "bool"
        }
      ],
      "stateMutability": "view",
      "type": "function",
      "constant": true
    },
    {
      "inputs": [
        {
          "internalType": "address[]",
          "name": "source",
          "type": "address[]"
        },
        {
          "internalType": "address",
          "name": "element",
          "type": "address"
        }
      ],
      "name": "push_workaround",
      "outputs": [
        {
          "internalType": "address[]",
          "name": "",
          "type": "address[]"
        }
      ],
      "stateMutability": "pure",
      "type": "function",
      "constant": true
    }
  ],
  "bytecode": "0x6080604052305f806101000a81548173ffffffffffffffffffffffffffffffffffffffff021916908373ffffffffffffffffffffffffffffffffffffffff1602179055506602150df0ba6eda600955348015610059575f80fd5b505f600a8190555061434d8061006e5f395ff3fe6080604052600436106100f6575f3560e01c806399aa597811610089578063cd6dc68711610058578063cd6dc687146103b2578063d7b0e16b146103da578063db3189b714610416578063e206e1a11461043e57610136565b806399aa597814610319578063a1370f1b14610341578063b2f0190114610380578063c4d66de81461038a57610136565b80634b2e50a1116100c55780634b2e50a11461021d57806365cdf7c314610259578063774deb42146102955780638c4db025146102da57610136565b80631db8d6cd1461017557806322aece9c1461019157806322fd577a146101b95780633acbba6e146101e157610136565b36610136577ff7f75251dee7d7fc22deac3247729ebe7c86541f35930bf10c2a4207479a3b6c333460405161012c92919061329a565b60405180910390a1005b7ff7f75251dee7d7fc22deac3247729ebe7c86541f35930bf10c2a4207479a3b6c33345f3660405161016b949392919061337b565b60405180910390a1005b61018f600480360381019061018a9190613407565b61047a565b005b34801561019c575f80fd5b506101b760048036038101906101b29190613572565b6108d7565b005b3480156101c4575f80fd5b506101df60048036038101906101da919061361d565b610bef565b005b3480156101ec575f80fd5b50610207600480360381019061020291906136e4565b610cc0565b6040516102149190613731565b60405180910390f35b348015610228575f80fd5b50610243600480360381019061023e919061380a565b610f9b565b604051610250919061391b565b60405180910390f35b348015610264575f80fd5b5061027f600480360381019061027a9190613407565b61109a565b60405161028c9190613731565b60405180910390f35b3480156102a0575f80fd5b506102bb60048036038101906102b69190613407565b611377565b6040516102d19a9998979695949392919061393b565b60405180910390f35b3480156102e5575f80fd5b5061030060048036038101906102fb91906139d5565b61152f565b6040516103109493929190613ab7565b60405180910390f35b348015610324575f80fd5b5061033f600480360381019061033a9190613b01565b61169e565b005b34801561034c575f80fd5b5061036760048036038101906103629190613407565b611882565b6040516103779493929190613b2c565b60405180910390f35b61038861195f565b005b348015610395575f80fd5b506103b060048036038101906103ab9190613baa565b611d70565b005b3480156103bd575f80fd5b506103d860048036038101906103d39190613bd5565b6120e1565b005b3480156103e5575f80fd5b5061040060048036038101906103fb9190613407565b612543565b60405161040d9190613c13565b60405180910390f35b348015610421575f80fd5b5061043c60048036038101906104379190613407565b612572565b005b348015610449575f80fd5b50610464600480360381019061045f91906139d5565b61282e565b6040516104719190613c2c565b60405180910390f35b5f60015f8381526020019081526020015f20604051806101400160405290815f820154815260200160018201548152602001600282015f9054906101000a900460ff161515151581526020016002820160019054906101000a900460ff161515151581526020016003820154815260200160048201548152602001600582015f9054906101000a900460ff161515151581526020016005820160019054906101000a900460ff161515151581526020016005820160029054906101000a900473ffffffffffffffffffffffffffffffffffffffff1673ffffffffffffffffffffffffffffffffffffffff1673ffffffffffffffffffffffffffffffffffffffff168152602001600682015f9054906101000a900473ffffffffffffffffffffffffffffffffffffffff1673ffffffffffffffffffffffffffffffffffffffff1673ffffffffffffffffffffffffffffffffffffffff168152505090505f60035f3373ffffffffffffffffffffffffffffffffffffffff1673ffffffffffffffffffffffffffffffffffffffff1681526020019081526020015f205f015f9054906101000a900460ff1690505f600181111561063857610637613c4c565b5b81600181111561064b5761064a613c4c565b5b1461068b576040517f08c379a000000000000000000000000000000000000000000000000000000000815260040161068290613cc3565b60405180910390fd5b81610120015173ffffffffffffffffffffffffffffffffffffffff163373ffffffffffffffffffffffffffffffffffffffff16146106fe576040517f08c379a00000000000000000000000000000000000000000000000000000000081526004016106f590613cc3565b60405180910390fd5b5f60075f846020015181526020019081526020015f206002015490505f3490508160095461072c9190613d0e565b811461076d576040517f08c379a000000000000000000000000000000000000000000000000000000000815260040161076490613d99565b60405180910390fd5b808460a001818152505060018460600190151590811515815250508360015f8781526020019081526020015f205f820151815f0155602082015181600101556040820151816002015f6101000a81548160ff02191690831515021790555060608201518160020160016101000a81548160ff0219169083151502179055506080820151816003015560a0820151816004015560c0820151816005015f6101000a81548160ff02191690831515021790555060e08201518160050160016101000a81548160ff0219169083151502179055506101008201518160050160026101000a81548173ffffffffffffffffffffffffffffffffffffffff021916908373ffffffffffffffffffffffffffffffffffffffff160217905550610120820151816006015f6101000a81548173ffffffffffffffffffffffffffffffffffffffff021916908373ffffffffffffffffffffffffffffffffffffffff1602179055509050505050505050565b5f60018111156108ea576108e9613c4c565b5b60035f3373ffffffffffffffffffffffffffffffffffffffff1673ffffffffffffffffffffffffffffffffffffffff1681526020019081526020015f205f015f9054906101000a900460ff16600181111561094857610947613c4c565b5b14610988576040517f08c379a000000000000000000000000000000000000000000000000000000000815260040161097f90613e4d565b60405180910390fd5b80518251146109cc576040517f08c379a00000000000000000000000000000000000000000000000000000000081526004016109c390613edb565b60405180910390fd5b5f825190508060035f3373ffffffffffffffffffffffffffffffffffffffff1673ffffffffffffffffffffffffffffffffffffffff1681526020019081526020015f206002015f828254610a209190613ef9565b925050819055505f5b81811015610be9575f6040518060800160405280868481518110610a5057610a4f613f2c565b5b602002602001015181526020013373ffffffffffffffffffffffffffffffffffffffff1681526020015f15158152602001858481518110610a9457610a93613f2c565b5b6020026020010151815250905060055f3373ffffffffffffffffffffffffffffffffffffffff1673ffffffffffffffffffffffffffffffffffffffff1681526020019081526020015f20858381518110610af157610af0613f2c565b5b6020026020010151908060018154018082558091505060019003905f5260205f20015f90919091909150558060075f835f015181526020019081526020015f205f820151815f01556020820151816001015f6101000a81548173ffffffffffffffffffffffffffffffffffffffff021916908373ffffffffffffffffffffffffffffffffffffffff16021790555060408201518160010160146101000a81548160ff021916908315150217905550606082015181600201559050506008815f0151908060018154018082558091505060019003905f5260205f20015f9091909190915055508080610be190613f59565b915050610a29565b50505050565b6001151573__accountVerification___________________63eb6edd38888888888888336040518863ffffffff1660e01b8152600401610c369796959493929190613fbe565b602060405180830381865af4158015610c51573d5f803e3d5ffd5b505050506040513d601f19601f82011682018060405250810190610c75919061403f565b151514610cb7576040517f08c379a0000000000000000000000000000000000000000000000000000000008152600401610cae906140da565b60405180910390fd5b50505050505050565b5f8060035f8573ffffffffffffffffffffffffffffffffffffffff1673ffffffffffffffffffffffffffffffffffffffff1681526020019081526020015f205f015f9054906101000a900460ff1690505f60015f8581526020019081526020015f20604051806101400160405290815f820154815260200160018201548152602001600282015f9054906101000a900460ff161515151581526020016002820160019054906101000a900460ff161515151581526020016003820154815260200160048201548152602001600582015f9054906101000a900460ff161515151581526020016005820160019054906101000a900460ff161515151581526020016005820160029054906101000a900473ffffffffffffffffffffffffffffffffffffffff1673ffffffffffffffffffffffffffffffffffffffff1673ffffffffffffffffffffffffffffffffffffffff168152602001600682015f9054906101000a900473ffffffffffffffffffffffffffffffffffffffff1673ffffffffffffffffffffffffffffffffffffffff1673ffffffffffffffffffffffffffffffffffffffff168152505090505f6001811115610e7f57610e7e613c4c565b5b826001811115610e9257610e91613c4c565b5b03610f185780610120015173ffffffffffffffffffffffffffffffffffffffff168573ffffffffffffffffffffffffffffffffffffffff1614610f0a576040517f08c379a0000000000000000000000000000000000000000000000000000000008152600401610f0190613cc3565b60405180910390fd5b806060015192505050610f95565b80610100015173ffffffffffffffffffffffffffffffffffffffff168573ffffffffffffffffffffffffffffffffffffffff1614610f8b576040517f08c379a0000000000000000000000000000000000000000000000000000000008152600401610f8290613cc3565b60405180910390fd5b8060400151925050505b92915050565b60605f606083815f81518110610fb457610fb3613f2c565b5b602002602001019073ffffffffffffffffffffffffffffffffffffffff16908173ffffffffffffffffffffffffffffffffffffffff1681525050600191505b600185516110019190613ef9565b82101561108f578460018361101691906140f8565b8151811061102757611026613f2c565b5b602002602001015181838151811061104257611041613f2c565b5b602002602001019073ffffffffffffffffffffffffffffffffffffffff16908173ffffffffffffffffffffffffffffffffffffffff1681525050818061108790613f59565b925050610ff3565b809250505092915050565b5f8060015f8481526020019081526020015f20604051806101400160405290815f820154815260200160018201548152602001600282015f9054906101000a900460ff161515151581526020016002820160019054906101000a900460ff161515151581526020016003820154815260200160048201548152602001600582015f9054906101000a900460ff161515151581526020016005820160019054906101000a900460ff161515151581526020016005820160029054906101000a900473ffffffffffffffffffffffffffffffffffffffff1673ffffffffffffffffffffffffffffffffffffffff1673ffffffffffffffffffffffffffffffffffffffff168152602001600682015f9054906101000a900473ffffffffffffffffffffffffffffffffffffffff1673ffffffffffffffffffffffffffffffffffffffff1673ffffffffffffffffffffffffffffffffffffffff168152505090505f8060018081111561120c5761120b613c4c565b5b60035f3373ffffffffffffffffffffffffffffffffffffffff1673ffffffffffffffffffffffffffffffffffffffff1681526020019081526020015f205f015f9054906101000a900460ff16600181111561126a57611269613c4c565b5b036112905733915060018360c001901515908115158152505082610120015190506112ad565b33905060018360e001901515908115158152505082610100015191505b8260e0015180156112bf57508260c001515b1561136b576112cf8282876128c1565b8173ffffffffffffffffffffffffffffffffffffffff166108fc846080015190811502906040515f60405180830381858888f19350505050158015611316573d5f803e3d5ffd5b508073ffffffffffffffffffffffffffffffffffffffff166108fc8460a0015190811502906040515f60405180830381858888f1935050505015801561135e573d5f803e3d5ffd5b5060019350505050611372565b5f93505050505b919050565b5f805f805f805f805f805f60015f8d81526020019081526020015f20604051806101400160405290815f820154815260200160018201548152602001600282015f9054906101000a900460ff161515151581526020016002820160019054906101000a900460ff161515151581526020016003820154815260200160048201548152602001600582015f9054906101000a900460ff161515151581526020016005820160019054906101000a900460ff161515151581526020016005820160029054906101000a900473ffffffffffffffffffffffffffffffffffffffff1673ffffffffffffffffffffffffffffffffffffffff1673ffffffffffffffffffffffffffffffffffffffff168152602001600682015f9054906101000a900473ffffffffffffffffffffffffffffffffffffffff1673ffffffffffffffffffffffffffffffffffffffff1673ffffffffffffffffffffffffffffffffffffffff168152505090508b81602001518260400151836060015184608001518560a001518660c001518760e001518861010001518961012001519a509a509a509a509a509a509a509a509a509a50509193959799509193959799565b5f60605f805f60035f8773ffffffffffffffffffffffffffffffffffffffff1673ffffffffffffffffffffffffffffffffffffffff1681526020019081526020015f206040518060800160405290815f82015f9054906101000a900460ff1660018111156115a05761159f613c4c565b5b60018111156115b2576115b1613c4c565b5b81526020016001820180548060200260200160405190810160405280929190818152602001828054801561160357602002820191905f5260205f20905b8154815260200190600101908083116115ef575b5050505050815260200160028201548152602001600382015f9054906101000a900460ff16151515158152505090505f80600181111561164657611645613c4c565b5b825f0151600181111561165c5761165b613c4c565b5b0361166a576001905061166e565b5f90505b5f826020015190505f836040015190505f8460600151905083838383985098509850985050505050509193509193565b606081156117945760405180608001604052805f60018111156116c4576116c3613c4c565b5b81526020018281526020015f81526020016001151581525060035f3373ffffffffffffffffffffffffffffffffffffffff1673ffffffffffffffffffffffffffffffffffffffff1681526020019081526020015f205f820151815f015f6101000a81548160ff0219169083600181111561174157611740613c4c565b5b02179055506020820151816001019080519060200190611762929190613150565b50604082015181600201556060820151816003015f6101000a81548160ff02191690831515021790555090505061187e565b60405180608001604052806001808111156117b2576117b1613c4c565b5b81526020018281526020015f81526020016001151581525060035f3373ffffffffffffffffffffffffffffffffffffffff1673ffffffffffffffffffffffffffffffffffffffff1681526020019081526020015f205f820151815f015f6101000a81548160ff0219169083600181111561182f5761182e613c4c565b5b02179055506020820151816001019080519060200190611850929190613150565b50604082015181600201556060820151816003015f6101000a81548160ff0219169083151502179055509050505b5050565b5f805f805f60075f8781526020019081526020015f206040518060800160405290815f8201548152602001600182015f9054906101000a900473ffffffffffffffffffffffffffffffffffffffff1673ffffffffffffffffffffffffffffffffffffffff1673ffffffffffffffffffffffffffffffffffffffff1681526020016001820160149054906101000a900460ff1615151515815260200160028201548152505090505f815f015190505f826020015190505f836040015190505f8460600151905083838383985098509850985050505050509193509193565b5f60035f3373ffffffffffffffffffffffffffffffffffffffff1673ffffffffffffffffffffffffffffffffffffffff1681526020019081526020015f205f015f9054906101000a900460ff1690506001808111156119c1576119c0613c4c565b5b8160018111156119d4576119d3613c4c565b5b146119dd575f80fd5b5f60035f3373ffffffffffffffffffffffffffffffffffffffff1673ffffffffffffffffffffffffffffffffffffffff1681526020019081526020015f206001015f81548110611a3057611a2f613f2c565b5b905f5260205f20015490505f60015f8381526020019081526020015f20604051806101400160405290815f820154815260200160018201548152602001600282015f9054906101000a900460ff161515151581526020016002820160019054906101000a900460ff161515151581526020016003820154815260200160048201548152602001600582015f9054906101000a900460ff161515151581526020016005820160019054906101000a900460ff161515151581526020016005820160029054906101000a900473ffffffffffffffffffffffffffffffffffffffff1673ffffffffffffffffffffffffffffffffffffffff1673ffffffffffffffffffffffffffffffffffffffff168152602001600682015f9054906101000a900473ffffffffffffffffffffffffffffffffffffffff1673ffffffffffffffffffffffffffffffffffffffff1673ffffffffffffffffffffffffffffffffffffffff168152505090505f60075f836020015181526020019081526020015f206002015490505f34905081600954611bc59190613d0e565b8114611c06576040517f08c379a0000000000000000000000000000000000000000000000000000000008152600401611bfd90613d99565b60405180910390fd5b8083608001818152505060018360400190151590811515815250508260015f8681526020019081526020015f205f820151815f0155602082015181600101556040820151816002015f6101000a81548160ff02191690831515021790555060608201518160020160016101000a81548160ff0219169083151502179055506080820151816003015560a0820151816004015560c0820151816005015f6101000a81548160ff02191690831515021790555060e08201518160050160016101000a81548160ff0219169083151502179055506101008201518160050160026101000a81548173ffffffffffffffffffffffffffffffffffffffff021916908373ffffffffffffffffffffffffffffffffffffffff160217905550610120820151816006015f6101000a81548173ffffffffffffffffffffffffffffffffffffffff021916908373ffffffffffffffffffffffffffffffffffffffff1602179055509050505050505050565b5f3390505f805f90505f5b60035f8673ffffffffffffffffffffffffffffffffffffffff1673ffffffffffffffffffffffffffffffffffffffff1681526020019081526020015f2060020154811015611ec95760075f60055f8873ffffffffffffffffffffffffffffffffffffffff1673ffffffffffffffffffffffffffffffffffffffff1681526020019081526020015f208381548110611e1557611e14613f2c565b5b905f5260205f20015481526020019081526020015f2060010160149054906101000a900460ff16611eb6576001915060075f60055f8873ffffffffffffffffffffffffffffffffffffffff1673ffffffffffffffffffffffffffffffffffffffff1681526020019081526020015f208381548110611e9657611e95613f2c565b5b905f5260205f20015481526020019081526020015f205f01549250611ec9565b8080611ec190613f59565b915050611d7b565b505f600a549050600a5f815480929190611ee290613f59565b9190505550600160075f8581526020019081526020015f2060010160146101000a81548160ff0219169083151502179055505f6040518061014001604052808381526020018581526020015f151581526020015f151581526020015f81526020015f81526020015f151581526020015f151581526020018673ffffffffffffffffffffffffffffffffffffffff1681526020018773ffffffffffffffffffffffffffffffffffffffff1681525090508060015f8481526020019081526020015f205f820151815f0155602082015181600101556040820151816002015f6101000a81548160ff02191690831515021790555060608201518160020160016101000a81548160ff0219169083151502179055506080820151816003015560a0820151816004015560c0820151816005015f6101000a81548160ff02191690831515021790555060e08201518160050160016101000a81548160ff0219169083151502179055506101008201518160050160026101000a81548173ffffffffffffffffffffffffffffffffffffffff021916908373ffffffffffffffffffffffffffffffffffffffff160217905550610120820151816006015f6101000a81548173ffffffffffffffffffffffffffffffffffffffff021916908373ffffffffffffffffffffffffffffffffffffffff160217905550905050505050505050565b6120ea33612c58565b612129576040517f08c379a000000000000000000000000000000000000000000000000000000000815260040161212090614175565b60405180910390fd5b61213282612c58565b612171576040517f08c379a0000000000000000000000000000000000000000000000000000000008152600401612168906141dd565b60405180910390fd5b5f3390505f15156121828284612cad565b1515146121c4576040517f08c379a00000000000000000000000000000000000000000000000000000000081526004016121bb9061426b565b60405180910390fd5b8273ffffffffffffffffffffffffffffffffffffffff1660075f8481526020019081526020015f206001015f9054906101000a900473ffffffffffffffffffffffffffffffffffffffff1673ffffffffffffffffffffffffffffffffffffffff1614612265576040517f08c379a000000000000000000000000000000000000000000000000000000000815260040161225c906142f9565b60405180910390fd5b5f600a549050600a5f81548092919061227d90613f59565b9190505550600160075f8581526020019081526020015f2060010160146101000a81548160ff0219169083151502179055505f6040518061014001604052808381526020018581526020015f151581526020015f151581526020015f81526020015f81526020015f151581526020015f151581526020018473ffffffffffffffffffffffffffffffffffffffff1681526020018673ffffffffffffffffffffffffffffffffffffffff1681525090508060015f8481526020019081526020015f205f820151815f0155602082015181600101556040820151816002015f6101000a81548160ff02191690831515021790555060608201518160020160016101000a81548160ff0219169083151502179055506080820151816003015560a0820151816004015560c0820151816005015f6101000a81548160ff02191690831515021790555060e08201518160050160016101000a81548160ff0219169083151502179055506101008201518160050160026101000a81548173ffffffffffffffffffffffffffffffffffffffff021916908373ffffffffffffffffffffffffffffffffffffffff160217905550610120820151816006015f6101000a81548173ffffffffffffffffffffffffffffffffffffffff021916908373ffffffffffffffffffffffffffffffffffffffff16021790555090505060035f8473ffffffffffffffffffffffffffffffffffffffff1673ffffffffffffffffffffffffffffffffffffffff1681526020019081526020015f2060010182908060018154018082558091505060019003905f5260205f20015f909190919091505560035f8673ffffffffffffffffffffffffffffffffffffffff1673ffffffffffffffffffffffffffffffffffffffff1681526020019081526020015f2060010182908060018154018082558091505060019003905f5260205f20015f90919091909150555050505050565b5f8060075f8481526020019081526020015f206002015490506009548161256a9190613d0e565b915050919050565b5f3390505f8060015f8581526020019081526020015f20604051806101400160405290815f820154815260200160018201548152602001600282015f9054906101000a900460ff161515151581526020016002820160019054906101000a900460ff161515151581526020016003820154815260200160048201548152602001600582015f9054906101000a900460ff161515151581526020016005820160019054906101000a900460ff161515151581526020016005820160029054906101000a900473ffffffffffffffffffffffffffffffffffffffff1673ffffffffffffffffffffffffffffffffffffffff1673ffffffffffffffffffffffffffffffffffffffff168152602001600682015f9054906101000a900473ffffffffffffffffffffffffffffffffffffffff1673ffffffffffffffffffffffffffffffffffffffff1673ffffffffffffffffffffffffffffffffffffffff168152505090506001808111156126e6576126e5613c4c565b5b60035f3373ffffffffffffffffffffffffffffffffffffffff1673ffffffffffffffffffffffffffffffffffffffff1681526020019081526020015f205f015f9054906101000a900460ff16600181111561274457612743613c4c565b5b036127845760015f8581526020019081526020015f206006015f9054906101000a900473ffffffffffffffffffffffffffffffffffffffff1691506127bc565b60015f8581526020019081526020015f2060050160029054906101000a900473ffffffffffffffffffffffffffffffffffffffff1691505b5f816020015190506127d084848784612d8c565b8273ffffffffffffffffffffffffffffffffffffffff166108fc8360a0015184608001516127fe9190613ef9565b90811502906040515f60405180830381858888f19350505050158015612826573d5f803e3d5ffd5b505050505050565b606060055f8373ffffffffffffffffffffffffffffffffffffffff1673ffffffffffffffffffffffffffffffffffffffff1681526020019081526020015f208054806020026020016040519081016040528092919081815260200182805480156128b557602002820191905f5260205f20905b8154815260200190600101908083116128a1575b50505050509050919050565b60015f8281526020019081526020015f205f8082015f9055600182015f9055600282015f6101000a81549060ff02191690556002820160016101000a81549060ff0219169055600382015f9055600482015f9055600582015f6101000a81549060ff02191690556005820160016101000a81549060ff02191690556005820160026101000a81549073ffffffffffffffffffffffffffffffffffffffff0219169055600682015f6101000a81549073ffffffffffffffffffffffffffffffffffffffff021916905550505f60035f8573ffffffffffffffffffffffffffffffffffffffff1673ffffffffffffffffffffffffffffffffffffffff1681526020019081526020015f20600101805480602002602001604051908101604052809291908181526020018280548015612a1457602002820191905f5260205f20905b815481526020019060010190808311612a00575b5050505050905060605f60035f8673ffffffffffffffffffffffffffffffffffffffff1673ffffffffffffffffffffffffffffffffffffffff1681526020019081526020015f20600101805480602002602001604051908101604052809291908181526020018280548015612aa657602002820191905f5260205f20905b815481526020019060010190808311612a92575b5050505050905060605f5b8451811015612b295785858281518110612ace57612acd613f2c565b5b602002602001015114612b1657848181518110612aee57612aed613f2c565b5b6020026020010151848281518110612b0957612b08613f2c565b5b6020026020010181815250505b8080612b2190613f59565b915050612ab1565b508260035f8973ffffffffffffffffffffffffffffffffffffffff1673ffffffffffffffffffffffffffffffffffffffff1681526020019081526020015f206001019080519060200190612b7e929190613150565b505f5b8251811015612bf95785838281518110612b9e57612b9d613f2c565b5b602002602001015114612be657828181518110612bbe57612bbd613f2c565b5b6020026020010151828281518110612bd957612bd8613f2c565b5b6020026020010181815250505b8080612bf190613f59565b915050612b81565b508060035f8873ffffffffffffffffffffffffffffffffffffffff1673ffffffffffffffffffffffffffffffffffffffff1681526020019081526020015f206001019080519060200190612c4e929190613150565b5050505050505050565b5f60035f8373ffffffffffffffffffffffffffffffffffffffff1673ffffffffffffffffffffffffffffffffffffffff1681526020019081526020015f206003015f9054906101000a900460ff169050919050565b5f8060035f8573ffffffffffffffffffffffffffffffffffffffff1673ffffffffffffffffffffffffffffffffffffffff1681526020019081526020015f20600101805480602002602001604051908101604052809291908181526020018280548015612d3757602002820191905f5260205f20905b815481526020019060010190808311612d23575b505050505090505f81511180612d7257506001151560075f8581526020019081526020015f2060010160149054906101000a900460ff161515145b15612d81576001915050612d86565b5f9150505b92915050565b60015f8381526020019081526020015f205f8082015f9055600182015f9055600282015f6101000a81549060ff02191690556002820160016101000a81549060ff0219169055600382015f9055600482015f9055600582015f6101000a81549060ff02191690556005820160016101000a81549060ff02191690556005820160026101000a81549073ffffffffffffffffffffffffffffffffffffffff0219169055600682015f6101000a81549073ffffffffffffffffffffffffffffffffffffffff021916905550505f60075f8381526020019081526020015f2060010160146101000a81548160ff0219169083151502179055505f60035f8673ffffffffffffffffffffffffffffffffffffffff1673ffffffffffffffffffffffffffffffffffffffff1681526020019081526020015f20600101805480602002602001604051908101604052809291908181526020018280548015612f0b57602002820191905f5260205f20905b815481526020019060010190808311612ef7575b5050505050905060605f60035f8773ffffffffffffffffffffffffffffffffffffffff1673ffffffffffffffffffffffffffffffffffffffff1681526020019081526020015f20600101805480602002602001604051908101604052809291908181526020018280548015612f9d57602002820191905f5260205f20905b815481526020019060010190808311612f89575b5050505050905060605f5b84518110156130205786858281518110612fc557612fc4613f2c565b5b60200260200101511461300d57848181518110612fe557612fe4613f2c565b5b602002602001015184828151811061300057612fff613f2c565b5b6020026020010181815250505b808061301890613f59565b915050612fa8565b508260035f8a73ffffffffffffffffffffffffffffffffffffffff1673ffffffffffffffffffffffffffffffffffffffff1681526020019081526020015f206001019080519060200190613075929190613150565b505f5b82518110156130f0578683828151811061309557613094613f2c565b5b6020026020010151146130dd578281815181106130b5576130b4613f2c565b5b60200260200101518282815181106130d0576130cf613f2c565b5b6020026020010181815250505b80806130e890613f59565b915050613078565b508060035f8973ffffffffffffffffffffffffffffffffffffffff1673ffffffffffffffffffffffffffffffffffffffff1681526020019081526020015f206001019080519060200190613145929190613150565b505050505050505050565b828054828255905f5260205f2090810192821561318a579160200282015b8281111561318957825182559160200191906001019061316e565b5b509050613197919061319b565b5090565b5b808211156131b2575f815f90555060010161319c565b5090565b5f82825260208201905092915050565b7f66616c6c000000000000000000000000000000000000000000000000000000005f82015250565b5f6131fa6004836131b6565b9150613205826131c6565b602082019050919050565b5f73ffffffffffffffffffffffffffffffffffffffff82169050919050565b5f61323982613210565b9050919050565b6132498161322f565b82525050565b5f819050919050565b6132618161324f565b82525050565b5f82825260208201905092915050565b50565b5f6132855f83613267565b915061329082613277565b5f82019050919050565b5f6080820190508181035f8301526132b1816131ee565b90506132c06020830185613240565b6132cd6040830184613258565b81810360608301526132de8161327a565b90509392505050565b7f66616c6c6261636b0000000000000000000000000000000000000000000000005f82015250565b5f61331b6008836131b6565b9150613326826132e7565b602082019050919050565b828183375f83830152505050565b5f601f19601f8301169050919050565b5f61335a8385613267565b9350613367838584613331565b6133708361333f565b840190509392505050565b5f6080820190508181035f8301526133928161330f565b90506133a16020830187613240565b6133ae6040830186613258565b81810360608301526133c181848661334f565b905095945050505050565b5f604051905090565b5f80fd5b5f80fd5b6133e68161324f565b81146133f0575f80fd5b50565b5f81359050613401816133dd565b92915050565b5f6020828403121561341c5761341b6133d5565b5b5f613429848285016133f3565b91505092915050565b5f80fd5b7f4e487b71000000000000000000000000000000000000000000000000000000005f52604160045260245ffd5b61346c8261333f565b810181811067ffffffffffffffff8211171561348b5761348a613436565b5b80604052505050565b5f61349d6133cc565b90506134a98282613463565b919050565b5f67ffffffffffffffff8211156134c8576134c7613436565b5b602082029050602081019050919050565b5f80fd5b5f6134ef6134ea846134ae565b613494565b90508083825260208201905060208402830185811115613512576135116134d9565b5b835b8181101561353b578061352788826133f3565b845260208401935050602081019050613514565b5050509392505050565b5f82601f83011261355957613558613432565b5b81356135698482602086016134dd565b91505092915050565b5f8060408385031215613588576135876133d5565b5b5f83013567ffffffffffffffff8111156135a5576135a46133d9565b5b6135b185828601613545565b925050602083013567ffffffffffffffff8111156135d2576135d16133d9565b5b6135de85828601613545565b9150509250929050565b5f8115159050919050565b6135fc816135e8565b8114613606575f80fd5b50565b5f81359050613617816135f3565b92915050565b5f805f805f805f60e0888a031215613638576136376133d5565b5b5f6136458a828b01613609565b97505060206136568a828b016133f3565b96505060406136678a828b016133f3565b95505060606136788a828b016133f3565b94505060806136898a828b016133f3565b93505060a061369a8a828b016133f3565b92505060c06136ab8a828b016133f3565b91505092959891949750929550565b6136c38161322f565b81146136cd575f80fd5b50565b5f813590506136de816136ba565b92915050565b5f80604083850312156136fa576136f96133d5565b5b5f613707858286016136d0565b9250506020613718858286016133f3565b9150509250929050565b61372b816135e8565b82525050565b5f6020820190506137445f830184613722565b92915050565b5f67ffffffffffffffff82111561376457613763613436565b5b602082029050602081019050919050565b5f6137876137828461374a565b613494565b905080838252602082019050602084028301858111156137aa576137a96134d9565b5b835b818110156137d357806137bf88826136d0565b8452602084019350506020810190506137ac565b5050509392505050565b5f82601f8301126137f1576137f0613432565b5b8135613801848260208601613775565b91505092915050565b5f80604083850312156138205761381f6133d5565b5b5f83013567ffffffffffffffff81111561383d5761383c6133d9565b5b613849858286016137dd565b925050602061385a858286016136d0565b9150509250929050565b5f81519050919050565b5f82825260208201905092915050565b5f819050602082019050919050565b6138968161322f565b82525050565b5f6138a7838361388d565b60208301905092915050565b5f602082019050919050565b5f6138c982613864565b6138d3818561386e565b93506138de8361387e565b805f5b8381101561390e5781516138f5888261389c565b9750613900836138b3565b9250506001810190506138e1565b5085935050505092915050565b5f6020820190508181035f83015261393381846138bf565b905092915050565b5f6101408201905061394f5f83018d613258565b61395c602083018c613258565b613969604083018b613722565b613976606083018a613722565b6139836080830189613258565b61399060a0830188613258565b61399d60c0830187613722565b6139aa60e0830186613722565b6139b8610100830185613240565b6139c6610120830184613240565b9b9a5050505050505050505050565b5f602082840312156139ea576139e96133d5565b5b5f6139f7848285016136d0565b91505092915050565b5f81519050919050565b5f82825260208201905092915050565b5f819050602082019050919050565b613a328161324f565b82525050565b5f613a438383613a29565b60208301905092915050565b5f602082019050919050565b5f613a6582613a00565b613a6f8185613a0a565b9350613a7a83613a1a565b805f5b83811015613aaa578151613a918882613a38565b9750613a9c83613a4f565b925050600181019050613a7d565b5085935050505092915050565b5f608082019050613aca5f830187613722565b8181036020830152613adc8186613a5b565b9050613aeb6040830185613258565b613af86060830184613722565b95945050505050565b5f60208284031215613b1657613b156133d5565b5b5f613b2384828501613609565b91505092915050565b5f608082019050613b3f5f830187613258565b613b4c6020830186613240565b613b596040830185613722565b613b666060830184613258565b95945050505050565b5f613b7982613210565b9050919050565b613b8981613b6f565b8114613b93575f80fd5b50565b5f81359050613ba481613b80565b92915050565b5f60208284031215613bbf57613bbe6133d5565b5b5f613bcc84828501613b96565b91505092915050565b5f8060408385031215613beb57613bea6133d5565b5b5f613bf885828601613b96565b9250506020613c09858286016133f3565b9150509250929050565b5f602082019050613c265f830184613258565b92915050565b5f6020820190508181035f830152613c448184613a5b565b905092915050565b7f4e487b71000000000000000000000000000000000000000000000000000000005f52602160045260245ffd5b7f4461746120696e636f6e73697374656e637900000000000000000000000000005f82015250565b5f613cad6012836131b6565b9150613cb882613c79565b602082019050919050565b5f6020820190508181035f830152613cda81613ca1565b9050919050565b7f4e487b71000000000000000000000000000000000000000000000000000000005f52601160045260245ffd5b5f613d188261324f565b9150613d238361324f565b9250828202613d318161324f565b91508282048414831517613d4857613d47613ce1565b5b5092915050565b7f57726f6e6720616d6f756e7420706169640000000000000000000000000000005f82015250565b5f613d836011836131b6565b9150613d8e82613d4f565b602082019050919050565b5f6020820190508181035f830152613db081613d77565b9050919050565b7f596f7520617265206e6f7420612072656e746572207468657265666f726520795f8201527f6f75277265206e6f7420616c6c6f77656420746f20726567697374657220726f60208201527f6f6d730000000000000000000000000000000000000000000000000000000000604082015250565b5f613e376043836131b6565b9150613e4282613db7565b606082019050919050565b5f6020820190508181035f830152613e6481613e2b565b9050919050565b7f496e636f6e73697374656e7420696e666f726d6174696f6e2070726f766964655f8201527f642e000000000000000000000000000000000000000000000000000000000000602082015250565b5f613ec56022836131b6565b9150613ed082613e6b565b604082019050919050565b5f6020820190508181035f830152613ef281613eb9565b9050919050565b5f613f038261324f565b9150613f0e8361324f565b9250828201905080821115613f2657613f25613ce1565b5b92915050565b7f4e487b71000000000000000000000000000000000000000000000000000000005f52603260045260245ffd5b5f613f638261324f565b91507fffffffffffffffffffffffffffffffffffffffffffffffffffffffffffffffff8203613f9557613f94613ce1565b5b600182019050919050565b613fa98161324f565b82525050565b613fb88161322f565b82525050565b5f60e082019050613fd15f83018a613fa0565b613fde6020830189613fa0565b613feb6040830188613fa0565b613ff86060830187613fa0565b6140056080830186613fa0565b61401260a0830185613fa0565b61401f60c0830184613faf565b98975050505050505050565b5f81519050614039816135f3565b92915050565b5f60208284031215614054576140536133d5565b5b5f6140618482850161402b565b91505092915050565b7f55736572206973206e6f7420746865206f776e6572206f6620746865206164645f8201527f7265737300000000000000000000000000000000000000000000000000000000602082015250565b5f6140c46024836131b6565b91506140cf8261406a565b604082019050919050565b5f6020820190508181035f8301526140f1816140b8565b9050919050565b5f6141028261324f565b915061410d8361324f565b925082820390508181111561412557614124613ce1565b5b92915050565b7f596f7520617265206e6f7420616e20617574686f72697a6564207573657200005f82015250565b5f61415f601e836131b6565b915061416a8261412b565b602082019050919050565b5f6020820190508181035f83015261418c81614153565b9050919050565b7f52656e746572206973206e6f7420616e20617574686f72697a656420757365725f82015250565b5f6141c76020836131b6565b91506141d282614193565b602082019050919050565b5f6020820190508181035f8301526141f4816141bb565b9050919050565b7f53747564656e74206f7220726f6f6d20616c726561647920696e20636f6e74725f8201527f6163740000000000000000000000000000000000000000000000000000000000602082015250565b5f6142556023836131b6565b9150614260826141fb565b604082019050919050565b5f6020820190508181035f83015261428281614249565b9050919050565b7f496e636f6e73697374656e6379206265747765656e20726f6f6d206f776e65725f8201527f20616e642072656e746572000000000000000000000000000000000000000000602082015250565b5f6142e3602b836131b6565b91506142ee82614289565b604082019050919050565b5f6020820190508181035f830152614310816142d7565b905091905056fea26469706673582212206ed28827ca882136deaa2bfb9dd1c835da0e8d6d923110e72ea84462ff73be9264736f6c63430008140033",
  "immutableReferences": {},
  "source": "// SPDX-License-Identifier: GPL - 3.0\n\npragma solidity >= 0.7.0;\n//import \"hardhat/console.sol\";\nimport \"./accountVerification.sol\";\n\ncontract Affitto {\n\n    event Log(string func, address sender, uint value, bytes data);\n\n    struct contract_instance {\n        uint contract_id;\n        uint room_id;\n        bool student_paid;\n        bool renter_paid;\n        uint amt_paid_student;\n        uint amt_paid_renter;\n        bool concluded_student;\n        bool concluded_renter;\n        address payable student;\n        address payable renter;\n    }\n\n    struct room {\n        uint id;\n        address owner;\n        bool occupied;\n        uint deposit;\n    }\n\n    // the bool variable already_init is used to check if the couple (key, struct) has already been explicitely set (solidity automatically )\n    struct user {\n        Role role;\n        uint[] room_record;\n        uint num_rooms;\n        bool already_init;\n    }\n\n    enum Role {\n        Renter,\n        Student\n    }\n\n    address payable contract_address = payable(address(this));\n    mapping(uint => contract_instance) contract_record;         // associa a ogni id la rispettiva struct di contratto\n    uint[] contract_record_keys;\n    mapping(address => user) user_info;\n    address[] user_info_keys;                        // associa a ogni indirizzo il suo ruolo (student: 0, renter: 1)\n    mapping(address => uint[]) renters_rooms;                  // associa a ogni renter un array che contiene l'id delle sue stanze\n    address[] renters_rooms_keys;\n    mapping(uint => room) rooms_record; \n    uint[] rooms_record_keys;   \n    uint conversion_rate = 586099570929370;                     // DA CHIEDERE ALL'ESTERNO?\n    uint num_contracts;                                         // var globale che incremento a ogni nuovo contratto e la uso come id\n\n    constructor() {\n        //contract_record = new mapping(uint => contract_instance); // non chiaro come si inizializza\n        num_contracts = 0;\n    }\n\n    function register_user(bool role_id, uint a, uint b, uint c, uint d, uint e, uint f) public {\n\n        // Doesn't allow double registrations\n        require(accountVerification.zkp_accountVer(a, b, c, d, e, f, msg.sender) == true, \"User is not the owner of the address\");\n        // if(accountVerification.zkp_accountVer(a, b, c, d, e, f, msg.sender) == false) {\n        //     revert(\"account verification error\");\n        // }\n        // require(!user_info[msg.sender].already_init, \"User already registered\");\n        // if(user_info[msg.sender].already_init){\n        //     revert(\"User already registered\");\n        // }\n        // uint256[] memory array;\n        // // require(msg.sender == address(0), \"caso 1\");\n        // // require(msg.sender == address(1), \"caso 2\");\n        // // false --> student, true --> renter\n        // if (role_id) {\n        //     user_info[msg.sender] = user({\n        //         role: Role.Renter, \n        //         room_record: array, \n        //         num_rooms: 0, \n        //         already_init: true\n        //     });\n        //     // user_info_keys = push_workaround(user_info_keys, msg.sender);\n        // }\n        // else {\n        //     user_info[msg.sender] = user({\n        //         role: Role.Student, \n        //         room_record: array, \n        //         num_rooms: 0, \n        //         already_init: true\n        //     });\n        //     // user_info_keys = push_workaround(user_info_keys, msg.sender);\n        // }\n        // user_info_keys.push(msg.sender);\n        \n    }\n\n    function register_user(bool role_id) public {\n\n        // Doesn't allow double registrations\n        // require(accountVerification.zkp_accountVer(a, b, c, d, e, f, msg.sender) == true, \"User is not the owner of the address\");\n        // if(accountVerification.zkp_accountVer(a, b, c, d, e, f, msg.sender) == false) {\n        //     revert(\"account verification error\");\n        // }\n        // require(!user_info[msg.sender].already_init, \"User already registered\");\n        // if(user_info[msg.sender].already_init){\n        //     revert(\"User already registered\");\n        // }\n        uint256[] memory array;\n        // require(msg.sender == address(0), \"caso 1\");\n        // require(msg.sender == address(1), \"caso 2\");\n        // false --> student, true --> renter\n        if (role_id) {\n            user_info[msg.sender] = user({\n                role: Role.Renter, \n                room_record: array, \n                num_rooms: 0, \n                already_init: true\n            });\n            // user_info_keys = push_workaround(user_info_keys, msg.sender);\n        }\n        else {\n            user_info[msg.sender] = user({\n                role: Role.Student, \n                room_record: array, \n                num_rooms: 0, \n                already_init: true\n            });\n        //     // user_info_keys = push_workaround(user_info_keys, msg.sender);\n        // }\n        // user_info_keys.push(msg.sender);\n        \n        }\n    }\n\n    function register_rooms(uint[] memory rooms, uint[] memory deposits) public {\n        // controlliamo che il chiamante sia un renter\n        require(user_info[msg.sender].role == Role.Renter, \"You are not a renter therefore you're not allowed to register rooms\");\n        require(rooms.length == deposits.length, \"Inconsistent information provided.\");\n        uint l = rooms.length;\n        user_info[msg.sender].num_rooms += l; \n        // TODO: VERIFICARE CHE IL RENTER SIA EFFETTIVAMENTE IL PROPRIETARIO DELLE STANZE (sia fa una zkp nelle nft? chi lo sa)\n\n        for (uint i = 0; i < l; i++) {\n            room memory new_room = room({id: rooms[i], owner: msg.sender, occupied: false, deposit: deposits[i]});\n            renters_rooms[msg.sender].push(rooms[i]);\n            rooms_record[new_room.id] = new_room;\n            rooms_record_keys.push(new_room.id);\n        }\n        \n    }   \n\n    // If the student has his heart already set on a specific room \n    function initialize(address payable renter, uint room_id) public {\n        require(check_user_already_registered(msg.sender), \"You are not an authorized user\");\n        require(check_user_already_registered(renter), \"Renter is not an authorized user\");\n\n        address payable student = payable(msg.sender);\n        \n        // check che lo studente non sia gi in una \"istanza\" di contratto o che la stanza non sia gi occupata\n        require(check_if_already_in_contract(student, room_id) == false, \"Student or room already in contract\"); // controllare che l'inizializzazione venga interrotta e venga emesso il messaggio di errore\n        \n        // check that the renter is the room's owner\n        require(rooms_record[room_id].owner == renter, \"Inconsistency between room owner and renter\");\n\n        // se n lo student n la stanza sono gi in un contratto, possiamo procedere alla creazione della struct che rappresenta l'istanza del contratto\n        uint new_id = num_contracts;\n        num_contracts++;\n        rooms_record[room_id].occupied = true;\n        contract_instance memory instance = contract_instance({\n            contract_id: new_id, \n            room_id: room_id, \n            student_paid: false, \n            renter_paid: false, \n            amt_paid_student: 0, \n            amt_paid_renter: 0, \n            concluded_student: false, \n            concluded_renter: false, \n            student: student, \n            renter: renter\n        });\n\n        contract_record[new_id] = instance;\n        // contract_record_keys.push(new_id);\n        user_info[student].room_record.push(new_id);\n        user_info[renter].room_record.push(new_id);\n    }\n\n    // if the student doesn't care about which room he gets assigned\n    function initialize(address payable renter) public {\n        // require(check_user_already_registered(msg.sender), \"You are not an authorized user\");\n        // require(check_user_already_registered(renter), \"Renter is not an authorized user\");\n        address payable student = payable(msg.sender);\n        \n        uint room_id;\n        bool room_found = false;\n\n        // Checks if the owner has any rooms available\n        for (uint i = 0; i < user_info[renter].num_rooms; i++) {\n            if (!rooms_record[renters_rooms[renter][i]].occupied) {\n                room_found = true;\n                room_id = rooms_record[renters_rooms[renter][i]].id;\n                break;\n            }\n        }\n        \n        // require(room_found, \"This renter's rooms are all already occupied\"); \n\n        uint new_id = num_contracts;\n        num_contracts++;\n        rooms_record[room_id].occupied = true;\n        contract_instance memory instance = contract_instance({\n            contract_id: new_id, \n            room_id: room_id, \n            student_paid: false, \n            renter_paid: false, \n            amt_paid_student: 0, \n            amt_paid_renter: 0, \n            concluded_student: false, \n            concluded_renter: false, \n            student: student, \n            renter: renter\n        });\n        contract_record[new_id] = instance;\n        // user_info[student].room_record.push(new_id);\n        // user_info[renter].room_record.push(new_id);\n    \n    }\n\n    \n    function student_pay_deposit() public payable {\n        Role role = user_info[msg.sender].role;\n        require(role == Role.Student);\n        \n        uint contract_id = user_info[msg.sender].room_record[0];\n        contract_instance memory instance = contract_record[contract_id];\n        uint deposit = rooms_record[instance.room_id].deposit;\n        uint paid_amount = msg.value;\n        require(paid_amount == conversion_rate * deposit, \"Wrong amount paid\");\n        \n        instance.amt_paid_student = paid_amount;\n        instance.student_paid = true;\n        contract_record[contract_id] = instance;\n        \n    }\n\n    function renter_pay_deposit(uint contract_id) public payable {\n        contract_instance memory instance = contract_record[contract_id];\n        Role role = user_info[msg.sender].role;\n        require(role == Role.Renter, \"Data inconsistency\"); // probabilmente inutile (gi implicitamente incluso nel secondo require)\n        require(msg.sender == instance.renter, \"Data inconsistency\");\n        uint deposit = rooms_record[instance.room_id].deposit;\n        uint paid_amount = msg.value;\n        require(paid_amount == conversion_rate * deposit, \"Wrong amount paid\"); \n        instance.amt_paid_renter = paid_amount;\n        instance.renter_paid = true;\n        contract_record[contract_id] = instance;    \n    }\n\n    function withdraw_from_contract(uint contract_id) public {\n        // IDEA: lo studente non pu ritirarsi prima di aver pagato la caparra, oppure pu ritirarsi gratuitamente nel lasso di tempo \n        // che ha per pagare la caparra\n        address receder = msg.sender;\n        address other;\n        contract_instance memory instance = contract_record[contract_id];\n        if (user_info[msg.sender].role == Role.Student) {\n            other = contract_record[contract_id].renter;\n        }\n        else {\n            other = contract_record[contract_id].student;\n        }\n        uint room_id = instance.room_id;\n\n        delete_contract_instance(receder, other, contract_id, room_id);\n        \n        \n        payable(other).transfer(instance.amt_paid_student + instance.amt_paid_renter);\n    }\n\n    \n\n    function end_contract_successfully(uint contract_id) public returns (bool) {\n        contract_instance memory instance = contract_record[contract_id];\n        address student;\n        address renter;\n        if (user_info[msg.sender].role == Role.Student) {\n            student = msg.sender;\n            instance.concluded_student = true;\n            renter = instance.renter;\n        }\n        else {\n            renter = msg.sender;\n            instance.concluded_renter = true;\n            student = instance.student;\n        }\n\n        if (instance.concluded_renter && instance.concluded_student) {\n            delete_contract_instance(student, renter, contract_id);\n            payable(student).transfer(instance.amt_paid_student);\n            payable(renter).transfer(instance.amt_paid_renter);\n            return true;\n        }\n        return false;\n    }\n\n\n    function get_user_info(address add) public view returns (bool, uint[] memory, uint, bool) {\n        user memory u = user_info[add];\n        bool role;\n        if (u.role == Role.Renter) {\n            role = true;\n        }\n        else {\n            role = false;\n        }\n        uint[] memory room_record = u.room_record;\n        uint num_rooms = u.num_rooms;\n        bool already_init = u.already_init;\n        return (role, room_record, num_rooms, already_init);\n    }\n\n    function get_room_list(address a) public view returns (uint[] memory) {\n        return renters_rooms[a];\n    }\n\n    function get_contract_info(uint256 contract_id) public view returns (uint, uint, bool, bool, uint, uint, bool, bool, address, address) {\n        contract_instance memory instance = contract_record[contract_id];\n        return (contract_id, instance.room_id, instance.student_paid, instance.renter_paid, instance.amt_paid_student, instance.amt_paid_renter, instance.concluded_student, instance.concluded_renter, instance.student, instance.renter);\n    }\n\n    function get_deposit_in_wei(uint room_id) public view returns (uint){\n        uint deposit = rooms_record[room_id].deposit;\n        return (deposit * conversion_rate);\n    }\n\n    function get_room_info(uint room_id) public view returns (uint, address, bool, uint) {\n        room memory r = rooms_record[room_id];\n        uint id = r.id;\n        address owner = r.owner;\n        bool occupied = r.occupied;\n        uint deposit = r.deposit;\n        return (id, owner, occupied, deposit);\n    }\n\n\n    /* function get_contract_record() public view {\n        for (uint i = 0; i < contract_record_keys.length; i++) {\n            (uint a, uint b, bool c, bool d, uint e, uint f, bool g, bool h, address j, address k) = get_contract_info(contract_record_keys[i]);\n            console.log(a);\n            console.log(b);\n            console.log(c);\n            console.log(d);\n            console.log(e);\n            console.log(f);\n            console.log(g);\n            console.log(h);\n            console.log(j);\n            console.log(k);\n            console.log(\"\\n\");\n            console.log(\"\\n\");\n        }\n    } */\n\n    function check_if_already_paid(address addr, uint contract_id) public view returns (bool) {\n        Role role = user_info[addr].role;\n        contract_instance memory instance = contract_record[contract_id];\n        if (role == Role.Renter) {\n            require(addr == instance.renter, \"Data inconsistency\");\n            return instance.renter_paid;\n        }\n        else {\n            require(addr == instance.student, \"Data inconsistency\");\n            return instance.student_paid;\n        }\n    }\n\n\n    function check_if_already_in_contract(address student, uint room_id) private view returns (bool) {\n        // controlla se lo studente o la stanza (disgiunzione inclusiva) sono gi in un contratto\n        \n        uint[] memory student_array = user_info[student].room_record;\n\n        if (student_array.length > 0 || rooms_record[room_id].occupied == true) {\n            return true;\n        }\n        return false;\n\n    }\n\n    function check_user_already_registered(address add) private view returns (bool) {\n        return user_info[add].already_init;\n    } \n\n    function delete_contract_instance(address a1, address a2, uint contract_id, uint room_id) private {\n        \n        // delete the contract instance\n        delete(contract_record[contract_id]);\n        // remove(contract_record_keys, contract_id);\n\n        // mark the room as not occupied\n        rooms_record[room_id].occupied = false;\n        \n        // modify the list of contract instances the addresses are a part of\n        uint[] memory a1_record = user_info[a1].room_record;\n        uint[] memory a1_new_record; // la lunghezza  uno in meno perch tolgo l'id di contratto dall'array\n        uint[] memory a2_record = user_info[a2].room_record;\n        uint[] memory a2_new_record;\n\n\n        for (uint i = 0; i < a1_record.length; i++) {\n            if (a1_record[i] != contract_id) {\n                a1_new_record[i] = a1_record[i];\n            }  \n        }\n        user_info[a1].room_record = a1_new_record; \n\n        for (uint i = 0; i < a2_record.length; i++) {\n            if (a2_record[i] != contract_id) {\n                a2_new_record[i] = a2_record[i];\n            }  \n        }\n        user_info[a2].room_record = a2_new_record;\n    }\n\n    // the contract ends successfully \n    // the difference with the other delete_contract_instance is that the room doesn't get marked as free\n    function delete_contract_instance(address a1, address a2, uint contract_id) private {\n        \n        // delete the contract instance\n        delete(contract_record[contract_id]);\n        // remove(contract_record_keys, contract_id);\n        \n        // modify the list of contract instances the addresses are a part of\n        uint[] memory a1_record = user_info[a1].room_record;\n        uint[] memory a1_new_record; // la lunghezza  uno in meno perch tolgo l'id di contratto dall'array\n        uint[] memory a2_record = user_info[a2].room_record;\n        uint[] memory a2_new_record;\n\n\n        for (uint i = 0; i < a1_record.length; i++) {\n            if (a1_record[i] != contract_id) {\n                a1_new_record[i] = a1_record[i];\n            }  \n        }\n        user_info[a1].room_record = a1_new_record; \n\n        for (uint i = 0; i < a2_record.length; i++) {\n            if (a2_record[i] != contract_id) {\n                a2_new_record[i] = a2_record[i];\n            }  \n        }\n        user_info[a2].room_record = a2_new_record;\n    }  \n\n\n    function check_if_user_already_registered(address addr) private view returns (bool) {\n        return user_info[addr].already_init;\n    }\n\n    fallback() external payable {\n        emit Log(\"fallback\", msg.sender, msg.value, msg.data);\n    }\n\n    receive() external payable {\n        emit Log(\"fall\", msg.sender, msg.value, \"\");\n    }\n\n    function remove(uint[] storage array, uint element) private {\n        uint index;\n        bool found = false;\n        for(uint i = 0; i < array.length; i++) {\n            if (array[i] == element) {\n                index = i;\n                found = true;\n                break;\n            }\n        }\n        require(found, \"Element not present in array\");\n        array[index] = array[array.length - 1];\n        array.pop();\n    }\n\n    function remove(address[] storage array, address element) private {\n        uint index;\n        bool found = false;\n        for(uint i = 0; i < array.length; i++) {\n            if (array[i] == element) {\n                index = i;\n                found = true;\n                break;\n            }\n        }\n        require(found, \"Element not present in array\");\n        array[index] = array[array.length - 1];\n        array.pop();\n    }\n\n\n    function push_workaround(address[] memory source, address element) public pure returns(address[] memory){\n        uint i=0;\n        address[] memory ret;\n        ret[0] = element;\n        for (i=1; i<source.length+1; i++){\n            ret[i] = source[i-1];\n        }\n        return ret;\n    }\n\n}\n\n",
  "sourcePath": "/home/davipase/Blockchain/HouseLocker/smart_contracts/Affitto/contracts/Affitto.sol",
  "compiler": {
    "name": "solc",
    "version": "0.8.20+commit.a1b79de6.Emscripten.clang"
  },
  "schemaVersion": "3.4.14",
  "updatedAt": "2023-06-23T17:40:01.720Z",
  "networkType": "ethereum",
  "devdoc": {
    "kind": "dev",
    "methods": {},
    "version": 1
  },
  "userdoc": {
    "kind": "user",
    "methods": {},
    "version": 1
  }
}