{
  "contractName": "Affitto",
  "abi": [
    {
      "inputs": [],
      "stateMutability": "nonpayable",
      "type": "constructor"
    },
    {
      "anonymous": false,
      "inputs": [
        {
          "indexed": false,
          "internalType": "string",
          "name": "func",
          "type": "string"
        },
        {
          "indexed": false,
          "internalType": "address",
          "name": "sender",
          "type": "address"
        },
        {
          "indexed": false,
          "internalType": "uint256",
          "name": "value",
          "type": "uint256"
        },
        {
          "indexed": false,
          "internalType": "bytes",
          "name": "data",
          "type": "bytes"
        }
      ],
      "name": "Log",
      "type": "event"
    },
    {
      "stateMutability": "payable",
      "type": "fallback"
    },
    {
      "stateMutability": "payable",
      "type": "receive"
    },
    {
      "inputs": [],
      "name": "register_landlord",
      "outputs": [],
      "stateMutability": "nonpayable",
      "type": "function"
    },
    {
      "inputs": [],
      "name": "register_student",
      "outputs": [],
      "stateMutability": "nonpayable",
      "type": "function"
    },
    {
      "inputs": [
        {
          "internalType": "uint256[]",
          "name": "rooms",
          "type": "uint256[]"
        },
        {
          "internalType": "uint256[]",
          "name": "deposits",
          "type": "uint256[]"
        }
      ],
      "name": "register_rooms",
      "outputs": [],
      "stateMutability": "nonpayable",
      "type": "function"
    },
    {
      "inputs": [
        {
          "internalType": "address payable",
          "name": "landlord",
          "type": "address"
        },
        {
          "internalType": "uint256",
          "name": "room_id",
          "type": "uint256"
        },
        {
          "internalType": "uint256",
          "name": "timestamp",
          "type": "uint256"
        }
      ],
      "name": "initialize",
      "outputs": [],
      "stateMutability": "nonpayable",
      "type": "function"
    },
    {
      "inputs": [],
      "name": "student_pay_deposit",
      "outputs": [],
      "stateMutability": "payable",
      "type": "function"
    },
    {
      "inputs": [
        {
          "internalType": "uint256",
          "name": "contract_id",
          "type": "uint256"
        }
      ],
      "name": "landlord_pay_deposit",
      "outputs": [],
      "stateMutability": "payable",
      "type": "function"
    },
    {
      "inputs": [
        {
          "internalType": "uint256",
          "name": "contract_id",
          "type": "uint256"
        }
      ],
      "name": "withdraw_from_contract",
      "outputs": [],
      "stateMutability": "nonpayable",
      "type": "function"
    },
    {
      "inputs": [
        {
          "internalType": "uint256",
          "name": "contract_id",
          "type": "uint256"
        }
      ],
      "name": "end_contract_successfully",
      "outputs": [
        {
          "internalType": "bool",
          "name": "",
          "type": "bool"
        }
      ],
      "stateMutability": "nonpayable",
      "type": "function"
    },
    {
      "inputs": [
        {
          "internalType": "uint256",
          "name": "contract_id",
          "type": "uint256"
        }
      ],
      "name": "hibernate_contract",
      "outputs": [],
      "stateMutability": "nonpayable",
      "type": "function"
    },
    {
      "inputs": [
        {
          "internalType": "uint256",
          "name": "contract_id",
          "type": "uint256"
        }
      ],
      "name": "de_hibernate_contract",
      "outputs": [],
      "stateMutability": "nonpayable",
      "type": "function"
    },
    {
      "inputs": [
        {
          "internalType": "uint256",
          "name": "contract_id",
          "type": "uint256"
        }
      ],
      "name": "admit_fault",
      "outputs": [],
      "stateMutability": "nonpayable",
      "type": "function"
    },
    {
      "inputs": [
        {
          "internalType": "uint256",
          "name": "current_timestamp",
          "type": "uint256"
        }
      ],
      "name": "check_unstable_contracts_validity",
      "outputs": [
        {
          "internalType": "uint256[]",
          "name": "",
          "type": "uint256[]"
        }
      ],
      "stateMutability": "nonpayable",
      "type": "function"
    },
    {
      "inputs": [
        {
          "internalType": "uint256",
          "name": "contract_id",
          "type": "uint256"
        }
      ],
      "name": "get_contract_info",
      "outputs": [
        {
          "internalType": "uint256",
          "name": "",
          "type": "uint256"
        },
        {
          "internalType": "uint256",
          "name": "",
          "type": "uint256"
        },
        {
          "internalType": "bool",
          "name": "",
          "type": "bool"
        },
        {
          "internalType": "bool",
          "name": "",
          "type": "bool"
        },
        {
          "internalType": "uint256",
          "name": "",
          "type": "uint256"
        },
        {
          "internalType": "uint256",
          "name": "",
          "type": "uint256"
        },
        {
          "internalType": "bool",
          "name": "",
          "type": "bool"
        },
        {
          "internalType": "bool",
          "name": "",
          "type": "bool"
        },
        {
          "internalType": "address",
          "name": "",
          "type": "address"
        },
        {
          "internalType": "address",
          "name": "",
          "type": "address"
        },
        {
          "internalType": "enum Affitto.ContractPhase",
          "name": "",
          "type": "uint8"
        }
      ],
      "stateMutability": "view",
      "type": "function"
    },
    {
      "inputs": [
        {
          "internalType": "uint256",
          "name": "room_id",
          "type": "uint256"
        }
      ],
      "name": "get_student_deposit_in_wei",
      "outputs": [
        {
          "internalType": "uint256",
          "name": "",
          "type": "uint256"
        }
      ],
      "stateMutability": "view",
      "type": "function"
    },
    {
      "inputs": [],
      "name": "get_landlord_deposit_in_wei",
      "outputs": [
        {
          "internalType": "uint256",
          "name": "",
          "type": "uint256"
        }
      ],
      "stateMutability": "view",
      "type": "function"
    },
    {
      "inputs": [
        {
          "internalType": "address",
          "name": "addr",
          "type": "address"
        },
        {
          "internalType": "uint256",
          "name": "contract_id",
          "type": "uint256"
        }
      ],
      "name": "check_if_already_paid",
      "outputs": [
        {
          "internalType": "bool",
          "name": "",
          "type": "bool"
        }
      ],
      "stateMutability": "view",
      "type": "function"
    }
  ],
  "bytecode": "0x60806040526602150df0ba6eda60065534801561001a575f80fd5b50600160078190555060646008819055506202a3006009819055506158b180620000435f395ff3fe6080604052600436106100f6575f3560e01c80637a1ac61e11610089578063d3b9cdb611610058578063d3b9cdb614610389578063db3189b71461039f578063e5518c57146103c7578063f9cd93f4146103ef57610136565b80637a1ac61e146103255780638bc576151461034d578063b2f0190114610369578063b7e0bc031461037357610136565b806356fc8756116100c557806356fc87561461023d578063582887e91461026757806365cdf7c3146102a3578063774deb42146102df57610136565b8063061245451461017557806322aece9c146101b15780632a10e970146101d95780633acbba6e1461020157610136565b36610136577ff7f75251dee7d7fc22deac3247729ebe7c86541f35930bf10c2a4207479a3b6c333460405161012c9291906143ff565b60405180910390a1005b7ff7f75251dee7d7fc22deac3247729ebe7c86541f35930bf10c2a4207479a3b6c33345f3660405161016b94939291906144e0565b60405180910390a1005b348015610180575f80fd5b5061019b6004803603810190610196919061456c565b610417565b6040516101a8919061464e565b60405180910390f35b3480156101bc575f80fd5b506101d760048036038101906101d291906147ae565b6107aa565b005b3480156101e4575f80fd5b506101ff60048036038101906101fa919061456c565b610a99565b005b34801561020c575f80fd5b506102276004803603810190610222919061484e565b610e5f565b60405161023491906148a6565b60405180910390f35b348015610248575f80fd5b5061025161117b565b60405161025e91906148bf565b60405180910390f35b348015610272575f80fd5b5061028d6004803603810190610288919061456c565b611191565b60405161029a91906148bf565b60405180910390f35b3480156102ae575f80fd5b506102c960048036038101906102c4919061456c565b6111e1565b6040516102d691906148a6565b60405180910390f35b3480156102ea575f80fd5b506103056004803603810190610300919061456c565b61183c565b60405161031c9b9a9998979695949392919061494b565b60405180910390f35b348015610330575f80fd5b5061034b60048036038101906103469190614a2f565b611a42565b005b6103676004803603810190610362919061456c565b612085565b005b6103716125eb565b005b34801561037e575f80fd5b50610387612b0b565b005b348015610394575f80fd5b5061039d612c86565b005b3480156103aa575f80fd5b506103c560048036038101906103c0919061456c565b612e01565b005b3480156103d2575f80fd5b506103ed60048036038101906103e8919061456c565b6133a1565b005b3480156103fa575f80fd5b506104156004803603810190610410919061456c565b61385f565b005b60605f60018054905067ffffffffffffffff81111561043957610438614672565b5b6040519080825280602002602001820160405280156104675781602001602082028036833780820191505090505b5090505f5b6001805490508110156107a0575f6001828154811061048e5761048d614a7f565b5b905f5260205f20015490505f805f8381526020019081526020015f20604051806101800160405290815f820154815260200160018201548152602001600282015f9054906101000a900473ffffffffffffffffffffffffffffffffffffffff1673ffffffffffffffffffffffffffffffffffffffff1673ffffffffffffffffffffffffffffffffffffffff168152602001600382015f9054906101000a900473ffffffffffffffffffffffffffffffffffffffff1673ffffffffffffffffffffffffffffffffffffffff1673ffffffffffffffffffffffffffffffffffffffff1681526020016003820160149054906101000a900460ff161515151581526020016003820160159054906101000a900460ff161515151581526020016004820154815260200160058201548152602001600682015f9054906101000a900460ff161515151581526020016006820160019054906101000a900460ff1615151515815260200160078201548152602001600882015f9054906101000a900460ff1660028111156106205761061f6148d8565b5b6002811115610632576106316148d8565b5b8152505090505f600281111561064b5761064a6148d8565b5b8161016001516002811115610663576106626148d8565b5b148015610682575060095481610140015161067e9190614ad9565b8610155b1561078b578184848151811061069b5761069a614a7f565b5b60200260200101818152505080608001511561071a57806040015173ffffffffffffffffffffffffffffffffffffffff166108fc600b600a8460c001516106e29190614b0c565b6106ec9190614b7a565b90811502906040515f60405180830381858888f19350505050158015610714573d5f803e3d5ffd5b50610772565b8060a001511561077157806060015173ffffffffffffffffffffffffffffffffffffffff166108fc8260e0015190811502906040515f60405180830381858888f1935050505015801561076f573d5f803e3d5ffd5b505b5b61078a81604001518260600151848460200151613c87565b5b5050808061079890614baa565b91505061046c565b5080915050919050565b5f60018111156107bd576107bc6148d8565b5b60025f3373ffffffffffffffffffffffffffffffffffffffff1673ffffffffffffffffffffffffffffffffffffffff1681526020019081526020015f205f015f9054906101000a900460ff16600181111561081b5761081a6148d8565b5b1461085b576040517f08c379a000000000000000000000000000000000000000000000000000000000815260040161085290614c87565b60405180910390fd5b805182511461089f576040517f08c379a000000000000000000000000000000000000000000000000000000000815260040161089690614d15565b60405180910390fd5b5f825190508060025f3373ffffffffffffffffffffffffffffffffffffffff1673ffffffffffffffffffffffffffffffffffffffff1681526020019081526020015f206002015f8282546108f39190614ad9565b925050819055505f5b81811015610a93575f604051806080016040528086848151811061092357610922614a7f565b5b602002602001015181526020013373ffffffffffffffffffffffffffffffffffffffff1681526020015f1515815260200185848151811061096757610966614a7f565b5b6020026020010151815250905060035f3373ffffffffffffffffffffffffffffffffffffffff1673ffffffffffffffffffffffffffffffffffffffff1681526020019081526020015f208583815181106109c4576109c3614a7f565b5b6020026020010151908060018154018082558091505060019003905f5260205f20015f90919091909150558060045f835f015181526020019081526020015f205f820151815f01556020820151816001015f6101000a81548173ffffffffffffffffffffffffffffffffffffffff021916908373ffffffffffffffffffffffffffffffffffffffff16021790555060408201518160010160146101000a81548160ff02191690831515021790555060608201518160020155905050508080610a8b90614baa565b9150506108fc565b50505050565b5f805f8381526020019081526020015f20604051806101800160405290815f820154815260200160018201548152602001600282015f9054906101000a900473ffffffffffffffffffffffffffffffffffffffff1673ffffffffffffffffffffffffffffffffffffffff1673ffffffffffffffffffffffffffffffffffffffff168152602001600382015f9054906101000a900473ffffffffffffffffffffffffffffffffffffffff1673ffffffffffffffffffffffffffffffffffffffff1673ffffffffffffffffffffffffffffffffffffffff1681526020016003820160149054906101000a900460ff161515151581526020016003820160159054906101000a900460ff161515151581526020016004820154815260200160058201548152602001600682015f9054906101000a900460ff161515151581526020016006820160019054906101000a900460ff1615151515815260200160078201548152602001600882015f9054906101000a900460ff166002811115610c2057610c1f6148d8565b5b6002811115610c3257610c316148d8565b5b8152505090503373ffffffffffffffffffffffffffffffffffffffff16816040015173ffffffffffffffffffffffffffffffffffffffff161480610ca557503373ffffffffffffffffffffffffffffffffffffffff16816060015173ffffffffffffffffffffffffffffffffffffffff16145b610ce4576040517f08c379a0000000000000000000000000000000000000000000000000000000008152600401610cdb90614dc9565b60405180910390fd5b600280811115610cf757610cf66148d8565b5b8161016001516002811115610d0f57610d0e6148d8565b5b14610d4f576040517f08c379a0000000000000000000000000000000000000000000000000000000008152600401610d4690614e7d565b60405180910390fd5b5f3373ffffffffffffffffffffffffffffffffffffffff16826040015173ffffffffffffffffffffffffffffffffffffffff1603610d935781606001519050610d9b565b816040015190505b5f600b600a8460c00151610daf9190614b0c565b610db99190614b7a565b8360e00151610dc89190614ad9565b90508173ffffffffffffffffffffffffffffffffffffffff166108fc8290811502906040515f60405180830381858888f19350505050158015610e0d573d5f803e3d5ffd5b5060055f8581526020019081526020015f205f6101000a81549073ffffffffffffffffffffffffffffffffffffffff0219169055610e5983604001518460600151868660200151613c87565b50505050565b5f8060025f8573ffffffffffffffffffffffffffffffffffffffff1673ffffffffffffffffffffffffffffffffffffffff1681526020019081526020015f205f015f9054906101000a900460ff1690505f805f8581526020019081526020015f20604051806101800160405290815f820154815260200160018201548152602001600282015f9054906101000a900473ffffffffffffffffffffffffffffffffffffffff1673ffffffffffffffffffffffffffffffffffffffff1673ffffffffffffffffffffffffffffffffffffffff168152602001600382015f9054906101000a900473ffffffffffffffffffffffffffffffffffffffff1673ffffffffffffffffffffffffffffffffffffffff1673ffffffffffffffffffffffffffffffffffffffff1681526020016003820160149054906101000a900460ff161515151581526020016003820160159054906101000a900460ff161515151581526020016004820154815260200160058201548152602001600682015f9054906101000a900460ff161515151581526020016006820160019054906101000a900460ff1615151515815260200160078201548152602001600882015f9054906101000a900460ff166002811115611036576110356148d8565b5b6002811115611048576110476148d8565b5b8152505090505f6001811115611061576110606148d8565b5b826001811115611074576110736148d8565b5b036110f957806060015173ffffffffffffffffffffffffffffffffffffffff168573ffffffffffffffffffffffffffffffffffffffff16146110eb576040517f08c379a00000000000000000000000000000000000000000000000000000000081526004016110e290614ee5565b60405180910390fd5b8060a0015192505050611175565b806040015173ffffffffffffffffffffffffffffffffffffffff168573ffffffffffffffffffffffffffffffffffffffff161461116b576040517f08c379a000000000000000000000000000000000000000000000000000000000815260040161116290614f4d565b60405180910390fd5b8060800151925050505b92915050565b5f60065460085461118c9190614b0c565b905090565b5f8060045f8481526020019081526020015f206002015490505f600654826111b99190614b0c565b90505f600a826111c99190614b7a565b905080826111d79190614ad9565b9350505050919050565b5f805f808481526020019081526020015f20604051806101800160405290815f820154815260200160018201548152602001600282015f9054906101000a900473ffffffffffffffffffffffffffffffffffffffff1673ffffffffffffffffffffffffffffffffffffffff1673ffffffffffffffffffffffffffffffffffffffff168152602001600382015f9054906101000a900473ffffffffffffffffffffffffffffffffffffffff1673ffffffffffffffffffffffffffffffffffffffff1673ffffffffffffffffffffffffffffffffffffffff1681526020016003820160149054906101000a900460ff161515151581526020016003820160159054906101000a900460ff161515151581526020016004820154815260200160058201548152602001600682015f9054906101000a900460ff161515151581526020016006820160019054906101000a900460ff1615151515815260200160078201548152602001600882015f9054906101000a900460ff166002811115611369576113686148d8565b5b600281111561137b5761137a6148d8565b5b81525050905060016002811115611395576113946148d8565b5b81610160015160028111156113ad576113ac6148d8565b5b146113b6575f80fd5b5f806001808111156113cb576113ca6148d8565b5b60025f3373ffffffffffffffffffffffffffffffffffffffff1673ffffffffffffffffffffffffffffffffffffffff1681526020019081526020015f205f015f9054906101000a900460ff166001811115611429576114286148d8565b5b036114c1573391508173ffffffffffffffffffffffffffffffffffffffff16836040015173ffffffffffffffffffffffffffffffffffffffff16146114a3576040517f08c379a000000000000000000000000000000000000000000000000000000000815260040161149a90614fdb565b60405180910390fd5b600183610100019015159081151581525050826060015190506115c7565b5f60018111156114d4576114d36148d8565b5b60025f3373ffffffffffffffffffffffffffffffffffffffff1673ffffffffffffffffffffffffffffffffffffffff1681526020019081526020015f205f015f9054906101000a900460ff166001811115611532576115316148d8565b5b036115c6573390508073ffffffffffffffffffffffffffffffffffffffff16836060015173ffffffffffffffffffffffffffffffffffffffff16146115ac576040517f08c379a00000000000000000000000000000000000000000000000000000000081526004016115a390614fdb565b60405180910390fd5b600183610120019015159081151581525050826040015191505b5b82610120015180156115db57508261010001515b156116ae575f60065460045f866020015181526020019081526020015f20600201546116079190614b0c565b90508173ffffffffffffffffffffffffffffffffffffffff166108fc8290811502906040515f60405180830381858888f1935050505015801561164c573d5f803e3d5ffd5b508173ffffffffffffffffffffffffffffffffffffffff166108fc8560e0015190811502906040515f60405180830381858888f19350505050158015611694573d5f803e3d5ffd5b506116a18383885f613c87565b6001945050505050611837565b825f808781526020019081526020015f205f820151815f0155602082015181600101556040820151816002015f6101000a81548173ffffffffffffffffffffffffffffffffffffffff021916908373ffffffffffffffffffffffffffffffffffffffff1602179055506060820151816003015f6101000a81548173ffffffffffffffffffffffffffffffffffffffff021916908373ffffffffffffffffffffffffffffffffffffffff16021790555060808201518160030160146101000a81548160ff02191690831515021790555060a08201518160030160156101000a81548160ff02191690831515021790555060c0820151816004015560e08201518160050155610100820151816006015f6101000a81548160ff0219169083151502179055506101208201518160060160016101000a81548160ff0219169083151502179055506101408201518160070155610160820151816008015f6101000a81548160ff02191690836002811115611828576118276148d8565b5b02179055509050505f93505050505b919050565b5f805f805f805f805f805f805f808e81526020019081526020015f20604051806101800160405290815f820154815260200160018201548152602001600282015f9054906101000a900473ffffffffffffffffffffffffffffffffffffffff1673ffffffffffffffffffffffffffffffffffffffff1673ffffffffffffffffffffffffffffffffffffffff168152602001600382015f9054906101000a900473ffffffffffffffffffffffffffffffffffffffff1673ffffffffffffffffffffffffffffffffffffffff1673ffffffffffffffffffffffffffffffffffffffff1681526020016003820160149054906101000a900460ff161515151581526020016003820160159054906101000a900460ff161515151581526020016004820154815260200160058201548152602001600682015f9054906101000a900460ff161515151581526020016006820160019054906101000a900460ff1615151515815260200160078201548152602001600882015f9054906101000a900460ff1660028111156119ce576119cd6148d8565b5b60028111156119e0576119df6148d8565b5b8152505090508c816020015182608001518360a001518460c001518560e00151866101000151876101200151886040015189606001518a61016001519b509b509b509b509b509b509b509b509b509b509b505091939597999b90929496989a50565b611a4b33614077565b611a8a576040517f08c379a0000000000000000000000000000000000000000000000000000000008152600401611a8190615043565b60405180910390fd5b611a9383614077565b611ad2576040517f08c379a0000000000000000000000000000000000000000000000000000000008152600401611ac9906150d1565b60405180910390fd5b600180811115611ae557611ae46148d8565b5b60025f3373ffffffffffffffffffffffffffffffffffffffff1673ffffffffffffffffffffffffffffffffffffffff1681526020019081526020015f205f015f9054906101000a900460ff166001811115611b4357611b426148d8565b5b14611b83576040517f08c379a0000000000000000000000000000000000000000000000000000000008152600401611b7a90615139565b60405180910390fd5b5f6001811115611b9657611b956148d8565b5b60025f8573ffffffffffffffffffffffffffffffffffffffff1673ffffffffffffffffffffffffffffffffffffffff1681526020019081526020015f205f015f9054906101000a900460ff166001811115611bf457611bf36148d8565b5b14611c34576040517f08c379a0000000000000000000000000000000000000000000000000000000008152600401611c2b906151c7565b60405180910390fd5b5f3390505f1515611c4582856140cc565b151514611c87576040517f08c379a0000000000000000000000000000000000000000000000000000000008152600401611c7e90615255565b60405180910390fd5b8373ffffffffffffffffffffffffffffffffffffffff1660045f8581526020019081526020015f206001015f9054906101000a900473ffffffffffffffffffffffffffffffffffffffff1673ffffffffffffffffffffffffffffffffffffffff1614611d28576040517f08c379a0000000000000000000000000000000000000000000000000000000008152600401611d1f906152e3565b60405180910390fd5b5f600754905060075f815480929190611d4090614baa565b9190505550600160045f8681526020019081526020015f2060010160146101000a81548160ff0219169083151502179055505f6040518061018001604052808381526020018681526020018473ffffffffffffffffffffffffffffffffffffffff1681526020018773ffffffffffffffffffffffffffffffffffffffff1681526020015f151581526020015f151581526020015f81526020015f81526020015f151581526020015f151581526020018581526020015f6002811115611e0857611e076148d8565b5b8152509050805f808481526020019081526020015f205f820151815f0155602082015181600101556040820151816002015f6101000a81548173ffffffffffffffffffffffffffffffffffffffff021916908373ffffffffffffffffffffffffffffffffffffffff1602179055506060820151816003015f6101000a81548173ffffffffffffffffffffffffffffffffffffffff021916908373ffffffffffffffffffffffffffffffffffffffff16021790555060808201518160030160146101000a81548160ff02191690831515021790555060a08201518160030160156101000a81548160ff02191690831515021790555060c0820151816004015560e08201518160050155610100820151816006015f6101000a81548160ff0219169083151502179055506101208201518160060160016101000a81548160ff0219169083151502179055506101408201518160070155610160820151816008015f6101000a81548160ff02191690836002811115611f8757611f866148d8565b5b0217905550905050600182908060018154018082558091505060019003905f5260205f20015f909190919091505560025f8473ffffffffffffffffffffffffffffffffffffffff1673ffffffffffffffffffffffffffffffffffffffff1681526020019081526020015f2060010182908060018154018082558091505060019003905f5260205f20015f909190919091505560025f8773ffffffffffffffffffffffffffffffffffffffff1673ffffffffffffffffffffffffffffffffffffffff1681526020019081526020015f2060010182908060018154018082558091505060019003905f5260205f20015f9091909190915055505050505050565b5f61208e61117b565b90505f805f8481526020019081526020015f20604051806101800160405290815f820154815260200160018201548152602001600282015f9054906101000a900473ffffffffffffffffffffffffffffffffffffffff1673ffffffffffffffffffffffffffffffffffffffff1673ffffffffffffffffffffffffffffffffffffffff168152602001600382015f9054906101000a900473ffffffffffffffffffffffffffffffffffffffff1673ffffffffffffffffffffffffffffffffffffffff1673ffffffffffffffffffffffffffffffffffffffff1681526020016003820160149054906101000a900460ff161515151581526020016003820160159054906101000a900460ff161515151581526020016004820154815260200160058201548152602001600682015f9054906101000a900460ff161515151581526020016006820160019054906101000a900460ff1615151515815260200160078201548152602001600882015f9054906101000a900460ff166002811115612217576122166148d8565b5b6002811115612229576122286148d8565b5b8152505090508060a0015115612274576040517f08c379a000000000000000000000000000000000000000000000000000000000815260040161226b90615371565b60405180910390fd5b5f60025f3373ffffffffffffffffffffffffffffffffffffffff1673ffffffffffffffffffffffffffffffffffffffff1681526020019081526020015f205f015f9054906101000a900460ff1690505f60018111156122d6576122d56148d8565b5b8160018111156122e9576122e86148d8565b5b14612329576040517f08c379a0000000000000000000000000000000000000000000000000000000008152600401612320906153d9565b60405180910390fd5b816060015173ffffffffffffffffffffffffffffffffffffffff163373ffffffffffffffffffffffffffffffffffffffff161461239b576040517f08c379a0000000000000000000000000000000000000000000000000000000008152600401612392906153d9565b60405180910390fd5b5f34905080620186a0856123af91906153f7565b111580156123cb5750620186a0846123c79190614ad9565b8111155b61240a576040517f08c379a000000000000000000000000000000000000000000000000000000000815260040161240190615474565b60405180910390fd5b808360e001818152505060018360a00190151590811515815250508260800151156124625760018361016001906002811115612449576124486148d8565b5b9081600281111561245d5761245c6148d8565b5b815250505b825f808781526020019081526020015f205f820151815f0155602082015181600101556040820151816002015f6101000a81548173ffffffffffffffffffffffffffffffffffffffff021916908373ffffffffffffffffffffffffffffffffffffffff1602179055506060820151816003015f6101000a81548173ffffffffffffffffffffffffffffffffffffffff021916908373ffffffffffffffffffffffffffffffffffffffff16021790555060808201518160030160146101000a81548160ff02191690831515021790555060a08201518160030160156101000a81548160ff02191690831515021790555060c0820151816004015560e08201518160050155610100820151816006015f6101000a81548160ff0219169083151502179055506101208201518160060160016101000a81548160ff0219169083151502179055506101408201518160070155610160820151816008015f6101000a81548160ff021916908360028111156125dc576125db6148d8565b5b02179055509050505050505050565b5f60025f3373ffffffffffffffffffffffffffffffffffffffff1673ffffffffffffffffffffffffffffffffffffffff1681526020019081526020015f205f015f9054906101000a900460ff16905060018081111561264d5761264c6148d8565b5b8160018111156126605761265f6148d8565b5b14612669575f80fd5b5f60025f3373ffffffffffffffffffffffffffffffffffffffff1673ffffffffffffffffffffffffffffffffffffffff1681526020019081526020015f206001015f815481106126bc576126bb614a7f565b5b905f5260205f20015490505f805f8381526020019081526020015f20604051806101800160405290815f820154815260200160018201548152602001600282015f9054906101000a900473ffffffffffffffffffffffffffffffffffffffff1673ffffffffffffffffffffffffffffffffffffffff1673ffffffffffffffffffffffffffffffffffffffff168152602001600382015f9054906101000a900473ffffffffffffffffffffffffffffffffffffffff1673ffffffffffffffffffffffffffffffffffffffff1673ffffffffffffffffffffffffffffffffffffffff1681526020016003820160149054906101000a900460ff161515151581526020016003820160159054906101000a900460ff161515151581526020016004820154815260200160058201548152602001600682015f9054906101000a900460ff161515151581526020016006820160019054906101000a900460ff1615151515815260200160078201548152602001600882015f9054906101000a900460ff16600281111561284e5761284d6148d8565b5b60028111156128605761285f6148d8565b5b8152505090508060800151156128ab576040517f08c379a00000000000000000000000000000000000000000000000000000000081526004016128a290615371565b60405180910390fd5b5f3490505f6128bd8360200151611191565b905081620186a0826128cf91906153f7565b111580156128eb5750620186a0816128e79190614ad9565b8211155b61292a576040517f08c379a000000000000000000000000000000000000000000000000000000000815260040161292190615474565b60405180910390fd5b8260a0015115612967576001836101600190600281111561294e5761294d6148d8565b5b90816002811115612962576129616148d8565b5b815250505b818360c00181815250506001836080019015159081151581525050825f808681526020019081526020015f205f820151815f0155602082015181600101556040820151816002015f6101000a81548173ffffffffffffffffffffffffffffffffffffffff021916908373ffffffffffffffffffffffffffffffffffffffff1602179055506060820151816003015f6101000a81548173ffffffffffffffffffffffffffffffffffffffff021916908373ffffffffffffffffffffffffffffffffffffffff16021790555060808201518160030160146101000a81548160ff02191690831515021790555060a08201518160030160156101000a81548160ff02191690831515021790555060c0820151816004015560e08201518160050155610100820151816006015f6101000a81548160ff0219169083151502179055506101208201518160060160016101000a81548160ff0219169083151502179055506101408201518160070155610160820151816008015f6101000a81548160ff02191690836002811115612afc57612afb6148d8565b5b02179055509050505050505050565b60025f3373ffffffffffffffffffffffffffffffffffffffff1673ffffffffffffffffffffffffffffffffffffffff1681526020019081526020015f206003015f9054906101000a900460ff1615612b98576040517f08c379a0000000000000000000000000000000000000000000000000000000008152600401612b8f906154dc565b60405180910390fd5b60606040518060800160405280600180811115612bb857612bb76148d8565b5b81526020018281526020015f81526020016001151581525060025f3373ffffffffffffffffffffffffffffffffffffffff1673ffffffffffffffffffffffffffffffffffffffff1681526020019081526020015f205f820151815f015f6101000a81548160ff02191690836001811115612c3557612c346148d8565b5b02179055506020820151816001019080519060200190612c569291906142b5565b50604082015181600201556060820151816003015f6101000a81548160ff02191690831515021790555090505050565b60025f3373ffffffffffffffffffffffffffffffffffffffff1673ffffffffffffffffffffffffffffffffffffffff1681526020019081526020015f206003015f9054906101000a900460ff1615612d13576040517f08c379a0000000000000000000000000000000000000000000000000000000008152600401612d0a906154dc565b60405180910390fd5b606060405180608001604052805f6001811115612d3357612d326148d8565b5b81526020018281526020015f81526020016001151581525060025f3373ffffffffffffffffffffffffffffffffffffffff1673ffffffffffffffffffffffffffffffffffffffff1681526020019081526020015f205f820151815f015f6101000a81548160ff02191690836001811115612db057612daf6148d8565b5b02179055506020820151816001019080519060200190612dd19291906142b5565b50604082015181600201556060820151816003015f6101000a81548160ff02191690831515021790555090505050565b5f3390505f805f808581526020019081526020015f20604051806101800160405290815f820154815260200160018201548152602001600282015f9054906101000a900473ffffffffffffffffffffffffffffffffffffffff1673ffffffffffffffffffffffffffffffffffffffff1673ffffffffffffffffffffffffffffffffffffffff168152602001600382015f9054906101000a900473ffffffffffffffffffffffffffffffffffffffff1673ffffffffffffffffffffffffffffffffffffffff1673ffffffffffffffffffffffffffffffffffffffff1681526020016003820160149054906101000a900460ff161515151581526020016003820160159054906101000a900460ff161515151581526020016004820154815260200160058201548152602001600682015f9054906101000a900460ff161515151581526020016006820160019054906101000a900460ff1615151515815260200160078201548152602001600882015f9054906101000a900460ff166002811115612f8d57612f8c6148d8565b5b6002811115612f9f57612f9e6148d8565b5b815250509050600280811115612fb857612fb76148d8565b5b8161016001516002811115612fd057612fcf6148d8565b5b03613010576040517f08c379a00000000000000000000000000000000000000000000000000000000081526004016130079061556a565b60405180910390fd5b600180811115613023576130226148d8565b5b60025f3373ffffffffffffffffffffffffffffffffffffffff1673ffffffffffffffffffffffffffffffffffffffff1681526020019081526020015f205f015f9054906101000a900460ff166001811115613081576130806148d8565b5b03613132573373ffffffffffffffffffffffffffffffffffffffff16816040015173ffffffffffffffffffffffffffffffffffffffff16146130f8576040517f08c379a00000000000000000000000000000000000000000000000000000000081526004016130ef906155f8565b60405180910390fd5b5f808581526020019081526020015f206003015f9054906101000a900473ffffffffffffffffffffffffffffffffffffffff1691506131da565b3373ffffffffffffffffffffffffffffffffffffffff16816060015173ffffffffffffffffffffffffffffffffffffffff16146131a4576040517f08c379a000000000000000000000000000000000000000000000000000000000815260040161319b906155f8565b60405180910390fd5b5f808581526020019081526020015f206002015f9054906101000a900473ffffffffffffffffffffffffffffffffffffffff1691505b5f816020015190505f60028111156131f5576131f46148d8565b5b826101600151600281111561320d5761320c6148d8565b5b036132e75781608001511561328a575f600b600a8460c001516132309190614b0c565b61323a9190614b7a565b9050826040015173ffffffffffffffffffffffffffffffffffffffff166108fc8290811502906040515f60405180830381858888f19350505050158015613283573d5f803e3d5ffd5b50506132e2565b8160a00151156132e157816060015173ffffffffffffffffffffffffffffffffffffffff166108fc8360e0015190811502906040515f60405180830381858888f193505050501580156132df573d5f803e3d5ffd5b505b5b61338e565b600160028111156132fb576132fa6148d8565b5b8261016001516002811115613313576133126148d8565b5b0361338d575f600b600a8460c0015161332c9190614b0c565b6133369190614b7a565b90508373ffffffffffffffffffffffffffffffffffffffff166108fc8460e00151836133629190614ad9565b90811502906040515f60405180830381858888f1935050505015801561338a573d5f803e3d5ffd5b50505b5b61339a84848784613c87565b5050505050565b5f805f8381526020019081526020015f20604051806101800160405290815f820154815260200160018201548152602001600282015f9054906101000a900473ffffffffffffffffffffffffffffffffffffffff1673ffffffffffffffffffffffffffffffffffffffff1673ffffffffffffffffffffffffffffffffffffffff168152602001600382015f9054906101000a900473ffffffffffffffffffffffffffffffffffffffff1673ffffffffffffffffffffffffffffffffffffffff1673ffffffffffffffffffffffffffffffffffffffff1681526020016003820160149054906101000a900460ff161515151581526020016003820160159054906101000a900460ff161515151581526020016004820154815260200160058201548152602001600682015f9054906101000a900460ff161515151581526020016006820160019054906101000a900460ff1615151515815260200160078201548152602001600882015f9054906101000a900460ff166002811115613528576135276148d8565b5b600281111561353a576135396148d8565b5b8152505090503373ffffffffffffffffffffffffffffffffffffffff16816040015173ffffffffffffffffffffffffffffffffffffffff1614806135ad57503373ffffffffffffffffffffffffffffffffffffffff16816060015173ffffffffffffffffffffffffffffffffffffffff16145b6135ec576040517f08c379a00000000000000000000000000000000000000000000000000000000081526004016135e390615686565b60405180910390fd5b60016002811115613600576135ff6148d8565b5b8161016001516002811115613618576136176148d8565b5b14613658576040517f08c379a000000000000000000000000000000000000000000000000000000000815260040161364f90615714565b60405180910390fd5b60028161016001906002811115613672576136716148d8565b5b90816002811115613686576136856148d8565b5b81525050805f808481526020019081526020015f205f820151815f0155602082015181600101556040820151816002015f6101000a81548173ffffffffffffffffffffffffffffffffffffffff021916908373ffffffffffffffffffffffffffffffffffffffff1602179055506060820151816003015f6101000a81548173ffffffffffffffffffffffffffffffffffffffff021916908373ffffffffffffffffffffffffffffffffffffffff16021790555060808201518160030160146101000a81548160ff02191690831515021790555060a08201518160030160156101000a81548160ff02191690831515021790555060c0820151816004015560e08201518160050155610100820151816006015f6101000a81548160ff0219169083151502179055506101208201518160060160016101000a81548160ff0219169083151502179055506101408201518160070155610160820151816008015f6101000a81548160ff02191690836002811115613804576138036148d8565b5b02179055509050503360055f8481526020019081526020015f205f6101000a81548173ffffffffffffffffffffffffffffffffffffffff021916908373ffffffffffffffffffffffffffffffffffffffff1602179055505050565b3373ffffffffffffffffffffffffffffffffffffffff1660055f8381526020019081526020015f205f9054906101000a900473ffffffffffffffffffffffffffffffffffffffff1673ffffffffffffffffffffffffffffffffffffffff16146138fd576040517f08c379a00000000000000000000000000000000000000000000000000000000081526004016138f4906157c8565b60405180910390fd5b60055f8281526020019081526020015f205f6101000a81549073ffffffffffffffffffffffffffffffffffffffff02191690555f805f8381526020019081526020015f20604051806101800160405290815f820154815260200160018201548152602001600282015f9054906101000a900473ffffffffffffffffffffffffffffffffffffffff1673ffffffffffffffffffffffffffffffffffffffff1673ffffffffffffffffffffffffffffffffffffffff168152602001600382015f9054906101000a900473ffffffffffffffffffffffffffffffffffffffff1673ffffffffffffffffffffffffffffffffffffffff1673ffffffffffffffffffffffffffffffffffffffff1681526020016003820160149054906101000a900460ff161515151581526020016003820160159054906101000a900460ff161515151581526020016004820154815260200160058201548152602001600682015f9054906101000a900460ff161515151581526020016006820160019054906101000a900460ff1615151515815260200160078201548152602001600882015f9054906101000a900460ff166002811115613ab757613ab66148d8565b5b6002811115613ac957613ac86148d8565b5b81525050905060018161016001906002811115613ae957613ae86148d8565b5b90816002811115613afd57613afc6148d8565b5b81525050805f808481526020019081526020015f205f820151815f0155602082015181600101556040820151816002015f6101000a81548173ffffffffffffffffffffffffffffffffffffffff021916908373ffffffffffffffffffffffffffffffffffffffff1602179055506060820151816003015f6101000a81548173ffffffffffffffffffffffffffffffffffffffff021916908373ffffffffffffffffffffffffffffffffffffffff16021790555060808201518160030160146101000a81548160ff02191690831515021790555060a08201518160030160156101000a81548160ff02191690831515021790555060c0820151816004015560e08201518160050155610100820151816006015f6101000a81548160ff0219169083151502179055506101208201518160060160016101000a81548160ff0219169083151502179055506101408201518160070155610160820151816008015f6101000a81548160ff02191690836002811115613c7b57613c7a6148d8565b5b02179055509050505050565b5f808381526020019081526020015f205f8082015f9055600182015f9055600282015f6101000a81549073ffffffffffffffffffffffffffffffffffffffff0219169055600382015f6101000a81549073ffffffffffffffffffffffffffffffffffffffff02191690556003820160146101000a81549060ff02191690556003820160156101000a81549060ff0219169055600482015f9055600582015f9055600682015f6101000a81549060ff02191690556006820160016101000a81549060ff0219169055600782015f9055600882015f6101000a81549060ff02191690555050613d756001836141ab565b5f8114613da9575f60045f8381526020019081526020015f2060010160146101000a81548160ff0219169083151502179055505b5f60025f8673ffffffffffffffffffffffffffffffffffffffff1673ffffffffffffffffffffffffffffffffffffffff1681526020019081526020015f20600101805480602002602001604051908101604052809291908181526020018280548015613e3257602002820191905f5260205f20905b815481526020019060010190808311613e1e575b5050505050905060605f60025f8773ffffffffffffffffffffffffffffffffffffffff1673ffffffffffffffffffffffffffffffffffffffff1681526020019081526020015f20600101805480602002602001604051908101604052809291908181526020018280548015613ec457602002820191905f5260205f20905b815481526020019060010190808311613eb0575b5050505050905060605f5b8451811015613f475786858281518110613eec57613eeb614a7f565b5b602002602001015114613f3457848181518110613f0c57613f0b614a7f565b5b6020026020010151848281518110613f2757613f26614a7f565b5b6020026020010181815250505b8080613f3f90614baa565b915050613ecf565b508260025f8a73ffffffffffffffffffffffffffffffffffffffff1673ffffffffffffffffffffffffffffffffffffffff1681526020019081526020015f206001019080519060200190613f9c9291906142b5565b505f5b82518110156140175786838281518110613fbc57613fbb614a7f565b5b60200260200101511461400457828181518110613fdc57613fdb614a7f565b5b6020026020010151828281518110613ff757613ff6614a7f565b5b6020026020010181815250505b808061400f90614baa565b915050613f9f565b508060025f8973ffffffffffffffffffffffffffffffffffffffff1673ffffffffffffffffffffffffffffffffffffffff1681526020019081526020015f20600101908051906020019061406c9291906142b5565b505050505050505050565b5f60025f8373ffffffffffffffffffffffffffffffffffffffff1673ffffffffffffffffffffffffffffffffffffffff1681526020019081526020015f206003015f9054906101000a900460ff169050919050565b5f8060025f8573ffffffffffffffffffffffffffffffffffffffff1673ffffffffffffffffffffffffffffffffffffffff1681526020019081526020015f2060010180548060200260200160405190810160405280929190818152602001828054801561415657602002820191905f5260205f20905b815481526020019060010190808311614142575b505050505090505f8151118061419157506001151560045f8581526020019081526020015f2060010160149054906101000a900460ff161515145b156141a05760019150506141a5565b5f9150505b92915050565b5f805f90505f5b84805490508110156141ff57838582815481106141d2576141d1614a7f565b5b905f5260205f200154036141ec57809250600191506141ff565b80806141f790614baa565b9150506141b2565b5080614240576040517f08c379a000000000000000000000000000000000000000000000000000000000815260040161423790615830565b60405180910390fd5b836001858054905061425291906153f7565b8154811061426357614262614a7f565b5b905f5260205f20015484838154811061427f5761427e614a7f565b5b905f5260205f2001819055508380548061429c5761429b61584e565b5b600190038181905f5260205f20015f9055905550505050565b828054828255905f5260205f209081019282156142ef579160200282015b828111156142ee5782518255916020019190600101906142d3565b5b5090506142fc9190614300565b5090565b5b80821115614317575f815f905550600101614301565b5090565b5f82825260208201905092915050565b7f72656365697665000000000000000000000000000000000000000000000000005f82015250565b5f61435f60078361431b565b915061436a8261432b565b602082019050919050565b5f73ffffffffffffffffffffffffffffffffffffffff82169050919050565b5f61439e82614375565b9050919050565b6143ae81614394565b82525050565b5f819050919050565b6143c6816143b4565b82525050565b5f82825260208201905092915050565b50565b5f6143ea5f836143cc565b91506143f5826143dc565b5f82019050919050565b5f6080820190508181035f83015261441681614353565b905061442560208301856143a5565b61443260408301846143bd565b8181036060830152614443816143df565b90509392505050565b7f66616c6c6261636b0000000000000000000000000000000000000000000000005f82015250565b5f61448060088361431b565b915061448b8261444c565b602082019050919050565b828183375f83830152505050565b5f601f19601f8301169050919050565b5f6144bf83856143cc565b93506144cc838584614496565b6144d5836144a4565b840190509392505050565b5f6080820190508181035f8301526144f781614474565b905061450660208301876143a5565b61451360408301866143bd565b81810360608301526145268184866144b4565b905095945050505050565b5f604051905090565b5f80fd5b5f80fd5b61454b816143b4565b8114614555575f80fd5b50565b5f8135905061456681614542565b92915050565b5f602082840312156145815761458061453a565b5b5f61458e84828501614558565b91505092915050565b5f81519050919050565b5f82825260208201905092915050565b5f819050602082019050919050565b6145c9816143b4565b82525050565b5f6145da83836145c0565b60208301905092915050565b5f602082019050919050565b5f6145fc82614597565b61460681856145a1565b9350614611836145b1565b805f5b8381101561464157815161462888826145cf565b9750614633836145e6565b925050600181019050614614565b5085935050505092915050565b5f6020820190508181035f83015261466681846145f2565b905092915050565b5f80fd5b7f4e487b71000000000000000000000000000000000000000000000000000000005f52604160045260245ffd5b6146a8826144a4565b810181811067ffffffffffffffff821117156146c7576146c6614672565b5b80604052505050565b5f6146d9614531565b90506146e5828261469f565b919050565b5f67ffffffffffffffff82111561470457614703614672565b5b602082029050602081019050919050565b5f80fd5b5f61472b614726846146ea565b6146d0565b9050808382526020820190506020840283018581111561474e5761474d614715565b5b835b8181101561477757806147638882614558565b845260208401935050602081019050614750565b5050509392505050565b5f82601f8301126147955761479461466e565b5b81356147a5848260208601614719565b91505092915050565b5f80604083850312156147c4576147c361453a565b5b5f83013567ffffffffffffffff8111156147e1576147e061453e565b5b6147ed85828601614781565b925050602083013567ffffffffffffffff81111561480e5761480d61453e565b5b61481a85828601614781565b9150509250929050565b61482d81614394565b8114614837575f80fd5b50565b5f8135905061484881614824565b92915050565b5f80604083850312156148645761486361453a565b5b5f6148718582860161483a565b925050602061488285828601614558565b9150509250929050565b5f8115159050919050565b6148a08161488c565b82525050565b5f6020820190506148b95f830184614897565b92915050565b5f6020820190506148d25f8301846143bd565b92915050565b7f4e487b71000000000000000000000000000000000000000000000000000000005f52602160045260245ffd5b60038110614916576149156148d8565b5b50565b5f81905061492682614905565b919050565b5f61493582614919565b9050919050565b6149458161492b565b82525050565b5f6101608201905061495f5f83018e6143bd565b61496c602083018d6143bd565b614979604083018c614897565b614986606083018b614897565b614993608083018a6143bd565b6149a060a08301896143bd565b6149ad60c0830188614897565b6149ba60e0830187614897565b6149c86101008301866143a5565b6149d66101208301856143a5565b6149e461014083018461493c565b9c9b505050505050505050505050565b5f6149fe82614375565b9050919050565b614a0e816149f4565b8114614a18575f80fd5b50565b5f81359050614a2981614a05565b92915050565b5f805f60608486031215614a4657614a4561453a565b5b5f614a5386828701614a1b565b9350506020614a6486828701614558565b9250506040614a7586828701614558565b9150509250925092565b7f4e487b71000000000000000000000000000000000000000000000000000000005f52603260045260245ffd5b7f4e487b71000000000000000000000000000000000000000000000000000000005f52601160045260245ffd5b5f614ae3826143b4565b9150614aee836143b4565b9250828201905080821115614b0657614b05614aac565b5b92915050565b5f614b16826143b4565b9150614b21836143b4565b9250828202614b2f816143b4565b91508282048414831517614b4657614b45614aac565b5b5092915050565b7f4e487b71000000000000000000000000000000000000000000000000000000005f52601260045260245ffd5b5f614b84826143b4565b9150614b8f836143b4565b925082614b9f57614b9e614b4d565b5b828204905092915050565b5f614bb4826143b4565b91507fffffffffffffffffffffffffffffffffffffffffffffffffffffffffffffffff8203614be657614be5614aac565b5b600182019050919050565b7f596f7520617265206e6f742061206c616e646c6f7264207468657265666f72655f8201527f20796f75277265206e6f7420616c6c6f77656420746f2072656769737465722060208201527f726f6f6d73000000000000000000000000000000000000000000000000000000604082015250565b5f614c7160458361431b565b9150614c7c82614bf1565b606082019050919050565b5f6020820190508181035f830152614c9e81614c65565b9050919050565b7f496e636f6e73697374656e7420696e666f726d6174696f6e2070726f766964655f8201527f642e000000000000000000000000000000000000000000000000000000000000602082015250565b5f614cff60228361431b565b9150614d0a82614ca5565b604082019050919050565b5f6020820190508181035f830152614d2c81614cf3565b9050919050565b7f596f752063616e277420706572666f726d207468697320616374696f6e206f6e5f8201527f206120636f6e747261637420796f7520617265206e6f7420612070617274206f60208201527f6600000000000000000000000000000000000000000000000000000000000000604082015250565b5f614db360418361431b565b9150614dbe82614d33565b606082019050919050565b5f6020820190508181035f830152614de081614da7565b9050919050565b7f596f752063616e277420706572666f726d207468697320616374696f6e206f6e5f8201527f206120636f6e74726163742074686174206973206e6f742068696265726e617460208201527f6564000000000000000000000000000000000000000000000000000000000000604082015250565b5f614e6760428361431b565b9150614e7282614de7565b606082019050919050565b5f6020820190508181035f830152614e9481614e5b565b9050919050565b7f4461746120696e636f6e73697374656e637920310000000000000000000000005f82015250565b5f614ecf60148361431b565b9150614eda82614e9b565b602082019050919050565b5f6020820190508181035f830152614efc81614ec3565b9050919050565b7f4461746120696e636f6e73697374656e637920320000000000000000000000005f82015250565b5f614f3760148361431b565b9150614f4282614f03565b602082019050919050565b5f6020820190508181035f830152614f6481614f2b565b9050919050565b7f596f752061726520747279696e6720746f207465726d696e617465206120636f5f8201527f6e747261637420796f7520617265206e6f7420612070617274206f6600000000602082015250565b5f614fc5603c8361431b565b9150614fd082614f6b565b604082019050919050565b5f6020820190508181035f830152614ff281614fb9565b9050919050565b7f596f7520617265206e6f7420616e20617574686f72697a6564207573657200005f82015250565b5f61502d601e8361431b565b915061503882614ff9565b602082019050919050565b5f6020820190508181035f83015261505a81615021565b9050919050565b7f6c616e646c6f7264206973206e6f7420616e20617574686f72697a65642075735f8201527f6572000000000000000000000000000000000000000000000000000000000000602082015250565b5f6150bb60228361431b565b91506150c682615061565b604082019050919050565b5f6020820190508181035f8301526150e8816150af565b9050919050565b7f596f7520617265206e6f7420612073747564656e7400000000000000000000005f82015250565b5f61512360158361431b565b915061512e826150ef565b602082019050919050565b5f6020820190508181035f83015261515081615117565b9050919050565b7f54686520616464726573732070726f766964656420646f6573206e6f7420636f5f8201527f72726573706f6e6420746f2061206c616e646c6f726400000000000000000000602082015250565b5f6151b160368361431b565b91506151bc82615157565b604082019050919050565b5f6020820190508181035f8301526151de816151a5565b9050919050565b7f53747564656e74206f7220726f6f6d20616c726561647920696e20636f6e74725f8201527f6163740000000000000000000000000000000000000000000000000000000000602082015250565b5f61523f60238361431b565b915061524a826151e5565b604082019050919050565b5f6020820190508181035f83015261526c81615233565b9050919050565b7f496e636f6e73697374656e6379206265747765656e20726f6f6d206f776e65725f8201527f20616e64206c616e646c6f726400000000000000000000000000000000000000602082015250565b5f6152cd602d8361431b565b91506152d882615273565b604082019050919050565b5f6020820190508181035f8301526152fa816152c1565b9050919050565b7f596f7520616c7265616479207061696420666f72207468697320636f6e7472615f8201527f6374000000000000000000000000000000000000000000000000000000000000602082015250565b5f61535b60228361431b565b915061536682615301565b604082019050919050565b5f6020820190508181035f8301526153888161534f565b9050919050565b7f4461746120696e636f6e73697374656e637900000000000000000000000000005f82015250565b5f6153c360128361431b565b91506153ce8261538f565b602082019050919050565b5f6020820190508181035f8301526153f0816153b7565b9050919050565b5f615401826143b4565b915061540c836143b4565b925082820390508181111561542457615423614aac565b5b92915050565b7f57726f6e6720616d6f756e7420706169640000000000000000000000000000005f82015250565b5f61545e60118361431b565b91506154698261542a565b602082019050919050565b5f6020820190508181035f83015261548b81615452565b9050919050565b7f5573657220616c726561647920726567697374657265640000000000000000005f82015250565b5f6154c660178361431b565b91506154d182615492565b602082019050919050565b5f6020820190508181035f8301526154f3816154ba565b9050919050565b7f596f752063616e27742077697468647261772066726f6d20612068696265726e5f8201527f6174656420636f6e747261637400000000000000000000000000000000000000602082015250565b5f615554602d8361431b565b915061555f826154fa565b604082019050919050565b5f6020820190508181035f83015261558181615548565b9050919050565b7f596f7520747269656420746f2077697468647261772066726f6d206120636f6e5f8201527f747261637420796f7520617265206e6f7420612070617274206f660000000000602082015250565b5f6155e2603b8361431b565b91506155ed82615588565b604082019050919050565b5f6020820190508181035f83015261560f816155d6565b9050919050565b7f596f752061726520747279696e6720746f2068696265726e617465206120636f5f8201527f6e747261637420796f7520617265206e6f7420612070617274206f6600000000602082015250565b5f615670603c8361431b565b915061567b82615616565b604082019050919050565b5f6020820190508181035f83015261569d81615664565b9050919050565b7f596f752063616e206f6e6c792068696265726e617465206120636f6e747261635f8201527f74207768656e206974277320636f6e7369646572656420737461626c65000000602082015250565b5f6156fe603d8361431b565b9150615709826156a4565b604082019050919050565b5f6020820190508181035f83015261572b816156f2565b9050919050565b7f596f752063616e6e6f7420756e6c6f636b206120636f6e747261637420696e735f8201527f74616e6365206966206974207761736e277420796f752077686f20686962657260208201527f6e61746564206974000000000000000000000000000000000000000000000000604082015250565b5f6157b260488361431b565b91506157bd82615732565b606082019050919050565b5f6020820190508181035f8301526157df816157a6565b9050919050565b7f456c656d656e74206e6f742070726573656e7420696e206172726179000000005f82015250565b5f61581a601c8361431b565b9150615825826157e6565b602082019050919050565b5f6020820190508181035f8301526158478161580e565b9050919050565b7f4e487b71000000000000000000000000000000000000000000000000000000005f52603160045260245ffdfea2646970667358221220b968c1103ac060065b4f191f00bf2430dcc503e2516ab8c893afed496822615b64736f6c63430008140033",
  "immutableReferences": {},
  "source": "// SPDX-License-Identifier: GPL - 3.0\r\n\r\npragma solidity >= 0.7.0;\r\n\r\nimport \"./accountVerification.sol\";\r\nimport \"./zkp.sol\";\r\n//import \"hardhat/console.sol\";\r\n\r\n\r\n/**\r\n    @title Affitto. The contract allows for the registration of a user as either a student or a landlord. The student\r\n    can try out the service while the landlord can register rooms. The student calls a function\r\n    (contract instance) to enter into a contract with the landlord. You can withdraw but the other party takes your money.\r\n    When both parties agree, the contract is successfully terminated and the landlord takes both's money (since the student's \r\n    deposit will serve as an actual deposit for the legal lease).\r\n    \r\n*/\r\n\r\ncontract Affitto {\r\n\r\n    // emitted in case the fallback or receive functions get invoked\r\n    event Log(string func, address sender, uint256 value, bytes data);\r\n\r\n    /*  contract_instance contains all the information that needs to get track of when it comes to the contract instance\r\n        contract_id: the contract's uinque id\r\n        room_id: the room's unique id\r\n        student: address of the student\r\n        landlord: address of the landlord    \r\n        student_paid: indicates whether the student has already paid the deposit\r\n        landlord_paid: indicates whether the landlord has already paid the deposit\r\n        amt_paid_student: amount paid by the student as a deposit. This amount is stored to make it easier when \r\n                          the contract transfers back the money to the parties\r\n        amt_paid_landlord: amount paid by the landlord as a deposit. This amount is stored to make it easier when\r\n                           the contract transfers back the money to the parties \r\n        concluded_student: indicates whether the student has already expressed the will to terminate the contract successfully\r\n        concluded_landlord: indicates whether the landlord has already expressed the will to terminate the contract successfully \r\n        creation_time: timestamp of the moment the contract instance was created\r\n        contract_phase: the phase the contract is currently in        \r\n    */\r\n    struct contract_instance {\r\n        uint256 contract_id;\r\n        uint256 room_id;\r\n        address payable student;\r\n        address payable landlord;\r\n        bool student_paid;\r\n        bool landlord_paid;\r\n        uint256 amt_paid_student;\r\n        uint256 amt_paid_landlord;\r\n        bool concluded_student;\r\n        bool concluded_landlord;\r\n        uint256 creation_time;\r\n        ContractPhase contract_phase;\r\n    }\r\n\r\n    /*  id: room id\r\n        owner: address of the room's owner\r\n        occupied: indicates whether the room is already occupied or not\r\n        deposit: amount of money to pay as a deposit for the room\r\n    */\r\n    struct room {\r\n        uint256 id;\r\n        address owner;\r\n        bool occupied;\r\n        uint256 deposit;\r\n    }\r\n\r\n    /*  role: specifies the role of the user, who can be either a student or a landlord\r\n        contract_instance_record: keeps track of the contract instances the user is currently a part of. \r\n                                  A student can only participate in one contract instance at a time\r\n        num_rooms: number of rooms that a user owns. A student can't own any room\r\n        already init: says if the address is already registered as a user\r\n    \r\n    The bool variable already_init is used to check if the couple (key, struct) has already been explicitely set.\r\n    This is necessary because Solidity automatically assigns default values even if a key has not been explicitely set and \r\n    this creates problems when it comes to checking if an address is already registered as a user\r\n    */\r\n    struct user {\r\n        Role role;\r\n        uint256[] contract_instance_record;\r\n        uint256 num_rooms;\r\n        bool already_init;\r\n    }\r\n\r\n    enum Role {\r\n        Landlord,\r\n        Student\r\n    }\r\n\r\n    /*  ContractPhase identifies the phase in which the contract instance can be\r\n        INITIAL PHASE: it's the phase where one or both parties still have to pay their deposit. \r\n        This phase has a maximum duration which will be set at the application level. \r\n        This phase can be terminated in three ways:\r\n            - The moment both parties pay for the deposit, the initial phase is concluded and the contract becomes STABLE\r\n            - If one of the parties withdraws from the contract in this phase, then there are no penalties, if they or the other \r\n              party has already paid the money is given back to the respective parties (except for the revenue percentage \r\n              taken from the student's deposit, it they have already paid). Ther, the contract instance is deleted\r\n            - If the maximum duration of this phase is reached. Then, the contract instance is deleted\r\n        \r\n        STABLE PHASE: it's the phase where both parties have paid their deposit and it's the phase in which the contract simply exist.\r\n        This phase can be terminated in two ways:\r\n            - If one party withdraws, all the money deposited in the contract, minus the percentage earned by the contract, is given to the other party\r\n            - If both parties agree that the contract can end successfully, then all the money, minus the percentage earned by the contract, is given to the landlord\r\n        \r\n        HIBERNATED PHASE: When a party suspects the other of malevolent behavior, it can block the contract instance in an hibernated phase.\r\n        This phase waits for the competent autorities to run the necessary checks on the reality of the situation and to decide which party \r\n        deserves the money deposited in the contract.\r\n    */\r\n    enum ContractPhase {\r\n        Initial,\r\n        Stable,\r\n        Hibernated\r\n    }\r\n\r\n    // associates to each contract id the respective contract record\r\n    mapping(uint256 => contract_instance) contract_record;\r\n    uint256[] contract_record_keys;\r\n\r\n    // associates to each address its respective user information\r\n    mapping(address => user) user_info;  \r\n    //address[] user_info_keys;\r\n\r\n    // associates to each landlord an array that contains their rooms' id                 \r\n    mapping(address => uint256[]) landlords_rooms;                \r\n    //address[] landlords_rooms_keys;\r\n\r\n    // associates to each room id the corresponding room information\r\n    mapping(uint256 => room) rooms_record;\r\n    //uint256[] rooms_record_keys; \r\n    \r\n    // contains all the ids of the hibernated contracts and the address of the party that hibernated them\r\n    mapping(uint256 => address) hibernated_contracts;\r\n\r\n    // conversion rate from eur to wei\r\n    uint256 conversion_rate = 586099570929370;  \r\n\r\n    // global variable that is used to assign unique ids to contract instances                   \r\n    uint256 num_contracts;      \r\n\r\n    // deposit paid by the landlord as a guarantee of their good faith\r\n    uint256 landlord_deposit; \r\n\r\n    uint256 time_limit_to_make_contract_stable;                                  \r\n\r\n    constructor() {\r\n        num_contracts = 1; // num_contracts start at 1 and not 0 because 0 is the default value for uint256 so we excluded it to avoid possible ambiguities\r\n        landlord_deposit = 100;\r\n        time_limit_to_make_contract_stable = 172800;  // it's the equivalent, in seconds, of 48 hours\r\n    }\r\n\r\n    /* @param ux, uy, c, z, hx, hy are the values outputted by the prover called on the user's private key\r\n\r\n       The function allows the user to register either as a landlord or a student. The function prevents double registrations by checking the 'already init' field\r\n       in the user struct. \r\n    \r\n    */\r\n    function register_landlord(/* uint256 ux, uint256 uy, uint256 c, uint256 z, uint256 hx, uint256 hy */) public {\r\n        // Doesn't allow double registrations\r\n        require(!user_info[msg.sender].already_init, \"User already registered\");\r\n\r\n        // call to the verifier to perform the account verification\r\n        //require(accountVerification.zkp_accountVer(ux, uy, c, z, hx, hy, msg.sender), \"Account verification failed.\");\r\n\r\n        uint256[] memory array;\r\n        user_info[msg.sender] = user({\r\n            role: Role.Landlord, \r\n            contract_instance_record: array, \r\n            num_rooms: 0, \r\n            already_init: true\r\n        });\r\n        //user_info_keys.push(msg.sender);\r\n        \r\n    }\r\n\r\n    /*  @param ux, uy, c, z, hx, hy are the values outputted by the prover called on the user's private key\r\n        @param ux_stud, uy_stud, c_stud, z_stud, hx_stud, hy_stud are the values outputted by the \r\n        Prover called on the private information demonstrating the user's status as a student\r\n    */\r\n    function register_student(/* uint256 ux, uint256 uy, uint256 c, uint256 z, uint256 hx, uint256 hy, uint256 ux_stud, uint256 uy_stud, uint256 c_stud, uint256 z_stud, uint256 hx_stud, uint256 hy_stud */) public {\r\n        // Doesn't allow double registrations\r\n        require(!user_info[msg.sender].already_init, \"User already registered\");\r\n\r\n        // call to the verifier to perform the account verification\r\n        //require(accountVerification.zkp_accountVer(ux, uy, c, z, hx, hy, msg.sender), \"Account verification failed.\");\r\n\r\n        // call to the verifier to perform the check on the user's status as a student\r\n        // the application will have already performed a search on the presence of hx_stud and hy_stud \r\n        // in the public database, so the function only needs to check that the verifiers outputs the value 'true'\r\n        //require(zkp.Verifier(ux_stud, uy_stud, c_stud, z_stud, hx_stud, hy_stud), \"Was not able to varify that the user is a student\");\r\n        \r\n        uint256[] memory array;\r\n        \r\n        user_info[msg.sender] = user({\r\n                role: Role.Student, \r\n                contract_instance_record: array, \r\n                num_rooms: 0, \r\n                already_init: true\r\n            });\r\n            //user_info_keys.push(msg.sender);\r\n    }\r\n\r\n    /*  @param rooms Array with the rooms ids\r\n        @param deposits The deposit to pay for the corresponding room\r\n\r\n        The landlord can register several rooms at once by providing the ids of the rooms, it adds the new room structs to the rooms_record_mapping\r\n    */\r\n    function register_rooms(uint256[] memory rooms, uint256[] memory deposits) public {\r\n        // controlliamo che il chiamante sia un landlord\r\n        require(user_info[msg.sender].role == Role.Landlord, \"You are not a landlord therefore you're not allowed to register rooms\");\r\n        require(rooms.length == deposits.length, \"Inconsistent information provided.\");\r\n        uint256 l = rooms.length;\r\n        user_info[msg.sender].num_rooms += l; \r\n\r\n        for (uint256 i = 0; i < l; i++) {\r\n            room memory new_room = room({id: rooms[i], owner: msg.sender, occupied: false, deposit: deposits[i]});\r\n            landlords_rooms[msg.sender].push(rooms[i]);\r\n            rooms_record[new_room.id] = new_room;\r\n            //rooms_record_keys.push(new_room.id);\r\n        }\r\n        \r\n    }   \r\n    /*  @param landlord The address of the landlord\r\n        @param room_id The id of the room\r\n        @param timestamp time of the creation of the contract instance\r\n        After performing some checks on the function caller and the landlord, the function creates a contract instance with the information provided.\r\n        This function's version takes as a parameter also the room_id, in case the student has their heart already set on a specific room\r\n    */\r\n    // If the student has his heart already set on a specific room \r\n    function initialize(address payable landlord, uint256 room_id, uint256 timestamp) public {\r\n        require(check_user_already_registered(msg.sender), \"You are not an authorized user\");\r\n        require(check_user_already_registered(landlord), \"landlord is not an authorized user\");\r\n        require(user_info[msg.sender].role == Role.Student, \"You are not a student\");\r\n        require(user_info[landlord].role == Role.Landlord, \"The address provided does not correspond to a landlord\");\r\n\r\n        address payable student = payable(msg.sender);\r\n        \r\n        // check that the student is not in a contract instance and that the room is not occupied\r\n        require(check_if_already_in_contract(student, room_id) == false, \"Student or room already in contract\");\r\n        \r\n        // check that the landlord is the room's owner\r\n        require(rooms_record[room_id].owner == landlord, \"Inconsistency between room owner and landlord\");\r\n\r\n        // if neither the student and the room are already in a contract instance, the function proceeds with the creation of the contract instance\r\n        uint256 new_id = num_contracts;\r\n        num_contracts++;\r\n        rooms_record[room_id].occupied = true;\r\n        contract_instance memory instance = contract_instance({\r\n            contract_id: new_id, \r\n            room_id: room_id,\r\n            student: student, \r\n            landlord: landlord, \r\n            student_paid: false, \r\n            landlord_paid: false, \r\n            amt_paid_student: 0, \r\n            amt_paid_landlord: 0, \r\n            concluded_student: false, \r\n            concluded_landlord: false, \r\n            creation_time: timestamp,\r\n            contract_phase: ContractPhase.Initial\r\n        });\r\n\r\n        contract_record[new_id] = instance;\r\n        contract_record_keys.push(new_id);\r\n        user_info[student].contract_instance_record.push(new_id);\r\n        user_info[landlord].contract_instance_record.push(new_id);\r\n    }\r\n\r\n    /*  The function allows the student to pay the deposit for the room he has locked in the contract instance\r\n        The contract allows some tolerance on the amount received as the deposit\r\n    */\r\n    function student_pay_deposit() public payable {\r\n        Role role = user_info[msg.sender].role;\r\n        require(role == Role.Student);\r\n        uint256 contract_id = user_info[msg.sender].contract_instance_record[0];\r\n        //console.log(contract_id);\r\n        contract_instance memory instance = contract_record[contract_id];\r\n        require(!instance.student_paid, \"You already paid for this contract\");\r\n        uint256 paid_amount = msg.value;\r\n        uint256 amt_to_pay = get_student_deposit_in_wei(instance.room_id);\r\n        //console.log(\"Paid amount\", paid_amount);\r\n        //console.log(\"Amount to pay\", amt_to_pay);\r\n        require((amt_to_pay - 100000) <= paid_amount && paid_amount <= (amt_to_pay + 100000), \"Wrong amount paid\");\r\n        \r\n        if (instance.landlord_paid) {\r\n            instance.contract_phase = ContractPhase.Stable;\r\n        }\r\n\r\n        instance.amt_paid_student = paid_amount;\r\n        instance.student_paid = true;\r\n        contract_record[contract_id] = instance;\r\n        \r\n        \r\n    }\r\n\r\n    /*  @param contract_id\r\n        The function allows the student to pay the deposit for one of the rooms that are currently blocked in a contract instance\r\n        The contract allows some tolerance on the amount received as the deposit\r\n    */\r\n    function landlord_pay_deposit(uint256 contract_id) public payable {\r\n        uint256 amt_to_pay = get_landlord_deposit_in_wei();\r\n        contract_instance memory instance = contract_record[contract_id];\r\n        require(!instance.landlord_paid, \"You already paid for this contract\");\r\n        Role role = user_info[msg.sender].role;\r\n        require(role == Role.Landlord, \"Data inconsistency\"); // probabilmente inutile (gi implicitamente incluso nel secondo require)\r\n        require(msg.sender == instance.landlord, \"Data inconsistency\");\r\n        uint256 paid_amount = msg.value;\r\n        require((amt_to_pay - 100000) <= paid_amount && paid_amount <= (amt_to_pay + 100000), \"Wrong amount paid\"); \r\n        instance.amt_paid_landlord = paid_amount;\r\n        instance.landlord_paid = true;\r\n\r\n        if (instance.student_paid) {\r\n            instance.contract_phase = ContractPhase.Stable;\r\n        }\r\n        contract_record[contract_id] = instance;    \r\n    }\r\n\r\n    /*  @param contract_id\r\n        The function allows either party to withdraw from their contract\r\n        The function behaves accordingly to the phase the contract is in\r\n    */\r\n    function withdraw_from_contract(uint256 contract_id) public {\r\n        address receder = msg.sender;\r\n\r\n        address other;\r\n\r\n        contract_instance memory instance = contract_record[contract_id];\r\n        require(instance.contract_phase != ContractPhase.Hibernated, \"You can't withdraw from a hibernated contract\");\r\n\r\n        if (user_info[msg.sender].role == Role.Student) {\r\n            // require also protects in case contract_id doesn't exist\r\n            require(instance.student == msg.sender, \"You tried to withdraw from a contract you are not a part of\");\r\n            other = contract_record[contract_id].landlord;\r\n        }\r\n        else {\r\n            // require also protects in case contract_id doesn't exist\r\n            require(instance.landlord == msg.sender, \"You tried to withdraw from a contract you are not a part of\");\r\n            other = contract_record[contract_id].student;\r\n        }\r\n        uint256 room_id = instance.room_id;\r\n\r\n        if (instance.contract_phase == ContractPhase.Initial) {\r\n            if (instance.student_paid) {\r\n                uint256 amt_to_give_back = instance.amt_paid_student * 10 / 11;\r\n                instance.student.transfer(amt_to_give_back);\r\n            }\r\n            else if (instance.landlord_paid) {\r\n                instance.landlord.transfer(instance.amt_paid_landlord);\r\n            }\r\n        }\r\n        else if (instance.contract_phase == ContractPhase.Stable) {\r\n            uint256 amt_to_give_back = instance.amt_paid_student * 10 / 11;\r\n    \r\n            payable(other).transfer(amt_to_give_back + instance.amt_paid_landlord);\r\n        }\r\n        delete_contract_instance(receder, other, contract_id, room_id); \r\n    }\r\n\r\n    /*  @param contract_id\r\n        function allows either party to end their contract successfully.\r\n        It updates the contract instance to indicate that the sender has concluded the contract.\r\n        If both parties have concluded the contract, it calls an internal to delete this contract instance\r\n         and transfer any funds paid to the landlord\r\n    */\r\n    function end_contract_successfully(uint256 contract_id) public returns (bool) {\r\n        contract_instance memory instance = contract_record[contract_id];\r\n        require(instance.contract_phase == ContractPhase.Stable);\r\n        /* require(instance.student_paid, \"Student has yet to pay\");\r\n        require(instance.landlord_paid, \"landlord has yet to pay\"); */\r\n        address student;\r\n        address landlord;\r\n        if (user_info[msg.sender].role == Role.Student) {\r\n            student = msg.sender;\r\n            require(instance.student == student, \"You are trying to terminate a contract you are not a part of\");\r\n            instance.concluded_student = true;\r\n            landlord = instance.landlord;\r\n        }\r\n        else if (user_info[msg.sender].role == Role.Landlord){\r\n            landlord = msg.sender;\r\n            require(instance.landlord == landlord, \"You are trying to terminate a contract you are not a part of\");\r\n            instance.concluded_landlord = true;\r\n            student = instance.student;\r\n        }\r\n\r\n        if (instance.concluded_landlord && instance.concluded_student) {\r\n            uint256 amt_to_give_back = rooms_record[instance.room_id].deposit * conversion_rate;\r\n            payable(landlord).transfer(amt_to_give_back);\r\n            payable(landlord).transfer(instance.amt_paid_landlord);\r\n            delete_contract_instance(student, landlord, contract_id, 0);\r\n            return true;\r\n        }\r\n        else {\r\n            contract_record[contract_id] = instance;\r\n            return false;\r\n        }\r\n    }\r\n\r\n    /*  @param contract id\r\n        function to hibernate the contract if one party suspects malevolent behavior\r\n     */\r\n    function hibernate_contract(uint256 contract_id) public {\r\n        contract_instance memory instance = contract_record[contract_id];\r\n        require(instance.student == msg.sender || instance.landlord == msg.sender, \"You are trying to hibernate a contract you are not a part of\");\r\n        require(instance.contract_phase == ContractPhase.Stable, \"You can only hibernate a contract when it's considered stable\");\r\n        instance.contract_phase = ContractPhase.Hibernated;\r\n        contract_record[contract_id] = instance;\r\n        hibernated_contracts[contract_id] = msg.sender;\r\n    }\r\n\r\n    /*  @param contract_id\r\n        this function allows the party who hibernated the contract to unlock it and restore its previous state of stable contract\r\n        (pacific resolution)\r\n     */\r\n    function de_hibernate_contract(uint256 contract_id) public {\r\n        require(hibernated_contracts[contract_id] == msg.sender, \"You cannot unlock a contract instance if it wasn't you who hibernated it\");\r\n        delete(hibernated_contracts[contract_id]);\r\n        contract_instance memory instance = contract_record[contract_id];\r\n        instance.contract_phase = ContractPhase.Stable;\r\n        contract_record[contract_id] = instance;\r\n    }\r\n\r\n    /*  @param contract_id\r\n        allows one party in a hibernated contract to admit fault \r\n        All the money deposited in the contract (minus the 10% earned by the contract) are given to the other part and the contract instance is terminated\r\n    */\r\n    function admit_fault(uint256 contract_id) public {\r\n        contract_instance memory instance = contract_record[contract_id];\r\n        require(instance.student == msg.sender || instance.landlord == msg.sender, \"You can't perform this action on a contract you are not a part of\");\r\n        require(instance.contract_phase == ContractPhase.Hibernated, \"You can't perform this action on a contract that is not hibernated\");\r\n        address payable other;\r\n        if (instance.student == msg.sender) {\r\n            other = instance.landlord;\r\n        }\r\n        else {\r\n            other = instance.student;\r\n        }\r\n        uint256 amt_to_give_back = instance.amt_paid_landlord + instance.amt_paid_student * 10 / 11;\r\n        other.transfer(amt_to_give_back);\r\n        delete(hibernated_contracts[contract_id]);\r\n        delete_contract_instance(instance.student, instance.landlord, contract_id, instance.room_id);\r\n    }\r\n\r\n    /*  @param current_timestamp the current timestamp passed by the application; the time unit of the parameter is seconds\r\n        The function iterates the mapping contract_record and checks, for each contract in the initial phase, if the time limit to make the contract stable has been reached\r\n        if so, the contract instance gets deleted and the money potentially paid by one of the parties is given back (if the student gets refunded the contract keeps the 10% earning)\r\n        the function returns an array with the contract ids of all the contracts instance that have been deleted\r\n        Since the contract has no notion of time, the application will be in charge to periodically call this function\r\n     */\r\n    function check_unstable_contracts_validity(uint256 current_timestamp) public returns (uint256[] memory) {\r\n        uint256[] memory expired_contracts = new uint256[](contract_record_keys.length); \r\n        for (uint256 i = 0; i < contract_record_keys.length; i++) {\r\n            uint256 contract_id = contract_record_keys[i];\r\n            contract_instance memory instance = contract_record[contract_id];\r\n            if (instance.contract_phase == ContractPhase.Initial && current_timestamp >= (instance.creation_time + time_limit_to_make_contract_stable)) {\r\n                expired_contracts[i] = contract_id;\r\n                if (instance.student_paid) {\r\n                    instance.student.transfer(instance.amt_paid_student * 10 / 11);\r\n                }\r\n                else if (instance.landlord_paid) {\r\n                    instance.landlord.transfer(instance.amt_paid_landlord);\r\n                }\r\n                delete_contract_instance(instance.student, instance.landlord, contract_id, instance.room_id);\r\n            }\r\n        }\r\n        //uint256[] memory actual_array = expired_contracts[0:actual_length];\r\n        return expired_contracts; \r\n        // the array is with high probability partially \"empty\", but I can't slice it nor I can create it dynamically and use the push() method and I honestly feel like crying\r\n        // It should be fine anyways because the default value should be zero and the contract ids start from 1, so there shouldn't be any ambiguity. \r\n        // The application will need to keep this into consideration though.\r\n    }\r\n\r\n\r\n/*     function get_user_info(address add) public view returns (bool, uint256[] memory, uint256, bool) {\r\n        user memory u = user_info[add];\r\n        bool role;\r\n        if (u.role == Role.Landlord) {\r\n            role = true;\r\n        }\r\n        else {\r\n            role = false;\r\n        }\r\n        uint256[] memory contract_instance_record = u.contract_instance_record;\r\n        uint256 num_rooms = u.num_rooms;\r\n        bool already_init = u.already_init;\r\n        return (role, contract_instance_record, num_rooms, already_init);\r\n    }\r\n\r\n    function get_room_list(address a) public view returns (uint256[] memory) {\r\n        return landlords_rooms[a];\r\n    }\r\n     */\r\n\r\n    function get_contract_info(uint256 contract_id) public view returns (uint256, uint256, bool, bool, uint256, uint256, bool, bool, address, address, ContractPhase) {\r\n        contract_instance memory instance = contract_record[contract_id]; \r\n        return (contract_id, instance.room_id, instance.student_paid, instance.landlord_paid, instance.amt_paid_student, instance.amt_paid_landlord, instance.concluded_student, instance.concluded_landlord, instance.student, instance.landlord, instance.contract_phase);\r\n    }\r\n\r\n    // returns the deposit for the blocked room in wei with the 10% added as the contract's fee for the service\r\n    function get_student_deposit_in_wei(uint256 room_id) public view returns (uint256) {\r\n        uint256 deposit = rooms_record[room_id].deposit;\r\n        uint256 net_amt_in_wei = deposit * conversion_rate;\r\n        uint256 contract_gain = net_amt_in_wei / 10;\r\n        return (net_amt_in_wei + contract_gain); \r\n    }\r\n\r\n    function get_landlord_deposit_in_wei() public view returns (uint256) {\r\n        return (landlord_deposit * conversion_rate);\r\n    }\r\n\r\n/*     function get_room_info(uint256 room_id) public view returns (uint256, address, bool, uint256) {\r\n        room memory r = rooms_record[room_id];\r\n        uint256 id = r.id;\r\n        address owner = r.owner;\r\n        bool occupied = r.occupied;\r\n        uint256 deposit = r.deposit;\r\n        return (id, owner, occupied, deposit);\r\n    }\r\n */\r\n    /* function get_user_info_map() public view {\r\n        for (uint256 i = 0; i < user_info_keys.length; i++) {\r\n            if (user_info[user_info_keys[i]].role == Role.Student) {\r\n                //console.log(user_info_keys[i], false);\r\n            }\r\n            else {\r\n                //console.log(user_info_keys[i], true);\r\n            }\r\n            \r\n        }\r\n    \r\n    } */\r\n\r\n    /* function get_contract_record() public view {\r\n        for (uint256 i = 0; i < contract_record_keys.length; i++) {\r\n            (uint256 a, uint256 b, bool c, bool d, uint256 e, uint256 f, bool g, bool h, address j, address k) = get_contract_info(contract_record_keys[i]);\r\n            console.log(a);\r\n            console.log(b);\r\n            console.log(c);\r\n            console.log(d);\r\n            console.log(e);\r\n            console.log(f);\r\n            console.log(g);\r\n            console.log(h);\r\n            console.log(j);\r\n            console.log(k);\r\n            console.log(\"\\n\");\r\n            console.log(\"\\n\");\r\n        }\r\n    } */\r\n\r\n    function check_if_already_paid(address addr, uint256 contract_id) public view returns (bool) {\r\n        Role role = user_info[addr].role;\r\n        contract_instance memory instance = contract_record[contract_id];\r\n        if (role == Role.Landlord) {\r\n            //console.log(\"Role: \", true);\r\n            //console.log(\"Instance landlord: \", instance.landlord);\r\n            require(addr == instance.landlord, \"Data inconsistency 1\");\r\n            return instance.landlord_paid;\r\n        }\r\n        else {\r\n            //console.log(\"Role: \", false);\r\n            //console.log(\"Instance student: \", instance.student);\r\n            require(addr == instance.student, \"Data inconsistency 2\");\r\n            return instance.student_paid;\r\n        }\r\n    }\r\n\r\n\r\n    function check_if_already_in_contract(address student, uint256 room_id) private view returns (bool) {\r\n        // checks if the student or the room are already in a contract instance\r\n        \r\n        uint256[] memory student_array = user_info[student].contract_instance_record;\r\n\r\n        if (student_array.length > 0 || rooms_record[room_id].occupied == true) {\r\n            return true;\r\n        }\r\n        return false;\r\n\r\n    }\r\n\r\n    function check_user_already_registered(address add) private view returns (bool) {\r\n        return user_info[add].already_init;\r\n    } \r\n\r\n    function delete_contract_instance(address a1, address a2, uint256 contract_id, uint256 room_id) private {\r\n        \r\n        // delete the contract instance\r\n        delete(contract_record[contract_id]);\r\n        remove(contract_record_keys, contract_id);\r\n\r\n        // mark the room as not occupied\r\n        // if the room id is 0, then the function takes it as a default value to signal that the \r\n        // contract instance is being terminated successfully --> the  room keeps being marked as occupied\r\n        if(room_id != 0) {\r\n            rooms_record[room_id].occupied = false;\r\n        }\r\n        // modify the list of contract instances the addresses are a part of\r\n        uint256[] memory a1_record = user_info[a1].contract_instance_record;\r\n        uint256[] memory a1_new_record; // la lunghezza  uno in meno perch tolgo l'id di contratto dall'array\r\n        uint256[] memory a2_record = user_info[a2].contract_instance_record;\r\n        uint256[] memory a2_new_record;\r\n\r\n\r\n        for (uint256 i = 0; i < a1_record.length; i++) {\r\n            if (a1_record[i] != contract_id) {\r\n                a1_new_record[i] = a1_record[i];\r\n            }  \r\n        }\r\n        user_info[a1].contract_instance_record = a1_new_record; \r\n\r\n        for (uint256 i = 0; i < a2_record.length; i++) {\r\n            if (a2_record[i] != contract_id) {\r\n                a2_new_record[i] = a2_record[i];\r\n            }  \r\n        }\r\n        user_info[a2].contract_instance_record = a2_new_record;\r\n    }\r\n\r\n    function remove(uint256[] storage array, uint256 element) private {\r\n        uint256 index;\r\n        bool found = false;\r\n        for(uint256 i = 0; i < array.length; i++) {\r\n            if (array[i] == element) {\r\n                index = i;\r\n                found = true;\r\n                break;\r\n            }\r\n        }\r\n        require(found, \"Element not present in array\");\r\n        array[index] = array[array.length - 1];\r\n        array.pop();\r\n    }\r\n\r\n    /* function remove(address[] storage array, address element) private {\r\n        uint256 index;\r\n        bool found = false;\r\n        for(uint256 i = 0; i < array.length; i++) {\r\n            if (array[i] == element) {\r\n                index = i;\r\n                found = true;\r\n                break;\r\n            }\r\n        }\r\n        require(found, \"Element not present in array\");\r\n        array[index] = array[array.length - 1];\r\n        array.pop();\r\n    } */\r\n\r\n    fallback() external payable {\r\n        emit Log(\"fallback\", msg.sender, msg.value, msg.data);\r\n    }\r\n\r\n    receive() external payable {\r\n        emit Log(\"receive\", msg.sender, msg.value, \"\");\r\n    }\r\n}\r\n\r\n",
  "sourcePath": "C:\\Users\\annag\\OneDrive\\Desktop\\Varie\\Unitn\\Blockchain\\HouseLocker\\smart_contracts\\Affitto\\contracts\\Affitto.sol",
  "compiler": {
    "name": "solc",
    "version": "0.8.20+commit.a1b79de6.Emscripten.clang"
  },
  "schemaVersion": "3.4.14",
  "updatedAt": "2023-07-09T21:57:57.102Z",
  "devdoc": {
    "kind": "dev",
    "methods": {},
    "title": "Affitto. The contract allows for the registration of a user as either a student or a landlord. The student can try out the service while the landlord can register rooms. The student calls a function (contract instance) to enter into a contract with the landlord. You can withdraw but the other party takes your money. When both parties agree, the contract is successfully terminated and the landlord takes both's money (since the student's  deposit will serve as an actual deposit for the legal lease).",
    "version": 1
  },
  "userdoc": {
    "kind": "user",
    "methods": {},
    "version": 1
  }
}