{
  "contractName": "Affitto",
  "abi": [
    {
      "inputs": [],
      "stateMutability": "nonpayable",
      "type": "constructor"
    },
    {
      "anonymous": false,
      "inputs": [
        {
          "indexed": false,
          "internalType": "string",
          "name": "func",
          "type": "string"
        },
        {
          "indexed": false,
          "internalType": "address",
          "name": "sender",
          "type": "address"
        },
        {
          "indexed": false,
          "internalType": "uint256",
          "name": "value",
          "type": "uint256"
        },
        {
          "indexed": false,
          "internalType": "bytes",
          "name": "data",
          "type": "bytes"
        }
      ],
      "name": "Log",
      "type": "event"
    },
    {
      "stateMutability": "payable",
      "type": "fallback"
    },
    {
      "stateMutability": "payable",
      "type": "receive"
    },
    {
      "inputs": [
        {
          "internalType": "bool",
          "name": "role_id",
          "type": "bool"
        }
      ],
      "name": "register_user",
      "outputs": [],
      "stateMutability": "nonpayable",
      "type": "function"
    },
    {
      "inputs": [
        {
          "internalType": "uint256[]",
          "name": "rooms",
          "type": "uint256[]"
        },
        {
          "internalType": "uint256[]",
          "name": "deposits",
          "type": "uint256[]"
        }
      ],
      "name": "register_rooms",
      "outputs": [],
      "stateMutability": "nonpayable",
      "type": "function"
    },
    {
      "inputs": [
        {
          "internalType": "address payable",
          "name": "renter",
          "type": "address"
        },
        {
          "internalType": "uint256",
          "name": "room_id",
          "type": "uint256"
        }
      ],
      "name": "inizialize",
      "outputs": [],
      "stateMutability": "nonpayable",
      "type": "function"
    },
    {
      "inputs": [
        {
          "internalType": "address payable",
          "name": "renter",
          "type": "address"
        }
      ],
      "name": "inizialize",
      "outputs": [],
      "stateMutability": "nonpayable",
      "type": "function"
    },
    {
      "inputs": [],
      "name": "student_pay_deposit",
      "outputs": [],
      "stateMutability": "payable",
      "type": "function"
    },
    {
      "inputs": [
        {
          "internalType": "uint256",
          "name": "contract_id",
          "type": "uint256"
        }
      ],
      "name": "renter_pay_deposit",
      "outputs": [],
      "stateMutability": "payable",
      "type": "function"
    },
    {
      "inputs": [
        {
          "internalType": "uint256",
          "name": "contract_id",
          "type": "uint256"
        }
      ],
      "name": "withdraw_from_contract",
      "outputs": [],
      "stateMutability": "nonpayable",
      "type": "function"
    },
    {
      "inputs": [
        {
          "internalType": "uint256",
          "name": "contract_id",
          "type": "uint256"
        }
      ],
      "name": "end_contract_successfully",
      "outputs": [
        {
          "internalType": "bool",
          "name": "",
          "type": "bool"
        }
      ],
      "stateMutability": "nonpayable",
      "type": "function"
    },
    {
      "inputs": [
        {
          "internalType": "address",
          "name": "add",
          "type": "address"
        }
      ],
      "name": "get_user_info",
      "outputs": [
        {
          "internalType": "bool",
          "name": "",
          "type": "bool"
        },
        {
          "internalType": "uint256[]",
          "name": "",
          "type": "uint256[]"
        },
        {
          "internalType": "uint256",
          "name": "",
          "type": "uint256"
        },
        {
          "internalType": "bool",
          "name": "",
          "type": "bool"
        }
      ],
      "stateMutability": "view",
      "type": "function"
    },
    {
      "inputs": [
        {
          "internalType": "address",
          "name": "a",
          "type": "address"
        }
      ],
      "name": "get_room_list",
      "outputs": [
        {
          "internalType": "uint256[]",
          "name": "",
          "type": "uint256[]"
        }
      ],
      "stateMutability": "view",
      "type": "function"
    },
    {
      "inputs": [
        {
          "internalType": "uint256",
          "name": "contract_id",
          "type": "uint256"
        }
      ],
      "name": "get_contract_info",
      "outputs": [
        {
          "internalType": "uint256",
          "name": "",
          "type": "uint256"
        },
        {
          "internalType": "uint256",
          "name": "",
          "type": "uint256"
        },
        {
          "internalType": "bool",
          "name": "",
          "type": "bool"
        },
        {
          "internalType": "bool",
          "name": "",
          "type": "bool"
        },
        {
          "internalType": "uint256",
          "name": "",
          "type": "uint256"
        },
        {
          "internalType": "uint256",
          "name": "",
          "type": "uint256"
        },
        {
          "internalType": "bool",
          "name": "",
          "type": "bool"
        },
        {
          "internalType": "bool",
          "name": "",
          "type": "bool"
        },
        {
          "internalType": "address",
          "name": "",
          "type": "address"
        },
        {
          "internalType": "address",
          "name": "",
          "type": "address"
        }
      ],
      "stateMutability": "view",
      "type": "function"
    },
    {
      "inputs": [
        {
          "internalType": "uint256",
          "name": "room_id",
          "type": "uint256"
        }
      ],
      "name": "get_deposit_in_wei",
      "outputs": [
        {
          "internalType": "uint256",
          "name": "",
          "type": "uint256"
        }
      ],
      "stateMutability": "view",
      "type": "function"
    },
    {
      "inputs": [
        {
          "internalType": "uint256",
          "name": "room_id",
          "type": "uint256"
        }
      ],
      "name": "get_room_info",
      "outputs": [
        {
          "internalType": "uint256",
          "name": "",
          "type": "uint256"
        },
        {
          "internalType": "address",
          "name": "",
          "type": "address"
        },
        {
          "internalType": "bool",
          "name": "",
          "type": "bool"
        },
        {
          "internalType": "uint256",
          "name": "",
          "type": "uint256"
        }
      ],
      "stateMutability": "view",
      "type": "function"
    },
    {
      "inputs": [
        {
          "internalType": "address",
          "name": "addr",
          "type": "address"
        },
        {
          "internalType": "uint256",
          "name": "contract_id",
          "type": "uint256"
        }
      ],
      "name": "check_if_already_paid",
      "outputs": [
        {
          "internalType": "bool",
          "name": "",
          "type": "bool"
        }
      ],
      "stateMutability": "view",
      "type": "function"
    }
  ],
  "bytecode": "0x6080604052305f806101000a81548173ffffffffffffffffffffffffffffffffffffffff021916908373ffffffffffffffffffffffffffffffffffffffff1602179055506602150df0ba6eda600955348015610059575f80fd5b505f600a819055506142c28061006e5f395ff3fe6080604052600436106100e0575f3560e01c8063a1370f1b1161007e578063d8f229ab11610058578063d8f229ab1461034c578063da9ae23414610374578063db3189b71461039c578063e206e1a1146103c457610120565b8063a1370f1b146102c7578063b2f0190114610306578063d7b0e16b1461031057610120565b806365cdf7c3116100ba57806365cdf7c3146101df578063774deb421461021b5780638c4db0251461026057806399aa59781461029f57610120565b80631db8d6cd1461015f57806322aece9c1461017b5780633acbba6e146101a357610120565b36610120577ff7f75251dee7d7fc22deac3247729ebe7c86541f35930bf10c2a4207479a3b6c333460405161011692919061346a565b60405180910390a1005b7ff7f75251dee7d7fc22deac3247729ebe7c86541f35930bf10c2a4207479a3b6c33345f36604051610155949392919061354b565b60405180910390a1005b610179600480360381019061017491906135d7565b610400565b005b348015610186575f80fd5b506101a1600480360381019061019c9190613742565b61085d565b005b3480156101ae575f80fd5b506101c960048036038101906101c491906137e2565b610b64565b6040516101d6919061383a565b60405180910390f35b3480156101ea575f80fd5b50610205600480360381019061020091906135d7565b610e3f565b604051610212919061383a565b60405180910390f35b348015610226575f80fd5b50610241600480360381019061023c91906135d7565b61111c565b6040516102579a99989796959493929190613853565b60405180910390f35b34801561026b575f80fd5b50610286600480360381019061028191906138ed565b6112d4565b60405161029694939291906139cf565b60405180910390f35b3480156102aa575f80fd5b506102c560048036038101906102c09190613a43565b611443565b005b3480156102d2575f80fd5b506102ed60048036038101906102e891906135d7565b611774565b6040516102fd9493929190613a6e565b60405180910390f35b61030e611851565b005b34801561031b575f80fd5b50610336600480360381019061033191906135d7565b611c62565b6040516103439190613ab1565b60405180910390f35b348015610357575f80fd5b50610372600480360381019061036d9190613b05565b611c91565b005b34801561037f575f80fd5b5061039a60048036038101906103959190613b43565b612119565b005b3480156103a7575f80fd5b506103c260048036038101906103bd91906135d7565b612622565b005b3480156103cf575f80fd5b506103ea60048036038101906103e591906138ed565b6128de565b6040516103f79190613b6e565b60405180910390f35b5f60015f8381526020019081526020015f20604051806101400160405290815f820154815260200160018201548152602001600282015f9054906101000a900460ff161515151581526020016002820160019054906101000a900460ff161515151581526020016003820154815260200160048201548152602001600582015f9054906101000a900460ff161515151581526020016005820160019054906101000a900460ff161515151581526020016005820160029054906101000a900473ffffffffffffffffffffffffffffffffffffffff1673ffffffffffffffffffffffffffffffffffffffff1673ffffffffffffffffffffffffffffffffffffffff168152602001600682015f9054906101000a900473ffffffffffffffffffffffffffffffffffffffff1673ffffffffffffffffffffffffffffffffffffffff1673ffffffffffffffffffffffffffffffffffffffff168152505090505f60035f3373ffffffffffffffffffffffffffffffffffffffff1673ffffffffffffffffffffffffffffffffffffffff1681526020019081526020015f205f015f9054906101000a900460ff1690505f60018111156105be576105bd613b8e565b5b8160018111156105d1576105d0613b8e565b5b14610611576040517f08c379a000000000000000000000000000000000000000000000000000000000815260040161060890613c05565b60405180910390fd5b81610120015173ffffffffffffffffffffffffffffffffffffffff163373ffffffffffffffffffffffffffffffffffffffff1614610684576040517f08c379a000000000000000000000000000000000000000000000000000000000815260040161067b90613c05565b60405180910390fd5b5f60075f846020015181526020019081526020015f206002015490505f349050816009546106b29190613c50565b81146106f3576040517f08c379a00000000000000000000000000000000000000000000000000000000081526004016106ea90613cdb565b60405180910390fd5b808460a001818152505060018460600190151590811515815250508360015f8781526020019081526020015f205f820151815f0155602082015181600101556040820151816002015f6101000a81548160ff02191690831515021790555060608201518160020160016101000a81548160ff0219169083151502179055506080820151816003015560a0820151816004015560c0820151816005015f6101000a81548160ff02191690831515021790555060e08201518160050160016101000a81548160ff0219169083151502179055506101008201518160050160026101000a81548173ffffffffffffffffffffffffffffffffffffffff021916908373ffffffffffffffffffffffffffffffffffffffff160217905550610120820151816006015f6101000a81548173ffffffffffffffffffffffffffffffffffffffff021916908373ffffffffffffffffffffffffffffffffffffffff1602179055509050505050505050565b5f60018111156108705761086f613b8e565b5b60035f3373ffffffffffffffffffffffffffffffffffffffff1673ffffffffffffffffffffffffffffffffffffffff1681526020019081526020015f205f015f9054906101000a900460ff1660018111156108ce576108cd613b8e565b5b1461090e576040517f08c379a000000000000000000000000000000000000000000000000000000000815260040161090590613d8f565b60405180910390fd5b8051825114610952576040517f08c379a000000000000000000000000000000000000000000000000000000000815260040161094990613e1d565b60405180910390fd5b5f825190508060035f3373ffffffffffffffffffffffffffffffffffffffff1673ffffffffffffffffffffffffffffffffffffffff1681526020019081526020015f20600201819055505f5b81811015610b5e575f60405180608001604052808684815181106109c5576109c4613e3b565b5b602002602001015181526020013373ffffffffffffffffffffffffffffffffffffffff1681526020015f15158152602001858481518110610a0957610a08613e3b565b5b6020026020010151815250905060055f3373ffffffffffffffffffffffffffffffffffffffff1673ffffffffffffffffffffffffffffffffffffffff1681526020019081526020015f20858381518110610a6657610a65613e3b565b5b6020026020010151908060018154018082558091505060019003905f5260205f20015f90919091909150558060075f835f015181526020019081526020015f205f820151815f01556020820151816001015f6101000a81548173ffffffffffffffffffffffffffffffffffffffff021916908373ffffffffffffffffffffffffffffffffffffffff16021790555060408201518160010160146101000a81548160ff021916908315150217905550606082015181600201559050506008815f0151908060018154018082558091505060019003905f5260205f20015f9091909190915055508080610b5690613e68565b91505061099e565b50505050565b5f8060035f8573ffffffffffffffffffffffffffffffffffffffff1673ffffffffffffffffffffffffffffffffffffffff1681526020019081526020015f205f015f9054906101000a900460ff1690505f60015f8581526020019081526020015f20604051806101400160405290815f820154815260200160018201548152602001600282015f9054906101000a900460ff161515151581526020016002820160019054906101000a900460ff161515151581526020016003820154815260200160048201548152602001600582015f9054906101000a900460ff161515151581526020016005820160019054906101000a900460ff161515151581526020016005820160029054906101000a900473ffffffffffffffffffffffffffffffffffffffff1673ffffffffffffffffffffffffffffffffffffffff1673ffffffffffffffffffffffffffffffffffffffff168152602001600682015f9054906101000a900473ffffffffffffffffffffffffffffffffffffffff1673ffffffffffffffffffffffffffffffffffffffff1673ffffffffffffffffffffffffffffffffffffffff168152505090505f6001811115610d2357610d22613b8e565b5b826001811115610d3657610d35613b8e565b5b03610dbc5780610120015173ffffffffffffffffffffffffffffffffffffffff168573ffffffffffffffffffffffffffffffffffffffff1614610dae576040517f08c379a0000000000000000000000000000000000000000000000000000000008152600401610da590613c05565b60405180910390fd5b806060015192505050610e39565b80610100015173ffffffffffffffffffffffffffffffffffffffff168573ffffffffffffffffffffffffffffffffffffffff1614610e2f576040517f08c379a0000000000000000000000000000000000000000000000000000000008152600401610e2690613c05565b60405180910390fd5b8060400151925050505b92915050565b5f8060015f8481526020019081526020015f20604051806101400160405290815f820154815260200160018201548152602001600282015f9054906101000a900460ff161515151581526020016002820160019054906101000a900460ff161515151581526020016003820154815260200160048201548152602001600582015f9054906101000a900460ff161515151581526020016005820160019054906101000a900460ff161515151581526020016005820160029054906101000a900473ffffffffffffffffffffffffffffffffffffffff1673ffffffffffffffffffffffffffffffffffffffff1673ffffffffffffffffffffffffffffffffffffffff168152602001600682015f9054906101000a900473ffffffffffffffffffffffffffffffffffffffff1673ffffffffffffffffffffffffffffffffffffffff1673ffffffffffffffffffffffffffffffffffffffff168152505090505f80600180811115610fb157610fb0613b8e565b5b60035f3373ffffffffffffffffffffffffffffffffffffffff1673ffffffffffffffffffffffffffffffffffffffff1681526020019081526020015f205f015f9054906101000a900460ff16600181111561100f5761100e613b8e565b5b036110355733915060018360c00190151590811515815250508261012001519050611052565b33905060018360e001901515908115158152505082610100015191505b8260e00151801561106457508260c001515b1561111057611074828287612971565b8173ffffffffffffffffffffffffffffffffffffffff166108fc846080015190811502906040515f60405180830381858888f193505050501580156110bb573d5f803e3d5ffd5b508073ffffffffffffffffffffffffffffffffffffffff166108fc8460a0015190811502906040515f60405180830381858888f19350505050158015611103573d5f803e3d5ffd5b5060019350505050611117565b5f93505050505b919050565b5f805f805f805f805f805f60015f8d81526020019081526020015f20604051806101400160405290815f820154815260200160018201548152602001600282015f9054906101000a900460ff161515151581526020016002820160019054906101000a900460ff161515151581526020016003820154815260200160048201548152602001600582015f9054906101000a900460ff161515151581526020016005820160019054906101000a900460ff161515151581526020016005820160029054906101000a900473ffffffffffffffffffffffffffffffffffffffff1673ffffffffffffffffffffffffffffffffffffffff1673ffffffffffffffffffffffffffffffffffffffff168152602001600682015f9054906101000a900473ffffffffffffffffffffffffffffffffffffffff1673ffffffffffffffffffffffffffffffffffffffff1673ffffffffffffffffffffffffffffffffffffffff168152505090508b81602001518260400151836060015184608001518560a001518660c001518760e001518861010001518961012001519a509a509a509a509a509a509a509a509a509a50509193959799509193959799565b5f60605f805f60035f8773ffffffffffffffffffffffffffffffffffffffff1673ffffffffffffffffffffffffffffffffffffffff1681526020019081526020015f206040518060800160405290815f82015f9054906101000a900460ff16600181111561134557611344613b8e565b5b600181111561135757611356613b8e565b5b8152602001600182018054806020026020016040519081016040528092919081815260200182805480156113a857602002820191905f5260205f20905b815481526020019060010190808311611394575b5050505050815260200160028201548152602001600382015f9054906101000a900460ff16151515158152505090505f8060018111156113eb576113ea613b8e565b5b825f0151600181111561140157611400613b8e565b5b0361140f5760019050611413565b5f90505b5f826020015190505f836040015190505f8460600151905083838383985098509850985050505050509193509193565b60035f3373ffffffffffffffffffffffffffffffffffffffff1673ffffffffffffffffffffffffffffffffffffffff1681526020019081526020015f206003015f9054906101000a900460ff16156114d0576040517f08c379a00000000000000000000000000000000000000000000000000000000081526004016114c790613ef9565b60405180910390fd5b606081156116265760405180608001604052805f60018111156114f6576114f5613b8e565b5b81526020018281526020015f81526020016001151581525060035f3373ffffffffffffffffffffffffffffffffffffffff1673ffffffffffffffffffffffffffffffffffffffff1681526020019081526020015f205f820151815f015f6101000a81548160ff0219169083600181111561157357611572613b8e565b5b02179055506020820151816001019080519060200190611594929190613320565b50604082015181600201556060820151816003015f6101000a81548160ff021916908315150217905550905050600433908060018154018082558091505060019003905f5260205f20015f9091909190916101000a81548173ffffffffffffffffffffffffffffffffffffffff021916908373ffffffffffffffffffffffffffffffffffffffff160217905550611770565b604051806080016040528060018081111561164457611643613b8e565b5b81526020018281526020015f81526020016001151581525060035f3373ffffffffffffffffffffffffffffffffffffffff1673ffffffffffffffffffffffffffffffffffffffff1681526020019081526020015f205f820151815f015f6101000a81548160ff021916908360018111156116c1576116c0613b8e565b5b021790555060208201518160010190805190602001906116e2929190613320565b50604082015181600201556060820151816003015f6101000a81548160ff021916908315150217905550905050600433908060018154018082558091505060019003905f5260205f20015f9091909190916101000a81548173ffffffffffffffffffffffffffffffffffffffff021916908373ffffffffffffffffffffffffffffffffffffffff1602179055505b5050565b5f805f805f60075f8781526020019081526020015f206040518060800160405290815f8201548152602001600182015f9054906101000a900473ffffffffffffffffffffffffffffffffffffffff1673ffffffffffffffffffffffffffffffffffffffff1673ffffffffffffffffffffffffffffffffffffffff1681526020016001820160149054906101000a900460ff1615151515815260200160028201548152505090505f815f015190505f826020015190505f836040015190505f8460600151905083838383985098509850985050505050509193509193565b5f60035f3373ffffffffffffffffffffffffffffffffffffffff1673ffffffffffffffffffffffffffffffffffffffff1681526020019081526020015f205f015f9054906101000a900460ff1690506001808111156118b3576118b2613b8e565b5b8160018111156118c6576118c5613b8e565b5b146118cf575f80fd5b5f60035f3373ffffffffffffffffffffffffffffffffffffffff1673ffffffffffffffffffffffffffffffffffffffff1681526020019081526020015f206001015f8154811061192257611921613e3b565b5b905f5260205f20015490505f60015f8381526020019081526020015f20604051806101400160405290815f820154815260200160018201548152602001600282015f9054906101000a900460ff161515151581526020016002820160019054906101000a900460ff161515151581526020016003820154815260200160048201548152602001600582015f9054906101000a900460ff161515151581526020016005820160019054906101000a900460ff161515151581526020016005820160029054906101000a900473ffffffffffffffffffffffffffffffffffffffff1673ffffffffffffffffffffffffffffffffffffffff1673ffffffffffffffffffffffffffffffffffffffff168152602001600682015f9054906101000a900473ffffffffffffffffffffffffffffffffffffffff1673ffffffffffffffffffffffffffffffffffffffff1673ffffffffffffffffffffffffffffffffffffffff168152505090505f60075f836020015181526020019081526020015f206002015490505f34905081600954611ab79190613c50565b8114611af8576040517f08c379a0000000000000000000000000000000000000000000000000000000008152600401611aef90613cdb565b60405180910390fd5b8083608001818152505060018360400190151590811515815250508260015f8681526020019081526020015f205f820151815f0155602082015181600101556040820151816002015f6101000a81548160ff02191690831515021790555060608201518160020160016101000a81548160ff0219169083151502179055506080820151816003015560a0820151816004015560c0820151816005015f6101000a81548160ff02191690831515021790555060e08201518160050160016101000a81548160ff0219169083151502179055506101008201518160050160026101000a81548173ffffffffffffffffffffffffffffffffffffffff021916908373ffffffffffffffffffffffffffffffffffffffff160217905550610120820151816006015f6101000a81548173ffffffffffffffffffffffffffffffffffffffff021916908373ffffffffffffffffffffffffffffffffffffffff1602179055509050505050505050565b5f8060075f8481526020019081526020015f2060020154905060095481611c899190613c50565b915050919050565b611c9a33612d13565b611cd9576040517f08c379a0000000000000000000000000000000000000000000000000000000008152600401611cd090613f61565b60405180910390fd5b611ce282612d13565b611d21576040517f08c379a0000000000000000000000000000000000000000000000000000000008152600401611d1890613fc9565b60405180910390fd5b5f3390505f1515611d328284612d68565b151514611d74576040517f08c379a0000000000000000000000000000000000000000000000000000000008152600401611d6b90614057565b60405180910390fd5b8273ffffffffffffffffffffffffffffffffffffffff1660075f8481526020019081526020015f206001015f9054906101000a900473ffffffffffffffffffffffffffffffffffffffff1673ffffffffffffffffffffffffffffffffffffffff1614611e15576040517f08c379a0000000000000000000000000000000000000000000000000000000008152600401611e0c906140e5565b60405180910390fd5b5f600a549050600a5f815480929190611e2d90613e68565b9190505550600160075f8581526020019081526020015f2060010160146101000a81548160ff0219169083151502179055505f6040518061014001604052808381526020018581526020015f151581526020015f151581526020015f81526020015f81526020015f151581526020015f151581526020018473ffffffffffffffffffffffffffffffffffffffff1681526020018673ffffffffffffffffffffffffffffffffffffffff1681525090508060015f8481526020019081526020015f205f820151815f0155602082015181600101556040820151816002015f6101000a81548160ff02191690831515021790555060608201518160020160016101000a81548160ff0219169083151502179055506080820151816003015560a0820151816004015560c0820151816005015f6101000a81548160ff02191690831515021790555060e08201518160050160016101000a81548160ff0219169083151502179055506101008201518160050160026101000a81548173ffffffffffffffffffffffffffffffffffffffff021916908373ffffffffffffffffffffffffffffffffffffffff160217905550610120820151816006015f6101000a81548173ffffffffffffffffffffffffffffffffffffffff021916908373ffffffffffffffffffffffffffffffffffffffff160217905550905050600282908060018154018082558091505060019003905f5260205f20015f909190919091505560035f8473ffffffffffffffffffffffffffffffffffffffff1673ffffffffffffffffffffffffffffffffffffffff1681526020019081526020015f2060010182908060018154018082558091505060019003905f5260205f20015f909190919091505560035f8673ffffffffffffffffffffffffffffffffffffffff1673ffffffffffffffffffffffffffffffffffffffff1681526020019081526020015f2060010182908060018154018082558091505060019003905f5260205f20015f90919091909150555050505050565b61212233612d13565b612161576040517f08c379a000000000000000000000000000000000000000000000000000000000815260040161215890613f61565b60405180910390fd5b61216a81612d13565b6121a9576040517f08c379a00000000000000000000000000000000000000000000000000000000081526004016121a090613fc9565b60405180910390fd5b5f3390505f805f90505f5b60035f8673ffffffffffffffffffffffffffffffffffffffff1673ffffffffffffffffffffffffffffffffffffffff1681526020019081526020015f20600201548110156123025760075f60055f8873ffffffffffffffffffffffffffffffffffffffff1673ffffffffffffffffffffffffffffffffffffffff1681526020019081526020015f20838154811061224e5761224d613e3b565b5b905f5260205f20015481526020019081526020015f2060010160149054906101000a900460ff166122ef576001915060075f60055f8873ffffffffffffffffffffffffffffffffffffffff1673ffffffffffffffffffffffffffffffffffffffff1681526020019081526020015f2083815481106122cf576122ce613e3b565b5b905f5260205f20015481526020019081526020015f205f01549250612302565b80806122fa90613e68565b9150506121b4565b5080612343576040517f08c379a000000000000000000000000000000000000000000000000000000000815260040161233a90614173565b60405180910390fd5b5f600a549050600a5f81548092919061235b90613e68565b9190505550600160075f8581526020019081526020015f2060010160146101000a81548160ff0219169083151502179055505f6040518061014001604052808381526020018581526020015f151581526020015f151581526020015f81526020015f81526020015f151581526020015f151581526020018673ffffffffffffffffffffffffffffffffffffffff1681526020018773ffffffffffffffffffffffffffffffffffffffff1681525090508060015f8481526020019081526020015f205f820151815f0155602082015181600101556040820151816002015f6101000a81548160ff02191690831515021790555060608201518160020160016101000a81548160ff0219169083151502179055506080820151816003015560a0820151816004015560c0820151816005015f6101000a81548160ff02191690831515021790555060e08201518160050160016101000a81548160ff0219169083151502179055506101008201518160050160026101000a81548173ffffffffffffffffffffffffffffffffffffffff021916908373ffffffffffffffffffffffffffffffffffffffff160217905550610120820151816006015f6101000a81548173ffffffffffffffffffffffffffffffffffffffff021916908373ffffffffffffffffffffffffffffffffffffffff16021790555090505060035f8673ffffffffffffffffffffffffffffffffffffffff1673ffffffffffffffffffffffffffffffffffffffff1681526020019081526020015f2060010182908060018154018082558091505060019003905f5260205f20015f909190919091505560035f8773ffffffffffffffffffffffffffffffffffffffff1673ffffffffffffffffffffffffffffffffffffffff1681526020019081526020015f2060010182908060018154018082558091505060019003905f5260205f20015f9091909190915055505050505050565b5f3390505f8060015f8581526020019081526020015f20604051806101400160405290815f820154815260200160018201548152602001600282015f9054906101000a900460ff161515151581526020016002820160019054906101000a900460ff161515151581526020016003820154815260200160048201548152602001600582015f9054906101000a900460ff161515151581526020016005820160019054906101000a900460ff161515151581526020016005820160029054906101000a900473ffffffffffffffffffffffffffffffffffffffff1673ffffffffffffffffffffffffffffffffffffffff1673ffffffffffffffffffffffffffffffffffffffff168152602001600682015f9054906101000a900473ffffffffffffffffffffffffffffffffffffffff1673ffffffffffffffffffffffffffffffffffffffff1673ffffffffffffffffffffffffffffffffffffffff1681525050905060018081111561279657612795613b8e565b5b60035f3373ffffffffffffffffffffffffffffffffffffffff1673ffffffffffffffffffffffffffffffffffffffff1681526020019081526020015f205f015f9054906101000a900460ff1660018111156127f4576127f3613b8e565b5b036128345760015f8581526020019081526020015f206006015f9054906101000a900473ffffffffffffffffffffffffffffffffffffffff16915061286c565b60015f8581526020019081526020015f2060050160029054906101000a900473ffffffffffffffffffffffffffffffffffffffff1691505b5f8160200151905061288084848784612e47565b8273ffffffffffffffffffffffffffffffffffffffff166108fc8360a0015184608001516128ae9190614191565b90811502906040515f60405180830381858888f193505050501580156128d6573d5f803e3d5ffd5b505050505050565b606060055f8373ffffffffffffffffffffffffffffffffffffffff1673ffffffffffffffffffffffffffffffffffffffff1681526020019081526020015f2080548060200260200160405190810160405280929190818152602001828054801561296557602002820191905f5260205f20905b815481526020019060010190808311612951575b50505050509050919050565b60015f8281526020019081526020015f205f8082015f9055600182015f9055600282015f6101000a81549060ff02191690556002820160016101000a81549060ff0219169055600382015f9055600482015f9055600582015f6101000a81549060ff02191690556005820160016101000a81549060ff02191690556005820160026101000a81549073ffffffffffffffffffffffffffffffffffffffff0219169055600682015f6101000a81549073ffffffffffffffffffffffffffffffffffffffff02191690555050612a46600282613216565b5f60035f8573ffffffffffffffffffffffffffffffffffffffff1673ffffffffffffffffffffffffffffffffffffffff1681526020019081526020015f20600101805480602002602001604051908101604052809291908181526020018280548015612acf57602002820191905f5260205f20905b815481526020019060010190808311612abb575b5050505050905060605f60035f8673ffffffffffffffffffffffffffffffffffffffff1673ffffffffffffffffffffffffffffffffffffffff1681526020019081526020015f20600101805480602002602001604051908101604052809291908181526020018280548015612b6157602002820191905f5260205f20905b815481526020019060010190808311612b4d575b5050505050905060605f5b8451811015612be45785858281518110612b8957612b88613e3b565b5b602002602001015114612bd157848181518110612ba957612ba8613e3b565b5b6020026020010151848281518110612bc457612bc3613e3b565b5b6020026020010181815250505b8080612bdc90613e68565b915050612b6c565b508260035f8973ffffffffffffffffffffffffffffffffffffffff1673ffffffffffffffffffffffffffffffffffffffff1681526020019081526020015f206001019080519060200190612c39929190613320565b505f5b8251811015612cb45785838281518110612c5957612c58613e3b565b5b602002602001015114612ca157828181518110612c7957612c78613e3b565b5b6020026020010151828281518110612c9457612c93613e3b565b5b6020026020010181815250505b8080612cac90613e68565b915050612c3c565b508060035f8873ffffffffffffffffffffffffffffffffffffffff1673ffffffffffffffffffffffffffffffffffffffff1681526020019081526020015f206001019080519060200190612d09929190613320565b5050505050505050565b5f60035f8373ffffffffffffffffffffffffffffffffffffffff1673ffffffffffffffffffffffffffffffffffffffff1681526020019081526020015f206003015f9054906101000a900460ff169050919050565b5f8060035f8573ffffffffffffffffffffffffffffffffffffffff1673ffffffffffffffffffffffffffffffffffffffff1681526020019081526020015f20600101805480602002602001604051908101604052809291908181526020018280548015612df257602002820191905f5260205f20905b815481526020019060010190808311612dde575b505050505090505f81511180612e2d57506001151560075f8581526020019081526020015f2060010160149054906101000a900460ff161515145b15612e3c576001915050612e41565b5f9150505b92915050565b60015f8381526020019081526020015f205f8082015f9055600182015f9055600282015f6101000a81549060ff02191690556002820160016101000a81549060ff0219169055600382015f9055600482015f9055600582015f6101000a81549060ff02191690556005820160016101000a81549060ff02191690556005820160026101000a81549073ffffffffffffffffffffffffffffffffffffffff0219169055600682015f6101000a81549073ffffffffffffffffffffffffffffffffffffffff02191690555050612f1c600283613216565b5f60075f8381526020019081526020015f2060010160146101000a81548160ff0219169083151502179055505f60035f8673ffffffffffffffffffffffffffffffffffffffff1673ffffffffffffffffffffffffffffffffffffffff1681526020019081526020015f20600101805480602002602001604051908101604052809291908181526020018280548015612fd157602002820191905f5260205f20905b815481526020019060010190808311612fbd575b5050505050905060605f60035f8773ffffffffffffffffffffffffffffffffffffffff1673ffffffffffffffffffffffffffffffffffffffff1681526020019081526020015f2060010180548060200260200160405190810160405280929190818152602001828054801561306357602002820191905f5260205f20905b81548152602001906001019080831161304f575b5050505050905060605f5b84518110156130e6578685828151811061308b5761308a613e3b565b5b6020026020010151146130d3578481815181106130ab576130aa613e3b565b5b60200260200101518482815181106130c6576130c5613e3b565b5b6020026020010181815250505b80806130de90613e68565b91505061306e565b508260035f8a73ffffffffffffffffffffffffffffffffffffffff1673ffffffffffffffffffffffffffffffffffffffff1681526020019081526020015f20600101908051906020019061313b929190613320565b505f5b82518110156131b6578683828151811061315b5761315a613e3b565b5b6020026020010151146131a35782818151811061317b5761317a613e3b565b5b602002602001015182828151811061319657613195613e3b565b5b6020026020010181815250505b80806131ae90613e68565b91505061313e565b508060035f8973ffffffffffffffffffffffffffffffffffffffff1673ffffffffffffffffffffffffffffffffffffffff1681526020019081526020015f20600101908051906020019061320b929190613320565b505050505050505050565b5f805f90505f5b848054905081101561326a578385828154811061323d5761323c613e3b565b5b905f5260205f20015403613257578092506001915061326a565b808061326290613e68565b91505061321d565b50806132ab576040517f08c379a00000000000000000000000000000000000000000000000000000000081526004016132a29061420e565b60405180910390fd5b83600185805490506132bd919061422c565b815481106132ce576132cd613e3b565b5b905f5260205f2001548483815481106132ea576132e9613e3b565b5b905f5260205f200181905550838054806133075761330661425f565b5b600190038181905f5260205f20015f9055905550505050565b828054828255905f5260205f2090810192821561335a579160200282015b8281111561335957825182559160200191906001019061333e565b5b509050613367919061336b565b5090565b5b80821115613382575f815f90555060010161336c565b5090565b5f82825260208201905092915050565b7f66616c6c000000000000000000000000000000000000000000000000000000005f82015250565b5f6133ca600483613386565b91506133d582613396565b602082019050919050565b5f73ffffffffffffffffffffffffffffffffffffffff82169050919050565b5f613409826133e0565b9050919050565b613419816133ff565b82525050565b5f819050919050565b6134318161341f565b82525050565b5f82825260208201905092915050565b50565b5f6134555f83613437565b915061346082613447565b5f82019050919050565b5f6080820190508181035f830152613481816133be565b90506134906020830185613410565b61349d6040830184613428565b81810360608301526134ae8161344a565b90509392505050565b7f66616c6c6261636b0000000000000000000000000000000000000000000000005f82015250565b5f6134eb600883613386565b91506134f6826134b7565b602082019050919050565b828183375f83830152505050565b5f601f19601f8301169050919050565b5f61352a8385613437565b9350613537838584613501565b6135408361350f565b840190509392505050565b5f6080820190508181035f830152613562816134df565b90506135716020830187613410565b61357e6040830186613428565b818103606083015261359181848661351f565b905095945050505050565b5f604051905090565b5f80fd5b5f80fd5b6135b68161341f565b81146135c0575f80fd5b50565b5f813590506135d1816135ad565b92915050565b5f602082840312156135ec576135eb6135a5565b5b5f6135f9848285016135c3565b91505092915050565b5f80fd5b7f4e487b71000000000000000000000000000000000000000000000000000000005f52604160045260245ffd5b61363c8261350f565b810181811067ffffffffffffffff8211171561365b5761365a613606565b5b80604052505050565b5f61366d61359c565b90506136798282613633565b919050565b5f67ffffffffffffffff82111561369857613697613606565b5b602082029050602081019050919050565b5f80fd5b5f6136bf6136ba8461367e565b613664565b905080838252602082019050602084028301858111156136e2576136e16136a9565b5b835b8181101561370b57806136f788826135c3565b8452602084019350506020810190506136e4565b5050509392505050565b5f82601f83011261372957613728613602565b5b81356137398482602086016136ad565b91505092915050565b5f8060408385031215613758576137576135a5565b5b5f83013567ffffffffffffffff811115613775576137746135a9565b5b61378185828601613715565b925050602083013567ffffffffffffffff8111156137a2576137a16135a9565b5b6137ae85828601613715565b9150509250929050565b6137c1816133ff565b81146137cb575f80fd5b50565b5f813590506137dc816137b8565b92915050565b5f80604083850312156137f8576137f76135a5565b5b5f613805858286016137ce565b9250506020613816858286016135c3565b9150509250929050565b5f8115159050919050565b61383481613820565b82525050565b5f60208201905061384d5f83018461382b565b92915050565b5f610140820190506138675f83018d613428565b613874602083018c613428565b613881604083018b61382b565b61388e606083018a61382b565b61389b6080830189613428565b6138a860a0830188613428565b6138b560c083018761382b565b6138c260e083018661382b565b6138d0610100830185613410565b6138de610120830184613410565b9b9a5050505050505050505050565b5f60208284031215613902576139016135a5565b5b5f61390f848285016137ce565b91505092915050565b5f81519050919050565b5f82825260208201905092915050565b5f819050602082019050919050565b61394a8161341f565b82525050565b5f61395b8383613941565b60208301905092915050565b5f602082019050919050565b5f61397d82613918565b6139878185613922565b935061399283613932565b805f5b838110156139c25781516139a98882613950565b97506139b483613967565b925050600181019050613995565b5085935050505092915050565b5f6080820190506139e25f83018761382b565b81810360208301526139f48186613973565b9050613a036040830185613428565b613a10606083018461382b565b95945050505050565b613a2281613820565b8114613a2c575f80fd5b50565b5f81359050613a3d81613a19565b92915050565b5f60208284031215613a5857613a576135a5565b5b5f613a6584828501613a2f565b91505092915050565b5f608082019050613a815f830187613428565b613a8e6020830186613410565b613a9b604083018561382b565b613aa86060830184613428565b95945050505050565b5f602082019050613ac45f830184613428565b92915050565b5f613ad4826133e0565b9050919050565b613ae481613aca565b8114613aee575f80fd5b50565b5f81359050613aff81613adb565b92915050565b5f8060408385031215613b1b57613b1a6135a5565b5b5f613b2885828601613af1565b9250506020613b39858286016135c3565b9150509250929050565b5f60208284031215613b5857613b576135a5565b5b5f613b6584828501613af1565b91505092915050565b5f6020820190508181035f830152613b868184613973565b905092915050565b7f4e487b71000000000000000000000000000000000000000000000000000000005f52602160045260245ffd5b7f4461746120696e636f6e73697374656e637900000000000000000000000000005f82015250565b5f613bef601283613386565b9150613bfa82613bbb565b602082019050919050565b5f6020820190508181035f830152613c1c81613be3565b9050919050565b7f4e487b71000000000000000000000000000000000000000000000000000000005f52601160045260245ffd5b5f613c5a8261341f565b9150613c658361341f565b9250828202613c738161341f565b91508282048414831517613c8a57613c89613c23565b5b5092915050565b7f57726f6e6720616d6f756e7420706169640000000000000000000000000000005f82015250565b5f613cc5601183613386565b9150613cd082613c91565b602082019050919050565b5f6020820190508181035f830152613cf281613cb9565b9050919050565b7f596f7520617265206e6f7420612072656e746572207468657265666f726520795f8201527f6f75277265206e6f7420616c6c6f77656420746f20726567697374657220726f60208201527f6f6d730000000000000000000000000000000000000000000000000000000000604082015250565b5f613d79604383613386565b9150613d8482613cf9565b606082019050919050565b5f6020820190508181035f830152613da681613d6d565b9050919050565b7f496e636f6e73697374656e7420696e666f726d6174696f6e2070726f766964655f8201527f642e000000000000000000000000000000000000000000000000000000000000602082015250565b5f613e07602283613386565b9150613e1282613dad565b604082019050919050565b5f6020820190508181035f830152613e3481613dfb565b9050919050565b7f4e487b71000000000000000000000000000000000000000000000000000000005f52603260045260245ffd5b5f613e728261341f565b91507fffffffffffffffffffffffffffffffffffffffffffffffffffffffffffffffff8203613ea457613ea3613c23565b5b600182019050919050565b7f5573657220616c726561647920726567697374657265640000000000000000005f82015250565b5f613ee3601783613386565b9150613eee82613eaf565b602082019050919050565b5f6020820190508181035f830152613f1081613ed7565b9050919050565b7f596f7520617265206e6f7420616e20617574686f72697a6564207573657200005f82015250565b5f613f4b601e83613386565b9150613f5682613f17565b602082019050919050565b5f6020820190508181035f830152613f7881613f3f565b9050919050565b7f52656e746572206973206e6f7420616e20617574686f72697a656420757365725f82015250565b5f613fb3602083613386565b9150613fbe82613f7f565b602082019050919050565b5f6020820190508181035f830152613fe081613fa7565b9050919050565b7f53747564656e74206f7220726f6f6d20616c726561647920696e20636f6e74725f8201527f6163740000000000000000000000000000000000000000000000000000000000602082015250565b5f614041602383613386565b915061404c82613fe7565b604082019050919050565b5f6020820190508181035f83015261406e81614035565b9050919050565b7f496e636f6e73697374656e6379206265747765656e20726f6f6d206f776e65725f8201527f20616e642072656e746572000000000000000000000000000000000000000000602082015250565b5f6140cf602b83613386565b91506140da82614075565b604082019050919050565b5f6020820190508181035f8301526140fc816140c3565b9050919050565b7f546869732072656e746572277320726f6f6d732061726520616c6c20616c72655f8201527f616479206f636375706965640000000000000000000000000000000000000000602082015250565b5f61415d602c83613386565b915061416882614103565b604082019050919050565b5f6020820190508181035f83015261418a81614151565b9050919050565b5f61419b8261341f565b91506141a68361341f565b92508282019050808211156141be576141bd613c23565b5b92915050565b7f456c656d656e74206e6f742070726573656e7420696e206172726179000000005f82015250565b5f6141f8601c83613386565b9150614203826141c4565b602082019050919050565b5f6020820190508181035f830152614225816141ec565b9050919050565b5f6142368261341f565b91506142418361341f565b925082820390508181111561425957614258613c23565b5b92915050565b7f4e487b71000000000000000000000000000000000000000000000000000000005f52603160045260245ffdfea2646970667358221220ad957790c8e5c9c8bde38ecdea0c45512441bbf96fa5613bf485a42b1cf7a54864736f6c63430008140033",
  "immutableReferences": {},
  "source": "// SPDX-License-Identifier: GPL - 3.0\r\n\r\npragma solidity >= 0.7.0;\r\n//import \"hardhat/console.sol\";\r\n\r\ncontract Affitto {\r\n\r\n    event Log(string func, address sender, uint value, bytes data);\r\n\r\n    struct contract_instance {\r\n        uint contract_id;\r\n        uint room_id;\r\n        bool student_paid;\r\n        bool renter_paid;\r\n        uint amt_paid_student;\r\n        uint amt_paid_renter;\r\n        bool concluded_student;\r\n        bool concluded_renter;\r\n        address payable student;\r\n        address payable renter;\r\n    }\r\n\r\n    struct room {\r\n        uint id;\r\n        address owner;\r\n        bool occupied;\r\n        uint deposit;\r\n    }\r\n\r\n    // the bool variable already_init is used to check if the couple (key, struct) has already been explicitely set (solidity automatically )\r\n    struct user {\r\n        Role role;\r\n        uint[] room_record;\r\n        uint num_rooms;\r\n        bool already_init;\r\n    }\r\n\r\n    enum Role {\r\n        Renter,\r\n        Student\r\n    }\r\n\r\n    address payable contract_address = payable(address(this));\r\n    mapping(uint => contract_instance) contract_record;         // associa a ogni id la rispettiva struct di contratto\r\n    uint[] contract_record_keys;\r\n    mapping(address => user) user_info;\r\n    address[] user_info_keys;                        // associa a ogni indirizzo il suo ruolo (student: 0, renter: 1)\r\n    mapping(address => uint[]) renters_rooms;                  // associa a ogni renter un array che contiene l'id delle sue stanze\r\n    address[] renters_rooms_keys;\r\n    mapping(uint => room) rooms_record; \r\n    uint[] rooms_record_keys;   \r\n    uint conversion_rate = 586099570929370;                     // DA CHIEDERE ALL'ESTERNO?\r\n    uint num_contracts;                                         // var globale che incremento a ogni nuovo contratto e la uso come id\r\n\r\n    constructor() {\r\n        //contract_record = new mapping(uint => contract_instance); // non chiaro come si inizializza\r\n        num_contracts = 0;\r\n    }\r\n\r\n    function register_user(bool role_id) public {\r\n        // Doesn't allow double registrations\r\n        require(!user_info[msg.sender].already_init, \"User already registered\");\r\n        uint256[] memory array;\r\n        // false --> student, true --> renter\r\n        if (role_id) {\r\n            user_info[msg.sender] = user({\r\n                role: Role.Renter, \r\n                room_record: array, \r\n                num_rooms: 0, \r\n                already_init: true\r\n            });\r\n            user_info_keys.push(msg.sender);\r\n        }\r\n        else {\r\n            user_info[msg.sender] = user({\r\n                role: Role.Student, \r\n                room_record: array, \r\n                num_rooms: 0, \r\n                already_init: true\r\n            });\r\n            user_info_keys.push(msg.sender);\r\n        }\r\n        \r\n    }\r\n\r\n    function register_rooms(uint[] memory rooms, uint[] memory deposits) public {\r\n        // controlliamo che il chiamante sia un renter\r\n        require(user_info[msg.sender].role == Role.Renter, \"You are not a renter therefore you're not allowed to register rooms\");\r\n        require(rooms.length == deposits.length, \"Inconsistent information provided.\");\r\n        uint l = rooms.length;\r\n        user_info[msg.sender].num_rooms = l; \r\n        // TODO: VERIFICARE CHE IL RENTER SIA EFFETTIVAMENTE IL PROPRIETARIO DELLE STANZE (sia fa una zkp nelle nft? chi lo sa)\r\n\r\n        for (uint i = 0; i < l; i++) {\r\n            room memory new_room = room({id: rooms[i], owner: msg.sender, occupied: false, deposit: deposits[i]});\r\n            renters_rooms[msg.sender].push(rooms[i]);\r\n            rooms_record[new_room.id] = new_room;\r\n            rooms_record_keys.push(new_room.id);\r\n        }\r\n        \r\n    }   \r\n\r\n    // If the student has his heart already set on a specific room \r\n    function inizialize(address payable renter, uint room_id) public {\r\n        require(check_user_already_registered(msg.sender), \"You are not an authorized user\");\r\n        require(check_user_already_registered(renter), \"Renter is not an authorized user\");\r\n\r\n        address payable student = payable(msg.sender);\r\n        \r\n        // check che lo studente non sia gi in una \"istanza\" di contratto o che la stanza non sia gi occupata\r\n        require(check_if_already_in_contract(student, room_id) == false, \"Student or room already in contract\"); // controllare che l'inizializzazione venga interrotta e venga emesso il messaggio di errore\r\n        \r\n        // check that the renter is the room's owner\r\n        require(rooms_record[room_id].owner == renter, \"Inconsistency between room owner and renter\");\r\n\r\n        // se n lo student n la stanza sono gi in un contratto, possiamo procedere alla creazione della struct che rappresenta l'istanza del contratto\r\n        uint new_id = num_contracts;\r\n        num_contracts++;\r\n        rooms_record[room_id].occupied = true;\r\n        contract_instance memory instance = contract_instance({\r\n            contract_id: new_id, \r\n            room_id: room_id, \r\n            student_paid: false, \r\n            renter_paid: false, \r\n            amt_paid_student: 0, \r\n            amt_paid_renter: 0, \r\n            concluded_student: false, \r\n            concluded_renter: false, \r\n            student: student, \r\n            renter: renter\r\n        });\r\n\r\n        contract_record[new_id] = instance;\r\n        contract_record_keys.push(new_id);\r\n        user_info[student].room_record.push(new_id);\r\n        user_info[renter].room_record.push(new_id);\r\n    }\r\n\r\n    // if the student doesn't care about which room he gets assigned\r\n    function inizialize(address payable renter) public {\r\n        require(check_user_already_registered(msg.sender), \"You are not an authorized user\");\r\n        require(check_user_already_registered(renter), \"Renter is not an authorized user\");\r\n        address payable student = payable(msg.sender);\r\n        \r\n        uint room_id;\r\n        bool room_found = false;\r\n\r\n        // Checks if the owner has any rooms available\r\n        for (uint i = 0; i < user_info[renter].num_rooms; i++) {\r\n            if (!rooms_record[renters_rooms[renter][i]].occupied) {\r\n                room_found = true;\r\n                room_id = rooms_record[renters_rooms[renter][i]].id;\r\n                break;\r\n            }\r\n        }\r\n        \r\n        require(room_found, \"This renter's rooms are all already occupied\"); \r\n\r\n        uint new_id = num_contracts;\r\n        num_contracts++;\r\n        rooms_record[room_id].occupied = true;\r\n        contract_instance memory instance = contract_instance({\r\n            contract_id: new_id, \r\n            room_id: room_id, \r\n            student_paid: false, \r\n            renter_paid: false, \r\n            amt_paid_student: 0, \r\n            amt_paid_renter: 0, \r\n            concluded_student: false, \r\n            concluded_renter: false, \r\n            student: student, \r\n            renter: renter\r\n        });\r\n        contract_record[new_id] = instance;\r\n        user_info[student].room_record.push(new_id);\r\n        user_info[renter].room_record.push(new_id);\r\n    \r\n    }\r\n\r\n    \r\n    function student_pay_deposit() public payable {\r\n        Role role = user_info[msg.sender].role;\r\n        require(role == Role.Student);\r\n        \r\n        uint contract_id = user_info[msg.sender].room_record[0];\r\n        contract_instance memory instance = contract_record[contract_id];\r\n        uint deposit = rooms_record[instance.room_id].deposit;\r\n        uint paid_amount = msg.value;\r\n        require(paid_amount == conversion_rate * deposit, \"Wrong amount paid\");\r\n        \r\n        instance.amt_paid_student = paid_amount;\r\n        instance.student_paid = true;\r\n        contract_record[contract_id] = instance;\r\n        \r\n    }\r\n\r\n    function renter_pay_deposit(uint contract_id) public payable {\r\n        contract_instance memory instance = contract_record[contract_id];\r\n        Role role = user_info[msg.sender].role;\r\n        require(role == Role.Renter, \"Data inconsistency\"); // probabilmente inutile (gi implicitamente incluso nel secondo require)\r\n        require(msg.sender == instance.renter, \"Data inconsistency\");\r\n        uint deposit = rooms_record[instance.room_id].deposit;\r\n        uint paid_amount = msg.value;\r\n        require(paid_amount == conversion_rate * deposit, \"Wrong amount paid\"); \r\n        instance.amt_paid_renter = paid_amount;\r\n        instance.renter_paid = true;\r\n        contract_record[contract_id] = instance;    \r\n    }\r\n\r\n    function withdraw_from_contract(uint contract_id) public {\r\n        // IDEA: lo studente non pu ritirarsi prima di aver pagato la caparra, oppure pu ritirarsi gratuitamente nel lasso di tempo \r\n        // che ha per pagare la caparra\r\n        address receder = msg.sender;\r\n        address other;\r\n        contract_instance memory instance = contract_record[contract_id];\r\n        if (user_info[msg.sender].role == Role.Student) {\r\n            other = contract_record[contract_id].renter;\r\n        }\r\n        else {\r\n            other = contract_record[contract_id].student;\r\n        }\r\n        uint room_id = instance.room_id;\r\n\r\n        delete_contract_instance(receder, other, contract_id, room_id);\r\n        \r\n        \r\n        payable(other).transfer(instance.amt_paid_student + instance.amt_paid_renter);\r\n    }\r\n\r\n    \r\n\r\n    function end_contract_successfully(uint contract_id) public returns (bool) {\r\n        contract_instance memory instance = contract_record[contract_id];\r\n        address student;\r\n        address renter;\r\n        if (user_info[msg.sender].role == Role.Student) {\r\n            student = msg.sender;\r\n            instance.concluded_student = true;\r\n            renter = instance.renter;\r\n        }\r\n        else {\r\n            renter = msg.sender;\r\n            instance.concluded_renter = true;\r\n            student = instance.student;\r\n        }\r\n\r\n        if (instance.concluded_renter && instance.concluded_student) {\r\n            delete_contract_instance(student, renter, contract_id);\r\n            payable(student).transfer(instance.amt_paid_student);\r\n            payable(renter).transfer(instance.amt_paid_renter);\r\n            return true;\r\n        }\r\n        return false;\r\n    }\r\n\r\n\r\n    function get_user_info(address add) public view returns (bool, uint[] memory, uint, bool) {\r\n        user memory u = user_info[add];\r\n        bool role;\r\n        if (u.role == Role.Renter) {\r\n            role = true;\r\n        }\r\n        else {\r\n            role = false;\r\n        }\r\n        uint[] memory room_record = u.room_record;\r\n        uint num_rooms = u.num_rooms;\r\n        bool already_init = u.already_init;\r\n        return (role, room_record, num_rooms, already_init);\r\n    }\r\n\r\n    function get_room_list(address a) public view returns (uint[] memory) {\r\n        return renters_rooms[a];\r\n    }\r\n\r\n    function get_contract_info(uint256 contract_id) public view returns (uint, uint, bool, bool, uint, uint, bool, bool, address, address) {\r\n        contract_instance memory instance = contract_record[contract_id];\r\n        return (contract_id, instance.room_id, instance.student_paid, instance.renter_paid, instance.amt_paid_student, instance.amt_paid_renter, instance.concluded_student, instance.concluded_renter, instance.student, instance.renter);\r\n    }\r\n\r\n    function get_deposit_in_wei(uint room_id) public view returns (uint){\r\n        uint deposit = rooms_record[room_id].deposit;\r\n        return (deposit * conversion_rate);\r\n    }\r\n\r\n    function get_room_info(uint room_id) public view returns (uint, address, bool, uint) {\r\n        room memory r = rooms_record[room_id];\r\n        uint id = r.id;\r\n        address owner = r.owner;\r\n        bool occupied = r.occupied;\r\n        uint deposit = r.deposit;\r\n        return (id, owner, occupied, deposit);\r\n    }\r\n\r\n\r\n    /* function get_contract_record() public view {\r\n        for (uint i = 0; i < contract_record_keys.length; i++) {\r\n            (uint a, uint b, bool c, bool d, uint e, uint f, bool g, bool h, address j, address k) = get_contract_info(contract_record_keys[i]);\r\n            console.log(a);\r\n            console.log(b);\r\n            console.log(c);\r\n            console.log(d);\r\n            console.log(e);\r\n            console.log(f);\r\n            console.log(g);\r\n            console.log(h);\r\n            console.log(j);\r\n            console.log(k);\r\n            console.log(\"\\n\");\r\n            console.log(\"\\n\");\r\n        }\r\n    } */\r\n\r\n    function check_if_already_paid(address addr, uint contract_id) public view returns (bool) {\r\n        Role role = user_info[addr].role;\r\n        contract_instance memory instance = contract_record[contract_id];\r\n        if (role == Role.Renter) {\r\n            require(addr == instance.renter, \"Data inconsistency\");\r\n            return instance.renter_paid;\r\n        }\r\n        else {\r\n            require(addr == instance.student, \"Data inconsistency\");\r\n            return instance.student_paid;\r\n        }\r\n    }\r\n\r\n\r\n    function check_if_already_in_contract(address student, uint room_id) private view returns (bool) {\r\n        // controlla se lo studente o la stanza (disgiunzione inclusiva) sono gi in un contratto\r\n        \r\n        uint[] memory student_array = user_info[student].room_record;\r\n\r\n        if (student_array.length > 0 || rooms_record[room_id].occupied == true) {\r\n            return true;\r\n        }\r\n        return false;\r\n\r\n    }\r\n\r\n    function check_user_already_registered(address add) private view returns (bool) {\r\n        return user_info[add].already_init;\r\n    } \r\n\r\n    function delete_contract_instance(address a1, address a2, uint contract_id, uint room_id) private {\r\n        \r\n        // delete the contract instance\r\n        delete(contract_record[contract_id]);\r\n        remove(contract_record_keys, contract_id);\r\n\r\n        // mark the room as not occupied\r\n        rooms_record[room_id].occupied = false;\r\n        \r\n        // modify the list of contract instances the addresses are a part of\r\n        uint[] memory a1_record = user_info[a1].room_record;\r\n        uint[] memory a1_new_record; // la lunghezza  uno in meno perch tolgo l'id di contratto dall'array\r\n        uint[] memory a2_record = user_info[a2].room_record;\r\n        uint[] memory a2_new_record;\r\n\r\n\r\n        for (uint i = 0; i < a1_record.length; i++) {\r\n            if (a1_record[i] != contract_id) {\r\n                a1_new_record[i] = a1_record[i];\r\n            }  \r\n        }\r\n        user_info[a1].room_record = a1_new_record; \r\n\r\n        for (uint i = 0; i < a2_record.length; i++) {\r\n            if (a2_record[i] != contract_id) {\r\n                a2_new_record[i] = a2_record[i];\r\n            }  \r\n        }\r\n        user_info[a2].room_record = a2_new_record;\r\n    }\r\n\r\n    // the contract ends successfully \r\n    // the difference with the other delete_contract_instance is that the room doesn't get marked as free\r\n    function delete_contract_instance(address a1, address a2, uint contract_id) private {\r\n        \r\n        // delete the contract instance\r\n        delete(contract_record[contract_id]);\r\n        remove(contract_record_keys, contract_id);\r\n        \r\n        // modify the list of contract instances the addresses are a part of\r\n        uint[] memory a1_record = user_info[a1].room_record;\r\n        uint[] memory a1_new_record; // la lunghezza  uno in meno perch tolgo l'id di contratto dall'array\r\n        uint[] memory a2_record = user_info[a2].room_record;\r\n        uint[] memory a2_new_record;\r\n\r\n\r\n        for (uint i = 0; i < a1_record.length; i++) {\r\n            if (a1_record[i] != contract_id) {\r\n                a1_new_record[i] = a1_record[i];\r\n            }  \r\n        }\r\n        user_info[a1].room_record = a1_new_record; \r\n\r\n        for (uint i = 0; i < a2_record.length; i++) {\r\n            if (a2_record[i] != contract_id) {\r\n                a2_new_record[i] = a2_record[i];\r\n            }  \r\n        }\r\n        user_info[a2].room_record = a2_new_record;\r\n    }  \r\n\r\n\r\n    function check_if_user_already_registered(address addr) private view returns (bool) {\r\n        return user_info[addr].already_init;\r\n    }\r\n\r\n    fallback() external payable {\r\n        emit Log(\"fallback\", msg.sender, msg.value, msg.data);\r\n    }\r\n\r\n    receive() external payable {\r\n        emit Log(\"fall\", msg.sender, msg.value, \"\");\r\n    }\r\n\r\n    function remove(uint[] storage array, uint element) private {\r\n        uint index;\r\n        bool found = false;\r\n        for(uint i = 0; i < array.length; i++) {\r\n            if (array[i] == element) {\r\n                index = i;\r\n                found = true;\r\n                break;\r\n            }\r\n        }\r\n        require(found, \"Element not present in array\");\r\n        array[index] = array[array.length - 1];\r\n        array.pop();\r\n    }\r\n\r\n    function remove(address[] storage array, address element) private {\r\n        uint index;\r\n        bool found = false;\r\n        for(uint i = 0; i < array.length; i++) {\r\n            if (array[i] == element) {\r\n                index = i;\r\n                found = true;\r\n                break;\r\n            }\r\n        }\r\n        require(found, \"Element not present in array\");\r\n        array[index] = array[array.length - 1];\r\n        array.pop();\r\n    }\r\n\r\n}\r\n\r\n",
  "sourcePath": "C:\\Users\\annag\\OneDrive\\Desktop\\Varie\\Unitn\\Blockchain\\HouseLocker\\smart_contracts\\Affitto\\contracts\\Affitto.sol",
  "compiler": {
    "name": "solc",
    "version": "0.8.20+commit.a1b79de6.Emscripten.clang"
  },
  "schemaVersion": "3.4.14",
  "updatedAt": "2023-06-23T09:22:55.491Z",
  "devdoc": {
    "kind": "dev",
    "methods": {},
    "version": 1
  },
  "userdoc": {
    "kind": "user",
    "methods": {},
    "version": 1
  }
}