{
  "contractName": "Affitto",
  "abi": [
    {
      "inputs": [],
      "stateMutability": "nonpayable",
      "type": "constructor"
    },
    {
      "anonymous": false,
      "inputs": [
        {
          "indexed": false,
          "internalType": "string",
          "name": "func",
          "type": "string"
        },
        {
          "indexed": false,
          "internalType": "address",
          "name": "sender",
          "type": "address"
        },
        {
          "indexed": false,
          "internalType": "uint256",
          "name": "value",
          "type": "uint256"
        },
        {
          "indexed": false,
          "internalType": "bytes",
          "name": "data",
          "type": "bytes"
        }
      ],
      "name": "Log",
      "type": "event"
    },
    {
      "stateMutability": "payable",
      "type": "fallback",
      "payable": true
    },
    {
      "stateMutability": "payable",
      "type": "receive",
      "payable": true
    },
    {
      "inputs": [
        {
          "internalType": "bool",
          "name": "role_id",
          "type": "bool"
        },
        {
          "internalType": "uint256",
          "name": "a",
          "type": "uint256"
        },
        {
          "internalType": "uint256",
          "name": "b",
          "type": "uint256"
        },
        {
          "internalType": "uint256",
          "name": "c",
          "type": "uint256"
        },
        {
          "internalType": "uint256",
          "name": "d",
          "type": "uint256"
        },
        {
          "internalType": "uint256",
          "name": "e",
          "type": "uint256"
        },
        {
          "internalType": "uint256",
          "name": "f",
          "type": "uint256"
        }
      ],
      "name": "register_user",
      "outputs": [],
      "stateMutability": "nonpayable",
      "type": "function"
    },
    {
      "inputs": [
        {
          "internalType": "uint256[]",
          "name": "rooms",
          "type": "uint256[]"
        },
        {
          "internalType": "uint256[]",
          "name": "deposits",
          "type": "uint256[]"
        }
      ],
      "name": "register_rooms",
      "outputs": [],
      "stateMutability": "nonpayable",
      "type": "function"
    },
    {
      "inputs": [
        {
          "internalType": "address payable",
          "name": "renter",
          "type": "address"
        },
        {
          "internalType": "uint256",
          "name": "room_id",
          "type": "uint256"
        }
      ],
      "name": "inizialize",
      "outputs": [],
      "stateMutability": "nonpayable",
      "type": "function"
    },
    {
      "inputs": [
        {
          "internalType": "address payable",
          "name": "renter",
          "type": "address"
        }
      ],
      "name": "inizialize",
      "outputs": [],
      "stateMutability": "nonpayable",
      "type": "function"
    },
    {
      "inputs": [],
      "name": "student_pay_deposit",
      "outputs": [],
      "stateMutability": "payable",
      "type": "function",
      "payable": true
    },
    {
      "inputs": [
        {
          "internalType": "uint256",
          "name": "contract_id",
          "type": "uint256"
        }
      ],
      "name": "renter_pay_deposit",
      "outputs": [],
      "stateMutability": "payable",
      "type": "function",
      "payable": true
    },
    {
      "inputs": [
        {
          "internalType": "uint256",
          "name": "contract_id",
          "type": "uint256"
        }
      ],
      "name": "withdraw_from_contract",
      "outputs": [],
      "stateMutability": "nonpayable",
      "type": "function"
    },
    {
      "inputs": [
        {
          "internalType": "uint256",
          "name": "contract_id",
          "type": "uint256"
        }
      ],
      "name": "end_contract_successfully",
      "outputs": [
        {
          "internalType": "bool",
          "name": "",
          "type": "bool"
        }
      ],
      "stateMutability": "nonpayable",
      "type": "function"
    },
    {
      "inputs": [
        {
          "internalType": "address",
          "name": "add",
          "type": "address"
        }
      ],
      "name": "get_user_info",
      "outputs": [
        {
          "internalType": "bool",
          "name": "",
          "type": "bool"
        },
        {
          "internalType": "uint256[]",
          "name": "",
          "type": "uint256[]"
        },
        {
          "internalType": "uint256",
          "name": "",
          "type": "uint256"
        },
        {
          "internalType": "bool",
          "name": "",
          "type": "bool"
        }
      ],
      "stateMutability": "view",
      "type": "function",
      "constant": true
    },
    {
      "inputs": [
        {
          "internalType": "address",
          "name": "a",
          "type": "address"
        }
      ],
      "name": "get_room_list",
      "outputs": [
        {
          "internalType": "uint256[]",
          "name": "",
          "type": "uint256[]"
        }
      ],
      "stateMutability": "view",
      "type": "function",
      "constant": true
    },
    {
      "inputs": [
        {
          "internalType": "uint256",
          "name": "contract_id",
          "type": "uint256"
        }
      ],
      "name": "get_contract_info",
      "outputs": [
        {
          "internalType": "uint256",
          "name": "",
          "type": "uint256"
        },
        {
          "internalType": "uint256",
          "name": "",
          "type": "uint256"
        },
        {
          "internalType": "bool",
          "name": "",
          "type": "bool"
        },
        {
          "internalType": "bool",
          "name": "",
          "type": "bool"
        },
        {
          "internalType": "uint256",
          "name": "",
          "type": "uint256"
        },
        {
          "internalType": "uint256",
          "name": "",
          "type": "uint256"
        },
        {
          "internalType": "bool",
          "name": "",
          "type": "bool"
        },
        {
          "internalType": "bool",
          "name": "",
          "type": "bool"
        },
        {
          "internalType": "address",
          "name": "",
          "type": "address"
        },
        {
          "internalType": "address",
          "name": "",
          "type": "address"
        }
      ],
      "stateMutability": "view",
      "type": "function",
      "constant": true
    },
    {
      "inputs": [
        {
          "internalType": "uint256",
          "name": "room_id",
          "type": "uint256"
        }
      ],
      "name": "get_deposit_in_wei",
      "outputs": [
        {
          "internalType": "uint256",
          "name": "",
          "type": "uint256"
        }
      ],
      "stateMutability": "view",
      "type": "function",
      "constant": true
    },
    {
      "inputs": [
        {
          "internalType": "uint256",
          "name": "room_id",
          "type": "uint256"
        }
      ],
      "name": "get_room_info",
      "outputs": [
        {
          "internalType": "uint256",
          "name": "",
          "type": "uint256"
        },
        {
          "internalType": "address",
          "name": "",
          "type": "address"
        },
        {
          "internalType": "bool",
          "name": "",
          "type": "bool"
        },
        {
          "internalType": "uint256",
          "name": "",
          "type": "uint256"
        }
      ],
      "stateMutability": "view",
      "type": "function",
      "constant": true
    },
    {
      "inputs": [
        {
          "internalType": "address",
          "name": "addr",
          "type": "address"
        },
        {
          "internalType": "uint256",
          "name": "contract_id",
          "type": "uint256"
        }
      ],
      "name": "check_if_already_paid",
      "outputs": [
        {
          "internalType": "bool",
          "name": "",
          "type": "bool"
        }
      ],
      "stateMutability": "view",
      "type": "function",
      "constant": true
    }
  ],
  "bytecode": "0x6080604052305f806101000a81548173ffffffffffffffffffffffffffffffffffffffff021916908373ffffffffffffffffffffffffffffffffffffffff1602179055506602150df0ba6eda600955348015610059575f80fd5b505f600a8190555061453b8061006e5f395ff3fe6080604052600436106100e0575f3560e01c8063a1370f1b1161007e578063d8f229ab11610058578063d8f229ab1461034c578063da9ae23414610374578063db3189b71461039c578063e206e1a1146103c457610120565b8063a1370f1b146102c7578063b2f0190114610306578063d7b0e16b1461031057610120565b80633acbba6e116100ba5780633acbba6e146101cb57806365cdf7c314610207578063774deb42146102435780638c4db0251461028857610120565b80631db8d6cd1461015f57806322aece9c1461017b57806322fd577a146101a357610120565b36610120577ff7f75251dee7d7fc22deac3247729ebe7c86541f35930bf10c2a4207479a3b6c3334604051610116929190613536565b60405180910390a1005b7ff7f75251dee7d7fc22deac3247729ebe7c86541f35930bf10c2a4207479a3b6c33345f366040516101559493929190613617565b60405180910390a1005b610179600480360381019061017491906136a3565b610400565b005b348015610186575f80fd5b506101a1600480360381019061019c919061380e565b61085d565b005b3480156101ae575f80fd5b506101c960048036038101906101c491906138b9565b610b64565b005b3480156101d6575f80fd5b506101f160048036038101906101ec9190613980565b610f61565b6040516101fe91906139cd565b60405180910390f35b348015610212575f80fd5b5061022d600480360381019061022891906136a3565b61123c565b60405161023a91906139cd565b60405180910390f35b34801561024e575f80fd5b50610269600480360381019061026491906136a3565b611519565b60405161027f9a999897969594939291906139e6565b60405180910390f35b348015610293575f80fd5b506102ae60048036038101906102a99190613a80565b6116d1565b6040516102be9493929190613b62565b60405180910390f35b3480156102d2575f80fd5b506102ed60048036038101906102e891906136a3565b611840565b6040516102fd9493929190613bac565b60405180910390f35b61030e61191d565b005b34801561031b575f80fd5b50610336600480360381019061033191906136a3565b611d2e565b6040516103439190613bef565b60405180910390f35b348015610357575f80fd5b50610372600480360381019061036d9190613c43565b611d5d565b005b34801561037f575f80fd5b5061039a60048036038101906103959190613c81565b6121e5565b005b3480156103a7575f80fd5b506103c260048036038101906103bd91906136a3565b6126ee565b005b3480156103cf575f80fd5b506103ea60048036038101906103e59190613a80565b6129aa565b6040516103f79190613cac565b60405180910390f35b5f60015f8381526020019081526020015f20604051806101400160405290815f820154815260200160018201548152602001600282015f9054906101000a900460ff161515151581526020016002820160019054906101000a900460ff161515151581526020016003820154815260200160048201548152602001600582015f9054906101000a900460ff161515151581526020016005820160019054906101000a900460ff161515151581526020016005820160029054906101000a900473ffffffffffffffffffffffffffffffffffffffff1673ffffffffffffffffffffffffffffffffffffffff1673ffffffffffffffffffffffffffffffffffffffff168152602001600682015f9054906101000a900473ffffffffffffffffffffffffffffffffffffffff1673ffffffffffffffffffffffffffffffffffffffff1673ffffffffffffffffffffffffffffffffffffffff168152505090505f60035f3373ffffffffffffffffffffffffffffffffffffffff1673ffffffffffffffffffffffffffffffffffffffff1681526020019081526020015f205f015f9054906101000a900460ff1690505f60018111156105be576105bd613ccc565b5b8160018111156105d1576105d0613ccc565b5b14610611576040517f08c379a000000000000000000000000000000000000000000000000000000000815260040161060890613d43565b60405180910390fd5b81610120015173ffffffffffffffffffffffffffffffffffffffff163373ffffffffffffffffffffffffffffffffffffffff1614610684576040517f08c379a000000000000000000000000000000000000000000000000000000000815260040161067b90613d43565b60405180910390fd5b5f60075f846020015181526020019081526020015f206002015490505f349050816009546106b29190613d8e565b81146106f3576040517f08c379a00000000000000000000000000000000000000000000000000000000081526004016106ea90613e19565b60405180910390fd5b808460a001818152505060018460600190151590811515815250508360015f8781526020019081526020015f205f820151815f0155602082015181600101556040820151816002015f6101000a81548160ff02191690831515021790555060608201518160020160016101000a81548160ff0219169083151502179055506080820151816003015560a0820151816004015560c0820151816005015f6101000a81548160ff02191690831515021790555060e08201518160050160016101000a81548160ff0219169083151502179055506101008201518160050160026101000a81548173ffffffffffffffffffffffffffffffffffffffff021916908373ffffffffffffffffffffffffffffffffffffffff160217905550610120820151816006015f6101000a81548173ffffffffffffffffffffffffffffffffffffffff021916908373ffffffffffffffffffffffffffffffffffffffff1602179055509050505050505050565b5f60018111156108705761086f613ccc565b5b60035f3373ffffffffffffffffffffffffffffffffffffffff1673ffffffffffffffffffffffffffffffffffffffff1681526020019081526020015f205f015f9054906101000a900460ff1660018111156108ce576108cd613ccc565b5b1461090e576040517f08c379a000000000000000000000000000000000000000000000000000000000815260040161090590613ecd565b60405180910390fd5b8051825114610952576040517f08c379a000000000000000000000000000000000000000000000000000000000815260040161094990613f5b565b60405180910390fd5b5f825190508060035f3373ffffffffffffffffffffffffffffffffffffffff1673ffffffffffffffffffffffffffffffffffffffff1681526020019081526020015f20600201819055505f5b81811015610b5e575f60405180608001604052808684815181106109c5576109c4613f79565b5b602002602001015181526020013373ffffffffffffffffffffffffffffffffffffffff1681526020015f15158152602001858481518110610a0957610a08613f79565b5b6020026020010151815250905060055f3373ffffffffffffffffffffffffffffffffffffffff1673ffffffffffffffffffffffffffffffffffffffff1681526020019081526020015f20858381518110610a6657610a65613f79565b5b6020026020010151908060018154018082558091505060019003905f5260205f20015f90919091909150558060075f835f015181526020019081526020015f205f820151815f01556020820151816001015f6101000a81548173ffffffffffffffffffffffffffffffffffffffff021916908373ffffffffffffffffffffffffffffffffffffffff16021790555060408201518160010160146101000a81548160ff021916908315150217905550606082015181600201559050506008815f0151908060018154018082558091505060019003905f5260205f20015f9091909190915055508080610b5690613fa6565b91505061099e565b50505050565b6001151573__zkp___________________________________63cbfce0208888888888886040518763ffffffff1660e01b8152600401610ba996959493929190613ffc565b602060405180830381865af4158015610bc4573d5f803e3d5ffd5b505050506040513d601f19601f82011682018060405250810190610be8919061406f565b151514610c2a576040517f08c379a0000000000000000000000000000000000000000000000000000000008152600401610c219061410a565b60405180910390fd5b60035f3373ffffffffffffffffffffffffffffffffffffffff1673ffffffffffffffffffffffffffffffffffffffff1681526020019081526020015f206003015f9054906101000a900460ff1615610cb7576040517f08c379a0000000000000000000000000000000000000000000000000000000008152600401610cae90614172565b60405180910390fd5b60608715610e0d5760405180608001604052805f6001811115610cdd57610cdc613ccc565b5b81526020018281526020015f81526020016001151581525060035f3373ffffffffffffffffffffffffffffffffffffffff1673ffffffffffffffffffffffffffffffffffffffff1681526020019081526020015f205f820151815f015f6101000a81548160ff02191690836001811115610d5a57610d59613ccc565b5b02179055506020820151816001019080519060200190610d7b9291906133ec565b50604082015181600201556060820151816003015f6101000a81548160ff021916908315150217905550905050600433908060018154018082558091505060019003905f5260205f20015f9091909190916101000a81548173ffffffffffffffffffffffffffffffffffffffff021916908373ffffffffffffffffffffffffffffffffffffffff160217905550610f57565b6040518060800160405280600180811115610e2b57610e2a613ccc565b5b81526020018281526020015f81526020016001151581525060035f3373ffffffffffffffffffffffffffffffffffffffff1673ffffffffffffffffffffffffffffffffffffffff1681526020019081526020015f205f820151815f015f6101000a81548160ff02191690836001811115610ea857610ea7613ccc565b5b02179055506020820151816001019080519060200190610ec99291906133ec565b50604082015181600201556060820151816003015f6101000a81548160ff021916908315150217905550905050600433908060018154018082558091505060019003905f5260205f20015f9091909190916101000a81548173ffffffffffffffffffffffffffffffffffffffff021916908373ffffffffffffffffffffffffffffffffffffffff1602179055505b5050505050505050565b5f8060035f8573ffffffffffffffffffffffffffffffffffffffff1673ffffffffffffffffffffffffffffffffffffffff1681526020019081526020015f205f015f9054906101000a900460ff1690505f60015f8581526020019081526020015f20604051806101400160405290815f820154815260200160018201548152602001600282015f9054906101000a900460ff161515151581526020016002820160019054906101000a900460ff161515151581526020016003820154815260200160048201548152602001600582015f9054906101000a900460ff161515151581526020016005820160019054906101000a900460ff161515151581526020016005820160029054906101000a900473ffffffffffffffffffffffffffffffffffffffff1673ffffffffffffffffffffffffffffffffffffffff1673ffffffffffffffffffffffffffffffffffffffff168152602001600682015f9054906101000a900473ffffffffffffffffffffffffffffffffffffffff1673ffffffffffffffffffffffffffffffffffffffff1673ffffffffffffffffffffffffffffffffffffffff168152505090505f60018111156111205761111f613ccc565b5b82600181111561113357611132613ccc565b5b036111b95780610120015173ffffffffffffffffffffffffffffffffffffffff168573ffffffffffffffffffffffffffffffffffffffff16146111ab576040517f08c379a00000000000000000000000000000000000000000000000000000000081526004016111a290613d43565b60405180910390fd5b806060015192505050611236565b80610100015173ffffffffffffffffffffffffffffffffffffffff168573ffffffffffffffffffffffffffffffffffffffff161461122c576040517f08c379a000000000000000000000000000000000000000000000000000000000815260040161122390613d43565b60405180910390fd5b8060400151925050505b92915050565b5f8060015f8481526020019081526020015f20604051806101400160405290815f820154815260200160018201548152602001600282015f9054906101000a900460ff161515151581526020016002820160019054906101000a900460ff161515151581526020016003820154815260200160048201548152602001600582015f9054906101000a900460ff161515151581526020016005820160019054906101000a900460ff161515151581526020016005820160029054906101000a900473ffffffffffffffffffffffffffffffffffffffff1673ffffffffffffffffffffffffffffffffffffffff1673ffffffffffffffffffffffffffffffffffffffff168152602001600682015f9054906101000a900473ffffffffffffffffffffffffffffffffffffffff1673ffffffffffffffffffffffffffffffffffffffff1673ffffffffffffffffffffffffffffffffffffffff168152505090505f806001808111156113ae576113ad613ccc565b5b60035f3373ffffffffffffffffffffffffffffffffffffffff1673ffffffffffffffffffffffffffffffffffffffff1681526020019081526020015f205f015f9054906101000a900460ff16600181111561140c5761140b613ccc565b5b036114325733915060018360c0019015159081151581525050826101200151905061144f565b33905060018360e001901515908115158152505082610100015191505b8260e00151801561146157508260c001515b1561150d57611471828287612a3d565b8173ffffffffffffffffffffffffffffffffffffffff166108fc846080015190811502906040515f60405180830381858888f193505050501580156114b8573d5f803e3d5ffd5b508073ffffffffffffffffffffffffffffffffffffffff166108fc8460a0015190811502906040515f60405180830381858888f19350505050158015611500573d5f803e3d5ffd5b5060019350505050611514565b5f93505050505b919050565b5f805f805f805f805f805f60015f8d81526020019081526020015f20604051806101400160405290815f820154815260200160018201548152602001600282015f9054906101000a900460ff161515151581526020016002820160019054906101000a900460ff161515151581526020016003820154815260200160048201548152602001600582015f9054906101000a900460ff161515151581526020016005820160019054906101000a900460ff161515151581526020016005820160029054906101000a900473ffffffffffffffffffffffffffffffffffffffff1673ffffffffffffffffffffffffffffffffffffffff1673ffffffffffffffffffffffffffffffffffffffff168152602001600682015f9054906101000a900473ffffffffffffffffffffffffffffffffffffffff1673ffffffffffffffffffffffffffffffffffffffff1673ffffffffffffffffffffffffffffffffffffffff168152505090508b81602001518260400151836060015184608001518560a001518660c001518760e001518861010001518961012001519a509a509a509a509a509a509a509a509a509a50509193959799509193959799565b5f60605f805f60035f8773ffffffffffffffffffffffffffffffffffffffff1673ffffffffffffffffffffffffffffffffffffffff1681526020019081526020015f206040518060800160405290815f82015f9054906101000a900460ff16600181111561174257611741613ccc565b5b600181111561175457611753613ccc565b5b8152602001600182018054806020026020016040519081016040528092919081815260200182805480156117a557602002820191905f5260205f20905b815481526020019060010190808311611791575b5050505050815260200160028201548152602001600382015f9054906101000a900460ff16151515158152505090505f8060018111156117e8576117e7613ccc565b5b825f015160018111156117fe576117fd613ccc565b5b0361180c5760019050611810565b5f90505b5f826020015190505f836040015190505f8460600151905083838383985098509850985050505050509193509193565b5f805f805f60075f8781526020019081526020015f206040518060800160405290815f8201548152602001600182015f9054906101000a900473ffffffffffffffffffffffffffffffffffffffff1673ffffffffffffffffffffffffffffffffffffffff1673ffffffffffffffffffffffffffffffffffffffff1681526020016001820160149054906101000a900460ff1615151515815260200160028201548152505090505f815f015190505f826020015190505f836040015190505f8460600151905083838383985098509850985050505050509193509193565b5f60035f3373ffffffffffffffffffffffffffffffffffffffff1673ffffffffffffffffffffffffffffffffffffffff1681526020019081526020015f205f015f9054906101000a900460ff16905060018081111561197f5761197e613ccc565b5b81600181111561199257611991613ccc565b5b1461199b575f80fd5b5f60035f3373ffffffffffffffffffffffffffffffffffffffff1673ffffffffffffffffffffffffffffffffffffffff1681526020019081526020015f206001015f815481106119ee576119ed613f79565b5b905f5260205f20015490505f60015f8381526020019081526020015f20604051806101400160405290815f820154815260200160018201548152602001600282015f9054906101000a900460ff161515151581526020016002820160019054906101000a900460ff161515151581526020016003820154815260200160048201548152602001600582015f9054906101000a900460ff161515151581526020016005820160019054906101000a900460ff161515151581526020016005820160029054906101000a900473ffffffffffffffffffffffffffffffffffffffff1673ffffffffffffffffffffffffffffffffffffffff1673ffffffffffffffffffffffffffffffffffffffff168152602001600682015f9054906101000a900473ffffffffffffffffffffffffffffffffffffffff1673ffffffffffffffffffffffffffffffffffffffff1673ffffffffffffffffffffffffffffffffffffffff168152505090505f60075f836020015181526020019081526020015f206002015490505f34905081600954611b839190613d8e565b8114611bc4576040517f08c379a0000000000000000000000000000000000000000000000000000000008152600401611bbb90613e19565b60405180910390fd5b8083608001818152505060018360400190151590811515815250508260015f8681526020019081526020015f205f820151815f0155602082015181600101556040820151816002015f6101000a81548160ff02191690831515021790555060608201518160020160016101000a81548160ff0219169083151502179055506080820151816003015560a0820151816004015560c0820151816005015f6101000a81548160ff02191690831515021790555060e08201518160050160016101000a81548160ff0219169083151502179055506101008201518160050160026101000a81548173ffffffffffffffffffffffffffffffffffffffff021916908373ffffffffffffffffffffffffffffffffffffffff160217905550610120820151816006015f6101000a81548173ffffffffffffffffffffffffffffffffffffffff021916908373ffffffffffffffffffffffffffffffffffffffff1602179055509050505050505050565b5f8060075f8481526020019081526020015f2060020154905060095481611d559190613d8e565b915050919050565b611d6633612ddf565b611da5576040517f08c379a0000000000000000000000000000000000000000000000000000000008152600401611d9c906141da565b60405180910390fd5b611dae82612ddf565b611ded576040517f08c379a0000000000000000000000000000000000000000000000000000000008152600401611de490614242565b60405180910390fd5b5f3390505f1515611dfe8284612e34565b151514611e40576040517f08c379a0000000000000000000000000000000000000000000000000000000008152600401611e37906142d0565b60405180910390fd5b8273ffffffffffffffffffffffffffffffffffffffff1660075f8481526020019081526020015f206001015f9054906101000a900473ffffffffffffffffffffffffffffffffffffffff1673ffffffffffffffffffffffffffffffffffffffff1614611ee1576040517f08c379a0000000000000000000000000000000000000000000000000000000008152600401611ed89061435e565b60405180910390fd5b5f600a549050600a5f815480929190611ef990613fa6565b9190505550600160075f8581526020019081526020015f2060010160146101000a81548160ff0219169083151502179055505f6040518061014001604052808381526020018581526020015f151581526020015f151581526020015f81526020015f81526020015f151581526020015f151581526020018473ffffffffffffffffffffffffffffffffffffffff1681526020018673ffffffffffffffffffffffffffffffffffffffff1681525090508060015f8481526020019081526020015f205f820151815f0155602082015181600101556040820151816002015f6101000a81548160ff02191690831515021790555060608201518160020160016101000a81548160ff0219169083151502179055506080820151816003015560a0820151816004015560c0820151816005015f6101000a81548160ff02191690831515021790555060e08201518160050160016101000a81548160ff0219169083151502179055506101008201518160050160026101000a81548173ffffffffffffffffffffffffffffffffffffffff021916908373ffffffffffffffffffffffffffffffffffffffff160217905550610120820151816006015f6101000a81548173ffffffffffffffffffffffffffffffffffffffff021916908373ffffffffffffffffffffffffffffffffffffffff160217905550905050600282908060018154018082558091505060019003905f5260205f20015f909190919091505560035f8473ffffffffffffffffffffffffffffffffffffffff1673ffffffffffffffffffffffffffffffffffffffff1681526020019081526020015f2060010182908060018154018082558091505060019003905f5260205f20015f909190919091505560035f8673ffffffffffffffffffffffffffffffffffffffff1673ffffffffffffffffffffffffffffffffffffffff1681526020019081526020015f2060010182908060018154018082558091505060019003905f5260205f20015f90919091909150555050505050565b6121ee33612ddf565b61222d576040517f08c379a0000000000000000000000000000000000000000000000000000000008152600401612224906141da565b60405180910390fd5b61223681612ddf565b612275576040517f08c379a000000000000000000000000000000000000000000000000000000000815260040161226c90614242565b60405180910390fd5b5f3390505f805f90505f5b60035f8673ffffffffffffffffffffffffffffffffffffffff1673ffffffffffffffffffffffffffffffffffffffff1681526020019081526020015f20600201548110156123ce5760075f60055f8873ffffffffffffffffffffffffffffffffffffffff1673ffffffffffffffffffffffffffffffffffffffff1681526020019081526020015f20838154811061231a57612319613f79565b5b905f5260205f20015481526020019081526020015f2060010160149054906101000a900460ff166123bb576001915060075f60055f8873ffffffffffffffffffffffffffffffffffffffff1673ffffffffffffffffffffffffffffffffffffffff1681526020019081526020015f20838154811061239b5761239a613f79565b5b905f5260205f20015481526020019081526020015f205f015492506123ce565b80806123c690613fa6565b915050612280565b508061240f576040517f08c379a0000000000000000000000000000000000000000000000000000000008152600401612406906143ec565b60405180910390fd5b5f600a549050600a5f81548092919061242790613fa6565b9190505550600160075f8581526020019081526020015f2060010160146101000a81548160ff0219169083151502179055505f6040518061014001604052808381526020018581526020015f151581526020015f151581526020015f81526020015f81526020015f151581526020015f151581526020018673ffffffffffffffffffffffffffffffffffffffff1681526020018773ffffffffffffffffffffffffffffffffffffffff1681525090508060015f8481526020019081526020015f205f820151815f0155602082015181600101556040820151816002015f6101000a81548160ff02191690831515021790555060608201518160020160016101000a81548160ff0219169083151502179055506080820151816003015560a0820151816004015560c0820151816005015f6101000a81548160ff02191690831515021790555060e08201518160050160016101000a81548160ff0219169083151502179055506101008201518160050160026101000a81548173ffffffffffffffffffffffffffffffffffffffff021916908373ffffffffffffffffffffffffffffffffffffffff160217905550610120820151816006015f6101000a81548173ffffffffffffffffffffffffffffffffffffffff021916908373ffffffffffffffffffffffffffffffffffffffff16021790555090505060035f8673ffffffffffffffffffffffffffffffffffffffff1673ffffffffffffffffffffffffffffffffffffffff1681526020019081526020015f2060010182908060018154018082558091505060019003905f5260205f20015f909190919091505560035f8773ffffffffffffffffffffffffffffffffffffffff1673ffffffffffffffffffffffffffffffffffffffff1681526020019081526020015f2060010182908060018154018082558091505060019003905f5260205f20015f9091909190915055505050505050565b5f3390505f8060015f8581526020019081526020015f20604051806101400160405290815f820154815260200160018201548152602001600282015f9054906101000a900460ff161515151581526020016002820160019054906101000a900460ff161515151581526020016003820154815260200160048201548152602001600582015f9054906101000a900460ff161515151581526020016005820160019054906101000a900460ff161515151581526020016005820160029054906101000a900473ffffffffffffffffffffffffffffffffffffffff1673ffffffffffffffffffffffffffffffffffffffff1673ffffffffffffffffffffffffffffffffffffffff168152602001600682015f9054906101000a900473ffffffffffffffffffffffffffffffffffffffff1673ffffffffffffffffffffffffffffffffffffffff1673ffffffffffffffffffffffffffffffffffffffff1681525050905060018081111561286257612861613ccc565b5b60035f3373ffffffffffffffffffffffffffffffffffffffff1673ffffffffffffffffffffffffffffffffffffffff1681526020019081526020015f205f015f9054906101000a900460ff1660018111156128c0576128bf613ccc565b5b036129005760015f8581526020019081526020015f206006015f9054906101000a900473ffffffffffffffffffffffffffffffffffffffff169150612938565b60015f8581526020019081526020015f2060050160029054906101000a900473ffffffffffffffffffffffffffffffffffffffff1691505b5f8160200151905061294c84848784612f13565b8273ffffffffffffffffffffffffffffffffffffffff166108fc8360a00151846080015161297a919061440a565b90811502906040515f60405180830381858888f193505050501580156129a2573d5f803e3d5ffd5b505050505050565b606060055f8373ffffffffffffffffffffffffffffffffffffffff1673ffffffffffffffffffffffffffffffffffffffff1681526020019081526020015f20805480602002602001604051908101604052809291908181526020018280548015612a3157602002820191905f5260205f20905b815481526020019060010190808311612a1d575b50505050509050919050565b60015f8281526020019081526020015f205f8082015f9055600182015f9055600282015f6101000a81549060ff02191690556002820160016101000a81549060ff0219169055600382015f9055600482015f9055600582015f6101000a81549060ff02191690556005820160016101000a81549060ff02191690556005820160026101000a81549073ffffffffffffffffffffffffffffffffffffffff0219169055600682015f6101000a81549073ffffffffffffffffffffffffffffffffffffffff02191690555050612b126002826132e2565b5f60035f8573ffffffffffffffffffffffffffffffffffffffff1673ffffffffffffffffffffffffffffffffffffffff1681526020019081526020015f20600101805480602002602001604051908101604052809291908181526020018280548015612b9b57602002820191905f5260205f20905b815481526020019060010190808311612b87575b5050505050905060605f60035f8673ffffffffffffffffffffffffffffffffffffffff1673ffffffffffffffffffffffffffffffffffffffff1681526020019081526020015f20600101805480602002602001604051908101604052809291908181526020018280548015612c2d57602002820191905f5260205f20905b815481526020019060010190808311612c19575b5050505050905060605f5b8451811015612cb05785858281518110612c5557612c54613f79565b5b602002602001015114612c9d57848181518110612c7557612c74613f79565b5b6020026020010151848281518110612c9057612c8f613f79565b5b6020026020010181815250505b8080612ca890613fa6565b915050612c38565b508260035f8973ffffffffffffffffffffffffffffffffffffffff1673ffffffffffffffffffffffffffffffffffffffff1681526020019081526020015f206001019080519060200190612d059291906133ec565b505f5b8251811015612d805785838281518110612d2557612d24613f79565b5b602002602001015114612d6d57828181518110612d4557612d44613f79565b5b6020026020010151828281518110612d6057612d5f613f79565b5b6020026020010181815250505b8080612d7890613fa6565b915050612d08565b508060035f8873ffffffffffffffffffffffffffffffffffffffff1673ffffffffffffffffffffffffffffffffffffffff1681526020019081526020015f206001019080519060200190612dd59291906133ec565b5050505050505050565b5f60035f8373ffffffffffffffffffffffffffffffffffffffff1673ffffffffffffffffffffffffffffffffffffffff1681526020019081526020015f206003015f9054906101000a900460ff169050919050565b5f8060035f8573ffffffffffffffffffffffffffffffffffffffff1673ffffffffffffffffffffffffffffffffffffffff1681526020019081526020015f20600101805480602002602001604051908101604052809291908181526020018280548015612ebe57602002820191905f5260205f20905b815481526020019060010190808311612eaa575b505050505090505f81511180612ef957506001151560075f8581526020019081526020015f2060010160149054906101000a900460ff161515145b15612f08576001915050612f0d565b5f9150505b92915050565b60015f8381526020019081526020015f205f8082015f9055600182015f9055600282015f6101000a81549060ff02191690556002820160016101000a81549060ff0219169055600382015f9055600482015f9055600582015f6101000a81549060ff02191690556005820160016101000a81549060ff02191690556005820160026101000a81549073ffffffffffffffffffffffffffffffffffffffff0219169055600682015f6101000a81549073ffffffffffffffffffffffffffffffffffffffff02191690555050612fe86002836132e2565b5f60075f8381526020019081526020015f2060010160146101000a81548160ff0219169083151502179055505f60035f8673ffffffffffffffffffffffffffffffffffffffff1673ffffffffffffffffffffffffffffffffffffffff1681526020019081526020015f2060010180548060200260200160405190810160405280929190818152602001828054801561309d57602002820191905f5260205f20905b815481526020019060010190808311613089575b5050505050905060605f60035f8773ffffffffffffffffffffffffffffffffffffffff1673ffffffffffffffffffffffffffffffffffffffff1681526020019081526020015f2060010180548060200260200160405190810160405280929190818152602001828054801561312f57602002820191905f5260205f20905b81548152602001906001019080831161311b575b5050505050905060605f5b84518110156131b2578685828151811061315757613156613f79565b5b60200260200101511461319f5784818151811061317757613176613f79565b5b602002602001015184828151811061319257613191613f79565b5b6020026020010181815250505b80806131aa90613fa6565b91505061313a565b508260035f8a73ffffffffffffffffffffffffffffffffffffffff1673ffffffffffffffffffffffffffffffffffffffff1681526020019081526020015f2060010190805190602001906132079291906133ec565b505f5b8251811015613282578683828151811061322757613226613f79565b5b60200260200101511461326f5782818151811061324757613246613f79565b5b602002602001015182828151811061326257613261613f79565b5b6020026020010181815250505b808061327a90613fa6565b91505061320a565b508060035f8973ffffffffffffffffffffffffffffffffffffffff1673ffffffffffffffffffffffffffffffffffffffff1681526020019081526020015f2060010190805190602001906132d79291906133ec565b505050505050505050565b5f805f90505f5b8480549050811015613336578385828154811061330957613308613f79565b5b905f5260205f200154036133235780925060019150613336565b808061332e90613fa6565b9150506132e9565b5080613377576040517f08c379a000000000000000000000000000000000000000000000000000000000815260040161336e90614487565b60405180910390fd5b836001858054905061338991906144a5565b8154811061339a57613399613f79565b5b905f5260205f2001548483815481106133b6576133b5613f79565b5b905f5260205f200181905550838054806133d3576133d26144d8565b5b600190038181905f5260205f20015f9055905550505050565b828054828255905f5260205f20908101928215613426579160200282015b8281111561342557825182559160200191906001019061340a565b5b5090506134339190613437565b5090565b5b8082111561344e575f815f905550600101613438565b5090565b5f82825260208201905092915050565b7f66616c6c000000000000000000000000000000000000000000000000000000005f82015250565b5f613496600483613452565b91506134a182613462565b602082019050919050565b5f73ffffffffffffffffffffffffffffffffffffffff82169050919050565b5f6134d5826134ac565b9050919050565b6134e5816134cb565b82525050565b5f819050919050565b6134fd816134eb565b82525050565b5f82825260208201905092915050565b50565b5f6135215f83613503565b915061352c82613513565b5f82019050919050565b5f6080820190508181035f83015261354d8161348a565b905061355c60208301856134dc565b61356960408301846134f4565b818103606083015261357a81613516565b90509392505050565b7f66616c6c6261636b0000000000000000000000000000000000000000000000005f82015250565b5f6135b7600883613452565b91506135c282613583565b602082019050919050565b828183375f83830152505050565b5f601f19601f8301169050919050565b5f6135f68385613503565b93506136038385846135cd565b61360c836135db565b840190509392505050565b5f6080820190508181035f83015261362e816135ab565b905061363d60208301876134dc565b61364a60408301866134f4565b818103606083015261365d8184866135eb565b905095945050505050565b5f604051905090565b5f80fd5b5f80fd5b613682816134eb565b811461368c575f80fd5b50565b5f8135905061369d81613679565b92915050565b5f602082840312156136b8576136b7613671565b5b5f6136c58482850161368f565b91505092915050565b5f80fd5b7f4e487b71000000000000000000000000000000000000000000000000000000005f52604160045260245ffd5b613708826135db565b810181811067ffffffffffffffff82111715613727576137266136d2565b5b80604052505050565b5f613739613668565b905061374582826136ff565b919050565b5f67ffffffffffffffff821115613764576137636136d2565b5b602082029050602081019050919050565b5f80fd5b5f61378b6137868461374a565b613730565b905080838252602082019050602084028301858111156137ae576137ad613775565b5b835b818110156137d757806137c3888261368f565b8452602084019350506020810190506137b0565b5050509392505050565b5f82601f8301126137f5576137f46136ce565b5b8135613805848260208601613779565b91505092915050565b5f806040838503121561382457613823613671565b5b5f83013567ffffffffffffffff81111561384157613840613675565b5b61384d858286016137e1565b925050602083013567ffffffffffffffff81111561386e5761386d613675565b5b61387a858286016137e1565b9150509250929050565b5f8115159050919050565b61389881613884565b81146138a2575f80fd5b50565b5f813590506138b38161388f565b92915050565b5f805f805f805f60e0888a0312156138d4576138d3613671565b5b5f6138e18a828b016138a5565b97505060206138f28a828b0161368f565b96505060406139038a828b0161368f565b95505060606139148a828b0161368f565b94505060806139258a828b0161368f565b93505060a06139368a828b0161368f565b92505060c06139478a828b0161368f565b91505092959891949750929550565b61395f816134cb565b8114613969575f80fd5b50565b5f8135905061397a81613956565b92915050565b5f806040838503121561399657613995613671565b5b5f6139a38582860161396c565b92505060206139b48582860161368f565b9150509250929050565b6139c781613884565b82525050565b5f6020820190506139e05f8301846139be565b92915050565b5f610140820190506139fa5f83018d6134f4565b613a07602083018c6134f4565b613a14604083018b6139be565b613a21606083018a6139be565b613a2e60808301896134f4565b613a3b60a08301886134f4565b613a4860c08301876139be565b613a5560e08301866139be565b613a636101008301856134dc565b613a716101208301846134dc565b9b9a5050505050505050505050565b5f60208284031215613a9557613a94613671565b5b5f613aa28482850161396c565b91505092915050565b5f81519050919050565b5f82825260208201905092915050565b5f819050602082019050919050565b613add816134eb565b82525050565b5f613aee8383613ad4565b60208301905092915050565b5f602082019050919050565b5f613b1082613aab565b613b1a8185613ab5565b9350613b2583613ac5565b805f5b83811015613b55578151613b3c8882613ae3565b9750613b4783613afa565b925050600181019050613b28565b5085935050505092915050565b5f608082019050613b755f8301876139be565b8181036020830152613b878186613b06565b9050613b9660408301856134f4565b613ba360608301846139be565b95945050505050565b5f608082019050613bbf5f8301876134f4565b613bcc60208301866134dc565b613bd960408301856139be565b613be660608301846134f4565b95945050505050565b5f602082019050613c025f8301846134f4565b92915050565b5f613c12826134ac565b9050919050565b613c2281613c08565b8114613c2c575f80fd5b50565b5f81359050613c3d81613c19565b92915050565b5f8060408385031215613c5957613c58613671565b5b5f613c6685828601613c2f565b9250506020613c778582860161368f565b9150509250929050565b5f60208284031215613c9657613c95613671565b5b5f613ca384828501613c2f565b91505092915050565b5f6020820190508181035f830152613cc48184613b06565b905092915050565b7f4e487b71000000000000000000000000000000000000000000000000000000005f52602160045260245ffd5b7f4461746120696e636f6e73697374656e637900000000000000000000000000005f82015250565b5f613d2d601283613452565b9150613d3882613cf9565b602082019050919050565b5f6020820190508181035f830152613d5a81613d21565b9050919050565b7f4e487b71000000000000000000000000000000000000000000000000000000005f52601160045260245ffd5b5f613d98826134eb565b9150613da3836134eb565b9250828202613db1816134eb565b91508282048414831517613dc857613dc7613d61565b5b5092915050565b7f57726f6e6720616d6f756e7420706169640000000000000000000000000000005f82015250565b5f613e03601183613452565b9150613e0e82613dcf565b602082019050919050565b5f6020820190508181035f830152613e3081613df7565b9050919050565b7f596f7520617265206e6f7420612072656e746572207468657265666f726520795f8201527f6f75277265206e6f7420616c6c6f77656420746f20726567697374657220726f60208201527f6f6d730000000000000000000000000000000000000000000000000000000000604082015250565b5f613eb7604383613452565b9150613ec282613e37565b606082019050919050565b5f6020820190508181035f830152613ee481613eab565b9050919050565b7f496e636f6e73697374656e7420696e666f726d6174696f6e2070726f766964655f8201527f642e000000000000000000000000000000000000000000000000000000000000602082015250565b5f613f45602283613452565b9150613f5082613eeb565b604082019050919050565b5f6020820190508181035f830152613f7281613f39565b9050919050565b7f4e487b71000000000000000000000000000000000000000000000000000000005f52603260045260245ffd5b5f613fb0826134eb565b91507fffffffffffffffffffffffffffffffffffffffffffffffffffffffffffffffff8203613fe257613fe1613d61565b5b600182019050919050565b613ff6816134eb565b82525050565b5f60c08201905061400f5f830189613fed565b61401c6020830188613fed565b6140296040830187613fed565b6140366060830186613fed565b6140436080830185613fed565b61405060a0830184613fed565b979650505050505050565b5f815190506140698161388f565b92915050565b5f6020828403121561408457614083613671565b5b5f6140918482850161405b565b91505092915050565b7f55736572206973206e6f7420746865206f776e6572206f6620746865206164645f8201527f7265737300000000000000000000000000000000000000000000000000000000602082015250565b5f6140f4602483613452565b91506140ff8261409a565b604082019050919050565b5f6020820190508181035f830152614121816140e8565b9050919050565b7f5573657220616c726561647920726567697374657265640000000000000000005f82015250565b5f61415c601783613452565b915061416782614128565b602082019050919050565b5f6020820190508181035f83015261418981614150565b9050919050565b7f596f7520617265206e6f7420616e20617574686f72697a6564207573657200005f82015250565b5f6141c4601e83613452565b91506141cf82614190565b602082019050919050565b5f6020820190508181035f8301526141f1816141b8565b9050919050565b7f52656e746572206973206e6f7420616e20617574686f72697a656420757365725f82015250565b5f61422c602083613452565b9150614237826141f8565b602082019050919050565b5f6020820190508181035f83015261425981614220565b9050919050565b7f53747564656e74206f7220726f6f6d20616c726561647920696e20636f6e74725f8201527f6163740000000000000000000000000000000000000000000000000000000000602082015250565b5f6142ba602383613452565b91506142c582614260565b604082019050919050565b5f6020820190508181035f8301526142e7816142ae565b9050919050565b7f496e636f6e73697374656e6379206265747765656e20726f6f6d206f776e65725f8201527f20616e642072656e746572000000000000000000000000000000000000000000602082015250565b5f614348602b83613452565b9150614353826142ee565b604082019050919050565b5f6020820190508181035f8301526143758161433c565b9050919050565b7f546869732072656e746572277320726f6f6d732061726520616c6c20616c72655f8201527f616479206f636375706965640000000000000000000000000000000000000000602082015250565b5f6143d6602c83613452565b91506143e18261437c565b604082019050919050565b5f6020820190508181035f830152614403816143ca565b9050919050565b5f614414826134eb565b915061441f836134eb565b925082820190508082111561443757614436613d61565b5b92915050565b7f456c656d656e74206e6f742070726573656e7420696e206172726179000000005f82015250565b5f614471601c83613452565b915061447c8261443d565b602082019050919050565b5f6020820190508181035f83015261449e81614465565b9050919050565b5f6144af826134eb565b91506144ba836134eb565b92508282039050818111156144d2576144d1613d61565b5b92915050565b7f4e487b71000000000000000000000000000000000000000000000000000000005f52603160045260245ffdfea26469706673582212203738923123fdb2f87f878ef2d343b2b7b5198481020f9d48c76a24f1b6346b5164736f6c63430008140033",
  "immutableReferences": {},
  "source": "// SPDX-License-Identifier: GPL - 3.0\n\npragma solidity >= 0.7.0;\n//import \"hardhat/console.sol\";\nimport \"./zkp.sol\";\n\ncontract Affitto {\n\n    event Log(string func, address sender, uint value, bytes data);\n\n    struct contract_instance {\n        uint contract_id;\n        uint room_id;\n        bool student_paid;\n        bool renter_paid;\n        uint amt_paid_student;\n        uint amt_paid_renter;\n        bool concluded_student;\n        bool concluded_renter;\n        address payable student;\n        address payable renter;\n    }\n\n    struct room {\n        uint id;\n        address owner;\n        bool occupied;\n        uint deposit;\n    }\n\n    // the bool variable already_init is used to check if the couple (key, struct) has already been explicitely set (solidity automatically )\n    struct user {\n        Role role;\n        uint[] room_record;\n        uint num_rooms;\n        bool already_init;\n    }\n\n    enum Role {\n        Renter,\n        Student\n    }\n\n    address payable contract_address = payable(address(this));\n    mapping(uint => contract_instance) contract_record;         // associa a ogni id la rispettiva struct di contratto\n    uint[] contract_record_keys;\n    mapping(address => user) user_info;\n    address[] user_info_keys;                        // associa a ogni indirizzo il suo ruolo (student: 0, renter: 1)\n    mapping(address => uint[]) renters_rooms;                  // associa a ogni renter un array che contiene l'id delle sue stanze\n    address[] renters_rooms_keys;\n    mapping(uint => room) rooms_record; \n    uint[] rooms_record_keys;   \n    uint conversion_rate = 586099570929370;                     // DA CHIEDERE ALL'ESTERNO?\n    uint num_contracts;                                         // var globale che incremento a ogni nuovo contratto e la uso come id\n\n    constructor() {\n        //contract_record = new mapping(uint => contract_instance); // non chiaro come si inizializza\n        num_contracts = 0;\n    }\n\n    function register_user(bool role_id, uint a, uint b, uint c, uint d, uint e, uint f) public {\n        require(zkp.Verifier(a, b, c, d, e, f) == true, \"User is not the owner of the address\");\n\n        // Doesn't allow double registrations\n        require(!user_info[msg.sender].already_init, \"User already registered\");\n        uint256[] memory array;\n\n        // false --> student, true --> renter\n        if (role_id) {\n            user_info[msg.sender] = user({\n                role: Role.Renter, \n                room_record: array, \n                num_rooms: 0, \n                already_init: true\n            });\n            user_info_keys.push(msg.sender);\n        }\n        else {\n            user_info[msg.sender] = user({\n                role: Role.Student, \n                room_record: array, \n                num_rooms: 0, \n                already_init: true\n            });\n            user_info_keys.push(msg.sender);\n        }\n        \n    }\n\n    function register_rooms(uint[] memory rooms, uint[] memory deposits) public {\n        // controlliamo che il chiamante sia un renter\n        require(user_info[msg.sender].role == Role.Renter, \"You are not a renter therefore you're not allowed to register rooms\");\n        require(rooms.length == deposits.length, \"Inconsistent information provided.\");\n        uint l = rooms.length;\n        user_info[msg.sender].num_rooms = l; \n        // TODO: VERIFICARE CHE IL RENTER SIA EFFETTIVAMENTE IL PROPRIETARIO DELLE STANZE (sia fa una zkp nelle nft? chi lo sa)\n\n        for (uint i = 0; i < l; i++) {\n            room memory new_room = room({id: rooms[i], owner: msg.sender, occupied: false, deposit: deposits[i]});\n            renters_rooms[msg.sender].push(rooms[i]);\n            rooms_record[new_room.id] = new_room;\n            rooms_record_keys.push(new_room.id);\n        }\n        \n    }   \n\n    // If the student has his heart already set on a specific room \n    function inizialize(address payable renter, uint room_id) public {\n        require(check_user_already_registered(msg.sender), \"You are not an authorized user\");\n        require(check_user_already_registered(renter), \"Renter is not an authorized user\");\n\n        address payable student = payable(msg.sender);\n        \n        // check che lo studente non sia gi in una \"istanza\" di contratto o che la stanza non sia gi occupata\n        require(check_if_already_in_contract(student, room_id) == false, \"Student or room already in contract\"); // controllare che l'inizializzazione venga interrotta e venga emesso il messaggio di errore\n        \n        // check that the renter is the room's owner\n        require(rooms_record[room_id].owner == renter, \"Inconsistency between room owner and renter\");\n\n        // se n lo student n la stanza sono gi in un contratto, possiamo procedere alla creazione della struct che rappresenta l'istanza del contratto\n        uint new_id = num_contracts;\n        num_contracts++;\n        rooms_record[room_id].occupied = true;\n        contract_instance memory instance = contract_instance({\n            contract_id: new_id, \n            room_id: room_id, \n            student_paid: false, \n            renter_paid: false, \n            amt_paid_student: 0, \n            amt_paid_renter: 0, \n            concluded_student: false, \n            concluded_renter: false, \n            student: student, \n            renter: renter\n        });\n\n        contract_record[new_id] = instance;\n        contract_record_keys.push(new_id);\n        user_info[student].room_record.push(new_id);\n        user_info[renter].room_record.push(new_id);\n    }\n\n    // if the student doesn't care about which room he gets assigned\n    function inizialize(address payable renter) public {\n        require(check_user_already_registered(msg.sender), \"You are not an authorized user\");\n        require(check_user_already_registered(renter), \"Renter is not an authorized user\");\n        address payable student = payable(msg.sender);\n        \n        uint room_id;\n        bool room_found = false;\n\n        // Checks if the owner has any rooms available\n        for (uint i = 0; i < user_info[renter].num_rooms; i++) {\n            if (!rooms_record[renters_rooms[renter][i]].occupied) {\n                room_found = true;\n                room_id = rooms_record[renters_rooms[renter][i]].id;\n                break;\n            }\n        }\n        \n        require(room_found, \"This renter's rooms are all already occupied\"); \n\n        uint new_id = num_contracts;\n        num_contracts++;\n        rooms_record[room_id].occupied = true;\n        contract_instance memory instance = contract_instance({\n            contract_id: new_id, \n            room_id: room_id, \n            student_paid: false, \n            renter_paid: false, \n            amt_paid_student: 0, \n            amt_paid_renter: 0, \n            concluded_student: false, \n            concluded_renter: false, \n            student: student, \n            renter: renter\n        });\n        contract_record[new_id] = instance;\n        user_info[student].room_record.push(new_id);\n        user_info[renter].room_record.push(new_id);\n    \n    }\n\n    \n    function student_pay_deposit() public payable {\n        Role role = user_info[msg.sender].role;\n        require(role == Role.Student);\n        \n        uint contract_id = user_info[msg.sender].room_record[0];\n        contract_instance memory instance = contract_record[contract_id];\n        uint deposit = rooms_record[instance.room_id].deposit;\n        uint paid_amount = msg.value;\n        require(paid_amount == conversion_rate * deposit, \"Wrong amount paid\");\n        \n        instance.amt_paid_student = paid_amount;\n        instance.student_paid = true;\n        contract_record[contract_id] = instance;\n        \n    }\n\n    function renter_pay_deposit(uint contract_id) public payable {\n        contract_instance memory instance = contract_record[contract_id];\n        Role role = user_info[msg.sender].role;\n        require(role == Role.Renter, \"Data inconsistency\"); // probabilmente inutile (gi implicitamente incluso nel secondo require)\n        require(msg.sender == instance.renter, \"Data inconsistency\");\n        uint deposit = rooms_record[instance.room_id].deposit;\n        uint paid_amount = msg.value;\n        require(paid_amount == conversion_rate * deposit, \"Wrong amount paid\"); \n        instance.amt_paid_renter = paid_amount;\n        instance.renter_paid = true;\n        contract_record[contract_id] = instance;    \n    }\n\n    function withdraw_from_contract(uint contract_id) public {\n        // IDEA: lo studente non pu ritirarsi prima di aver pagato la caparra, oppure pu ritirarsi gratuitamente nel lasso di tempo \n        // che ha per pagare la caparra\n        address receder = msg.sender;\n        address other;\n        contract_instance memory instance = contract_record[contract_id];\n        if (user_info[msg.sender].role == Role.Student) {\n            other = contract_record[contract_id].renter;\n        }\n        else {\n            other = contract_record[contract_id].student;\n        }\n        uint room_id = instance.room_id;\n\n        delete_contract_instance(receder, other, contract_id, room_id);\n        \n        \n        payable(other).transfer(instance.amt_paid_student + instance.amt_paid_renter);\n    }\n\n    \n\n    function end_contract_successfully(uint contract_id) public returns (bool) {\n        contract_instance memory instance = contract_record[contract_id];\n        address student;\n        address renter;\n        if (user_info[msg.sender].role == Role.Student) {\n            student = msg.sender;\n            instance.concluded_student = true;\n            renter = instance.renter;\n        }\n        else {\n            renter = msg.sender;\n            instance.concluded_renter = true;\n            student = instance.student;\n        }\n\n        if (instance.concluded_renter && instance.concluded_student) {\n            delete_contract_instance(student, renter, contract_id);\n            payable(student).transfer(instance.amt_paid_student);\n            payable(renter).transfer(instance.amt_paid_renter);\n            return true;\n        }\n        return false;\n    }\n\n\n    function get_user_info(address add) public view returns (bool, uint[] memory, uint, bool) {\n        user memory u = user_info[add];\n        bool role;\n        if (u.role == Role.Renter) {\n            role = true;\n        }\n        else {\n            role = false;\n        }\n        uint[] memory room_record = u.room_record;\n        uint num_rooms = u.num_rooms;\n        bool already_init = u.already_init;\n        return (role, room_record, num_rooms, already_init);\n    }\n\n    function get_room_list(address a) public view returns (uint[] memory) {\n        return renters_rooms[a];\n    }\n\n    function get_contract_info(uint256 contract_id) public view returns (uint, uint, bool, bool, uint, uint, bool, bool, address, address) {\n        contract_instance memory instance = contract_record[contract_id];\n        return (contract_id, instance.room_id, instance.student_paid, instance.renter_paid, instance.amt_paid_student, instance.amt_paid_renter, instance.concluded_student, instance.concluded_renter, instance.student, instance.renter);\n    }\n\n    function get_deposit_in_wei(uint room_id) public view returns (uint){\n        uint deposit = rooms_record[room_id].deposit;\n        return (deposit * conversion_rate);\n    }\n\n    function get_room_info(uint room_id) public view returns (uint, address, bool, uint) {\n        room memory r = rooms_record[room_id];\n        uint id = r.id;\n        address owner = r.owner;\n        bool occupied = r.occupied;\n        uint deposit = r.deposit;\n        return (id, owner, occupied, deposit);\n    }\n\n\n    /* function get_contract_record() public view {\n        for (uint i = 0; i < contract_record_keys.length; i++) {\n            (uint a, uint b, bool c, bool d, uint e, uint f, bool g, bool h, address j, address k) = get_contract_info(contract_record_keys[i]);\n            console.log(a);\n            console.log(b);\n            console.log(c);\n            console.log(d);\n            console.log(e);\n            console.log(f);\n            console.log(g);\n            console.log(h);\n            console.log(j);\n            console.log(k);\n            console.log(\"\\n\");\n            console.log(\"\\n\");\n        }\n    } */\n\n    function check_if_already_paid(address addr, uint contract_id) public view returns (bool) {\n        Role role = user_info[addr].role;\n        contract_instance memory instance = contract_record[contract_id];\n        if (role == Role.Renter) {\n            require(addr == instance.renter, \"Data inconsistency\");\n            return instance.renter_paid;\n        }\n        else {\n            require(addr == instance.student, \"Data inconsistency\");\n            return instance.student_paid;\n        }\n    }\n\n\n    function check_if_already_in_contract(address student, uint room_id) private view returns (bool) {\n        // controlla se lo studente o la stanza (disgiunzione inclusiva) sono gi in un contratto\n        \n        uint[] memory student_array = user_info[student].room_record;\n\n        if (student_array.length > 0 || rooms_record[room_id].occupied == true) {\n            return true;\n        }\n        return false;\n\n    }\n\n    function check_user_already_registered(address add) private view returns (bool) {\n        return user_info[add].already_init;\n    } \n\n    function delete_contract_instance(address a1, address a2, uint contract_id, uint room_id) private {\n        \n        // delete the contract instance\n        delete(contract_record[contract_id]);\n        remove(contract_record_keys, contract_id);\n\n        // mark the room as not occupied\n        rooms_record[room_id].occupied = false;\n        \n        // modify the list of contract instances the addresses are a part of\n        uint[] memory a1_record = user_info[a1].room_record;\n        uint[] memory a1_new_record; // la lunghezza  uno in meno perch tolgo l'id di contratto dall'array\n        uint[] memory a2_record = user_info[a2].room_record;\n        uint[] memory a2_new_record;\n\n\n        for (uint i = 0; i < a1_record.length; i++) {\n            if (a1_record[i] != contract_id) {\n                a1_new_record[i] = a1_record[i];\n            }  \n        }\n        user_info[a1].room_record = a1_new_record; \n\n        for (uint i = 0; i < a2_record.length; i++) {\n            if (a2_record[i] != contract_id) {\n                a2_new_record[i] = a2_record[i];\n            }  \n        }\n        user_info[a2].room_record = a2_new_record;\n    }\n\n    // the contract ends successfully \n    // the difference with the other delete_contract_instance is that the room doesn't get marked as free\n    function delete_contract_instance(address a1, address a2, uint contract_id) private {\n        \n        // delete the contract instance\n        delete(contract_record[contract_id]);\n        remove(contract_record_keys, contract_id);\n        \n        // modify the list of contract instances the addresses are a part of\n        uint[] memory a1_record = user_info[a1].room_record;\n        uint[] memory a1_new_record; // la lunghezza  uno in meno perch tolgo l'id di contratto dall'array\n        uint[] memory a2_record = user_info[a2].room_record;\n        uint[] memory a2_new_record;\n\n\n        for (uint i = 0; i < a1_record.length; i++) {\n            if (a1_record[i] != contract_id) {\n                a1_new_record[i] = a1_record[i];\n            }  \n        }\n        user_info[a1].room_record = a1_new_record; \n\n        for (uint i = 0; i < a2_record.length; i++) {\n            if (a2_record[i] != contract_id) {\n                a2_new_record[i] = a2_record[i];\n            }  \n        }\n        user_info[a2].room_record = a2_new_record;\n    }  \n\n\n    function check_if_user_already_registered(address addr) private view returns (bool) {\n        return user_info[addr].already_init;\n    }\n\n    fallback() external payable {\n        emit Log(\"fallback\", msg.sender, msg.value, msg.data);\n    }\n\n    receive() external payable {\n        emit Log(\"fall\", msg.sender, msg.value, \"\");\n    }\n\n    function remove(uint[] storage array, uint element) private {\n        uint index;\n        bool found = false;\n        for(uint i = 0; i < array.length; i++) {\n            if (array[i] == element) {\n                index = i;\n                found = true;\n                break;\n            }\n        }\n        require(found, \"Element not present in array\");\n        array[index] = array[array.length - 1];\n        array.pop();\n    }\n\n    function remove(address[] storage array, address element) private {\n        uint index;\n        bool found = false;\n        for(uint i = 0; i < array.length; i++) {\n            if (array[i] == element) {\n                index = i;\n                found = true;\n                break;\n            }\n        }\n        require(found, \"Element not present in array\");\n        array[index] = array[array.length - 1];\n        array.pop();\n    }\n\n}\n\n",
  "sourcePath": "/home/davipase/Blockchain/HouseLocker/smart_contracts/Affitto/contracts/Affitto.sol",
  "compiler": {
    "name": "solc",
    "version": "0.8.20+commit.a1b79de6.Emscripten.clang"
  },
  "schemaVersion": "3.4.14",
  "updatedAt": "2023-06-23T10:55:27.961Z",
  "networkType": "ethereum",
  "devdoc": {
    "kind": "dev",
    "methods": {},
    "version": 1
  },
  "userdoc": {
    "kind": "user",
    "methods": {},
    "version": 1
  }
}