{
  "contractName": "Affitto",
  "abi": [
    {
      "inputs": [],
      "stateMutability": "nonpayable",
      "type": "constructor"
    },
    {
      "inputs": [
        {
          "internalType": "address payable",
          "name": "r",
          "type": "address"
        }
      ],
      "name": "inizialize",
      "outputs": [],
      "stateMutability": "nonpayable",
      "type": "function"
    }
  ],
  "bytecode": "0x60806040526101f4600255348015610015575f80fd5b505f6003819055505f67ffffffffffffffff811115610037576100366100e7565b5b6040519080825280602002602001820160405280156100655781602001602082028036833780820191505090505b506001908051906020019061007b929190610081565b50610114565b828054828255905f5260205f209081019282156100bb579160200282015b828111156100ba57825182559160200191906001019061009f565b5b5090506100c891906100cc565b5090565b5b808211156100e3575f815f9055506001016100cd565b5090565b7f4e487b71000000000000000000000000000000000000000000000000000000005f52604160045260245ffd5b61057d806101215f395ff3fe608060405234801561000f575f80fd5b5060043610610029575f3560e01c8063da9ae2341461002d575b5f80fd5b610047600480360381019061004291906103d4565b610049565b005b5f151561005633836101d2565b151514610098576040517f08c379a000000000000000000000000000000000000000000000000000000000815260040161008f9061047f565b60405180910390fd5b5f600354905060035f8154809291906100b0906104d3565b91905055505f60405180606001604052808381526020013373ffffffffffffffffffffffffffffffffffffffff1681526020018473ffffffffffffffffffffffffffffffffffffffff168152509050805f808481526020019081526020015f205f820151815f01556020820151816001015f6101000a81548173ffffffffffffffffffffffffffffffffffffffff021916908373ffffffffffffffffffffffffffffffffffffffff1602179055506040820151816002015f6101000a81548173ffffffffffffffffffffffffffffffffffffffff021916908373ffffffffffffffffffffffffffffffffffffffff160217905550905050600182908060018154018082558091505060019003905f5260205f20015f9091909190915055505050565b5f8060018054905090505f805b8281101561036a575f600182815481106101fc576101fb61051a565b5b905f5260205f20015490505f805f8381526020019081526020015f206040518060600160405290815f8201548152602001600182015f9054906101000a900473ffffffffffffffffffffffffffffffffffffffff1673ffffffffffffffffffffffffffffffffffffffff1673ffffffffffffffffffffffffffffffffffffffff168152602001600282015f9054906101000a900473ffffffffffffffffffffffffffffffffffffffff1673ffffffffffffffffffffffffffffffffffffffff1673ffffffffffffffffffffffffffffffffffffffff168152505090508773ffffffffffffffffffffffffffffffffffffffff16816020015173ffffffffffffffffffffffffffffffffffffffff16148061034557508673ffffffffffffffffffffffffffffffffffffffff16816040015173ffffffffffffffffffffffffffffffffffffffff16145b156103555760019350505061036a565b50508080610362906104d3565b9150506101df565b50809250505092915050565b5f80fd5b5f73ffffffffffffffffffffffffffffffffffffffff82169050919050565b5f6103a38261037a565b9050919050565b6103b381610399565b81146103bd575f80fd5b50565b5f813590506103ce816103aa565b92915050565b5f602082840312156103e9576103e8610376565b5b5f6103f6848285016103c0565b91505092915050565b5f82825260208201905092915050565b7f53747564656e74206f722072656e74657220616c726561647920696e20636f6e5f8201527f7472616374000000000000000000000000000000000000000000000000000000602082015250565b5f6104696025836103ff565b91506104748261040f565b604082019050919050565b5f6020820190508181035f8301526104968161045d565b9050919050565b7f4e487b71000000000000000000000000000000000000000000000000000000005f52601160045260245ffd5b5f819050919050565b5f6104dd826104ca565b91507fffffffffffffffffffffffffffffffffffffffffffffffffffffffffffffffff820361050f5761050e61049d565b5b600182019050919050565b7f4e487b71000000000000000000000000000000000000000000000000000000005f52603260045260245ffdfea26469706673582212201779c4e726b818c7e6762a4a311402e565452493c129bcc90cfc633163fc034564736f6c63430008140033",
  "immutableReferences": {},
  "source": "// SPDX-License-Identifier: GPL - 3.0\r\npragma solidity >= 0.7.0;\r\n\r\n//import \"hardhat/console.sol\"; // CAPIRE COME IMPORTARE\r\n\r\ncontract Prova {\r\n    struct contractInstance {\r\n        uint id;\r\n        address payable student;\r\n        address payable renter;\r\n    }\r\n\r\n    mapping(uint => contractInstance) contractRecord;\r\n    uint[] contractIds;\r\n    uint caparra = 500; // concetto: stabilire una somma fissa per la caparra\r\n    uint numContracts; // var globale che incremento a ogni nuovo contratto e la uso come id\r\n\r\n    constructor() {\r\n        //contractRecord = new mapping(uint => contractInstance); // non chiaro come si inizializza\r\n        numContracts = 0;\r\n        contractIds = new uint[](0); // capire che dimensione mettere, se fa un resize automatico, ecc\r\n    }\r\n\r\n    function inizialize(address payable r) public {\r\n\r\n        // check che entrambe le parti non siano gi in una \"istanza\" di contratto\r\n        require(checkIfAlreadyInContract(msg.sender, r) == false, \"Student or renter already in contract\"); // controllare che l'inizializzazione venga interrotta e venga emesso il messaggio di errore\r\n\r\n        // se n lo student n il renter sono gi in un contratto, possiamo procedere alla creazione della struct che rappresenta l'istanza del contratto\r\n        uint new_id = numContracts;\r\n        numContracts++;\r\n        contractInstance memory instance = contractInstance({id: new_id, student: payable(msg.sender), renter: r});\r\n        contractRecord[new_id] = instance;\r\n        contractIds.push(new_id);\r\n    }\r\n \r\n    function checkIfAlreadyInContract(address student, address renter) private view returns (bool) { // vedere se c' un modo computazionalmente pi economico per farlo\r\n        uint l = contractIds.length;\r\n        bool alreadyInContract = false;\r\n        for (uint i = 0; i < l; i++) {\r\n            uint curr_id = contractIds[i];\r\n            contractInstance memory curr_contract = contractRecord[curr_id];\r\n            if (curr_contract.student == student || curr_contract.renter == renter) {\r\n                alreadyInContract = true;\r\n                break;\r\n            }\r\n        }\r\n        return alreadyInContract;\r\n    }\r\n\r\n\r\n// TUTTO LASCIATO UN PO' A CASO\r\n    \r\n}\r\n\r\n\r\n// problema per i noi del futuro: come assicurarsi che una persona stia partecipando a un solo contratto per volta --> FATTO BITCHES",
  "sourcePath": "C:\\user\\annag\\OneDrive\\Desktop\\Varie\\Unitn\\Blockchain\\HouseLocker\\contracts\\bozza.sol",
  "compiler": {
    "name": "solc",
    "version": "0.8.20+commit.a1b79de6.Emscripten.clang"
  },
  "schemaVersion": "3.4.14",
  "updatedAt": "2023-06-07T17:22:13.590Z",
  "devdoc": {
    "kind": "dev",
    "methods": {},
    "version": 1
  },
  "userdoc": {
    "kind": "user",
    "methods": {},
    "version": 1
  }
}