{
  "contractName": "Affitto",
  "abi": [
    {
      "inputs": [],
      "stateMutability": "nonpayable",
      "type": "constructor"
    },
    {
      "anonymous": false,
      "inputs": [
        {
          "indexed": false,
          "internalType": "string",
          "name": "func",
          "type": "string"
        },
        {
          "indexed": false,
          "internalType": "address",
          "name": "sender",
          "type": "address"
        },
        {
          "indexed": false,
          "internalType": "uint256",
          "name": "value",
          "type": "uint256"
        },
        {
          "indexed": false,
          "internalType": "bytes",
          "name": "data",
          "type": "bytes"
        }
      ],
      "name": "Log",
      "type": "event"
    },
    {
      "stateMutability": "payable",
      "type": "fallback",
      "payable": true
    },
    {
      "stateMutability": "payable",
      "type": "receive",
      "payable": true
    },
    {
      "inputs": [
        {
          "internalType": "bool",
          "name": "role_id",
          "type": "bool"
        }
      ],
      "name": "register_user",
      "outputs": [],
      "stateMutability": "nonpayable",
      "type": "function"
    },
    {
      "inputs": [
        {
          "internalType": "uint256[]",
          "name": "rooms",
          "type": "uint256[]"
        },
        {
          "internalType": "uint256[]",
          "name": "deposits",
          "type": "uint256[]"
        }
      ],
      "name": "register_rooms",
      "outputs": [],
      "stateMutability": "nonpayable",
      "type": "function"
    },
    {
      "inputs": [
        {
          "internalType": "address payable",
          "name": "renter",
          "type": "address"
        }
      ],
      "name": "initialize",
      "outputs": [],
      "stateMutability": "nonpayable",
      "type": "function"
    },
    {
      "inputs": [
        {
          "internalType": "address payable",
          "name": "renter",
          "type": "address"
        },
        {
          "internalType": "uint256",
          "name": "room_id",
          "type": "uint256"
        }
      ],
      "name": "initialize",
      "outputs": [],
      "stateMutability": "nonpayable",
      "type": "function"
    },
    {
      "inputs": [],
      "name": "student_pay_deposit",
      "outputs": [],
      "stateMutability": "payable",
      "type": "function",
      "payable": true
    },
    {
      "inputs": [
        {
          "internalType": "uint256",
          "name": "contract_id",
          "type": "uint256"
        }
      ],
      "name": "renter_pay_deposit",
      "outputs": [],
      "stateMutability": "payable",
      "type": "function",
      "payable": true
    },
    {
      "inputs": [
        {
          "internalType": "uint256",
          "name": "contract_id",
          "type": "uint256"
        }
      ],
      "name": "withdraw_from_contract",
      "outputs": [],
      "stateMutability": "nonpayable",
      "type": "function"
    },
    {
      "inputs": [
        {
          "internalType": "uint256",
          "name": "contract_id",
          "type": "uint256"
        }
      ],
      "name": "end_contract_successfully",
      "outputs": [
        {
          "internalType": "bool",
          "name": "",
          "type": "bool"
        }
      ],
      "stateMutability": "nonpayable",
      "type": "function"
    },
    {
      "inputs": [
        {
          "internalType": "address",
          "name": "add",
          "type": "address"
        }
      ],
      "name": "get_user_info",
      "outputs": [
        {
          "internalType": "bool",
          "name": "",
          "type": "bool"
        },
        {
          "internalType": "uint256[]",
          "name": "",
          "type": "uint256[]"
        },
        {
          "internalType": "uint256",
          "name": "",
          "type": "uint256"
        },
        {
          "internalType": "bool",
          "name": "",
          "type": "bool"
        }
      ],
      "stateMutability": "view",
      "type": "function",
      "constant": true
    },
    {
      "inputs": [
        {
          "internalType": "address",
          "name": "a",
          "type": "address"
        }
      ],
      "name": "get_room_list",
      "outputs": [
        {
          "internalType": "uint256[]",
          "name": "",
          "type": "uint256[]"
        }
      ],
      "stateMutability": "view",
      "type": "function",
      "constant": true
    },
    {
      "inputs": [
        {
          "internalType": "uint256",
          "name": "contract_id",
          "type": "uint256"
        }
      ],
      "name": "get_contract_info",
      "outputs": [
        {
          "internalType": "uint256",
          "name": "",
          "type": "uint256"
        },
        {
          "internalType": "uint256",
          "name": "",
          "type": "uint256"
        },
        {
          "internalType": "bool",
          "name": "",
          "type": "bool"
        },
        {
          "internalType": "bool",
          "name": "",
          "type": "bool"
        },
        {
          "internalType": "uint256",
          "name": "",
          "type": "uint256"
        },
        {
          "internalType": "uint256",
          "name": "",
          "type": "uint256"
        },
        {
          "internalType": "bool",
          "name": "",
          "type": "bool"
        },
        {
          "internalType": "bool",
          "name": "",
          "type": "bool"
        },
        {
          "internalType": "address",
          "name": "",
          "type": "address"
        },
        {
          "internalType": "address",
          "name": "",
          "type": "address"
        }
      ],
      "stateMutability": "view",
      "type": "function",
      "constant": true
    },
    {
      "inputs": [
        {
          "internalType": "uint256",
          "name": "room_id",
          "type": "uint256"
        }
      ],
      "name": "get_deposit_in_wei",
      "outputs": [
        {
          "internalType": "uint256",
          "name": "",
          "type": "uint256"
        }
      ],
      "stateMutability": "view",
      "type": "function",
      "constant": true
    },
    {
      "inputs": [
        {
          "internalType": "uint256",
          "name": "room_id",
          "type": "uint256"
        }
      ],
      "name": "get_room_info",
      "outputs": [
        {
          "internalType": "uint256",
          "name": "",
          "type": "uint256"
        },
        {
          "internalType": "address",
          "name": "",
          "type": "address"
        },
        {
          "internalType": "bool",
          "name": "",
          "type": "bool"
        },
        {
          "internalType": "uint256",
          "name": "",
          "type": "uint256"
        }
      ],
      "stateMutability": "view",
      "type": "function",
      "constant": true
    },
    {
      "inputs": [
        {
          "internalType": "address",
          "name": "addr",
          "type": "address"
        },
        {
          "internalType": "uint256",
          "name": "contract_id",
          "type": "uint256"
        }
      ],
      "name": "check_if_already_paid",
      "outputs": [
        {
          "internalType": "bool",
          "name": "",
          "type": "bool"
        }
      ],
      "stateMutability": "view",
      "type": "function",
      "constant": true
    }
  ],
  "bytecode": "0x60806040526602150df0ba6eda60045534801561001a575f80fd5b505f6005819055506149b28061002f5f395ff3fe6080604052600436106100e0575f3560e01c8063a1370f1b1161007e578063cd6dc68711610058578063cd6dc68714610338578063d7b0e16b14610360578063db3189b71461039c578063e206e1a1146103c457610120565b8063a1370f1b146102c7578063b2f0190114610306578063c4d66de81461031057610120565b806365cdf7c3116100ba57806365cdf7c3146101df578063774deb421461021b5780638c4db0251461026057806399aa59781461029f57610120565b80631db8d6cd1461015f57806322aece9c1461017b5780633acbba6e146101a357610120565b36610120577ff7f75251dee7d7fc22deac3247729ebe7c86541f35930bf10c2a4207479a3b6c3334604051610116929190613959565b60405180910390a1005b7ff7f75251dee7d7fc22deac3247729ebe7c86541f35930bf10c2a4207479a3b6c33345f366040516101559493929190613a3a565b60405180910390a1005b61017960048036038101906101749190613ac6565b610400565b005b348015610186575f80fd5b506101a1600480360381019061019c9190613c31565b610872565b005b3480156101ae575f80fd5b506101c960048036038101906101c49190613cd1565b610b61565b6040516101d69190613d29565b60405180910390f35b3480156101ea575f80fd5b5061020560048036038101906102009190613ac6565b610e3b565b6040516102129190613d29565b60405180910390f35b348015610226575f80fd5b50610241600480360381019061023c9190613ac6565b6113d5565b6040516102579a99989796959493929190613d42565b60405180910390f35b34801561026b575f80fd5b5061028660048036038101906102819190613ddc565b61158c565b6040516102969493929190613ebe565b60405180910390f35b3480156102aa575f80fd5b506102c560048036038101906102c09190613f32565b6116fb565b005b3480156102d2575f80fd5b506102ed60048036038101906102e89190613ac6565b61196c565b6040516102fd9493929190613f5d565b60405180910390f35b61030e611a49565b005b34801561031b575f80fd5b5061033660048036038101906103319190613fdb565b611e86565b005b348015610343575f80fd5b5061035e60048036038101906103599190614006565b61253f565b005b34801561036b575f80fd5b5061038660048036038101906103819190613ac6565b612b02565b6040516103939190614044565b60405180910390f35b3480156103a7575f80fd5b506103c260048036038101906103bd9190613ac6565b612b31565b005b3480156103cf575f80fd5b506103ea60048036038101906103e59190613ddc565b612dea565b6040516103f7919061405d565b60405180910390f35b5f606490505f805f8481526020019081526020015f20604051806101400160405290815f820154815260200160018201548152602001600282015f9054906101000a900460ff161515151581526020016002820160019054906101000a900460ff161515151581526020016003820154815260200160048201548152602001600582015f9054906101000a900460ff161515151581526020016005820160019054906101000a900460ff161515151581526020016005820160029054906101000a900473ffffffffffffffffffffffffffffffffffffffff1673ffffffffffffffffffffffffffffffffffffffff1673ffffffffffffffffffffffffffffffffffffffff168152602001600682015f9054906101000a900473ffffffffffffffffffffffffffffffffffffffff1673ffffffffffffffffffffffffffffffffffffffff1673ffffffffffffffffffffffffffffffffffffffff168152505090505f60015f3373ffffffffffffffffffffffffffffffffffffffff1673ffffffffffffffffffffffffffffffffffffffff1681526020019081526020015f205f015f9054906101000a900460ff1690505f60018111156105c2576105c161407d565b5b8160018111156105d5576105d461407d565b5b14610615576040517f08c379a000000000000000000000000000000000000000000000000000000000815260040161060c906140f4565b60405180910390fd5b81610120015173ffffffffffffffffffffffffffffffffffffffff163373ffffffffffffffffffffffffffffffffffffffff1614610688576040517f08c379a000000000000000000000000000000000000000000000000000000000815260040161067f906140f4565b60405180910390fd5b5f3490505f6004548561069b919061413f565b905081620186a0826106ad9190614180565b111580156106c95750620186a0816106c591906141b3565b8211155b610708576040517f08c379a00000000000000000000000000000000000000000000000000000000081526004016106ff90614230565b60405180910390fd5b818460a00181815250506001846060019015159081151581525050835f808881526020019081526020015f205f820151815f0155602082015181600101556040820151816002015f6101000a81548160ff02191690831515021790555060608201518160020160016101000a81548160ff0219169083151502179055506080820151816003015560a0820151816004015560c0820151816005015f6101000a81548160ff02191690831515021790555060e08201518160050160016101000a81548160ff0219169083151502179055506101008201518160050160026101000a81548173ffffffffffffffffffffffffffffffffffffffff021916908373ffffffffffffffffffffffffffffffffffffffff160217905550610120820151816006015f6101000a81548173ffffffffffffffffffffffffffffffffffffffff021916908373ffffffffffffffffffffffffffffffffffffffff160217905550905050505050505050565b5f60018111156108855761088461407d565b5b60015f3373ffffffffffffffffffffffffffffffffffffffff1673ffffffffffffffffffffffffffffffffffffffff1681526020019081526020015f205f015f9054906101000a900460ff1660018111156108e3576108e261407d565b5b14610923576040517f08c379a000000000000000000000000000000000000000000000000000000000815260040161091a906142e4565b60405180910390fd5b8051825114610967576040517f08c379a000000000000000000000000000000000000000000000000000000000815260040161095e90614372565b60405180910390fd5b5f825190508060015f3373ffffffffffffffffffffffffffffffffffffffff1673ffffffffffffffffffffffffffffffffffffffff1681526020019081526020015f206002015f8282546109bb91906141b3565b925050819055505f5b81811015610b5b575f60405180608001604052808684815181106109eb576109ea614390565b5b602002602001015181526020013373ffffffffffffffffffffffffffffffffffffffff1681526020015f15158152602001858481518110610a2f57610a2e614390565b5b6020026020010151815250905060025f3373ffffffffffffffffffffffffffffffffffffffff1673ffffffffffffffffffffffffffffffffffffffff1681526020019081526020015f20858381518110610a8c57610a8b614390565b5b6020026020010151908060018154018082558091505060019003905f5260205f20015f90919091909150558060035f835f015181526020019081526020015f205f820151815f01556020820151816001015f6101000a81548173ffffffffffffffffffffffffffffffffffffffff021916908373ffffffffffffffffffffffffffffffffffffffff16021790555060408201518160010160146101000a81548160ff02191690831515021790555060608201518160020155905050508080610b53906143bd565b9150506109c4565b50505050565b5f8060015f8573ffffffffffffffffffffffffffffffffffffffff1673ffffffffffffffffffffffffffffffffffffffff1681526020019081526020015f205f015f9054906101000a900460ff1690505f805f8581526020019081526020015f20604051806101400160405290815f820154815260200160018201548152602001600282015f9054906101000a900460ff161515151581526020016002820160019054906101000a900460ff161515151581526020016003820154815260200160048201548152602001600582015f9054906101000a900460ff161515151581526020016005820160019054906101000a900460ff161515151581526020016005820160029054906101000a900473ffffffffffffffffffffffffffffffffffffffff1673ffffffffffffffffffffffffffffffffffffffff1673ffffffffffffffffffffffffffffffffffffffff168152602001600682015f9054906101000a900473ffffffffffffffffffffffffffffffffffffffff1673ffffffffffffffffffffffffffffffffffffffff1673ffffffffffffffffffffffffffffffffffffffff168152505090505f6001811115610d1f57610d1e61407d565b5b826001811115610d3257610d3161407d565b5b03610db85780610120015173ffffffffffffffffffffffffffffffffffffffff168573ffffffffffffffffffffffffffffffffffffffff1614610daa576040517f08c379a0000000000000000000000000000000000000000000000000000000008152600401610da19061444e565b60405180910390fd5b806060015192505050610e35565b80610100015173ffffffffffffffffffffffffffffffffffffffff168573ffffffffffffffffffffffffffffffffffffffff1614610e2b576040517f08c379a0000000000000000000000000000000000000000000000000000000008152600401610e22906144b6565b60405180910390fd5b8060400151925050505b92915050565b5f805f808481526020019081526020015f20604051806101400160405290815f820154815260200160018201548152602001600282015f9054906101000a900460ff161515151581526020016002820160019054906101000a900460ff161515151581526020016003820154815260200160048201548152602001600582015f9054906101000a900460ff161515151581526020016005820160019054906101000a900460ff161515151581526020016005820160029054906101000a900473ffffffffffffffffffffffffffffffffffffffff1673ffffffffffffffffffffffffffffffffffffffff1673ffffffffffffffffffffffffffffffffffffffff168152602001600682015f9054906101000a900473ffffffffffffffffffffffffffffffffffffffff1673ffffffffffffffffffffffffffffffffffffffff1673ffffffffffffffffffffffffffffffffffffffff168152505090508060400151610fdb576040517f08c379a0000000000000000000000000000000000000000000000000000000008152600401610fd29061451e565b60405180910390fd5b806060015161101f576040517f08c379a000000000000000000000000000000000000000000000000000000000815260040161101690614586565b60405180910390fd5b5f806001808111156110345761103361407d565b5b60015f3373ffffffffffffffffffffffffffffffffffffffff1673ffffffffffffffffffffffffffffffffffffffff1681526020019081526020015f205f015f9054906101000a900460ff1660018111156110925761109161407d565b5b036110f4573391508173ffffffffffffffffffffffffffffffffffffffff1683610100015173ffffffffffffffffffffffffffffffffffffffff16146110d6575f80fd5b60018360c001901515908115158152505082610120015190506111c4565b5f60018111156111075761110661407d565b5b60015f3373ffffffffffffffffffffffffffffffffffffffff1673ffffffffffffffffffffffffffffffffffffffff1681526020019081526020015f205f015f9054906101000a900460ff1660018111156111655761116461407d565b5b036111c3573390508073ffffffffffffffffffffffffffffffffffffffff1683610120015173ffffffffffffffffffffffffffffffffffffffff16146111a9575f80fd5b60018360e001901515908115158152505082610100015191505b5b8260e0015180156111d657508260c001515b15611282578073ffffffffffffffffffffffffffffffffffffffff166108fc846080015190811502906040515f60405180830381858888f19350505050158015611222573d5f803e3d5ffd5b508073ffffffffffffffffffffffffffffffffffffffff166108fc8460a0015190811502906040515f60405180830381858888f1935050505015801561126a573d5f803e3d5ffd5b50611276828287612e7d565b600193505050506113d0565b825f808781526020019081526020015f205f820151815f0155602082015181600101556040820151816002015f6101000a81548160ff02191690831515021790555060608201518160020160016101000a81548160ff0219169083151502179055506080820151816003015560a0820151816004015560c0820151816005015f6101000a81548160ff02191690831515021790555060e08201518160050160016101000a81548160ff0219169083151502179055506101008201518160050160026101000a81548173ffffffffffffffffffffffffffffffffffffffff021916908373ffffffffffffffffffffffffffffffffffffffff160217905550610120820151816006015f6101000a81548173ffffffffffffffffffffffffffffffffffffffff021916908373ffffffffffffffffffffffffffffffffffffffff1602179055509050505f93505050505b919050565b5f805f805f805f805f805f805f8d81526020019081526020015f20604051806101400160405290815f820154815260200160018201548152602001600282015f9054906101000a900460ff161515151581526020016002820160019054906101000a900460ff161515151581526020016003820154815260200160048201548152602001600582015f9054906101000a900460ff161515151581526020016005820160019054906101000a900460ff161515151581526020016005820160029054906101000a900473ffffffffffffffffffffffffffffffffffffffff1673ffffffffffffffffffffffffffffffffffffffff1673ffffffffffffffffffffffffffffffffffffffff168152602001600682015f9054906101000a900473ffffffffffffffffffffffffffffffffffffffff1673ffffffffffffffffffffffffffffffffffffffff1673ffffffffffffffffffffffffffffffffffffffff168152505090508b81602001518260400151836060015184608001518560a001518660c001518760e001518861010001518961012001519a509a509a509a509a509a509a509a509a509a50509193959799509193959799565b5f60605f805f60015f8773ffffffffffffffffffffffffffffffffffffffff1673ffffffffffffffffffffffffffffffffffffffff1681526020019081526020015f206040518060800160405290815f82015f9054906101000a900460ff1660018111156115fd576115fc61407d565b5b600181111561160f5761160e61407d565b5b81526020016001820180548060200260200160405190810160405280929190818152602001828054801561166057602002820191905f5260205f20905b81548152602001906001019080831161164c575b5050505050815260200160028201548152602001600382015f9054906101000a900460ff16151515158152505090505f8060018111156116a3576116a261407d565b5b825f015160018111156116b9576116b861407d565b5b036116c757600190506116cb565b5f90505b5f826020015190505f836040015190505f8460600151905083838383985098509850985050505050509193509193565b60015f3373ffffffffffffffffffffffffffffffffffffffff1673ffffffffffffffffffffffffffffffffffffffff1681526020019081526020015f206003015f9054906101000a900460ff1615611788576040517f08c379a000000000000000000000000000000000000000000000000000000000815260040161177f906145ee565b60405180910390fd5b6060811561187e5760405180608001604052805f60018111156117ae576117ad61407d565b5b81526020018281526020015f81526020016001151581525060015f3373ffffffffffffffffffffffffffffffffffffffff1673ffffffffffffffffffffffffffffffffffffffff1681526020019081526020015f205f820151815f015f6101000a81548160ff0219169083600181111561182b5761182a61407d565b5b0217905550602082015181600101908051906020019061184c92919061380f565b50604082015181600201556060820151816003015f6101000a81548160ff021916908315150217905550905050611968565b604051806080016040528060018081111561189c5761189b61407d565b5b81526020018281526020015f81526020016001151581525060015f3373ffffffffffffffffffffffffffffffffffffffff1673ffffffffffffffffffffffffffffffffffffffff1681526020019081526020015f205f820151815f015f6101000a81548160ff021916908360018111156119195761191861407d565b5b0217905550602082015181600101908051906020019061193a92919061380f565b50604082015181600201556060820151816003015f6101000a81548160ff0219169083151502179055509050505b5050565b5f805f805f60035f8781526020019081526020015f206040518060800160405290815f8201548152602001600182015f9054906101000a900473ffffffffffffffffffffffffffffffffffffffff1673ffffffffffffffffffffffffffffffffffffffff1673ffffffffffffffffffffffffffffffffffffffff1681526020016001820160149054906101000a900460ff1615151515815260200160028201548152505090505f815f015190505f826020015190505f836040015190505f8460600151905083838383985098509850985050505050509193509193565b5f60015f3373ffffffffffffffffffffffffffffffffffffffff1673ffffffffffffffffffffffffffffffffffffffff1681526020019081526020015f205f015f9054906101000a900460ff169050600180811115611aab57611aaa61407d565b5b816001811115611abe57611abd61407d565b5b14611ac7575f80fd5b5f60015f3373ffffffffffffffffffffffffffffffffffffffff1673ffffffffffffffffffffffffffffffffffffffff1681526020019081526020015f206001015f81548110611b1a57611b19614390565b5b905f5260205f20015490505f805f8381526020019081526020015f20604051806101400160405290815f820154815260200160018201548152602001600282015f9054906101000a900460ff161515151581526020016002820160019054906101000a900460ff161515151581526020016003820154815260200160048201548152602001600582015f9054906101000a900460ff161515151581526020016005820160019054906101000a900460ff161515151581526020016005820160029054906101000a900473ffffffffffffffffffffffffffffffffffffffff1673ffffffffffffffffffffffffffffffffffffffff1673ffffffffffffffffffffffffffffffffffffffff168152602001600682015f9054906101000a900473ffffffffffffffffffffffffffffffffffffffff1673ffffffffffffffffffffffffffffffffffffffff1673ffffffffffffffffffffffffffffffffffffffff168152505090505f60035f836020015181526020019081526020015f206002015490505f3490505f82600454611caf919061413f565b905081620186a082611cc19190614180565b11158015611cdd5750620186a081611cd991906141b3565b8211155b611d1c576040517f08c379a0000000000000000000000000000000000000000000000000000000008152600401611d1390614230565b60405180910390fd5b818460800181815250506001846040019015159081151581525050835f808781526020019081526020015f205f820151815f0155602082015181600101556040820151816002015f6101000a81548160ff02191690831515021790555060608201518160020160016101000a81548160ff0219169083151502179055506080820151816003015560a0820151816004015560c0820151816005015f6101000a81548160ff02191690831515021790555060e08201518160050160016101000a81548160ff0219169083151502179055506101008201518160050160026101000a81548173ffffffffffffffffffffffffffffffffffffffff021916908373ffffffffffffffffffffffffffffffffffffffff160217905550610120820151816006015f6101000a81548173ffffffffffffffffffffffffffffffffffffffff021916908373ffffffffffffffffffffffffffffffffffffffff160217905550905050505050505050565b611e8f33613259565b611ece576040517f08c379a0000000000000000000000000000000000000000000000000000000008152600401611ec590614656565b60405180910390fd5b611ed781613259565b611f16576040517f08c379a0000000000000000000000000000000000000000000000000000000008152600401611f0d906146be565b60405180910390fd5b600180811115611f2957611f2861407d565b5b60015f3373ffffffffffffffffffffffffffffffffffffffff1673ffffffffffffffffffffffffffffffffffffffff1681526020019081526020015f205f015f9054906101000a900460ff166001811115611f8757611f8661407d565b5b14611fc7576040517f08c379a0000000000000000000000000000000000000000000000000000000008152600401611fbe90614726565b60405180910390fd5b5f6001811115611fda57611fd961407d565b5b60015f8373ffffffffffffffffffffffffffffffffffffffff1673ffffffffffffffffffffffffffffffffffffffff1681526020019081526020015f205f015f9054906101000a900460ff1660018111156120385761203761407d565b5b14612078576040517f08c379a000000000000000000000000000000000000000000000000000000000815260040161206f906147b4565b60405180910390fd5b5f3390505f805f90505f5b60015f8673ffffffffffffffffffffffffffffffffffffffff1673ffffffffffffffffffffffffffffffffffffffff1681526020019081526020015f20600201548110156121d15760035f60025f8873ffffffffffffffffffffffffffffffffffffffff1673ffffffffffffffffffffffffffffffffffffffff1681526020019081526020015f20838154811061211d5761211c614390565b5b905f5260205f20015481526020019081526020015f2060010160149054906101000a900460ff166121be576001915060035f60025f8873ffffffffffffffffffffffffffffffffffffffff1673ffffffffffffffffffffffffffffffffffffffff1681526020019081526020015f20838154811061219e5761219d614390565b5b905f5260205f20015481526020019081526020015f205f015492506121d1565b80806121c9906143bd565b915050612083565b5080612212576040517f08c379a000000000000000000000000000000000000000000000000000000000815260040161220990614842565b60405180910390fd5b5f151561221f84846132ae565b151514612261576040517f08c379a0000000000000000000000000000000000000000000000000000000008152600401612258906148d0565b60405180910390fd5b5f600554905060055f815480929190612279906143bd565b9190505550600160035f8581526020019081526020015f2060010160146101000a81548160ff0219169083151502179055505f6040518061014001604052808381526020018581526020015f151581526020015f151581526020015f81526020015f81526020015f151581526020015f151581526020018673ffffffffffffffffffffffffffffffffffffffff1681526020018773ffffffffffffffffffffffffffffffffffffffff168152509050805f808481526020019081526020015f205f820151815f0155602082015181600101556040820151816002015f6101000a81548160ff02191690831515021790555060608201518160020160016101000a81548160ff0219169083151502179055506080820151816003015560a0820151816004015560c0820151816005015f6101000a81548160ff02191690831515021790555060e08201518160050160016101000a81548160ff0219169083151502179055506101008201518160050160026101000a81548173ffffffffffffffffffffffffffffffffffffffff021916908373ffffffffffffffffffffffffffffffffffffffff160217905550610120820151816006015f6101000a81548173ffffffffffffffffffffffffffffffffffffffff021916908373ffffffffffffffffffffffffffffffffffffffff16021790555090505060015f8673ffffffffffffffffffffffffffffffffffffffff1673ffffffffffffffffffffffffffffffffffffffff1681526020019081526020015f2060010182908060018154018082558091505060019003905f5260205f20015f909190919091505560015f8773ffffffffffffffffffffffffffffffffffffffff1673ffffffffffffffffffffffffffffffffffffffff1681526020019081526020015f2060010182908060018154018082558091505060019003905f5260205f20015f9091909190915055505050505050565b61254833613259565b612587576040517f08c379a000000000000000000000000000000000000000000000000000000000815260040161257e90614656565b60405180910390fd5b61259082613259565b6125cf576040517f08c379a00000000000000000000000000000000000000000000000000000000081526004016125c6906146be565b60405180910390fd5b6001808111156125e2576125e161407d565b5b60015f3373ffffffffffffffffffffffffffffffffffffffff1673ffffffffffffffffffffffffffffffffffffffff1681526020019081526020015f205f015f9054906101000a900460ff1660018111156126405761263f61407d565b5b14612680576040517f08c379a000000000000000000000000000000000000000000000000000000000815260040161267790614726565b60405180910390fd5b5f60018111156126935761269261407d565b5b60015f8473ffffffffffffffffffffffffffffffffffffffff1673ffffffffffffffffffffffffffffffffffffffff1681526020019081526020015f205f015f9054906101000a900460ff1660018111156126f1576126f061407d565b5b14612731576040517f08c379a0000000000000000000000000000000000000000000000000000000008152600401612728906147b4565b60405180910390fd5b5f3390505f151561274282846132ae565b151514612784576040517f08c379a000000000000000000000000000000000000000000000000000000000815260040161277b906148d0565b60405180910390fd5b8273ffffffffffffffffffffffffffffffffffffffff1660035f8481526020019081526020015f206001015f9054906101000a900473ffffffffffffffffffffffffffffffffffffffff1673ffffffffffffffffffffffffffffffffffffffff1614612825576040517f08c379a000000000000000000000000000000000000000000000000000000000815260040161281c9061495e565b60405180910390fd5b5f600554905060055f81548092919061283d906143bd565b9190505550600160035f8581526020019081526020015f2060010160146101000a81548160ff0219169083151502179055505f6040518061014001604052808381526020018581526020015f151581526020015f151581526020015f81526020015f81526020015f151581526020015f151581526020018473ffffffffffffffffffffffffffffffffffffffff1681526020018673ffffffffffffffffffffffffffffffffffffffff168152509050805f808481526020019081526020015f205f820151815f0155602082015181600101556040820151816002015f6101000a81548160ff02191690831515021790555060608201518160020160016101000a81548160ff0219169083151502179055506080820151816003015560a0820151816004015560c0820151816005015f6101000a81548160ff02191690831515021790555060e08201518160050160016101000a81548160ff0219169083151502179055506101008201518160050160026101000a81548173ffffffffffffffffffffffffffffffffffffffff021916908373ffffffffffffffffffffffffffffffffffffffff160217905550610120820151816006015f6101000a81548173ffffffffffffffffffffffffffffffffffffffff021916908373ffffffffffffffffffffffffffffffffffffffff16021790555090505060015f8473ffffffffffffffffffffffffffffffffffffffff1673ffffffffffffffffffffffffffffffffffffffff1681526020019081526020015f2060010182908060018154018082558091505060019003905f5260205f20015f909190919091505560015f8673ffffffffffffffffffffffffffffffffffffffff1673ffffffffffffffffffffffffffffffffffffffff1681526020019081526020015f2060010182908060018154018082558091505060019003905f5260205f20015f90919091909150555050505050565b5f8060035f8481526020019081526020015f2060020154905060045481612b29919061413f565b915050919050565b5f3390505f805f808581526020019081526020015f20604051806101400160405290815f820154815260200160018201548152602001600282015f9054906101000a900460ff161515151581526020016002820160019054906101000a900460ff161515151581526020016003820154815260200160048201548152602001600582015f9054906101000a900460ff161515151581526020016005820160019054906101000a900460ff161515151581526020016005820160029054906101000a900473ffffffffffffffffffffffffffffffffffffffff1673ffffffffffffffffffffffffffffffffffffffff1673ffffffffffffffffffffffffffffffffffffffff168152602001600682015f9054906101000a900473ffffffffffffffffffffffffffffffffffffffff1673ffffffffffffffffffffffffffffffffffffffff1673ffffffffffffffffffffffffffffffffffffffff16815250509050600180811115612ca457612ca361407d565b5b60015f3373ffffffffffffffffffffffffffffffffffffffff1673ffffffffffffffffffffffffffffffffffffffff1681526020019081526020015f205f015f9054906101000a900460ff166001811115612d0257612d0161407d565b5b03612d41575f808581526020019081526020015f206006015f9054906101000a900473ffffffffffffffffffffffffffffffffffffffff169150612d78565b5f808581526020019081526020015f2060050160029054906101000a900473ffffffffffffffffffffffffffffffffffffffff1691505b5f81602001519050612d8c8484878461338d565b8273ffffffffffffffffffffffffffffffffffffffff166108fc8360a001518460800151612dba91906141b3565b90811502906040515f60405180830381858888f19350505050158015612de2573d5f803e3d5ffd5b505050505050565b606060025f8373ffffffffffffffffffffffffffffffffffffffff1673ffffffffffffffffffffffffffffffffffffffff1681526020019081526020015f20805480602002602001604051908101604052809291908181526020018280548015612e7157602002820191905f5260205f20905b815481526020019060010190808311612e5d575b50505050509050919050565b5f808281526020019081526020015f205f8082015f9055600182015f9055600282015f6101000a81549060ff02191690556002820160016101000a81549060ff0219169055600382015f9055600482015f9055600582015f6101000a81549060ff02191690556005820160016101000a81549060ff02191690556005820160026101000a81549073ffffffffffffffffffffffffffffffffffffffff0219169055600682015f6101000a81549073ffffffffffffffffffffffffffffffffffffffff021916905550505f60015f8573ffffffffffffffffffffffffffffffffffffffff1673ffffffffffffffffffffffffffffffffffffffff1681526020019081526020015f20600101805480602002602001604051908101604052809291908181526020018280548015612fcf57602002820191905f5260205f20905b815481526020019060010190808311612fbb575b5050505050905060605f60015f8673ffffffffffffffffffffffffffffffffffffffff1673ffffffffffffffffffffffffffffffffffffffff1681526020019081526020015f2060010180548060200260200160405190810160405280929190818152602001828054801561306157602002820191905f5260205f20905b81548152602001906001019080831161304d575b5050505050905060605f5b8451811015613107578585828151811061308957613088614390565b5b6020026020010151146130f4576130b98582815181106130ac576130ab614390565b5b6020026020010151613750565b8481815181106130cc576130cb614390565b5b60200260200101518482815181106130e7576130e6614390565b5b6020026020010181815250505b80806130ff906143bd565b91505061306c565b508260015f8973ffffffffffffffffffffffffffffffffffffffff1673ffffffffffffffffffffffffffffffffffffffff1681526020019081526020015f20600101908051906020019061315c92919061380f565b505f5b82518110156131fa578583828151811061317c5761317b614390565b5b6020026020010151146131e7576131ac85828151811061319f5761319e614390565b5b6020026020010151613750565b8281815181106131bf576131be614390565b5b60200260200101518282815181106131da576131d9614390565b5b6020026020010181815250505b80806131f2906143bd565b91505061315f565b508060015f8873ffffffffffffffffffffffffffffffffffffffff1673ffffffffffffffffffffffffffffffffffffffff1681526020019081526020015f20600101908051906020019061324f92919061380f565b5050505050505050565b5f60015f8373ffffffffffffffffffffffffffffffffffffffff1673ffffffffffffffffffffffffffffffffffffffff1681526020019081526020015f206003015f9054906101000a900460ff169050919050565b5f8060015f8573ffffffffffffffffffffffffffffffffffffffff1673ffffffffffffffffffffffffffffffffffffffff1681526020019081526020015f2060010180548060200260200160405190810160405280929190818152602001828054801561333857602002820191905f5260205f20905b815481526020019060010190808311613324575b505050505090505f8151118061337357506001151560035f8581526020019081526020015f2060010160149054906101000a900460ff161515145b15613382576001915050613387565b5f9150505b92915050565b5f808381526020019081526020015f205f8082015f9055600182015f9055600282015f6101000a81549060ff02191690556002820160016101000a81549060ff0219169055600382015f9055600482015f9055600582015f6101000a81549060ff02191690556005820160016101000a81549060ff02191690556005820160026101000a81549073ffffffffffffffffffffffffffffffffffffffff0219169055600682015f6101000a81549073ffffffffffffffffffffffffffffffffffffffff021916905550505f60035f8381526020019081526020015f2060010160146101000a81548160ff0219169083151502179055505f60015f8673ffffffffffffffffffffffffffffffffffffffff1673ffffffffffffffffffffffffffffffffffffffff1681526020019081526020015f2060010180548060200260200160405190810160405280929190818152602001828054801561350b57602002820191905f5260205f20905b8154815260200190600101908083116134f7575b5050505050905060605f60015f8773ffffffffffffffffffffffffffffffffffffffff1673ffffffffffffffffffffffffffffffffffffffff1681526020019081526020015f2060010180548060200260200160405190810160405280929190818152602001828054801561359d57602002820191905f5260205f20905b815481526020019060010190808311613589575b5050505050905060605f5b845181101561362057868582815181106135c5576135c4614390565b5b60200260200101511461360d578481815181106135e5576135e4614390565b5b6020026020010151848281518110613600576135ff614390565b5b6020026020010181815250505b8080613618906143bd565b9150506135a8565b508260015f8a73ffffffffffffffffffffffffffffffffffffffff1673ffffffffffffffffffffffffffffffffffffffff1681526020019081526020015f20600101908051906020019061367592919061380f565b505f5b82518110156136f0578683828151811061369557613694614390565b5b6020026020010151146136dd578281815181106136b5576136b4614390565b5b60200260200101518282815181106136d0576136cf614390565b5b6020026020010181815250505b80806136e8906143bd565b915050613678565b508060015f8973ffffffffffffffffffffffffffffffffffffffff1673ffffffffffffffffffffffffffffffffffffffff1681526020019081526020015f20600101908051906020019061374592919061380f565b505050505050505050565b6137e6816040516024016137649190614044565b6040516020818303038152906040527ff82c50f1000000000000000000000000000000000000000000000000000000007bffffffffffffffffffffffffffffffffffffffffffffffffffffffff19166020820180517bffffffffffffffffffffffffffffffffffffffffffffffffffffffff83818316178352505050506137e9565b50565b5f815190505f6a636f6e736f6c652e6c6f679050602083015f808483855afa5050505050565b828054828255905f5260205f20908101928215613849579160200282015b8281111561384857825182559160200191906001019061382d565b5b509050613856919061385a565b5090565b5b80821115613871575f815f90555060010161385b565b5090565b5f82825260208201905092915050565b7f72656365697665000000000000000000000000000000000000000000000000005f82015250565b5f6138b9600783613875565b91506138c482613885565b602082019050919050565b5f73ffffffffffffffffffffffffffffffffffffffff82169050919050565b5f6138f8826138cf565b9050919050565b613908816138ee565b82525050565b5f819050919050565b6139208161390e565b82525050565b5f82825260208201905092915050565b50565b5f6139445f83613926565b915061394f82613936565b5f82019050919050565b5f6080820190508181035f830152613970816138ad565b905061397f60208301856138ff565b61398c6040830184613917565b818103606083015261399d81613939565b90509392505050565b7f66616c6c6261636b0000000000000000000000000000000000000000000000005f82015250565b5f6139da600883613875565b91506139e5826139a6565b602082019050919050565b828183375f83830152505050565b5f601f19601f8301169050919050565b5f613a198385613926565b9350613a268385846139f0565b613a2f836139fe565b840190509392505050565b5f6080820190508181035f830152613a51816139ce565b9050613a6060208301876138ff565b613a6d6040830186613917565b8181036060830152613a80818486613a0e565b905095945050505050565b5f604051905090565b5f80fd5b5f80fd5b613aa58161390e565b8114613aaf575f80fd5b50565b5f81359050613ac081613a9c565b92915050565b5f60208284031215613adb57613ada613a94565b5b5f613ae884828501613ab2565b91505092915050565b5f80fd5b7f4e487b71000000000000000000000000000000000000000000000000000000005f52604160045260245ffd5b613b2b826139fe565b810181811067ffffffffffffffff82111715613b4a57613b49613af5565b5b80604052505050565b5f613b5c613a8b565b9050613b688282613b22565b919050565b5f67ffffffffffffffff821115613b8757613b86613af5565b5b602082029050602081019050919050565b5f80fd5b5f613bae613ba984613b6d565b613b53565b90508083825260208201905060208402830185811115613bd157613bd0613b98565b5b835b81811015613bfa5780613be68882613ab2565b845260208401935050602081019050613bd3565b5050509392505050565b5f82601f830112613c1857613c17613af1565b5b8135613c28848260208601613b9c565b91505092915050565b5f8060408385031215613c4757613c46613a94565b5b5f83013567ffffffffffffffff811115613c6457613c63613a98565b5b613c7085828601613c04565b925050602083013567ffffffffffffffff811115613c9157613c90613a98565b5b613c9d85828601613c04565b9150509250929050565b613cb0816138ee565b8114613cba575f80fd5b50565b5f81359050613ccb81613ca7565b92915050565b5f8060408385031215613ce757613ce6613a94565b5b5f613cf485828601613cbd565b9250506020613d0585828601613ab2565b9150509250929050565b5f8115159050919050565b613d2381613d0f565b82525050565b5f602082019050613d3c5f830184613d1a565b92915050565b5f61014082019050613d565f83018d613917565b613d63602083018c613917565b613d70604083018b613d1a565b613d7d606083018a613d1a565b613d8a6080830189613917565b613d9760a0830188613917565b613da460c0830187613d1a565b613db160e0830186613d1a565b613dbf6101008301856138ff565b613dcd6101208301846138ff565b9b9a5050505050505050505050565b5f60208284031215613df157613df0613a94565b5b5f613dfe84828501613cbd565b91505092915050565b5f81519050919050565b5f82825260208201905092915050565b5f819050602082019050919050565b613e398161390e565b82525050565b5f613e4a8383613e30565b60208301905092915050565b5f602082019050919050565b5f613e6c82613e07565b613e768185613e11565b9350613e8183613e21565b805f5b83811015613eb1578151613e988882613e3f565b9750613ea383613e56565b925050600181019050613e84565b5085935050505092915050565b5f608082019050613ed15f830187613d1a565b8181036020830152613ee38186613e62565b9050613ef26040830185613917565b613eff6060830184613d1a565b95945050505050565b613f1181613d0f565b8114613f1b575f80fd5b50565b5f81359050613f2c81613f08565b92915050565b5f60208284031215613f4757613f46613a94565b5b5f613f5484828501613f1e565b91505092915050565b5f608082019050613f705f830187613917565b613f7d60208301866138ff565b613f8a6040830185613d1a565b613f976060830184613917565b95945050505050565b5f613faa826138cf565b9050919050565b613fba81613fa0565b8114613fc4575f80fd5b50565b5f81359050613fd581613fb1565b92915050565b5f60208284031215613ff057613fef613a94565b5b5f613ffd84828501613fc7565b91505092915050565b5f806040838503121561401c5761401b613a94565b5b5f61402985828601613fc7565b925050602061403a85828601613ab2565b9150509250929050565b5f6020820190506140575f830184613917565b92915050565b5f6020820190508181035f8301526140758184613e62565b905092915050565b7f4e487b71000000000000000000000000000000000000000000000000000000005f52602160045260245ffd5b7f4461746120696e636f6e73697374656e637900000000000000000000000000005f82015250565b5f6140de601283613875565b91506140e9826140aa565b602082019050919050565b5f6020820190508181035f83015261410b816140d2565b9050919050565b7f4e487b71000000000000000000000000000000000000000000000000000000005f52601160045260245ffd5b5f6141498261390e565b91506141548361390e565b92508282026141628161390e565b9150828204841483151761417957614178614112565b5b5092915050565b5f61418a8261390e565b91506141958361390e565b92508282039050818111156141ad576141ac614112565b5b92915050565b5f6141bd8261390e565b91506141c88361390e565b92508282019050808211156141e0576141df614112565b5b92915050565b7f57726f6e6720616d6f756e7420706169640000000000000000000000000000005f82015250565b5f61421a601183613875565b9150614225826141e6565b602082019050919050565b5f6020820190508181035f8301526142478161420e565b9050919050565b7f596f7520617265206e6f7420612072656e746572207468657265666f726520795f8201527f6f75277265206e6f7420616c6c6f77656420746f20726567697374657220726f60208201527f6f6d730000000000000000000000000000000000000000000000000000000000604082015250565b5f6142ce604383613875565b91506142d98261424e565b606082019050919050565b5f6020820190508181035f8301526142fb816142c2565b9050919050565b7f496e636f6e73697374656e7420696e666f726d6174696f6e2070726f766964655f8201527f642e000000000000000000000000000000000000000000000000000000000000602082015250565b5f61435c602283613875565b915061436782614302565b604082019050919050565b5f6020820190508181035f83015261438981614350565b9050919050565b7f4e487b71000000000000000000000000000000000000000000000000000000005f52603260045260245ffd5b5f6143c78261390e565b91507fffffffffffffffffffffffffffffffffffffffffffffffffffffffffffffffff82036143f9576143f8614112565b5b600182019050919050565b7f4461746120696e636f6e73697374656e637920310000000000000000000000005f82015250565b5f614438601483613875565b915061444382614404565b602082019050919050565b5f6020820190508181035f8301526144658161442c565b9050919050565b7f4461746120696e636f6e73697374656e637920320000000000000000000000005f82015250565b5f6144a0601483613875565b91506144ab8261446c565b602082019050919050565b5f6020820190508181035f8301526144cd81614494565b9050919050565b7f53747564656e74206861732079657420746f20706179000000000000000000005f82015250565b5f614508601683613875565b9150614513826144d4565b602082019050919050565b5f6020820190508181035f830152614535816144fc565b9050919050565b7f52656e746572206861732079657420746f2070617900000000000000000000005f82015250565b5f614570601583613875565b915061457b8261453c565b602082019050919050565b5f6020820190508181035f83015261459d81614564565b9050919050565b7f5573657220616c726561647920726567697374657265640000000000000000005f82015250565b5f6145d8601783613875565b91506145e3826145a4565b602082019050919050565b5f6020820190508181035f830152614605816145cc565b9050919050565b7f596f7520617265206e6f7420616e20617574686f72697a6564207573657200005f82015250565b5f614640601e83613875565b915061464b8261460c565b602082019050919050565b5f6020820190508181035f83015261466d81614634565b9050919050565b7f52656e746572206973206e6f7420616e20617574686f72697a656420757365725f82015250565b5f6146a8602083613875565b91506146b382614674565b602082019050919050565b5f6020820190508181035f8301526146d58161469c565b9050919050565b7f596f7520617265206e6f7420612073747564656e7400000000000000000000005f82015250565b5f614710601583613875565b915061471b826146dc565b602082019050919050565b5f6020820190508181035f83015261473d81614704565b9050919050565b7f54686520616464726573732070726f766964656420646f6573206e6f7420636f5f8201527f72726573706f6e6420746f20612072656e746572000000000000000000000000602082015250565b5f61479e603483613875565b91506147a982614744565b604082019050919050565b5f6020820190508181035f8301526147cb81614792565b9050919050565b7f546869732072656e746572277320726f6f6d732061726520616c6c20616c72655f8201527f616479206f636375706965640000000000000000000000000000000000000000602082015250565b5f61482c602c83613875565b9150614837826147d2565b604082019050919050565b5f6020820190508181035f83015261485981614820565b9050919050565b7f53747564656e74206f7220726f6f6d20616c726561647920696e20636f6e74725f8201527f6163740000000000000000000000000000000000000000000000000000000000602082015250565b5f6148ba602383613875565b91506148c582614860565b604082019050919050565b5f6020820190508181035f8301526148e7816148ae565b9050919050565b7f496e636f6e73697374656e6379206265747765656e20726f6f6d206f776e65725f8201527f20616e642072656e746572000000000000000000000000000000000000000000602082015250565b5f614948602b83613875565b9150614953826148ee565b604082019050919050565b5f6020820190508181035f8301526149758161493c565b905091905056fea264697066735822122045bf70ffa726171e4e23a253e3253293e8c247aacc0af8f2d39aa69a707e4b4b64736f6c63430008140033",
  "immutableReferences": {},
  "source": "// SPDX-License-Identifier: GPL - 3.0\n\npragma solidity >= 0.7.0;\nimport \"hardhat/console.sol\";\n\n/**\n    @title fgndfgn\n    \n*/\n\ncontract Affitto {\n\n    // emitted in case the fallback or receive functions get invoked\n    event Log(string func, address sender, uint256 value, bytes data);\n\n    /* \n    */\n    struct contract_instance {\n        uint256 contract_id;\n        uint256 room_id;\n        bool student_paid;\n        bool renter_paid;\n        uint256 amt_paid_student;\n        uint256 amt_paid_renter;\n        bool concluded_student;\n        bool concluded_renter;\n        address payable student;\n        address payable renter;\n    }\n\n    /*  id: room id\n        owner: address of the room's owner\n        occupied: indicates whether the room is already occupied or not\n        deposit: amount of money to pay as a deposit for the room\n    */\n    struct room {\n        uint256 id;\n        address owner;\n        bool occupied;\n        uint256 deposit;\n    }\n\n    /*  role: specifies the role of the user, who can be either a student or a renter\n        contract_instance_record: keeps track of the contract instances the user is currently a part of. \n                                  A student can only participate in one contract instance at a time\n        num_rooms: number of rooms that a user owns. A student can't own any room\n        already init: says if the address is already registered as a user\n    \n    The bool variable already_init is used to check if the couple (key, struct) has already been explicitely set.\n    This is necessary because Solidity automatically assigns default values even if a key has not been explicitely set and \n    this creates problems when it comes to checking if an address is already registered as a user\n    */\n    struct user {\n        Role role;\n        uint256[] contract_instance_record;\n        uint256 num_rooms;\n        bool already_init;\n    }\n\n    enum Role {\n        Renter,\n        Student\n    }\n\n    // associates to each contract id the respective contract record\n    mapping(uint256 => contract_instance) contract_record;\n    //uint256[] contract_record_keys;\n\n    // associates to each address its respective user information\n    mapping(address => user) user_info;  \n    //address[] user_info_keys;\n\n    // associates to each renter an array that contains their rooms' id                 \n    mapping(address => uint256[]) renters_rooms;                \n    //address[] renters_rooms_keys;\n\n    // associates to each room id the corresponding room information\n    mapping(uint256 => room) rooms_record;\n    //uint256[] rooms_record_keys; \n    \n    // conversion rate from eur to wei\n    uint256 conversion_rate = 586099570929370;  \n\n    // global variable that is used to assign unique ids to contract instances                   \n    uint256 num_contracts;                                         \n\n    constructor() {\n        num_contracts = 0;\n    }\n\n    /* @param role_id A boolean indicating whether the user is registering as a renter (true) or a student (false)\n       \n       The function allows the user to register either as a renter or a student. The function prevents double registrations by checking the 'already init' field\n       in the user struct. \n    \n    */\n    function register_user(bool role_id) public {\n        // Doesn't allow double registrations\n        require(!user_info[msg.sender].already_init, \"User already registered\");\n        uint256[] memory array;\n        // false --> student, true --> renter\n        if (role_id) {\n            user_info[msg.sender] = user({\n                role: Role.Renter, \n                contract_instance_record: array, \n                num_rooms: 0, \n                already_init: true\n            });\n            //user_info_keys.push(msg.sender);\n        }\n        else {\n            user_info[msg.sender] = user({\n                role: Role.Student, \n                contract_instance_record: array, \n                num_rooms: 0, \n                already_init: true\n            });\n            //user_info_keys.push(msg.sender);\n        }\n        \n    }\n\n    /*  @param rooms Array with the rooms ids\n        @param deposits The deposit to pay for the corresponding room\n\n        The renter can register several rooms at once by providing the ids of the rooms, it adds the new room structs to the rooms_record_mapping\n    */\n\n    function register_rooms(uint256[] memory rooms, uint256[] memory deposits) public {\n        // controlliamo che il chiamante sia un renter\n        require(user_info[msg.sender].role == Role.Renter, \"You are not a renter therefore you're not allowed to register rooms\");\n        require(rooms.length == deposits.length, \"Inconsistent information provided.\");\n        uint256 l = rooms.length;\n        user_info[msg.sender].num_rooms += l; \n\n        for (uint256 i = 0; i < l; i++) {\n            room memory new_room = room({id: rooms[i], owner: msg.sender, occupied: false, deposit: deposits[i]});\n            renters_rooms[msg.sender].push(rooms[i]);\n            rooms_record[new_room.id] = new_room;\n            //rooms_record_keys.push(new_room.id);\n        }\n        \n    }   \n    /*  @param renter The address of the renter\n        @param room_id The id of the room\n\n        After performing some checks on the function caller and the renter, the function creates a contract instance with the information provided.\n        This function's version takes as a parameter also the room_id, in case the student has their heart already set on a specific room\n        \n    \n    */\n    // If the student has his heart already set on a specific room \n    function initialize(address payable renter, uint256 room_id) public {\n        require(check_user_already_registered(msg.sender), \"You are not an authorized user\");\n        require(check_user_already_registered(renter), \"Renter is not an authorized user\");\n        require(user_info[msg.sender].role == Role.Student, \"You are not a student\");\n        require(user_info[renter].role == Role.Renter, \"The address provided does not correspond to a renter\");\n\n        address payable student = payable(msg.sender);\n        \n        // check that the student is not in a contract instance and that the room is not occupied\n        require(check_if_already_in_contract(student, room_id) == false, \"Student or room already in contract\");\n        \n        // check that the renter is the room's owner\n        require(rooms_record[room_id].owner == renter, \"Inconsistency between room owner and renter\");\n\n        // if neither the student and the room are already in a contract instance, the function proceeds with the creation of the contract instance\n        uint256 new_id = num_contracts;\n        num_contracts++;\n        rooms_record[room_id].occupied = true;\n        contract_instance memory instance = contract_instance({\n            contract_id: new_id, \n            room_id: room_id, \n            student_paid: false, \n            renter_paid: false, \n            amt_paid_student: 0, \n            amt_paid_renter: 0, \n            concluded_student: false, \n            concluded_renter: false, \n            student: student, \n            renter: renter\n        });\n\n        contract_record[new_id] = instance;\n        //contract_record_keys.push(new_id);\n        user_info[student].contract_instance_record.push(new_id);\n        user_info[renter].contract_instance_record.push(new_id);\n    }\n\n    /*  @param renter The address of the renter \n\n        This version of the function doesn't take the room_id as an info, in case the student doesn't care about which room they get assigned\n        The student just gets assigned the first room available\n    \n    */\n    function initialize(address payable renter) public {\n        require(check_user_already_registered(msg.sender), \"You are not an authorized user\");\n        require(check_user_already_registered(renter), \"Renter is not an authorized user\");\n        require(user_info[msg.sender].role == Role.Student, \"You are not a student\");\n        require(user_info[renter].role == Role.Renter, \"The address provided does not correspond to a renter\");\n        address payable student = payable(msg.sender);\n\n        \n        \n        uint256 room_id;\n        bool room_found = false;\n\n        // Checks if the owner has any rooms available\n        for (uint256 i = 0; i < user_info[renter].num_rooms; i++) {\n            if (!rooms_record[renters_rooms[renter][i]].occupied) {\n                room_found = true;\n                room_id = rooms_record[renters_rooms[renter][i]].id;\n                break;\n            }\n        }\n        \n        require(room_found, \"This renter's rooms are all already occupied\"); \n\n        // check che lo studente non sia gi in una \"istanza\" di contratto o che la stanza non sia gi occupata\n        require(check_if_already_in_contract(student, room_id) == false, \"Student or room already in contract\"); // controllare che l'inizializzazione venga interrotta e venga emesso il messaggio di errore\n\n        uint256 new_id = num_contracts;\n        num_contracts++;\n        rooms_record[room_id].occupied = true;\n        contract_instance memory instance = contract_instance({\n            contract_id: new_id, \n            room_id: room_id, \n            student_paid: false, \n            renter_paid: false, \n            amt_paid_student: 0, \n            amt_paid_renter: 0, \n            concluded_student: false, \n            concluded_renter: false, \n            student: student, \n            renter: renter\n        });\n        contract_record[new_id] = instance;\n        //contract_record_keys.push(new_id);\n        user_info[student].contract_instance_record.push(new_id);\n        user_info[renter].contract_instance_record.push(new_id);\n\n    \n    }\n\n    /*  The function allows the student to pay the deposit for the room he has locked in the contract instance\n        The contract allows some tolerance on the amount received as the deposit\n    */\n    function student_pay_deposit() public payable {\n        Role role = user_info[msg.sender].role;\n        require(role == Role.Student);\n        \n        uint256 contract_id = user_info[msg.sender].contract_instance_record[0];\n        //console.log(contract_id);\n        contract_instance memory instance = contract_record[contract_id];\n        uint256 deposit = rooms_record[instance.room_id].deposit;\n        uint256 paid_amount = msg.value;\n        uint256 amt_to_pay = conversion_rate * deposit;\n        //console.log(\"Paid amount\", paid_amount);\n        //console.log(\"Amount to pay\", amt_to_pay);\n        require((amt_to_pay - 100000) <= paid_amount && paid_amount <= (amt_to_pay + 100000), \"Wrong amount paid\");\n        \n        instance.amt_paid_student = paid_amount;\n        instance.student_paid = true;\n        contract_record[contract_id] = instance;\n        \n    }\n\n    /*  @param contract_id\n        The function allows the student to pay the deposit for one of the rooms that are currently blocked in a contract instance\n        The contract allows some tolerance on the amount received as the deposit\n    */\n    function renter_pay_deposit(uint256 contract_id) public payable {\n        uint256 renter_deposit = 100;\n        contract_instance memory instance = contract_record[contract_id];\n        Role role = user_info[msg.sender].role;\n        require(role == Role.Renter, \"Data inconsistency\"); // probabilmente inutile (gi implicitamente incluso nel secondo require)\n        require(msg.sender == instance.renter, \"Data inconsistency\");\n        uint256 paid_amount = msg.value;\n        uint256 amt_to_pay = renter_deposit * conversion_rate;\n        require((amt_to_pay - 100000) <= paid_amount && paid_amount <= (amt_to_pay + 100000), \"Wrong amount paid\"); \n        instance.amt_paid_renter = paid_amount;\n        instance.renter_paid = true;\n        contract_record[contract_id] = instance;    \n    }\n\n    /*  @param contract_id\n        The function allows either party to withdraw from their contract\n        The function calls an internal function named delete contract instance to delete this contract instance\n        and transfer any funds paid by either party to the other party\n    */\n    function withdraw_from_contract(uint256 contract_id) public {\n        address receder = msg.sender;\n        address other;\n        contract_instance memory instance = contract_record[contract_id];\n        if (user_info[msg.sender].role == Role.Student) {\n            other = contract_record[contract_id].renter;\n        }\n        else {\n            other = contract_record[contract_id].student;\n        }\n        uint256 room_id = instance.room_id;\n\n        delete_contract_instance(receder, other, contract_id, room_id);\n        \n        \n        payable(other).transfer(instance.amt_paid_student + instance.amt_paid_renter);\n    }\n\n    /*  @param contract_id\n        function allows either party to end their contract successfully.\n        It updates the contract instance to indicate that the sender has concluded the contract.\n        If both parties have concluded the contract, it calls an internal to delete this contract instance\n         and transfer any funds paid to the renter\n    */\n\n    function end_contract_successfully(uint256 contract_id) public returns (bool) {\n        contract_instance memory instance = contract_record[contract_id];\n        require(instance.student_paid, \"Student has yet to pay\");\n        require(instance.renter_paid, \"Renter has yet to pay\");\n        address student;\n        address renter;\n        if (user_info[msg.sender].role == Role.Student) {\n            student = msg.sender;\n            require(instance.student == student);\n            instance.concluded_student = true;\n            renter = instance.renter;\n        }\n        else if (user_info[msg.sender].role == Role.Renter){\n            renter = msg.sender;\n            require(instance.renter == renter);\n            instance.concluded_renter = true;\n            student = instance.student;\n        }\n\n        if (instance.concluded_renter && instance.concluded_student) {\n            payable(renter).transfer(instance.amt_paid_student);\n            payable(renter).transfer(instance.amt_paid_renter);\n            delete_contract_instance(student, renter, contract_id);\n            return true;\n        }\n        else {\n            contract_record[contract_id] = instance;\n            return false;\n        }\n    }\n\n\n    function get_user_info(address add) public view returns (bool, uint256[] memory, uint256, bool) {\n        user memory u = user_info[add];\n        bool role;\n        if (u.role == Role.Renter) {\n            role = true;\n        }\n        else {\n            role = false;\n        }\n        uint256[] memory contract_instance_record = u.contract_instance_record;\n        uint256 num_rooms = u.num_rooms;\n        bool already_init = u.already_init;\n        return (role, contract_instance_record, num_rooms, already_init);\n    }\n\n    function get_room_list(address a) public view returns (uint256[] memory) {\n        return renters_rooms[a];\n    }\n\n    function get_contract_info(uint256 contract_id) public view returns (uint256, uint256, bool, bool, uint256, uint256, bool, bool, address, address) {\n        contract_instance memory instance = contract_record[contract_id];\n        return (contract_id, instance.room_id, instance.student_paid, instance.renter_paid, instance.amt_paid_student, instance.amt_paid_renter, instance.concluded_student, instance.concluded_renter, instance.student, instance.renter);\n    }\n\n    function get_deposit_in_wei(uint256 room_id) public view returns (uint256){\n        uint256 deposit = rooms_record[room_id].deposit;\n        return (deposit * conversion_rate);\n    }\n\n    function get_room_info(uint256 room_id) public view returns (uint256, address, bool, uint256) {\n        room memory r = rooms_record[room_id];\n        uint256 id = r.id;\n        address owner = r.owner;\n        bool occupied = r.occupied;\n        uint256 deposit = r.deposit;\n        return (id, owner, occupied, deposit);\n    }\n\n    /* function get_user_info_map() public view {\n        for (uint256 i = 0; i < user_info_keys.length; i++) {\n            if (user_info[user_info_keys[i]].role == Role.Student) {\n                //console.log(user_info_keys[i], false);\n            }\n            else {\n                //console.log(user_info_keys[i], true);\n            }\n            \n        }\n    \n    } */\n\n    /* function get_contract_record() public view {\n        for (uint256 i = 0; i < contract_record_keys.length; i++) {\n            (uint256 a, uint256 b, bool c, bool d, uint256 e, uint256 f, bool g, bool h, address j, address k) = get_contract_info(contract_record_keys[i]);\n            console.log(a);\n            console.log(b);\n            console.log(c);\n            console.log(d);\n            console.log(e);\n            console.log(f);\n            console.log(g);\n            console.log(h);\n            console.log(j);\n            console.log(k);\n            console.log(\"\\n\");\n            console.log(\"\\n\");\n        }\n    } */\n\n    function check_if_already_paid(address addr, uint256 contract_id) public view returns (bool) {\n        Role role = user_info[addr].role;\n        contract_instance memory instance = contract_record[contract_id];\n        if (role == Role.Renter) {\n            //console.log(\"Role: \", true);\n            //console.log(\"Instance renter: \", instance.renter);\n            require(addr == instance.renter, \"Data inconsistency 1\");\n            return instance.renter_paid;\n        }\n        else {\n            //console.log(\"Role: \", false);\n            //console.log(\"Instance student: \", instance.student);\n            require(addr == instance.student, \"Data inconsistency 2\");\n            return instance.student_paid;\n        }\n    }\n\n\n    function check_if_already_in_contract(address student, uint256 room_id) private view returns (bool) {\n        // controlla se lo studente o la stanza (disgiunzione inclusiva) sono gi in un contratto\n        \n        uint256[] memory student_array = user_info[student].contract_instance_record;\n\n        if (student_array.length > 0 || rooms_record[room_id].occupied == true) {\n            return true;\n        }\n        return false;\n\n    }\n\n    function check_user_already_registered(address add) private view returns (bool) {\n        return user_info[add].already_init;\n    } \n\n    function delete_contract_instance(address a1, address a2, uint256 contract_id, uint256 room_id) private {\n        \n        // delete the contract instance\n        delete(contract_record[contract_id]);\n        //remove(contract_record_keys, contract_id);\n\n        // mark the room as not occupied\n        rooms_record[room_id].occupied = false;\n        \n        // modify the list of contract instances the addresses are a part of\n        uint256[] memory a1_record = user_info[a1].contract_instance_record;\n        uint256[] memory a1_new_record; // la lunghezza  uno in meno perch tolgo l'id di contratto dall'array\n        uint256[] memory a2_record = user_info[a2].contract_instance_record;\n        uint256[] memory a2_new_record;\n\n\n        for (uint256 i = 0; i < a1_record.length; i++) {\n            if (a1_record[i] != contract_id) {\n                a1_new_record[i] = a1_record[i];\n            }  \n        }\n        user_info[a1].contract_instance_record = a1_new_record; \n\n        for (uint256 i = 0; i < a2_record.length; i++) {\n            if (a2_record[i] != contract_id) {\n                a2_new_record[i] = a2_record[i];\n            }  \n        }\n        user_info[a2].contract_instance_record = a2_new_record;\n    }\n\n    // the contract ends successfully \n    // the difference with the other delete_contract_instance is that the room doesn't get marked as free\n    function delete_contract_instance(address a1, address a2, uint256 contract_id) private {\n        \n        // delete the contract instance\n        delete(contract_record[contract_id]);\n        //remove(contract_record_keys, contract_id);\n        \n        // modify the list of contract instances the addresses are a part of\n        uint256[] memory a1_record = user_info[a1].contract_instance_record;\n        uint256[] memory a1_new_record; \n        uint256[] memory a2_record = user_info[a2].contract_instance_record;\n        uint256[] memory a2_new_record;\n\n\n        for (uint256 i = 0; i < a1_record.length; i++) {\n            if (a1_record[i] != contract_id) {\n                console.log(a1_record[i]);\n                a1_new_record[i] = a1_record[i];\n            }  \n        }\n        user_info[a1].contract_instance_record = a1_new_record; \n\n        for (uint256 i = 0; i < a2_record.length; i++) {\n            if (a2_record[i] != contract_id) {\n                console.log(a1_record[i]);\n                a2_new_record[i] = a2_record[i];\n            }  \n        }\n        user_info[a2].contract_instance_record = a2_new_record;\n    }  \n\n\n    function remove(uint256[] storage array, uint256 element) private {\n        uint256 index;\n        bool found = false;\n        for(uint256 i = 0; i < array.length; i++) {\n            if (array[i] == element) {\n                index = i;\n                found = true;\n                break;\n            }\n        }\n        require(found, \"Element not present in array\");\n        array[index] = array[array.length - 1];\n        array.pop();\n    }\n\n    function remove(address[] storage array, address element) private {\n        uint256 index;\n        bool found = false;\n        for(uint256 i = 0; i < array.length; i++) {\n            if (array[i] == element) {\n                index = i;\n                found = true;\n                break;\n            }\n        }\n        require(found, \"Element not present in array\");\n        array[index] = array[array.length - 1];\n        array.pop();\n    }\n\n    fallback() external payable {\n        emit Log(\"fallback\", msg.sender, msg.value, msg.data);\n    }\n\n    receive() external payable {\n        emit Log(\"receive\", msg.sender, msg.value, \"\");\n    }\n}\n\n",
  "sourcePath": "/home/davipase/Blockchain/HouseLocker/smart_contracts/Affitto/contracts/Affitto.sol",
  "compiler": {
    "name": "solc",
    "version": "0.8.20+commit.a1b79de6.Emscripten.clang"
  },
  "schemaVersion": "3.4.14",
  "updatedAt": "2023-06-23T19:39:14.875Z",
  "networkType": "ethereum",
  "devdoc": {
    "kind": "dev",
    "methods": {},
    "title": "fgndfgn",
    "version": 1
  },
  "userdoc": {
    "kind": "user",
    "methods": {},
    "version": 1
  }
}