{
  "contractName": "Affitto",
  "abi": [
    {
      "inputs": [],
      "stateMutability": "nonpayable",
      "type": "constructor"
    },
    {
      "anonymous": false,
      "inputs": [
        {
          "indexed": false,
          "internalType": "string",
          "name": "func",
          "type": "string"
        },
        {
          "indexed": false,
          "internalType": "address",
          "name": "sender",
          "type": "address"
        },
        {
          "indexed": false,
          "internalType": "uint256",
          "name": "value",
          "type": "uint256"
        },
        {
          "indexed": false,
          "internalType": "bytes",
          "name": "data",
          "type": "bytes"
        }
      ],
      "name": "Log",
      "type": "event"
    },
    {
      "stateMutability": "payable",
      "type": "fallback"
    },
    {
      "stateMutability": "payable",
      "type": "receive"
    },
    {
      "inputs": [
        {
          "internalType": "bool",
          "name": "role_id",
          "type": "bool"
        }
      ],
      "name": "register_user",
      "outputs": [],
      "stateMutability": "nonpayable",
      "type": "function"
    },
    {
      "inputs": [
        {
          "internalType": "uint256[]",
          "name": "rooms",
          "type": "uint256[]"
        },
        {
          "internalType": "uint256[]",
          "name": "deposits",
          "type": "uint256[]"
        }
      ],
      "name": "register_rooms",
      "outputs": [],
      "stateMutability": "nonpayable",
      "type": "function"
    },
    {
      "inputs": [
        {
          "internalType": "address payable",
          "name": "renter",
          "type": "address"
        },
        {
          "internalType": "uint256",
          "name": "room_id",
          "type": "uint256"
        }
      ],
      "name": "inizialize",
      "outputs": [],
      "stateMutability": "nonpayable",
      "type": "function"
    },
    {
      "inputs": [
        {
          "internalType": "address payable",
          "name": "renter",
          "type": "address"
        }
      ],
      "name": "inizialize",
      "outputs": [],
      "stateMutability": "nonpayable",
      "type": "function"
    },
    {
      "inputs": [],
      "name": "student_pay_deposit",
      "outputs": [],
      "stateMutability": "payable",
      "type": "function"
    },
    {
      "inputs": [
        {
          "internalType": "uint256",
          "name": "contract_id",
          "type": "uint256"
        }
      ],
      "name": "renter_pay_deposit",
      "outputs": [],
      "stateMutability": "payable",
      "type": "function"
    },
    {
      "inputs": [
        {
          "internalType": "uint256",
          "name": "contract_id",
          "type": "uint256"
        }
      ],
      "name": "withdraw_from_contract",
      "outputs": [],
      "stateMutability": "nonpayable",
      "type": "function"
    },
    {
      "inputs": [
        {
          "internalType": "uint256",
          "name": "contract_id",
          "type": "uint256"
        }
      ],
      "name": "end_contract_successfully",
      "outputs": [
        {
          "internalType": "bool",
          "name": "",
          "type": "bool"
        }
      ],
      "stateMutability": "nonpayable",
      "type": "function"
    },
    {
      "inputs": [
        {
          "internalType": "address",
          "name": "add",
          "type": "address"
        }
      ],
      "name": "get_user_info",
      "outputs": [
        {
          "components": [
            {
              "internalType": "enum Affitto.Role",
              "name": "role",
              "type": "uint8"
            },
            {
              "internalType": "uint256[]",
              "name": "room_record",
              "type": "uint256[]"
            },
            {
              "internalType": "uint256",
              "name": "num_rooms",
              "type": "uint256"
            },
            {
              "internalType": "bool",
              "name": "already_init",
              "type": "bool"
            }
          ],
          "internalType": "struct Affitto.user",
          "name": "",
          "type": "tuple"
        }
      ],
      "stateMutability": "view",
      "type": "function"
    },
    {
      "inputs": [
        {
          "internalType": "uint256",
          "name": "contract_id",
          "type": "uint256"
        }
      ],
      "name": "get_contract_info",
      "outputs": [
        {
          "components": [
            {
              "internalType": "uint256",
              "name": "contract_id",
              "type": "uint256"
            },
            {
              "internalType": "uint256",
              "name": "room_id",
              "type": "uint256"
            },
            {
              "internalType": "bool",
              "name": "student_paid",
              "type": "bool"
            },
            {
              "internalType": "bool",
              "name": "renter_paid",
              "type": "bool"
            },
            {
              "internalType": "uint256",
              "name": "amt_paid_student",
              "type": "uint256"
            },
            {
              "internalType": "uint256",
              "name": "amt_paid_renter",
              "type": "uint256"
            },
            {
              "internalType": "bool",
              "name": "concluded_student",
              "type": "bool"
            },
            {
              "internalType": "bool",
              "name": "concluded_renter",
              "type": "bool"
            },
            {
              "internalType": "address payable",
              "name": "student",
              "type": "address"
            },
            {
              "internalType": "address payable",
              "name": "renter",
              "type": "address"
            }
          ],
          "internalType": "struct Affitto.contract_instance",
          "name": "",
          "type": "tuple"
        }
      ],
      "stateMutability": "view",
      "type": "function"
    },
    {
      "inputs": [
        {
          "internalType": "uint256",
          "name": "room_id",
          "type": "uint256"
        }
      ],
      "name": "get_room_info",
      "outputs": [
        {
          "components": [
            {
              "internalType": "uint256",
              "name": "id",
              "type": "uint256"
            },
            {
              "internalType": "address",
              "name": "owner",
              "type": "address"
            },
            {
              "internalType": "bool",
              "name": "occupied",
              "type": "bool"
            },
            {
              "internalType": "uint256",
              "name": "deposit",
              "type": "uint256"
            }
          ],
          "internalType": "struct Affitto.room",
          "name": "",
          "type": "tuple"
        }
      ],
      "stateMutability": "view",
      "type": "function"
    },
    {
      "inputs": [
        {
          "internalType": "address",
          "name": "addr",
          "type": "address"
        },
        {
          "internalType": "uint256",
          "name": "contract_id",
          "type": "uint256"
        }
      ],
      "name": "check_if_already_paid",
      "outputs": [
        {
          "internalType": "bool",
          "name": "",
          "type": "bool"
        }
      ],
      "stateMutability": "view",
      "type": "function"
    }
  ],
  "bytecode": "0x6080604052305f806101000a81548173ffffffffffffffffffffffffffffffffffffffff021916908373ffffffffffffffffffffffffffffffffffffffff1602179055506602150df0ba6eda600555348015610059575f80fd5b505f600681905550613a418061006e5f395ff3fe6080604052600436106100aa575f3560e01c806399aa59781161006357806399aa59781461025d578063a1370f1b14610285578063b2f01901146102c1578063d8f229ab146102cb578063da9ae234146102f3578063db3189b71461031b576100ea565b80631db8d6cd1461012957806322aece9c146101455780633acbba6e1461016d57806365cdf7c3146101a9578063774deb42146101e55780638c4db02514610221576100ea565b366100ea577ff7f75251dee7d7fc22deac3247729ebe7c86541f35930bf10c2a4207479a3b6c33346040516100e0929190612b9b565b60405180910390a1005b7ff7f75251dee7d7fc22deac3247729ebe7c86541f35930bf10c2a4207479a3b6c33345f3660405161011f9493929190612c7c565b60405180910390a1005b610143600480360381019061013e9190612d08565b610343565b005b348015610150575f80fd5b5061016b60048036038101906101669190612e73565b610658565b005b348015610178575f80fd5b50610193600480360381019061018e9190612f13565b610931565b6040516101a09190612f6b565b60405180910390f35b3480156101b4575f80fd5b506101cf60048036038101906101ca9190612d08565b610c0c565b6040516101dc9190612f6b565b60405180910390f35b3480156101f0575f80fd5b5061020b60048036038101906102069190612d08565b610eee565b604051610218919061308c565b60405180910390f35b34801561022c575f80fd5b50610247600480360381019061024291906130a6565b611056565b604051610254919061324c565b60405180910390f35b348015610268575f80fd5b50610283600480360381019061027e9190613296565b611160565b005b348015610290575f80fd5b506102ab60048036038101906102a69190612d08565b61141b565b6040516102b89190613323565b60405180910390f35b6102c96114c9565b005b3480156102d6575f80fd5b506102f160048036038101906102ec9190613366565b611792565b005b3480156102fe575f80fd5b50610319600480360381019061031491906133a4565b611bf4565b005b348015610326575f80fd5b50610341600480360381019061033c9190612d08565b6120fd565b005b5f60015f8381526020019081526020015f20604051806101400160405290815f820154815260200160018201548152602001600282015f9054906101000a900460ff161515151581526020016002820160019054906101000a900460ff161515151581526020016003820154815260200160048201548152602001600582015f9054906101000a900460ff161515151581526020016005820160019054906101000a900460ff161515151581526020016005820160029054906101000a900473ffffffffffffffffffffffffffffffffffffffff1673ffffffffffffffffffffffffffffffffffffffff1673ffffffffffffffffffffffffffffffffffffffff168152602001600682015f9054906101000a900473ffffffffffffffffffffffffffffffffffffffff1673ffffffffffffffffffffffffffffffffffffffff1673ffffffffffffffffffffffffffffffffffffffff168152505090505f60025f3373ffffffffffffffffffffffffffffffffffffffff1673ffffffffffffffffffffffffffffffffffffffff1681526020019081526020015f205f015f9054906101000a900460ff1690505f6001811115610501576105006130d1565b5b816001811115610514576105136130d1565b5b14610554576040517f08c379a000000000000000000000000000000000000000000000000000000000815260040161054b90613419565b60405180910390fd5b81610120015173ffffffffffffffffffffffffffffffffffffffff163373ffffffffffffffffffffffffffffffffffffffff16146105c7576040517f08c379a00000000000000000000000000000000000000000000000000000000081526004016105be90613419565b60405180910390fd5b5f60045f846020015181526020019081526020015f206002015490505f349050816005546105f59190613464565b8114610636576040517f08c379a000000000000000000000000000000000000000000000000000000000815260040161062d906134ef565b60405180910390fd5b808460a001818152505060018460600190151590811515815250505050505050565b5f600181111561066b5761066a6130d1565b5b60025f3373ffffffffffffffffffffffffffffffffffffffff1673ffffffffffffffffffffffffffffffffffffffff1681526020019081526020015f205f015f9054906101000a900460ff1660018111156106c9576106c86130d1565b5b14610709576040517f08c379a0000000000000000000000000000000000000000000000000000000008152600401610700906135a3565b60405180910390fd5b805182511461074d576040517f08c379a000000000000000000000000000000000000000000000000000000000815260040161074490613631565b60405180910390fd5b5f825190508060025f3373ffffffffffffffffffffffffffffffffffffffff1673ffffffffffffffffffffffffffffffffffffffff1681526020019081526020015f20600201819055505f5b8181101561092b575f60405180608001604052808684815181106107c0576107bf61364f565b5b602002602001015181526020013373ffffffffffffffffffffffffffffffffffffffff1681526020015f151581526020018584815181106108045761080361364f565b5b602002602001015181525090508482815181106108245761082361364f565b5b602002602001015160035f3373ffffffffffffffffffffffffffffffffffffffff1673ffffffffffffffffffffffffffffffffffffffff1681526020019081526020015f20838154811061087b5761087a61364f565b5b905f5260205f2001819055508060045f835f015181526020019081526020015f205f820151815f01556020820151816001015f6101000a81548173ffffffffffffffffffffffffffffffffffffffff021916908373ffffffffffffffffffffffffffffffffffffffff16021790555060408201518160010160146101000a81548160ff021916908315150217905550606082015181600201559050505080806109239061367c565b915050610799565b50505050565b5f8060025f8573ffffffffffffffffffffffffffffffffffffffff1673ffffffffffffffffffffffffffffffffffffffff1681526020019081526020015f205f015f9054906101000a900460ff1690505f60015f8581526020019081526020015f20604051806101400160405290815f820154815260200160018201548152602001600282015f9054906101000a900460ff161515151581526020016002820160019054906101000a900460ff161515151581526020016003820154815260200160048201548152602001600582015f9054906101000a900460ff161515151581526020016005820160019054906101000a900460ff161515151581526020016005820160029054906101000a900473ffffffffffffffffffffffffffffffffffffffff1673ffffffffffffffffffffffffffffffffffffffff1673ffffffffffffffffffffffffffffffffffffffff168152602001600682015f9054906101000a900473ffffffffffffffffffffffffffffffffffffffff1673ffffffffffffffffffffffffffffffffffffffff1673ffffffffffffffffffffffffffffffffffffffff168152505090505f6001811115610af057610aef6130d1565b5b826001811115610b0357610b026130d1565b5b03610b895780610120015173ffffffffffffffffffffffffffffffffffffffff168573ffffffffffffffffffffffffffffffffffffffff1614610b7b576040517f08c379a0000000000000000000000000000000000000000000000000000000008152600401610b7290613419565b60405180910390fd5b806060015192505050610c06565b80610100015173ffffffffffffffffffffffffffffffffffffffff168573ffffffffffffffffffffffffffffffffffffffff1614610bfc576040517f08c379a0000000000000000000000000000000000000000000000000000000008152600401610bf390613419565b60405180910390fd5b8060400151925050505b92915050565b5f8060015f8481526020019081526020015f20604051806101400160405290815f820154815260200160018201548152602001600282015f9054906101000a900460ff161515151581526020016002820160019054906101000a900460ff161515151581526020016003820154815260200160048201548152602001600582015f9054906101000a900460ff161515151581526020016005820160019054906101000a900460ff161515151581526020016005820160029054906101000a900473ffffffffffffffffffffffffffffffffffffffff1673ffffffffffffffffffffffffffffffffffffffff1673ffffffffffffffffffffffffffffffffffffffff168152602001600682015f9054906101000a900473ffffffffffffffffffffffffffffffffffffffff1673ffffffffffffffffffffffffffffffffffffffff1673ffffffffffffffffffffffffffffffffffffffff168152505090505f80600180811115610d7e57610d7d6130d1565b5b60025f3373ffffffffffffffffffffffffffffffffffffffff1673ffffffffffffffffffffffffffffffffffffffff1681526020019081526020015f205f015f9054906101000a900460ff166001811115610ddc57610ddb6130d1565b5b03610e025733915060018360c00190151590811515815250508261012001519050610e1f565b33905060018360e001901515908115158152505082610100015191505b8260e001518015610e3157508260c001515b15610ee257610e4682828786602001516123b9565b8173ffffffffffffffffffffffffffffffffffffffff166108fc846080015190811502906040515f60405180830381858888f19350505050158015610e8d573d5f803e3d5ffd5b508073ffffffffffffffffffffffffffffffffffffffff166108fc8460a0015190811502906040515f60405180830381858888f19350505050158015610ed5573d5f803e3d5ffd5b5060019350505050610ee9565b5f93505050505b919050565b610ef661295f565b60015f8381526020019081526020015f20604051806101400160405290815f820154815260200160018201548152602001600282015f9054906101000a900460ff161515151581526020016002820160019054906101000a900460ff161515151581526020016003820154815260200160048201548152602001600582015f9054906101000a900460ff161515151581526020016005820160019054906101000a900460ff161515151581526020016005820160029054906101000a900473ffffffffffffffffffffffffffffffffffffffff1673ffffffffffffffffffffffffffffffffffffffff1673ffffffffffffffffffffffffffffffffffffffff168152602001600682015f9054906101000a900473ffffffffffffffffffffffffffffffffffffffff1673ffffffffffffffffffffffffffffffffffffffff1673ffffffffffffffffffffffffffffffffffffffff16815250509050919050565b61105e6129dc565b60025f8373ffffffffffffffffffffffffffffffffffffffff1673ffffffffffffffffffffffffffffffffffffffff1681526020019081526020015f206040518060800160405290815f82015f9054906101000a900460ff1660018111156110c9576110c86130d1565b5b60018111156110db576110da6130d1565b5b81526020016001820180548060200260200160405190810160405280929190818152602001828054801561112c57602002820191905f5260205f20905b815481526020019060010190808311611118575b5050505050815260200160028201548152602001600382015f9054906101000a900460ff1615151515815250509050919050565b60025f3373ffffffffffffffffffffffffffffffffffffffff1673ffffffffffffffffffffffffffffffffffffffff1681526020019081526020015f206003015f9054906101000a900460ff16156111ed576040517f08c379a00000000000000000000000000000000000000000000000000000000081526004016111e49061370d565b60405180910390fd5b5f8067ffffffffffffffff81111561120857611207612d37565b5b6040519080825280602002602001820160405280156112365781602001602082028036833780820191505090505b509050811561132d5760405180608001604052805f600181111561125d5761125c6130d1565b5b81526020018281526020015f81526020016001151581525060025f3373ffffffffffffffffffffffffffffffffffffffff1673ffffffffffffffffffffffffffffffffffffffff1681526020019081526020015f205f820151815f015f6101000a81548160ff021916908360018111156112da576112d96130d1565b5b021790555060208201518160010190805190602001906112fb929190612a15565b50604082015181600201556060820151816003015f6101000a81548160ff021916908315150217905550905050611417565b604051806080016040528060018081111561134b5761134a6130d1565b5b81526020018281526020015f81526020016001151581525060025f3373ffffffffffffffffffffffffffffffffffffffff1673ffffffffffffffffffffffffffffffffffffffff1681526020019081526020015f205f820151815f015f6101000a81548160ff021916908360018111156113c8576113c76130d1565b5b021790555060208201518160010190805190602001906113e9929190612a15565b50604082015181600201556060820151816003015f6101000a81548160ff0219169083151502179055509050505b5050565b611423612a60565b60045f8381526020019081526020015f206040518060800160405290815f8201548152602001600182015f9054906101000a900473ffffffffffffffffffffffffffffffffffffffff1673ffffffffffffffffffffffffffffffffffffffff1673ffffffffffffffffffffffffffffffffffffffff1681526020016001820160149054906101000a900460ff161515151581526020016002820154815250509050919050565b5f60025f3373ffffffffffffffffffffffffffffffffffffffff1673ffffffffffffffffffffffffffffffffffffffff1681526020019081526020015f205f015f9054906101000a900460ff16905060018081111561152b5761152a6130d1565b5b81600181111561153e5761153d6130d1565b5b14611547575f80fd5b5f60025f3373ffffffffffffffffffffffffffffffffffffffff1673ffffffffffffffffffffffffffffffffffffffff1681526020019081526020015f206001015f8154811061159a5761159961364f565b5b905f5260205f20015490505f60015f8381526020019081526020015f20604051806101400160405290815f820154815260200160018201548152602001600282015f9054906101000a900460ff161515151581526020016002820160019054906101000a900460ff161515151581526020016003820154815260200160048201548152602001600582015f9054906101000a900460ff161515151581526020016005820160019054906101000a900460ff161515151581526020016005820160029054906101000a900473ffffffffffffffffffffffffffffffffffffffff1673ffffffffffffffffffffffffffffffffffffffff1673ffffffffffffffffffffffffffffffffffffffff168152602001600682015f9054906101000a900473ffffffffffffffffffffffffffffffffffffffff1673ffffffffffffffffffffffffffffffffffffffff1673ffffffffffffffffffffffffffffffffffffffff168152505090505f60045f836020015181526020019081526020015f206002015490505f3490508160055461172f9190613464565b8114611770576040517f08c379a0000000000000000000000000000000000000000000000000000000008152600401611767906134ef565b60405180910390fd5b8083608001818152505060018360400190151590811515815250505050505050565b61179b3361282b565b6117da576040517f08c379a00000000000000000000000000000000000000000000000000000000081526004016117d190613775565b60405180910390fd5b6117e38261282b565b611822576040517f08c379a0000000000000000000000000000000000000000000000000000000008152600401611819906137dd565b60405180910390fd5b5f3390505f15156118338284612880565b151514611875576040517f08c379a000000000000000000000000000000000000000000000000000000000815260040161186c9061386b565b60405180910390fd5b8273ffffffffffffffffffffffffffffffffffffffff1660045f8481526020019081526020015f206001015f9054906101000a900473ffffffffffffffffffffffffffffffffffffffff1673ffffffffffffffffffffffffffffffffffffffff1614611916576040517f08c379a000000000000000000000000000000000000000000000000000000000815260040161190d906138f9565b60405180910390fd5b5f600654905060065f81548092919061192e9061367c565b9190505550600160045f8581526020019081526020015f2060010160146101000a81548160ff0219169083151502179055505f6040518061014001604052808381526020018581526020015f151581526020015f151581526020015f81526020015f81526020015f151581526020015f151581526020018473ffffffffffffffffffffffffffffffffffffffff1681526020018673ffffffffffffffffffffffffffffffffffffffff1681525090508060015f8481526020019081526020015f205f820151815f0155602082015181600101556040820151816002015f6101000a81548160ff02191690831515021790555060608201518160020160016101000a81548160ff0219169083151502179055506080820151816003015560a0820151816004015560c0820151816005015f6101000a81548160ff02191690831515021790555060e08201518160050160016101000a81548160ff0219169083151502179055506101008201518160050160026101000a81548173ffffffffffffffffffffffffffffffffffffffff021916908373ffffffffffffffffffffffffffffffffffffffff160217905550610120820151816006015f6101000a81548173ffffffffffffffffffffffffffffffffffffffff021916908373ffffffffffffffffffffffffffffffffffffffff16021790555090505060025f8473ffffffffffffffffffffffffffffffffffffffff1673ffffffffffffffffffffffffffffffffffffffff1681526020019081526020015f2060010182908060018154018082558091505060019003905f5260205f20015f909190919091505560025f8673ffffffffffffffffffffffffffffffffffffffff1673ffffffffffffffffffffffffffffffffffffffff1681526020019081526020015f2060010182908060018154018082558091505060019003905f5260205f20015f90919091909150555050505050565b611bfd3361282b565b611c3c576040517f08c379a0000000000000000000000000000000000000000000000000000000008152600401611c3390613775565b60405180910390fd5b611c458161282b565b611c84576040517f08c379a0000000000000000000000000000000000000000000000000000000008152600401611c7b906137dd565b60405180910390fd5b5f3390505f805f90505f5b60025f8673ffffffffffffffffffffffffffffffffffffffff1673ffffffffffffffffffffffffffffffffffffffff1681526020019081526020015f2060020154811015611ddd5760045f60035f8873ffffffffffffffffffffffffffffffffffffffff1673ffffffffffffffffffffffffffffffffffffffff1681526020019081526020015f208381548110611d2957611d2861364f565b5b905f5260205f20015481526020019081526020015f2060010160149054906101000a900460ff16611dca576001915060045f60035f8873ffffffffffffffffffffffffffffffffffffffff1673ffffffffffffffffffffffffffffffffffffffff1681526020019081526020015f208381548110611daa57611da961364f565b5b905f5260205f20015481526020019081526020015f205f01549250611ddd565b8080611dd59061367c565b915050611c8f565b5080611e1e576040517f08c379a0000000000000000000000000000000000000000000000000000000008152600401611e1590613987565b60405180910390fd5b5f600654905060065f815480929190611e369061367c565b9190505550600160045f8581526020019081526020015f2060010160146101000a81548160ff0219169083151502179055505f6040518061014001604052808381526020018581526020015f151581526020015f151581526020015f81526020015f81526020015f151581526020015f151581526020018673ffffffffffffffffffffffffffffffffffffffff1681526020018773ffffffffffffffffffffffffffffffffffffffff1681525090508060015f8481526020019081526020015f205f820151815f0155602082015181600101556040820151816002015f6101000a81548160ff02191690831515021790555060608201518160020160016101000a81548160ff0219169083151502179055506080820151816003015560a0820151816004015560c0820151816005015f6101000a81548160ff02191690831515021790555060e08201518160050160016101000a81548160ff0219169083151502179055506101008201518160050160026101000a81548173ffffffffffffffffffffffffffffffffffffffff021916908373ffffffffffffffffffffffffffffffffffffffff160217905550610120820151816006015f6101000a81548173ffffffffffffffffffffffffffffffffffffffff021916908373ffffffffffffffffffffffffffffffffffffffff16021790555090505060025f8673ffffffffffffffffffffffffffffffffffffffff1673ffffffffffffffffffffffffffffffffffffffff1681526020019081526020015f2060010182908060018154018082558091505060019003905f5260205f20015f909190919091505560025f8773ffffffffffffffffffffffffffffffffffffffff1673ffffffffffffffffffffffffffffffffffffffff1681526020019081526020015f2060010182908060018154018082558091505060019003905f5260205f20015f9091909190915055505050505050565b5f3390505f8060015f8581526020019081526020015f20604051806101400160405290815f820154815260200160018201548152602001600282015f9054906101000a900460ff161515151581526020016002820160019054906101000a900460ff161515151581526020016003820154815260200160048201548152602001600582015f9054906101000a900460ff161515151581526020016005820160019054906101000a900460ff161515151581526020016005820160029054906101000a900473ffffffffffffffffffffffffffffffffffffffff1673ffffffffffffffffffffffffffffffffffffffff1673ffffffffffffffffffffffffffffffffffffffff168152602001600682015f9054906101000a900473ffffffffffffffffffffffffffffffffffffffff1673ffffffffffffffffffffffffffffffffffffffff1673ffffffffffffffffffffffffffffffffffffffff16815250509050600180811115612271576122706130d1565b5b60025f3373ffffffffffffffffffffffffffffffffffffffff1673ffffffffffffffffffffffffffffffffffffffff1681526020019081526020015f205f015f9054906101000a900460ff1660018111156122cf576122ce6130d1565b5b0361230f5760015f8581526020019081526020015f206006015f9054906101000a900473ffffffffffffffffffffffffffffffffffffffff169150612347565b60015f8581526020019081526020015f2060050160029054906101000a900473ffffffffffffffffffffffffffffffffffffffff1691505b5f8160200151905061235b848487846123b9565b8273ffffffffffffffffffffffffffffffffffffffff166108fc8360a00151846080015161238991906139a5565b90811502906040515f60405180830381858888f193505050501580156123b1573d5f803e3d5ffd5b505050505050565b60015f8381526020019081526020015f205f8082015f9055600182015f9055600282015f6101000a81549060ff02191690556002820160016101000a81549060ff0219169055600382015f9055600482015f9055600582015f6101000a81549060ff02191690556005820160016101000a81549060ff02191690556005820160026101000a81549073ffffffffffffffffffffffffffffffffffffffff0219169055600682015f6101000a81549073ffffffffffffffffffffffffffffffffffffffff021916905550505f60045f8381526020019081526020015f2060010160146101000a81548160ff0219169083151502179055505f60025f8673ffffffffffffffffffffffffffffffffffffffff1673ffffffffffffffffffffffffffffffffffffffff1681526020019081526020015f2060010180548060200260200160405190810160405280929190818152602001828054801561253857602002820191905f5260205f20905b815481526020019060010190808311612524575b505050505090505f6001825161254e91906139d8565b67ffffffffffffffff81111561256757612566612d37565b5b6040519080825280602002602001820160405280156125955781602001602082028036833780820191505090505b5090505f60025f8773ffffffffffffffffffffffffffffffffffffffff1673ffffffffffffffffffffffffffffffffffffffff1681526020019081526020015f2060010180548060200260200160405190810160405280929190818152602001828054801561262157602002820191905f5260205f20905b81548152602001906001019080831161260d575b505050505090505f6001825161263791906139d8565b67ffffffffffffffff8111156126505761264f612d37565b5b60405190808252806020026020018201604052801561267e5781602001602082028036833780820191505090505b5090505f5b84518110156126fb57868582815181106126a05761269f61364f565b5b6020026020010151146126e8578481815181106126c0576126bf61364f565b5b60200260200101518482815181106126db576126da61364f565b5b6020026020010181815250505b80806126f39061367c565b915050612683565b508260025f8a73ffffffffffffffffffffffffffffffffffffffff1673ffffffffffffffffffffffffffffffffffffffff1681526020019081526020015f206001019080519060200190612750929190612a15565b505f5b82518110156127cb57868382815181106127705761276f61364f565b5b6020026020010151146127b8578281815181106127905761278f61364f565b5b60200260200101518282815181106127ab576127aa61364f565b5b6020026020010181815250505b80806127c39061367c565b915050612753565b508060025f8973ffffffffffffffffffffffffffffffffffffffff1673ffffffffffffffffffffffffffffffffffffffff1681526020019081526020015f206001019080519060200190612820929190612a15565b505050505050505050565b5f60025f8373ffffffffffffffffffffffffffffffffffffffff1673ffffffffffffffffffffffffffffffffffffffff1681526020019081526020015f206003015f9054906101000a900460ff169050919050565b5f8060025f8573ffffffffffffffffffffffffffffffffffffffff1673ffffffffffffffffffffffffffffffffffffffff1681526020019081526020015f2060010180548060200260200160405190810160405280929190818152602001828054801561290a57602002820191905f5260205f20905b8154815260200190600101908083116128f6575b505050505090505f8151118061294557506001151560045f8581526020019081526020015f2060010160149054906101000a900460ff161515145b15612954576001915050612959565b5f9150505b92915050565b6040518061014001604052805f81526020015f81526020015f151581526020015f151581526020015f81526020015f81526020015f151581526020015f151581526020015f73ffffffffffffffffffffffffffffffffffffffff1681526020015f73ffffffffffffffffffffffffffffffffffffffff1681525090565b60405180608001604052805f60018111156129fa576129f96130d1565b5b8152602001606081526020015f81526020015f151581525090565b828054828255905f5260205f20908101928215612a4f579160200282015b82811115612a4e578251825591602001919060010190612a33565b5b509050612a5c9190612a9c565b5090565b60405180608001604052805f81526020015f73ffffffffffffffffffffffffffffffffffffffff1681526020015f151581526020015f81525090565b5b80821115612ab3575f815f905550600101612a9d565b5090565b5f82825260208201905092915050565b7f66616c6c000000000000000000000000000000000000000000000000000000005f82015250565b5f612afb600483612ab7565b9150612b0682612ac7565b602082019050919050565b5f73ffffffffffffffffffffffffffffffffffffffff82169050919050565b5f612b3a82612b11565b9050919050565b612b4a81612b30565b82525050565b5f819050919050565b612b6281612b50565b82525050565b5f82825260208201905092915050565b50565b5f612b865f83612b68565b9150612b9182612b78565b5f82019050919050565b5f6080820190508181035f830152612bb281612aef565b9050612bc16020830185612b41565b612bce6040830184612b59565b8181036060830152612bdf81612b7b565b90509392505050565b7f66616c6c6261636b0000000000000000000000000000000000000000000000005f82015250565b5f612c1c600883612ab7565b9150612c2782612be8565b602082019050919050565b828183375f83830152505050565b5f601f19601f8301169050919050565b5f612c5b8385612b68565b9350612c68838584612c32565b612c7183612c40565b840190509392505050565b5f6080820190508181035f830152612c9381612c10565b9050612ca26020830187612b41565b612caf6040830186612b59565b8181036060830152612cc2818486612c50565b905095945050505050565b5f604051905090565b5f80fd5b5f80fd5b612ce781612b50565b8114612cf1575f80fd5b50565b5f81359050612d0281612cde565b92915050565b5f60208284031215612d1d57612d1c612cd6565b5b5f612d2a84828501612cf4565b91505092915050565b5f80fd5b7f4e487b71000000000000000000000000000000000000000000000000000000005f52604160045260245ffd5b612d6d82612c40565b810181811067ffffffffffffffff82111715612d8c57612d8b612d37565b5b80604052505050565b5f612d9e612ccd565b9050612daa8282612d64565b919050565b5f67ffffffffffffffff821115612dc957612dc8612d37565b5b602082029050602081019050919050565b5f80fd5b5f612df0612deb84612daf565b612d95565b90508083825260208201905060208402830185811115612e1357612e12612dda565b5b835b81811015612e3c5780612e288882612cf4565b845260208401935050602081019050612e15565b5050509392505050565b5f82601f830112612e5a57612e59612d33565b5b8135612e6a848260208601612dde565b91505092915050565b5f8060408385031215612e8957612e88612cd6565b5b5f83013567ffffffffffffffff811115612ea657612ea5612cda565b5b612eb285828601612e46565b925050602083013567ffffffffffffffff811115612ed357612ed2612cda565b5b612edf85828601612e46565b9150509250929050565b612ef281612b30565b8114612efc575f80fd5b50565b5f81359050612f0d81612ee9565b92915050565b5f8060408385031215612f2957612f28612cd6565b5b5f612f3685828601612eff565b9250506020612f4785828601612cf4565b9150509250929050565b5f8115159050919050565b612f6581612f51565b82525050565b5f602082019050612f7e5f830184612f5c565b92915050565b612f8d81612b50565b82525050565b612f9c81612f51565b82525050565b5f612fac82612b11565b9050919050565b612fbc81612fa2565b82525050565b61014082015f820151612fd75f850182612f84565b506020820151612fea6020850182612f84565b506040820151612ffd6040850182612f93565b5060608201516130106060850182612f93565b5060808201516130236080850182612f84565b5060a082015161303660a0850182612f84565b5060c082015161304960c0850182612f93565b5060e082015161305c60e0850182612f93565b50610100820151613071610100850182612fb3565b50610120820151613086610120850182612fb3565b50505050565b5f610140820190506130a05f830184612fc2565b92915050565b5f602082840312156130bb576130ba612cd6565b5b5f6130c884828501612eff565b91505092915050565b7f4e487b71000000000000000000000000000000000000000000000000000000005f52602160045260245ffd5b6002811061310f5761310e6130d1565b5b50565b5f81905061311f826130fe565b919050565b5f61312e82613112565b9050919050565b61313e81613124565b82525050565b5f81519050919050565b5f82825260208201905092915050565b5f819050602082019050919050565b5f6131788383612f84565b60208301905092915050565b5f602082019050919050565b5f61319a82613144565b6131a4818561314e565b93506131af8361315e565b805f5b838110156131df5781516131c6888261316d565b97506131d183613184565b9250506001810190506131b2565b5085935050505092915050565b5f608083015f8301516132015f860182613135565b50602083015184820360208601526132198282613190565b915050604083015161322e6040860182612f84565b5060608301516132416060860182612f93565b508091505092915050565b5f6020820190508181035f83015261326481846131ec565b905092915050565b61327581612f51565b811461327f575f80fd5b50565b5f813590506132908161326c565b92915050565b5f602082840312156132ab576132aa612cd6565b5b5f6132b884828501613282565b91505092915050565b6132ca81612b30565b82525050565b608082015f8201516132e45f850182612f84565b5060208201516132f760208501826132c1565b50604082015161330a6040850182612f93565b50606082015161331d6060850182612f84565b50505050565b5f6080820190506133365f8301846132d0565b92915050565b61334581612fa2565b811461334f575f80fd5b50565b5f813590506133608161333c565b92915050565b5f806040838503121561337c5761337b612cd6565b5b5f61338985828601613352565b925050602061339a85828601612cf4565b9150509250929050565b5f602082840312156133b9576133b8612cd6565b5b5f6133c684828501613352565b91505092915050565b7f4461746120696e636f6e73697374656e637900000000000000000000000000005f82015250565b5f613403601283612ab7565b915061340e826133cf565b602082019050919050565b5f6020820190508181035f830152613430816133f7565b9050919050565b7f4e487b71000000000000000000000000000000000000000000000000000000005f52601160045260245ffd5b5f61346e82612b50565b915061347983612b50565b925082820261348781612b50565b9150828204841483151761349e5761349d613437565b5b5092915050565b7f57726f6e6720616d6f756e7420706169640000000000000000000000000000005f82015250565b5f6134d9601183612ab7565b91506134e4826134a5565b602082019050919050565b5f6020820190508181035f830152613506816134cd565b9050919050565b7f596f7520617265206e6f7420612072656e746572207468657265666f726520795f8201527f6f75277265206e6f7420616c6c6f77656420746f20726567697374657220726f60208201527f6f6d730000000000000000000000000000000000000000000000000000000000604082015250565b5f61358d604383612ab7565b91506135988261350d565b606082019050919050565b5f6020820190508181035f8301526135ba81613581565b9050919050565b7f496e636f6e73697374656e7420696e666f726d6174696f6e2070726f766964655f8201527f642e000000000000000000000000000000000000000000000000000000000000602082015250565b5f61361b602283612ab7565b9150613626826135c1565b604082019050919050565b5f6020820190508181035f8301526136488161360f565b9050919050565b7f4e487b71000000000000000000000000000000000000000000000000000000005f52603260045260245ffd5b5f61368682612b50565b91507fffffffffffffffffffffffffffffffffffffffffffffffffffffffffffffffff82036136b8576136b7613437565b5b600182019050919050565b7f5573657220616c726561647920726567697374657265640000000000000000005f82015250565b5f6136f7601783612ab7565b9150613702826136c3565b602082019050919050565b5f6020820190508181035f830152613724816136eb565b9050919050565b7f596f7520617265206e6f7420616e20617574686f72697a6564207573657200005f82015250565b5f61375f601e83612ab7565b915061376a8261372b565b602082019050919050565b5f6020820190508181035f83015261378c81613753565b9050919050565b7f52656e746572206973206e6f7420616e20617574686f72697a656420757365725f82015250565b5f6137c7602083612ab7565b91506137d282613793565b602082019050919050565b5f6020820190508181035f8301526137f4816137bb565b9050919050565b7f53747564656e74206f7220726f6f6d20616c726561647920696e20636f6e74725f8201527f6163740000000000000000000000000000000000000000000000000000000000602082015250565b5f613855602383612ab7565b9150613860826137fb565b604082019050919050565b5f6020820190508181035f83015261388281613849565b9050919050565b7f496e636f6e73697374656e6379206265747765656e20726f6f6d206f776e65725f8201527f20616e642072656e746572000000000000000000000000000000000000000000602082015250565b5f6138e3602b83612ab7565b91506138ee82613889565b604082019050919050565b5f6020820190508181035f830152613910816138d7565b9050919050565b7f546869732072656e746572277320726f6f6d732061726520616c6c20616c72655f8201527f616479206f636375706965640000000000000000000000000000000000000000602082015250565b5f613971602c83612ab7565b915061397c82613917565b604082019050919050565b5f6020820190508181035f83015261399e81613965565b9050919050565b5f6139af82612b50565b91506139ba83612b50565b92508282019050808211156139d2576139d1613437565b5b92915050565b5f6139e282612b50565b91506139ed83612b50565b9250828203905081811115613a0557613a04613437565b5b9291505056fea264697066735822122093d92b040403e133130205519b63859a28059b1bd742f09d11d1a9f94770037164736f6c63430008140033",
  "immutableReferences": {},
  "source": "// SPDX-License-Identifier: GPL - 3.0\n\npragma solidity >= 0.7.0;\n\ncontract Affitto {\n\n    event Log(string func, address sender, uint value, bytes data);\n\n    struct contract_instance {\n        uint contract_id;\n        uint room_id;\n        bool student_paid;\n        bool renter_paid;\n        uint amt_paid_student;\n        uint amt_paid_renter;\n        bool concluded_student;\n        bool concluded_renter;\n        address payable student;\n        address payable renter;\n    }\n\n    struct room {\n        uint id;\n        address owner;\n        bool occupied;\n        uint deposit;\n    }\n\n    // the bool variable already_init is used to check if the couple (key, struct) has already been explicitely set (solidity automatically )\n    struct user {\n        Role role;\n        uint[] room_record;\n        uint num_rooms;\n        bool already_init;\n    }\n\n    enum Role {\n        Renter,\n        Student\n    }\n\n    address payable contract_address = payable(address(this));\n    mapping(uint => contract_instance) contract_record;         // associa a ogni id la rispettiva struct di contratto\n    mapping(address => user) user_info;                        // associa a ogni indirizzo il suo ruolo (student: 0, renter: 1)\n    mapping(address => uint[]) renters_rooms;                  // associa a ogni renter un array che contiene l'id delle sue stanze\n    mapping(uint => room) rooms_record;    \n    uint conversion_rate = 586099570929370;                     // DA CHIEDERE ALL'ESTERNO?\n    uint num_contracts;                                         // var globale che incremento a ogni nuovo contratto e la uso come id\n\n    constructor() {\n        //contract_record = new mapping(uint => contract_instance); // non chiaro come si inizializza\n        num_contracts = 0;\n    }\n\n    function register_user(bool role_id) public {\n        // Doesn't allow double registrations\n        require(!user_info[msg.sender].already_init, \"User already registered\");\n        uint256[] memory a = new uint256[](0);\n        // false --> student, true --> renter\n        if (role_id) {\n            user_info[msg.sender] = user({role: Role.Renter, room_record: a, num_rooms: 0, already_init: true});\n        }\n        else {\n            user_info[msg.sender] = user({role: Role.Student, room_record: a, num_rooms: 0, already_init: true});\n        }\n        \n    }\n\n    function register_rooms(uint[] memory rooms, uint[] memory deposits) public {\n        // controlliamo che il chiamante sia un renter\n        require(user_info[msg.sender].role == Role.Renter, \"You are not a renter therefore you're not allowed to register rooms\");\n        require(rooms.length == deposits.length, \"Inconsistent information provided.\");\n        uint l = rooms.length;\n        user_info[msg.sender].num_rooms = l; \n        // TODO: VERIFICARE CHE IL RENTER SIA EFFETTIVAMENTE IL PROPRIETARIO DELLE STANZE (sia fa una zkp nelle nft? chi lo sa)\n\n        for (uint i = 0; i < l; i++) {\n            room memory new_room = room({id: rooms[i], owner: msg.sender, occupied: false, deposit: deposits[i]});\n            renters_rooms[msg.sender][i] = rooms[i];\n            rooms_record[new_room.id] = new_room;\n        }\n        \n    }   \n\n    // If the student has his heart already set on a specific room \n    function inizialize(address payable renter, uint room_id) public {\n        require(check_user_already_registered(msg.sender), \"You are not an authorized user\");\n        require(check_user_already_registered(renter), \"Renter is not an authorized user\");\n\n        address payable student = payable(msg.sender);\n        \n        // check che lo studente non sia gi in una \"istanza\" di contratto o che la stanza non sia gi occupata\n        require(check_if_already_in_contract(student, room_id) == false, \"Student or room already in contract\"); // controllare che l'inizializzazione venga interrotta e venga emesso il messaggio di errore\n        \n        // check that the renter is the room's owner\n        require(rooms_record[room_id].owner == renter, \"Inconsistency between room owner and renter\");\n\n        // se n lo student n la stanza sono gi in un contratto, possiamo procedere alla creazione della struct che rappresenta l'istanza del contratto\n        uint new_id = num_contracts;\n        num_contracts++;\n        rooms_record[room_id].occupied = true;\n        contract_instance memory instance = contract_instance({\n            contract_id: new_id, \n            room_id: room_id, \n            student_paid: false, \n            renter_paid: false, \n            amt_paid_student: 0, \n            amt_paid_renter: 0, \n            concluded_student: false, \n            concluded_renter: false, \n            student: student, \n            renter: renter\n        });\n\n        contract_record[new_id] = instance;\n        user_info[student].room_record.push(new_id);\n        user_info[renter].room_record.push(new_id);\n    }\n\n    // if the student doesn't care about which room he gets assigned\n    function inizialize(address payable renter) public {\n        require(check_user_already_registered(msg.sender), \"You are not an authorized user\");\n        require(check_user_already_registered(renter), \"Renter is not an authorized user\");\n        address payable student = payable(msg.sender);\n        \n        uint room_id;\n        bool room_found = false;\n\n        // Checks if the owner has any rooms available\n        for (uint i = 0; i < user_info[renter].num_rooms; i++) {\n            if (!rooms_record[renters_rooms[renter][i]].occupied) {\n                room_found = true;\n                room_id = rooms_record[renters_rooms[renter][i]].id;\n                break;\n            }\n        }\n        \n        require(room_found, \"This renter's rooms are all already occupied\"); \n\n        uint new_id = num_contracts;\n        num_contracts++;\n        rooms_record[room_id].occupied = true;\n        contract_instance memory instance = contract_instance({\n            contract_id: new_id, \n            room_id: room_id, \n            student_paid: false, \n            renter_paid: false, \n            amt_paid_student: 0, \n            amt_paid_renter: 0, \n            concluded_student: false, \n            concluded_renter: false, \n            student: student, \n            renter: renter\n        });\n        contract_record[new_id] = instance;\n        user_info[student].room_record.push(new_id);\n        user_info[renter].room_record.push(new_id);\n    \n    }\n\n    \n    function student_pay_deposit() public payable {\n        Role role = user_info[msg.sender].role;\n        require(role == Role.Student);\n        \n        uint contract_id = user_info[msg.sender].room_record[0];\n        contract_instance memory instance = contract_record[contract_id];\n        uint deposit = rooms_record[instance.room_id].deposit;\n        uint paid_amount = msg.value;\n        require(paid_amount == conversion_rate * deposit, \"Wrong amount paid\");\n        \n        instance.amt_paid_student = paid_amount;\n        instance.student_paid = true;\n        \n    }\n\n    function renter_pay_deposit(uint contract_id) public payable {\n        contract_instance memory instance = contract_record[contract_id];\n        Role role = user_info[msg.sender].role;\n        require(role == Role.Renter, \"Data inconsistency\"); // probabilmente inutile (gi implicitamente incluso nel secondo require)\n        require(msg.sender == instance.renter, \"Data inconsistency\");\n        uint deposit = rooms_record[instance.room_id].deposit;\n        uint paid_amount = msg.value;\n        require(paid_amount == conversion_rate * deposit, \"Wrong amount paid\"); \n        instance.amt_paid_renter = paid_amount;\n        instance.renter_paid = true;\n    }\n\n    function withdraw_from_contract(uint contract_id) public {\n        // IDEA: lo studente non pu ritirarsi prima di aver pagato la caparra, oppure pu ritirarsi gratuitamente nel lasso di tempo \n        // che ha per pagare la caparra\n        address receder = msg.sender;\n        address other;\n        contract_instance memory instance = contract_record[contract_id];\n        if (user_info[msg.sender].role == Role.Student) {\n            other = contract_record[contract_id].renter;\n        }\n        else {\n            other = contract_record[contract_id].student;\n        }\n        uint room_id = instance.room_id;\n\n        delete_contract_instance(receder, other, contract_id, room_id);\n        \n        \n        payable(other).transfer(instance.amt_paid_student + instance.amt_paid_renter);\n    }\n\n    \n\n    function end_contract_successfully(uint contract_id) public returns (bool) {\n        contract_instance memory instance = contract_record[contract_id];\n        address student;\n        address renter;\n        if (user_info[msg.sender].role == Role.Student) {\n            student = msg.sender;\n            instance.concluded_student = true;\n            renter = instance.renter;\n        }\n        else {\n            renter = msg.sender;\n            instance.concluded_renter = true;\n            student = instance.student;\n        }\n\n        if (instance.concluded_renter && instance.concluded_student) {\n            delete_contract_instance(student, renter, contract_id, instance.room_id);\n            payable(student).transfer(instance.amt_paid_student);\n            payable(renter).transfer(instance.amt_paid_renter);\n            return true;\n        }\n        return false;\n    }\n\n\n    function get_user_info(address add) public view returns (user memory) {\n        return user_info[add];\n    }\n\n    function get_contract_info(uint256 contract_id) public view returns (contract_instance memory) {\n        return contract_record[contract_id];\n    }\n\n\n    function get_room_info(uint room_id) public view returns (room memory) {\n        return rooms_record[room_id];\n    }\n\n    function check_if_already_paid(address addr, uint contract_id) public view returns (bool) {\n        Role role = user_info[addr].role;\n        contract_instance memory instance = contract_record[contract_id];\n        if (role == Role.Renter) {\n            require(addr == instance.renter, \"Data inconsistency\");\n            return instance.renter_paid;\n        }\n        else {\n            require(addr == instance.student, \"Data inconsistency\");\n            return instance.student_paid;\n        }\n    }\n\n\n    function check_if_already_in_contract(address student, uint room_id) private view returns (bool) {\n        // controlla se lo studente o la stanza (disgiunzione inclusiva) sono gi in un contratto\n        \n        uint[] memory student_array = user_info[student].room_record;\n\n        if (student_array.length > 0 || rooms_record[room_id].occupied == true) {\n            return true;\n        }\n        return false;\n\n    }\n\n    function check_user_already_registered(address add) private view returns (bool) {\n        return user_info[add].already_init;\n    } \n\n    function delete_contract_instance(address a1, address a2, uint contract_id, uint room_id) private {\n        \n        // delete the contract instance\n        delete(contract_record[contract_id]);\n\n        // mark the room as not occupied\n        rooms_record[room_id].occupied = false;\n        \n        // modify the list of contract instances the addresses are a part of\n        uint[] memory a1_record = user_info[a1].room_record;\n        uint[] memory a1_new_record = new uint[](a1_record.length - 1); // la lunghezza  uno in meno perch tolgo l'id di contratto dall'array\n        uint[] memory a2_record = user_info[a2].room_record;\n        uint[] memory a2_new_record = new uint[](a2_record.length - 1);\n\n        \n        for (uint i = 0; i < a1_record.length; i++) {\n            if (a1_record[i] != contract_id) {\n                a1_new_record[i] = a1_record[i];\n            }  \n        }\n        user_info[a1].room_record = a1_new_record; \n\n        for (uint i = 0; i < a2_record.length; i++) {\n            if (a2_record[i] != contract_id) {\n                a2_new_record[i] = a2_record[i];\n            }  \n        }\n        user_info[a2].room_record = a2_new_record;\n    } \n\n    function string_to_uint(string memory s) private pure returns (uint) {\n        bytes memory b = bytes(s);\n        uint i;\n        uint result = 0;\n        for (i = 0; i < b.length; i++) {\n            uint c = uint(uint8(b[i]));\n            if (c >= 48 && c <= 57) {\n                result = result * 10 + (c - 48);\n            }\n        }\n        return result;\n    }\n\n    function check_if_user_already_registered(address addr) private view returns (bool) {\n        return user_info[addr].already_init;\n    }\n\n    fallback() external payable {\n        emit Log(\"fallback\", msg.sender, msg.value, msg.data);\n    }\n\n    receive() external payable {\n        emit Log(\"fall\", msg.sender, msg.value, \"\");\n    }\n\n    \n}\n\n",
  "sourcePath": "/home/davipase/Blockchain/HouseLocker/smart_contracts/Affitto/contracts/Affitto.sol",
  "compiler": {
    "name": "solc",
    "version": "0.8.20+commit.a1b79de6.Emscripten.clang"
  },
  "schemaVersion": "3.4.14",
  "updatedAt": "2023-06-23T07:50:30.017Z",
  "devdoc": {
    "kind": "dev",
    "methods": {},
    "version": 1
  },
  "userdoc": {
    "kind": "user",
    "methods": {},
    "version": 1
  }
}