{
  "contractName": "Secp256k1",
  "abi": [
    {
      "inputs": [],
      "name": "AA",
      "outputs": [
        {
          "internalType": "uint256",
          "name": "",
          "type": "uint256"
        }
      ],
      "stateMutability": "view",
      "type": "function"
    },
    {
      "inputs": [],
      "name": "BB",
      "outputs": [
        {
          "internalType": "uint256",
          "name": "",
          "type": "uint256"
        }
      ],
      "stateMutability": "view",
      "type": "function"
    },
    {
      "inputs": [],
      "name": "GX",
      "outputs": [
        {
          "internalType": "uint256",
          "name": "",
          "type": "uint256"
        }
      ],
      "stateMutability": "view",
      "type": "function"
    },
    {
      "inputs": [],
      "name": "GY",
      "outputs": [
        {
          "internalType": "uint256",
          "name": "",
          "type": "uint256"
        }
      ],
      "stateMutability": "view",
      "type": "function"
    },
    {
      "inputs": [],
      "name": "N",
      "outputs": [
        {
          "internalType": "uint256",
          "name": "",
          "type": "uint256"
        }
      ],
      "stateMutability": "view",
      "type": "function"
    },
    {
      "inputs": [],
      "name": "PP",
      "outputs": [
        {
          "internalType": "uint256",
          "name": "",
          "type": "uint256"
        }
      ],
      "stateMutability": "view",
      "type": "function"
    },
    {
      "inputs": [],
      "name": "getGX",
      "outputs": [
        {
          "internalType": "uint256",
          "name": "",
          "type": "uint256"
        }
      ],
      "stateMutability": "pure",
      "type": "function"
    },
    {
      "inputs": [],
      "name": "getGY",
      "outputs": [
        {
          "internalType": "uint256",
          "name": "",
          "type": "uint256"
        }
      ],
      "stateMutability": "pure",
      "type": "function"
    },
    {
      "inputs": [],
      "name": "getAA",
      "outputs": [
        {
          "internalType": "uint256",
          "name": "",
          "type": "uint256"
        }
      ],
      "stateMutability": "pure",
      "type": "function"
    },
    {
      "inputs": [],
      "name": "getBB",
      "outputs": [
        {
          "internalType": "uint256",
          "name": "",
          "type": "uint256"
        }
      ],
      "stateMutability": "pure",
      "type": "function"
    },
    {
      "inputs": [],
      "name": "getPP",
      "outputs": [
        {
          "internalType": "uint256",
          "name": "",
          "type": "uint256"
        }
      ],
      "stateMutability": "pure",
      "type": "function"
    },
    {
      "inputs": [],
      "name": "getN",
      "outputs": [
        {
          "internalType": "uint256",
          "name": "",
          "type": "uint256"
        }
      ],
      "stateMutability": "pure",
      "type": "function"
    }
  ],
  "bytecode": "0x6103d161004e600b8282823980515f1a607314610042577f4e487b71000000000000000000000000000000000000000000000000000000005f525f60045260245ffd5b305f52607381538281f3fe73000000000000000000000000000000000000000030146080604052600436106100bd575f3560e01c8063c52122be1161007a578063c52122be14610175578063c9e525df14610193578063e58e56c8146101b1578063eb2893fc146101cf578063eeeac01e146101ed578063fae2aea71461020b576100bd565b806303a507be146100c15780633e955225146100df5780635727dc5c146100fd5780637a308a4c1461011b578063997da8d414610139578063c0988f0f14610157575b5f80fd5b6100c9610229565b6040516100d69190610382565b60405180910390f35b6100e761024d565b6040516100f49190610382565b60405180910390f35b610105610274565b6040516101129190610382565b60405180910390f35b610123610279565b6040516101309190610382565b60405180910390f35b61014161029d565b60405161014e9190610382565b60405180910390f35b61015f6102a1565b60405161016c9190610382565b60405180910390f35b61017d6102c8565b60405161018a9190610382565b60405180910390f35b61019b6102d0565b6040516101a89190610382565b60405180910390f35b6101b96102f4565b6040516101c69190610382565b60405180910390f35b6101d76102f8565b6040516101e49190610382565b60405180910390f35b6101f561031f565b6040516102029190610382565b60405180910390f35b610213610343565b6040516102209190610382565b60405180910390f35b7f79be667ef9dcbbac55a06295ce870b07029bfcdb2dce28d959f2815b16f8179881565b5f7ffffffffffffffffffffffffffffffffebaaedce6af48a03bbfd25e8cd0364141905090565b600781565b7f483ada7726a3c4655da4fbfc0e1108a8fd17b448a68554199c47d08ffb10d4b881565b5f81565b5f7ffffffffffffffffffffffffffffffffffffffffffffffffffffffffefffffc2f905090565b5f6007905090565b7ffffffffffffffffffffffffffffffffebaaedce6af48a03bbfd25e8cd036414181565b5f90565b5f7f483ada7726a3c4655da4fbfc0e1108a8fd17b448a68554199c47d08ffb10d4b8905090565b7ffffffffffffffffffffffffffffffffffffffffffffffffffffffffefffffc2f81565b5f7f79be667ef9dcbbac55a06295ce870b07029bfcdb2dce28d959f2815b16f81798905090565b5f819050919050565b61037c8161036a565b82525050565b5f6020820190506103955f830184610373565b9291505056fea26469706673582212202a64d1ed3de5b26e007b26dc36add207ead120952aef4ffb94b52d48fc3ac9c164736f6c63430008140033",
  "immutableReferences": {},
  "source": "// SPDX-License-Identifier: MIT\r\n\r\npragma solidity >=0.7.3;\r\n\r\n/* \r\n* This library contains all the paramater of the elliptic curve Secp256k1\r\n* given the general curve y^2 = x^3 + ax + b defined over Fp\r\n* a is AA, b is BB, PP is the prime p\r\n* GX and GY are the coordinates of the base point\r\n* N is the order of the point\r\n*/\r\n\r\nlibrary Secp256k1 {\r\n    \r\n    uint256 public constant GX = 0x79BE667EF9DCBBAC55A06295CE870B07029BFCDB2DCE28D959F2815B16F81798;\r\n    uint256 public constant GY = 0x483ADA7726A3C4655DA4FBFC0E1108A8FD17B448A68554199C47D08FFB10D4B8;\r\n    uint256 public constant AA = 0;\r\n    uint256 public constant BB = 7;\r\n    uint256 public constant PP = 0xFFFFFFFFFFFFFFFFFFFFFFFFFFFFFFFFFFFFFFFFFFFFFFFFFFFFFFFEFFFFFC2F;\r\n    uint256 public constant N = 0xFFFFFFFFFFFFFFFFFFFFFFFFFFFFFFFEBAAEDCE6AF48A03BBFD25E8CD0364141;\r\n\r\n    function getGX() public pure returns (uint256){\r\n            return GX;\r\n    }\r\n\r\n    function getGY() public pure returns (uint256){\r\n            return GY;\r\n    }\r\n\r\n    function getAA() public pure returns (uint256){\r\n            return AA;\r\n    }\r\n\r\n    function getBB() public pure returns (uint256){\r\n            return BB;\r\n    }\r\n    \r\n    function getPP() public pure returns (uint256){\r\n            return PP;\r\n    }\r\n    function getN() public pure returns (uint256){\r\n            return N;\r\n    }\r\n\r\n}",
  "sourcePath": "C:\\Users\\annag\\OneDrive\\Desktop\\Varie\\Unitn\\Blockchain\\HouseLocker\\smart_contracts\\Affitto\\contracts\\Secp256k1.sol",
  "compiler": {
    "name": "solc",
    "version": "0.8.20+commit.a1b79de6.Emscripten.clang"
  },
  "schemaVersion": "3.4.14",
  "updatedAt": "2023-07-09T13:46:10.992Z",
  "devdoc": {
    "kind": "dev",
    "methods": {},
    "version": 1
  },
  "userdoc": {
    "kind": "user",
    "methods": {},
    "version": 1
  }
}