{
  "contractName": "Secp256k1",
  "abi": [
    {
      "inputs": [],
      "name": "AA",
      "outputs": [
        {
          "internalType": "uint256",
          "name": "",
          "type": "uint256"
        }
      ],
      "stateMutability": "view",
      "type": "function",
      "constant": true
    },
    {
      "inputs": [],
      "name": "BB",
      "outputs": [
        {
          "internalType": "uint256",
          "name": "",
          "type": "uint256"
        }
      ],
      "stateMutability": "view",
      "type": "function",
      "constant": true
    },
    {
      "inputs": [],
      "name": "GX",
      "outputs": [
        {
          "internalType": "uint256",
          "name": "",
          "type": "uint256"
        }
      ],
      "stateMutability": "view",
      "type": "function",
      "constant": true
    },
    {
      "inputs": [],
      "name": "GY",
      "outputs": [
        {
          "internalType": "uint256",
          "name": "",
          "type": "uint256"
        }
      ],
      "stateMutability": "view",
      "type": "function",
      "constant": true
    },
    {
      "inputs": [],
      "name": "N",
      "outputs": [
        {
          "internalType": "uint256",
          "name": "",
          "type": "uint256"
        }
      ],
      "stateMutability": "view",
      "type": "function",
      "constant": true
    },
    {
      "inputs": [],
      "name": "PP",
      "outputs": [
        {
          "internalType": "uint256",
          "name": "",
          "type": "uint256"
        }
      ],
      "stateMutability": "view",
      "type": "function",
      "constant": true
    },
    {
      "inputs": [],
      "name": "getGX",
      "outputs": [
        {
          "internalType": "uint256",
          "name": "",
          "type": "uint256"
        }
      ],
      "stateMutability": "pure",
      "type": "function",
      "constant": true
    },
    {
      "inputs": [],
      "name": "getGY",
      "outputs": [
        {
          "internalType": "uint256",
          "name": "",
          "type": "uint256"
        }
      ],
      "stateMutability": "pure",
      "type": "function",
      "constant": true
    },
    {
      "inputs": [],
      "name": "getAA",
      "outputs": [
        {
          "internalType": "uint256",
          "name": "",
          "type": "uint256"
        }
      ],
      "stateMutability": "pure",
      "type": "function",
      "constant": true
    },
    {
      "inputs": [],
      "name": "getBB",
      "outputs": [
        {
          "internalType": "uint256",
          "name": "",
          "type": "uint256"
        }
      ],
      "stateMutability": "pure",
      "type": "function",
      "constant": true
    },
    {
      "inputs": [],
      "name": "getPP",
      "outputs": [
        {
          "internalType": "uint256",
          "name": "",
          "type": "uint256"
        }
      ],
      "stateMutability": "pure",
      "type": "function",
      "constant": true
    },
    {
      "inputs": [],
      "name": "getN",
      "outputs": [
        {
          "internalType": "uint256",
          "name": "",
          "type": "uint256"
        }
      ],
      "stateMutability": "pure",
      "type": "function",
      "constant": true
    }
  ],
  "bytecode": "0x6103d161004e600b8282823980515f1a607314610042577f4e487b71000000000000000000000000000000000000000000000000000000005f525f60045260245ffd5b305f52607381538281f3fe73000000000000000000000000000000000000000030146080604052600436106100bd575f3560e01c8063c52122be1161007a578063c52122be14610175578063c9e525df14610193578063e58e56c8146101b1578063eb2893fc146101cf578063eeeac01e146101ed578063fae2aea71461020b576100bd565b806303a507be146100c15780633e955225146100df5780635727dc5c146100fd5780637a308a4c1461011b578063997da8d414610139578063c0988f0f14610157575b5f80fd5b6100c9610229565b6040516100d69190610382565b60405180910390f35b6100e761024d565b6040516100f49190610382565b60405180910390f35b610105610274565b6040516101129190610382565b60405180910390f35b610123610279565b6040516101309190610382565b60405180910390f35b61014161029d565b60405161014e9190610382565b60405180910390f35b61015f6102a1565b60405161016c9190610382565b60405180910390f35b61017d6102c8565b60405161018a9190610382565b60405180910390f35b61019b6102d0565b6040516101a89190610382565b60405180910390f35b6101b96102f4565b6040516101c69190610382565b60405180910390f35b6101d76102f8565b6040516101e49190610382565b60405180910390f35b6101f561031f565b6040516102029190610382565b60405180910390f35b610213610343565b6040516102209190610382565b60405180910390f35b7f79be667ef9dcbbac55a06295ce870b07029bfcdb2dce28d959f2815b16f8179881565b5f7ffffffffffffffffffffffffffffffffebaaedce6af48a03bbfd25e8cd0364141905090565b600781565b7f483ada7726a3c4655da4fbfc0e1108a8fd17b448a68554199c47d08ffb10d4b881565b5f81565b5f7ffffffffffffffffffffffffffffffffffffffffffffffffffffffffefffffc2f905090565b5f6007905090565b7ffffffffffffffffffffffffffffffffebaaedce6af48a03bbfd25e8cd036414181565b5f90565b5f7f483ada7726a3c4655da4fbfc0e1108a8fd17b448a68554199c47d08ffb10d4b8905090565b7ffffffffffffffffffffffffffffffffffffffffffffffffffffffffefffffc2f81565b5f7f79be667ef9dcbbac55a06295ce870b07029bfcdb2dce28d959f2815b16f81798905090565b5f819050919050565b61037c8161036a565b82525050565b5f6020820190506103955f830184610373565b9291505056fea2646970667358221220daa595cd9fadd050d5cd473362c2b788c9da3623e8a0cf47d88c1393fb466ba364736f6c63430008140033",
  "immutableReferences": {},
  "source": "// SPDX-License-Identifier: MIT\n\npragma solidity >=0.7.3;\n\nlibrary Secp256k1 {\n    uint256 public constant GX = 0x79BE667EF9DCBBAC55A06295CE870B07029BFCDB2DCE28D959F2815B16F81798;\n    uint256 public constant GY = 0x483ADA7726A3C4655DA4FBFC0E1108A8FD17B448A68554199C47D08FFB10D4B8;\n    uint256 public constant AA = 0;\n    uint256 public constant BB = 7;\n    uint256 public constant PP = 0xFFFFFFFFFFFFFFFFFFFFFFFFFFFFFFFFFFFFFFFFFFFFFFFFFFFFFFFEFFFFFC2F;\n    uint256 public constant N = 0xFFFFFFFFFFFFFFFFFFFFFFFFFFFFFFFEBAAEDCE6AF48A03BBFD25E8CD0364141;\n\n    function getGX() public pure returns (uint256){\n            return GX;\n    }\n\n    function getGY() public pure returns (uint256){\n            return GY;\n    }\n\n    function getAA() public pure returns (uint256){\n            return AA;\n    }\n\n    function getBB() public pure returns (uint256){\n            return BB;\n    }\n    \n    function getPP() public pure returns (uint256){\n            return PP;\n    }\n    function getN() public pure returns (uint256){\n            return N;\n    }\n\n}",
  "sourcePath": "/home/davipase/Blockchain/HouseLocker/smart_contracts/Affitto/contracts/Secp256k1.sol",
  "compiler": {
    "name": "solc",
    "version": "0.8.20+commit.a1b79de6.Emscripten.clang"
  },
  "schemaVersion": "3.4.14",
  "updatedAt": "2023-06-23T17:40:01.751Z",
  "networkType": "ethereum",
  "devdoc": {
    "kind": "dev",
    "methods": {},
    "version": 1
  },
  "userdoc": {
    "kind": "user",
    "methods": {},
    "version": 1
  }
}