{
  "contractName": "zkp",
  "abi": [
    {
      "inputs": [
        {
          "internalType": "uint256",
          "name": "x",
          "type": "uint256"
        }
      ],
      "name": "Prover",
      "outputs": [
        {
          "internalType": "uint256",
          "name": "",
          "type": "uint256"
        },
        {
          "internalType": "uint256",
          "name": "",
          "type": "uint256"
        },
        {
          "internalType": "uint256",
          "name": "",
          "type": "uint256"
        },
        {
          "internalType": "uint256",
          "name": "",
          "type": "uint256"
        },
        {
          "internalType": "uint256",
          "name": "",
          "type": "uint256"
        },
        {
          "internalType": "uint256",
          "name": "",
          "type": "uint256"
        }
      ],
      "stateMutability": "view",
      "type": "function"
    },
    {
      "inputs": [
        {
          "internalType": "uint256",
          "name": "ux",
          "type": "uint256"
        },
        {
          "internalType": "uint256",
          "name": "uy",
          "type": "uint256"
        },
        {
          "internalType": "uint256",
          "name": "c",
          "type": "uint256"
        },
        {
          "internalType": "uint256",
          "name": "z",
          "type": "uint256"
        },
        {
          "internalType": "uint256",
          "name": "hx",
          "type": "uint256"
        },
        {
          "internalType": "uint256",
          "name": "hy",
          "type": "uint256"
        }
      ],
      "name": "Verifier",
      "outputs": [
        {
          "internalType": "bool",
          "name": "",
          "type": "bool"
        }
      ],
      "stateMutability": "pure",
      "type": "function"
    },
    {
      "inputs": [
        {
          "internalType": "uint256",
          "name": "x",
          "type": "uint256"
        }
      ],
      "name": "test",
      "outputs": [
        {
          "internalType": "bool",
          "name": "",
          "type": "bool"
        }
      ],
      "stateMutability": "view",
      "type": "function"
    }
  ],
  "bytecode": "0x61179261004e600b8282823980515f1a607314610042577f4e487b71000000000000000000000000000000000000000000000000000000005f525f60045260245ffd5b305f52607381538281f3fe730000000000000000000000000000000000000000301460806040526004361061004a575f3560e01c806329e99f071461004e5780636c2b90fd1461007e578063cbfce020146100b3575b5f80fd5b6100686004803603810190610063919061125d565b6100e3565b60405161007591906112a2565b60405180910390f35b6100986004803603810190610093919061125d565b61011f565b6040516100aa969594939291906112ca565b60405180910390f35b6100cd60048036038101906100c89190611329565b610571565b6040516100da91906112a2565b60405180910390f35b5f805f805f805f6100f38861011f565b9550955095509550955095505f61010e878787878787610571565b905080975050505050505050919050565b5f805f805f805f7ffffffffffffffffffffffffffffffffebaaedce6af48a03bbfd25e8cd0364141444260405160200161015a9291906113d2565b604051602081830303815290604052805190602001205f1c61017c919061142a565b90505f806101ed8a7f79be667ef9dcbbac55a06295ce870b07029bfcdb2dce28d959f2815b16f817987f483ada7726a3c4655da4fbfc0e1108a8fd17b448a68554199c47d08ffb10d4b85f7ffffffffffffffffffffffffffffffffffffffffffffffffffffffffefffffc2f61072d565b915091505f80610260857f79be667ef9dcbbac55a06295ce870b07029bfcdb2dce28d959f2815b16f817987f483ada7726a3c4655da4fbfc0e1108a8fd17b448a68554199c47d08ffb10d4b85f7ffffffffffffffffffffffffffffffffffffffffffffffffffffffffefffffc2f61072d565b915091505f600383837f79be667ef9dcbbac55a06295ce870b07029bfcdb2dce28d959f2815b16f817987f483ada7726a3c4655da4fbfc0e1108a8fd17b448a68554199c47d08ffb10d4b889896040516020016102c29695949392919061145a565b6040516020818303038152906040526040516102de9190611535565b602060405180830381855afa1580156102f9573d5f803e3d5ffd5b5050506040515160601b60601c73ffffffffffffffffffffffffffffffffffffffff1690505f7ffffffffffffffffffffffffffffffffebaaedce6af48a03bbfd25e8cd03641418061034e5761034d6113fd565b5b828f0990505f8060027ffffffffffffffffffffffffffffffffebaaedce6af48a03bbfd25e8cd03641416103829190611578565b8911156103cc5760027ffffffffffffffffffffffffffffffffebaaedce6af48a03bbfd25e8cd03641416103b69190611578565b896103c191906115a8565b985060019150600190505b60027ffffffffffffffffffffffffffffffffebaaedce6af48a03bbfd25e8cd03641416103f99190611578565b8311156104435760027ffffffffffffffffffffffffffffffffebaaedce6af48a03bbfd25e8cd036414161042d9190611578565b8361043891906115a8565b925081159150600190505b5f821561051757898461045691906115db565b905060027ffffffffffffffffffffffffffffffffebaaedce6af48a03bbfd25e8cd03641416104859190611578565b8111156104d757600160027ffffffffffffffffffffffffffffffffebaaedce6af48a03bbfd25e8cd03641416104bb9190611578565b6104c591906115db565b816104d091906115a8565b9050610512565b60027ffffffffffffffffffffffffffffffffebaaedce6af48a03bbfd25e8cd03641416105049190611578565b8161050f91906115db565b90505b61054c565b811561053c5760018a8561052b91906115db565b61053591906115a8565b905061054b565b898461054891906115db565b90505b5b868686838c8c9f509f509f509f509f509f505050505050505050505091939550919395565b5f805f6105a18786865f7ffffffffffffffffffffffffffffffffffffffffffffffffffffffffefffffc2f61072d565b915091505f80610614887f79be667ef9dcbbac55a06295ce870b07029bfcdb2dce28d959f2815b16f817987f483ada7726a3c4655da4fbfc0e1108a8fd17b448a68554199c47d08ffb10d4b85f7ffffffffffffffffffffffffffffffffffffffffffffffffffffffffefffffc2f61072d565b915091505f806106488d8d88885f7ffffffffffffffffffffffffffffffffffffffffffffffffffffffffefffffc2f610764565b9150915060038d8d7f79be667ef9dcbbac55a06295ce870b07029bfcdb2dce28d959f2815b16f817987f483ada7726a3c4655da4fbfc0e1108a8fd17b448a68554199c47d08ffb10d4b88d8d6040516020016106a99695949392919061145a565b6040516020818303038152906040526040516106c59190611535565b602060405180830381855afa1580156106e0573d5f803e3d5ffd5b5050506040515160601b60601c73ffffffffffffffffffffffffffffffffffffffff168b14801561071057508184145b801561071b57508083145b96505050505050509695505050505050565b5f805f805f6107418a8a8a60018b8b6107f2565b9250925092506107538383838961088a565b945094505050509550959350505050565b5f805f805f888b036107b5575f86806107805761077f6113fd565b5b898c0803610796575f80945094505050506107e7565b6107a48b8b60018a8a6108fc565b8093508194508295505050506107d3565b6107c68b8b60018c8c60018c610ab3565b8093508194508295505050505b6107df8383838961088a565b945094505050505b965096945050505050565b5f805f80890361080a5787878792509250925061087e565b5f8990505f805f600190505b5f8414610870575f6001851614610843576108368383838f8f8f8e610ab3565b8093508194508295505050505b6002846108509190611578565b935061085f8c8c8c8c8c6108fc565b809c50819d50829e50505050610816565b828282965096509650505050505b96509650969350505050565b5f805f610897858561111e565b90505f84806108a9576108a86113fd565b5b82830990505f85806108be576108bd6113fd565b5b828a0990505f86806108d3576108d26113fd565b5b87806108e2576108e16113fd565b5b8486098a0990508181955095505050505094509492505050565b5f805f80860361091457878787925092509250610aa8565b5f8480610924576109236113fd565b5b898a0990505f8580610939576109386113fd565b5b898a0990505f868061094e5761094d6113fd565b5b898a0990505f8780610963576109626113fd565b5b8880610972576109716113fd565b5b848e0960040990505f888061098a576109896113fd565b5b8980610999576109986113fd565b5b8a806109a8576109a76113fd565b5b8586098c098a806109bc576109bb6113fd565b5b8760030908905088806109d2576109d16113fd565b5b89806109e1576109e06113fd565b5b8384088a6109ef91906115a8565b8a806109fe576109fd6113fd565b5b8384090894508880610a1357610a126113fd565b5b8980610a2257610a216113fd565b5b8a80610a3157610a306113fd565b5b8687096008098a610a4291906115a8565b8a80610a5157610a506113fd565b5b8b80610a6057610a5f6113fd565b5b888d610a6c91906115a8565b860884090893508880610a8257610a816113fd565b5b8980610a9157610a906113fd565b5b8c8e09600209925084848497509750975050505050505b955095509592505050565b5f805f808a148015610ac457505f89145b15610ad757868686925092509250611111565b5f87148015610ae557505f86145b15610af857898989925092509250611111565b610b00611204565b8480610b0f57610b0e6113fd565b5b898a09815f60048110610b2557610b2461160e565b5b6020020181815250508480610b3d57610b3c6113fd565b5b815f60048110610b5057610b4f61160e565b5b60200201518a0981600160048110610b6b57610b6a61160e565b5b6020020181815250508480610b8357610b826113fd565b5b86870981600260048110610b9a57610b9961160e565b5b6020020181815250508480610bb257610bb16113fd565b5b81600260048110610bc657610bc561160e565b5b6020020151870981600360048110610be157610be061160e565b5b60200201818152505060405180608001604052808680610c0457610c036113fd565b5b83600260048110610c1857610c1761160e565b5b60200201518e0981526020018680610c3357610c326113fd565b5b83600360048110610c4757610c4661160e565b5b60200201518d0981526020018680610c6257610c616113fd565b5b835f60048110610c7557610c7461160e565b5b60200201518b0981526020018680610c9057610c8f6113fd565b5b83600160048110610ca457610ca361160e565b5b60200201518a09815250905080600260048110610cc457610cc361160e565b5b6020020151815f60048110610cdc57610cdb61160e565b5b6020020151141580610d1e575080600360048110610cfd57610cfc61160e565b5b602002015181600160048110610d1657610d1561160e565b5b602002015114155b610d5d576040517f08c379a0000000000000000000000000000000000000000000000000000000008152600401610d5490611695565b60405180910390fd5b610d65611204565b8580610d7457610d736113fd565b5b825f60048110610d8757610d8661160e565b5b602002015187610d9791906115a8565b83600260048110610dab57610daa61160e565b5b602002015108815f60048110610dc457610dc361160e565b5b6020020181815250508580610ddc57610ddb6113fd565b5b82600160048110610df057610def61160e565b5b602002015187610e0091906115a8565b83600360048110610e1457610e1361160e565b5b60200201510881600160048110610e2e57610e2d61160e565b5b6020020181815250508580610e4657610e456113fd565b5b815f60048110610e5957610e5861160e565b5b6020020151825f60048110610e7157610e7061160e565b5b60200201510981600260048110610e8b57610e8a61160e565b5b6020020181815250508580610ea357610ea26113fd565b5b815f60048110610eb657610eb561160e565b5b602002015182600260048110610ecf57610ece61160e565b5b60200201510981600360048110610ee957610ee861160e565b5b6020020181815250505f8680610f0257610f016113fd565b5b82600360048110610f1657610f1561160e565b5b602002015188610f2691906115a8565b8880610f3557610f346113fd565b5b84600160048110610f4957610f4861160e565b5b602002015185600160048110610f6257610f6161160e565b5b6020020151090890508680610f7a57610f796113fd565b5b8780610f8957610f886113fd565b5b8880610f9857610f976113fd565b5b84600260048110610fac57610fab61160e565b5b6020020151865f60048110610fc457610fc361160e565b5b60200201510960020988610fd891906115a8565b820890505f8780610fec57610feb6113fd565b5b8880610ffb57610ffa6113fd565b5b838a61100791906115a8565b8a80611016576110156113fd565b5b8660026004811061102a5761102961160e565b5b6020020151885f600481106110425761104161160e565b5b602002015109088460016004811061105d5761105c61160e565b5b60200201510990508780611074576110736113fd565b5b8880611083576110826113fd565b5b846003600481106110975761109661160e565b5b6020020151866001600481106110b0576110af61160e565b5b602002015109896110c191906115a8565b820890505f88806110d5576110d46113fd565b5b89806110e4576110e36113fd565b5b8b8f09855f600481106110fa576110f961160e565b5b602002015109905082828297509750975050505050505b9750975097945050505050565b5f80831415801561112f5750818314155b801561113b57505f8214155b61117a576040517f08c379a0000000000000000000000000000000000000000000000000000000008152600401611171906116fd565b60405180910390fd5b5f80600190505f8490505f5b5f87146111f75786826111999190611578565b90508286806111ab576111aa6113fd565b5b87806111ba576111b96113fd565b5b858409886111c891906115a8565b860880945081955050508687826111df919061171b565b836111ea91906115a8565b8098508193505050611186565b8394505050505092915050565b6040518060800160405280600490602082028036833780820191505090505090565b5f80fd5b5f819050919050565b61123c8161122a565b8114611246575f80fd5b50565b5f8135905061125781611233565b92915050565b5f6020828403121561127257611271611226565b5b5f61127f84828501611249565b91505092915050565b5f8115159050919050565b61129c81611288565b82525050565b5f6020820190506112b55f830184611293565b92915050565b6112c48161122a565b82525050565b5f60c0820190506112dd5f8301896112bb565b6112ea60208301886112bb565b6112f760408301876112bb565b61130460608301866112bb565b61131160808301856112bb565b61131e60a08301846112bb565b979650505050505050565b5f805f805f8060c0878903121561134357611342611226565b5b5f61135089828a01611249565b965050602061136189828a01611249565b955050604061137289828a01611249565b945050606061138389828a01611249565b935050608061139489828a01611249565b92505060a06113a589828a01611249565b9150509295509295509295565b5f819050919050565b6113cc6113c78261122a565b6113b2565b82525050565b5f6113dd82856113bb565b6020820191506113ed82846113bb565b6020820191508190509392505050565b7f4e487b71000000000000000000000000000000000000000000000000000000005f52601260045260245ffd5b5f6114348261122a565b915061143f8361122a565b92508261144f5761144e6113fd565b5b828206905092915050565b5f61146582896113bb565b60208201915061147582886113bb565b60208201915061148582876113bb565b60208201915061149582866113bb565b6020820191506114a582856113bb565b6020820191506114b582846113bb565b602082019150819050979650505050505050565b5f81519050919050565b5f81905092915050565b5f5b838110156114fa5780820151818401526020810190506114df565b5f8484015250505050565b5f61150f826114c9565b61151981856114d3565b93506115298185602086016114dd565b80840191505092915050565b5f6115408284611505565b915081905092915050565b7f4e487b71000000000000000000000000000000000000000000000000000000005f52601160045260245ffd5b5f6115828261122a565b915061158d8361122a565b92508261159d5761159c6113fd565b5b828204905092915050565b5f6115b28261122a565b91506115bd8361122a565b92508282039050818111156115d5576115d461154b565b5b92915050565b5f6115e58261122a565b91506115f08361122a565b92508282019050808211156116085761160761154b565b5b92915050565b7f4e487b71000000000000000000000000000000000000000000000000000000005f52603260045260245ffd5b5f82825260208201905092915050565b7f557365206a6163446f75626c652066756e6374696f6e20696e737465616400005f82015250565b5f61167f601e8361163b565b915061168a8261164b565b602082019050919050565b5f6020820190508181035f8301526116ac81611673565b9050919050565b7f496e76616c6964206e756d6265720000000000000000000000000000000000005f82015250565b5f6116e7600e8361163b565b91506116f2826116b3565b602082019050919050565b5f6020820190508181035f830152611714816116db565b9050919050565b5f6117258261122a565b91506117308361122a565b925082820261173e8161122a565b915082820484148315176117555761175461154b565b5b509291505056fea264697066735822122012bc90442a79980cf71ef9cf9c2e0bd90bc80bbaa9df138a07344939e0b4939664736f6c63430008140033",
  "immutableReferences": {},
  "source": "// SPDX-License-Identifier: MIT\r\n// compiler version must be greater than or equal to 0.8.17 and less than 0.9.0\r\npragma solidity ^0.8.17;\r\nimport \"./Secp256k1.sol\";\r\nimport \"./EllipticCurve.sol\";\r\nimport \"./EllipticCurveFastMult.sol\";\r\n//import \"./SafeMath.sol\";\r\n//import \"./SafeMath.sol\";\r\n\r\n\r\n/*\r\n* zkp is a library for a special type of zero-kowledge-proof.\r\n* We use the elliptic curve Secp256k1 for operations. \r\n* The constant variables at the beginning of the contract are paramenters of Secp256k1.\r\n*/  \r\n\r\n\r\nlibrary zkp{\r\n\r\n        // The function Prover yields a proof (a sextuple) for the ownership of the value x, which can be considered a private key \r\n        // or any other private code, like a password \r\n        function Prover(uint256 x) public view returns (uint256, uint256, uint256, uint256, uint256, uint256) {\r\n                uint256 r = uint256(keccak256(abi.encodePacked(block.difficulty, block.timestamp))) % Secp256k1.N;\r\n                (uint256 hx,uint256 hy) = EllipticCurve.ecMul(x, Secp256k1.GX, Secp256k1.GY, Secp256k1.AA, Secp256k1.PP);\r\n                (uint256 ux,uint256 uy) = EllipticCurve.ecMul(r, Secp256k1.GX, Secp256k1.GY, Secp256k1.AA, Secp256k1.PP);         \r\n                uint256 c256 = uint256(uint160(ripemd160(abi.encodePacked(ux,uy,Secp256k1.GX,Secp256k1.GY,hx,hy)))); \r\n                //built-in function for multiplication mod N (that solves overflow problems)\r\n                uint256 cx = mulmod(x, c256, Secp256k1.N);\r\n                bool check= false;\r\n                bool check2=false;\r\n                //to avoid the overflow of cx + r we perform some modular algebra\r\n                if (r > Secp256k1.N/2){\r\n                        r = r-Secp256k1.N/2;\r\n                        check = true;\r\n                        check2= true;\r\n                }\r\n                if (cx > Secp256k1.N/2){\r\n                        cx = cx-Secp256k1.N/2;\r\n                        check = !check;\r\n                        check2=true;\r\n                }\r\n                uint256 z = 0;\r\n                if (check){\r\n                    z = cx + r;\r\n                    if (z>Secp256k1.N/2){ z -= (Secp256k1.N/2+1);}\r\n                    else {z += Secp256k1.N/2;}    \r\n                }\r\n                else{ \r\n                        if(check2){z = cx + r - 1;}\r\n                        else {z = cx + r;}}\r\n                return (ux, uy, c256, z, hx, hy);\r\n        }\r\n\r\n        //* The function verify takes as input the sextuple generated by Prover and an encrypted value with the key x\r\n        function Verifier(uint256 ux, uint256 uy, uint256 c, uint256 z, uint256 hx, uint256 hy) public pure returns (bool){\r\n            (uint256 h_cx, uint256 h_cy) = EllipticCurve.ecMul(c, hx, hy, Secp256k1.AA, Secp256k1.PP);\r\n            (uint256 point1_x, uint256 point1_y) =  EllipticCurve.ecMul(z, Secp256k1.GX, Secp256k1.GY, Secp256k1.AA, Secp256k1.PP);\r\n            (uint256 point2_x, uint256 point2_y) = EllipticCurve.ecAdd(ux, uy, h_cx, h_cy, Secp256k1.AA, Secp256k1.PP);\r\n            return c ==uint256(uint160(ripemd160(abi.encodePacked(ux,uy,Secp256k1.GX,Secp256k1.GY,hx,hy))))  && point1_x == point2_x && point1_y == point2_y;\r\n        }\r\n\r\n        // used to test library functionalities\r\n        function test (uint256 x) public view returns (bool){\r\n                (uint256 a, uint256 b, uint256 c, uint256 d, uint256 e, uint256 f) = Prover(x);\r\n                bool v = Verifier(a, b, c, d, e, f);\r\n                return v;\r\n        }\r\n}",
  "sourcePath": "C:\\Users\\annag\\OneDrive\\Desktop\\Varie\\Unitn\\Blockchain\\HouseLocker\\smart_contracts\\Affitto\\contracts\\zkp.sol",
  "compiler": {
    "name": "solc",
    "version": "0.8.20+commit.a1b79de6.Emscripten.clang"
  },
  "schemaVersion": "3.4.14",
  "updatedAt": "2023-07-09T13:46:11.014Z",
  "devdoc": {
    "kind": "dev",
    "methods": {},
    "version": 1
  },
  "userdoc": {
    "kind": "user",
    "methods": {},
    "version": 1
  }
}