{
  "contractName": "accountVerification",
  "abi": [
    {
      "inputs": [
        {
          "internalType": "bytes32",
          "name": "pr_k",
          "type": "bytes32"
        }
      ],
      "name": "getPub_kFromPriv_k",
      "outputs": [
        {
          "internalType": "bytes32",
          "name": "",
          "type": "bytes32"
        },
        {
          "internalType": "bytes32",
          "name": "",
          "type": "bytes32"
        }
      ],
      "stateMutability": "pure",
      "type": "function"
    },
    {
      "inputs": [
        {
          "internalType": "bytes32",
          "name": "x",
          "type": "bytes32"
        },
        {
          "internalType": "bytes32",
          "name": "y",
          "type": "bytes32"
        }
      ],
      "name": "getAddressFromPub_k",
      "outputs": [
        {
          "internalType": "bytes20",
          "name": "",
          "type": "bytes20"
        }
      ],
      "stateMutability": "pure",
      "type": "function"
    },
    {
      "inputs": [
        {
          "internalType": "bytes32",
          "name": "pr_k",
          "type": "bytes32"
        },
        {
          "internalType": "address",
          "name": "a",
          "type": "address"
        }
      ],
      "name": "verify",
      "outputs": [
        {
          "internalType": "bool",
          "name": "",
          "type": "bool"
        }
      ],
      "stateMutability": "pure",
      "type": "function"
    },
    {
      "inputs": [
        {
          "internalType": "bytes32",
          "name": "pr_k",
          "type": "bytes32"
        }
      ],
      "name": "zkp_accountGen",
      "outputs": [
        {
          "internalType": "uint256",
          "name": "",
          "type": "uint256"
        },
        {
          "internalType": "uint256",
          "name": "",
          "type": "uint256"
        },
        {
          "internalType": "uint256",
          "name": "",
          "type": "uint256"
        },
        {
          "internalType": "uint256",
          "name": "",
          "type": "uint256"
        },
        {
          "internalType": "uint256",
          "name": "",
          "type": "uint256"
        },
        {
          "internalType": "uint256",
          "name": "",
          "type": "uint256"
        }
      ],
      "stateMutability": "view",
      "type": "function"
    },
    {
      "inputs": [
        {
          "internalType": "uint256",
          "name": "ux",
          "type": "uint256"
        },
        {
          "internalType": "uint256",
          "name": "uy",
          "type": "uint256"
        },
        {
          "internalType": "uint256",
          "name": "c",
          "type": "uint256"
        },
        {
          "internalType": "uint256",
          "name": "z",
          "type": "uint256"
        },
        {
          "internalType": "uint256",
          "name": "hx",
          "type": "uint256"
        },
        {
          "internalType": "uint256",
          "name": "hy",
          "type": "uint256"
        }
      ],
      "name": "zkp_accountVer",
      "outputs": [
        {
          "internalType": "bool",
          "name": "",
          "type": "bool"
        }
      ],
      "stateMutability": "view",
      "type": "function"
    },
    {
      "inputs": [
        {
          "internalType": "uint256",
          "name": "ux",
          "type": "uint256"
        },
        {
          "internalType": "uint256",
          "name": "uy",
          "type": "uint256"
        },
        {
          "internalType": "uint256",
          "name": "c",
          "type": "uint256"
        },
        {
          "internalType": "uint256",
          "name": "z",
          "type": "uint256"
        },
        {
          "internalType": "uint256",
          "name": "hx",
          "type": "uint256"
        },
        {
          "internalType": "uint256",
          "name": "hy",
          "type": "uint256"
        },
        {
          "internalType": "address",
          "name": "addr",
          "type": "address"
        }
      ],
      "name": "zkp_accountVer",
      "outputs": [
        {
          "internalType": "bool",
          "name": "",
          "type": "bool"
        }
      ],
      "stateMutability": "pure",
      "type": "function"
    },
    {
      "inputs": [
        {
          "internalType": "bytes32",
          "name": "b",
          "type": "bytes32"
        },
        {
          "internalType": "address",
          "name": "addr",
          "type": "address"
        }
      ],
      "name": "test",
      "outputs": [
        {
          "internalType": "bool",
          "name": "",
          "type": "bool"
        }
      ],
      "stateMutability": "view",
      "type": "function"
    }
  ],
  "bytecode": "0x608060405234801561000f575f80fd5b50611a218061001d5f395ff3fe608060405234801561000f575f80fd5b506004361061007b575f3560e01c8063b88fbd2d11610059578063b88fbd2d14610110578063c6dc6c5b14610140578063eabfdb2214610170578063eb6edd38146101a55761007b565b8063248bc8021461007f578063478bf16d146100b057806357c35aa6146100e0575b5f80fd5b610099600480360381019061009491906111bf565b6101d5565b6040516100a79291906111f9565b60405180910390f35b6100ca60048036038101906100c5919061127a565b6103a5565b6040516100d791906112d2565b60405180910390f35b6100fa60048036038101906100f5919061131e565b6103de565b60405161010791906112d2565b60405180910390f35b61012a6004803603810190610125919061127a565b6104b2565b60405161013791906112d2565b60405180910390f35b61015a600480360381019061015591906113a7565b61050c565b604051610167919061141f565b60405180910390f35b61018a600480360381019061018591906111bf565b6105b5565b60405161019c96959493929190611447565b60405180910390f35b6101bf60048036038101906101ba91906114a6565b610648565b6040516101cc91906112d2565b60405180910390f35b5f805f80610390855f1c73__Secp256k1_____________________________63fae2aea76040518163ffffffff1660e01b8152600401602060405180830381865af4158015610226573d5f803e3d5ffd5b505050506040513d601f19601f8201168201806040525081019061024a9190611557565b73__Secp256k1_____________________________63eb2893fc6040518163ffffffff1660e01b8152600401602060405180830381865af4158015610291573d5f803e3d5ffd5b505050506040513d601f19601f820116820180604052508101906102b59190611557565b73__Secp256k1_____________________________63e58e56c86040518163ffffffff1660e01b8152600401602060405180830381865af41580156102fc573d5f803e3d5ffd5b505050506040513d601f19601f820116820180604052508101906103209190611557565b73__Secp256k1_____________________________63c0988f0f6040518163ffffffff1660e01b8152600401602060405180830381865af4158015610367573d5f803e3d5ffd5b505050506040513d601f19601f8201168201806040525081019061038b9190611557565b61071d565b91509150815f1b815f1b935093505050915091565b5f805f805f805f6103b5896105b5565b9550955095509550955095506103d08686868686868e610648565b965050505050505092915050565b5f73__zkp___________________________________63cbfce0208888888888886040518763ffffffff1660e01b815260040161042096959493929190611591565b602060405180830381865af415801561043b573d5f803e3d5ffd5b505050506040513d601f19601f8201168201806040525081019061045f919061161a565b80156104a657503373ffffffffffffffffffffffffffffffffffffffff1661048b845f1b845f1b61050c565b60601c73ffffffffffffffffffffffffffffffffffffffff16145b90509695505050505050565b5f805f6104be856101d5565b915091505f6104cd838361050c565b90508060601c73ffffffffffffffffffffffffffffffffffffffff168573ffffffffffffffffffffffffffffffffffffffff1614935050505092915050565b5f808360405160200161051f9190611665565b60405160208183030381529060405290505f836040516020016105429190611665565b60405160208183030381529060405290505f82826040516020016105679291906116eb565b6040516020818303038152906040528051906020012090505f74010000000000000000000000000000000000000000825f1c6105a3919061173b565b90508060601b94505050505092915050565b5f805f805f8073__zkp___________________________________636c2b90fd885f1c6040518263ffffffff1660e01b81526004016105f4919061176b565b60c060405180830381865af415801561060f573d5f803e3d5ffd5b505050506040513d601f19601f820116820180604052508101906106339190611784565b95509550955095509550955091939550919395565b5f73__zkp___________________________________63cbfce0208989898989896040518763ffffffff1660e01b815260040161068a96959493929190611591565b602060405180830381865af41580156106a5573d5f803e3d5ffd5b505050506040513d601f19601f820116820180604052508101906106c9919061161a565b801561071057508173ffffffffffffffffffffffffffffffffffffffff166106f5855f1b855f1b61050c565b60601c73ffffffffffffffffffffffffffffffffffffffff16145b9050979650505050505050565b5f805f805f6107318a8a8a60018b8b610754565b925092509250610743838383896107ec565b945094505050509550959350505050565b5f805f80890361076c578787879250925092506107e0565b5f8990505f805f600190505b5f84146107d2575f60018516146107a5576107988383838f8f8f8e61085e565b8093508194508295505050505b6002846107b2919061183a565b93506107c18c8c8c8c8c610ec9565b809c50819d50829e50505050610778565b828282965096509650505050505b96509650969350505050565b5f805f6107f98585611080565b90505f848061080b5761080a61170e565b5b82830990505f85806108205761081f61170e565b5b828a0990505f86806108355761083461170e565b5b87806108445761084361170e565b5b8486098a0990508181955095505050505094509492505050565b5f805f808a14801561086f57505f89145b1561088257868686925092509250610ebc565b5f8714801561089057505f86145b156108a357898989925092509250610ebc565b6108ab611166565b84806108ba576108b961170e565b5b898a09815f600481106108d0576108cf61186a565b5b60200201818152505084806108e8576108e761170e565b5b815f600481106108fb576108fa61186a565b5b60200201518a09816001600481106109165761091561186a565b5b602002018181525050848061092e5761092d61170e565b5b868709816002600481106109455761094461186a565b5b602002018181525050848061095d5761095c61170e565b5b816002600481106109715761097061186a565b5b602002015187098160036004811061098c5761098b61186a565b5b602002018181525050604051806080016040528086806109af576109ae61170e565b5b836002600481106109c3576109c261186a565b5b60200201518e09815260200186806109de576109dd61170e565b5b836003600481106109f2576109f161186a565b5b60200201518d0981526020018680610a0d57610a0c61170e565b5b835f60048110610a2057610a1f61186a565b5b60200201518b0981526020018680610a3b57610a3a61170e565b5b83600160048110610a4f57610a4e61186a565b5b60200201518a09815250905080600260048110610a6f57610a6e61186a565b5b6020020151815f60048110610a8757610a8661186a565b5b6020020151141580610ac9575080600360048110610aa857610aa761186a565b5b602002015181600160048110610ac157610ac061186a565b5b602002015114155b610b08576040517f08c379a0000000000000000000000000000000000000000000000000000000008152600401610aff906118f1565b60405180910390fd5b610b10611166565b8580610b1f57610b1e61170e565b5b825f60048110610b3257610b3161186a565b5b602002015187610b42919061190f565b83600260048110610b5657610b5561186a565b5b602002015108815f60048110610b6f57610b6e61186a565b5b6020020181815250508580610b8757610b8661170e565b5b82600160048110610b9b57610b9a61186a565b5b602002015187610bab919061190f565b83600360048110610bbf57610bbe61186a565b5b60200201510881600160048110610bd957610bd861186a565b5b6020020181815250508580610bf157610bf061170e565b5b815f60048110610c0457610c0361186a565b5b6020020151825f60048110610c1c57610c1b61186a565b5b60200201510981600260048110610c3657610c3561186a565b5b6020020181815250508580610c4e57610c4d61170e565b5b815f60048110610c6157610c6061186a565b5b602002015182600260048110610c7a57610c7961186a565b5b60200201510981600360048110610c9457610c9361186a565b5b6020020181815250505f8680610cad57610cac61170e565b5b82600360048110610cc157610cc061186a565b5b602002015188610cd1919061190f565b8880610ce057610cdf61170e565b5b84600160048110610cf457610cf361186a565b5b602002015185600160048110610d0d57610d0c61186a565b5b6020020151090890508680610d2557610d2461170e565b5b8780610d3457610d3361170e565b5b8880610d4357610d4261170e565b5b84600260048110610d5757610d5661186a565b5b6020020151865f60048110610d6f57610d6e61186a565b5b60200201510960020988610d83919061190f565b820890505f8780610d9757610d9661170e565b5b8880610da657610da561170e565b5b838a610db2919061190f565b8a80610dc157610dc061170e565b5b86600260048110610dd557610dd461186a565b5b6020020151885f60048110610ded57610dec61186a565b5b6020020151090884600160048110610e0857610e0761186a565b5b60200201510990508780610e1f57610e1e61170e565b5b8880610e2e57610e2d61170e565b5b84600360048110610e4257610e4161186a565b5b602002015186600160048110610e5b57610e5a61186a565b5b60200201510989610e6c919061190f565b820890505f8880610e8057610e7f61170e565b5b8980610e8f57610e8e61170e565b5b8b8f09855f60048110610ea557610ea461186a565b5b602002015109905082828297509750975050505050505b9750975097945050505050565b5f805f808603610ee157878787925092509250611075565b5f8480610ef157610ef061170e565b5b898a0990505f8580610f0657610f0561170e565b5b898a0990505f8680610f1b57610f1a61170e565b5b898a0990505f8780610f3057610f2f61170e565b5b8880610f3f57610f3e61170e565b5b848e0960040990505f8880610f5757610f5661170e565b5b8980610f6657610f6561170e565b5b8a80610f7557610f7461170e565b5b8586098c098a80610f8957610f8861170e565b5b876003090890508880610f9f57610f9e61170e565b5b8980610fae57610fad61170e565b5b8384088a610fbc919061190f565b8a80610fcb57610fca61170e565b5b8384090894508880610fe057610fdf61170e565b5b8980610fef57610fee61170e565b5b8a80610ffe57610ffd61170e565b5b8687096008098a61100f919061190f565b8a8061101e5761101d61170e565b5b8b8061102d5761102c61170e565b5b888d611039919061190f565b86088409089350888061104f5761104e61170e565b5b898061105e5761105d61170e565b5b8c8e09600209925084848497509750975050505050505b955095509592505050565b5f8083141580156110915750818314155b801561109d57505f8214155b6110dc576040517f08c379a00000000000000000000000000000000000000000000000000000000081526004016110d39061198c565b60405180910390fd5b5f80600190505f8490505f5b5f87146111595786826110fb919061183a565b905082868061110d5761110c61170e565b5b878061111c5761111b61170e565b5b8584098861112a919061190f565b8608809450819550505086878261114191906119aa565b8361114c919061190f565b80985081935050506110e8565b8394505050505092915050565b6040518060800160405280600490602082028036833780820191505090505090565b5f80fd5b5f819050919050565b61119e8161118c565b81146111a8575f80fd5b50565b5f813590506111b981611195565b92915050565b5f602082840312156111d4576111d3611188565b5b5f6111e1848285016111ab565b91505092915050565b6111f38161118c565b82525050565b5f60408201905061120c5f8301856111ea565b61121960208301846111ea565b9392505050565b5f73ffffffffffffffffffffffffffffffffffffffff82169050919050565b5f61124982611220565b9050919050565b6112598161123f565b8114611263575f80fd5b50565b5f8135905061127481611250565b92915050565b5f80604083850312156112905761128f611188565b5b5f61129d858286016111ab565b92505060206112ae85828601611266565b9150509250929050565b5f8115159050919050565b6112cc816112b8565b82525050565b5f6020820190506112e55f8301846112c3565b92915050565b5f819050919050565b6112fd816112eb565b8114611307575f80fd5b50565b5f81359050611318816112f4565b92915050565b5f805f805f8060c0878903121561133857611337611188565b5b5f61134589828a0161130a565b965050602061135689828a0161130a565b955050604061136789828a0161130a565b945050606061137889828a0161130a565b935050608061138989828a0161130a565b92505060a061139a89828a0161130a565b9150509295509295509295565b5f80604083850312156113bd576113bc611188565b5b5f6113ca858286016111ab565b92505060206113db858286016111ab565b9150509250929050565b5f7fffffffffffffffffffffffffffffffffffffffff00000000000000000000000082169050919050565b611419816113e5565b82525050565b5f6020820190506114325f830184611410565b92915050565b611441816112eb565b82525050565b5f60c08201905061145a5f830189611438565b6114676020830188611438565b6114746040830187611438565b6114816060830186611438565b61148e6080830185611438565b61149b60a0830184611438565b979650505050505050565b5f805f805f805f60e0888a0312156114c1576114c0611188565b5b5f6114ce8a828b0161130a565b97505060206114df8a828b0161130a565b96505060406114f08a828b0161130a565b95505060606115018a828b0161130a565b94505060806115128a828b0161130a565b93505060a06115238a828b0161130a565b92505060c06115348a828b01611266565b91505092959891949750929550565b5f81519050611551816112f4565b92915050565b5f6020828403121561156c5761156b611188565b5b5f61157984828501611543565b91505092915050565b61158b816112eb565b82525050565b5f60c0820190506115a45f830189611582565b6115b16020830188611582565b6115be6040830187611582565b6115cb6060830186611582565b6115d86080830185611582565b6115e560a0830184611582565b979650505050505050565b6115f9816112b8565b8114611603575f80fd5b50565b5f81519050611614816115f0565b92915050565b5f6020828403121561162f5761162e611188565b5b5f61163c84828501611606565b91505092915050565b5f819050919050565b61165f61165a8261118c565b611645565b82525050565b5f611670828461164e565b60208201915081905092915050565b5f81519050919050565b5f81905092915050565b5f5b838110156116b0578082015181840152602081019050611695565b5f8484015250505050565b5f6116c58261167f565b6116cf8185611689565b93506116df818560208601611693565b80840191505092915050565b5f6116f682856116bb565b915061170282846116bb565b91508190509392505050565b7f4e487b71000000000000000000000000000000000000000000000000000000005f52601260045260245ffd5b5f611745826112eb565b9150611750836112eb565b9250826117605761175f61170e565b5b828206905092915050565b5f60208201905061177e5f830184611582565b92915050565b5f805f805f8060c0878903121561179e5761179d611188565b5b5f6117ab89828a01611543565b96505060206117bc89828a01611543565b95505060406117cd89828a01611543565b94505060606117de89828a01611543565b93505060806117ef89828a01611543565b92505060a061180089828a01611543565b9150509295509295509295565b7f4e487b71000000000000000000000000000000000000000000000000000000005f52601160045260245ffd5b5f611844826112eb565b915061184f836112eb565b92508261185f5761185e61170e565b5b828204905092915050565b7f4e487b71000000000000000000000000000000000000000000000000000000005f52603260045260245ffd5b5f82825260208201905092915050565b7f557365206a6163446f75626c652066756e6374696f6e20696e737465616400005f82015250565b5f6118db601e83611897565b91506118e6826118a7565b602082019050919050565b5f6020820190508181035f830152611908816118cf565b9050919050565b5f611919826112eb565b9150611924836112eb565b925082820390508181111561193c5761193b61180d565b5b92915050565b7f496e76616c6964206e756d6265720000000000000000000000000000000000005f82015250565b5f611976600e83611897565b915061198182611942565b602082019050919050565b5f6020820190508181035f8301526119a38161196a565b9050919050565b5f6119b4826112eb565b91506119bf836112eb565b92508282026119cd816112eb565b915082820484148315176119e4576119e361180d565b5b509291505056fea2646970667358221220e070f22d0264eff9fa70ff0da2deee10e2e15b791efaf68671faa402e50d4edc64736f6c63430008140033",
  "immutableReferences": {},
  "source": "// SPDX-License-Identifier: GPL-3.0\n\npragma solidity >=0.8.2 <0.9.0;\nimport \"./ECDSA.sol\";\nimport \"./Secp256k1.sol\";\nimport \"./EllipticCurve.sol\";\nimport \"./EllipticCurveFastMult.sol\";\nimport \"./zkp.sol\";\n\ncontract accountVerification{\n    \n    function getPub_kFromPriv_k(bytes32 pr_k) public pure returns(bytes32, bytes32){\n            //uint256 GX=Secp256k1.getGX();\n            (uint256 pub_key_x, uint256 pub_key_y) = EllipticCurve.ecMul(uint256(pr_k), Secp256k1.getGX(), Secp256k1.getGY(), Secp256k1.getAA(), Secp256k1.getPP());\n            return (bytes32(pub_key_x), bytes32(pub_key_y));\n            \n    }\n\n    function getAddressFromPub_k(bytes32 x, bytes32 y) public pure returns (bytes20){\n        string memory x_s = string(abi.encodePacked(x));\n        string memory y_s = string(abi.encodePacked(y));\n        bytes32 hash = (keccak256(abi.encodePacked(x_s,y_s)));\n        uint160 u_hash = uint160(uint256(hash) % 2**160);\n        return bytes20(u_hash);\n    }\n\n    function verify(bytes32 pr_k, address a) public pure returns(bool){\n        (bytes32 pub_key_x, bytes32 pub_key_y) = getPub_kFromPriv_k(pr_k);\n        bytes20 addr = getAddressFromPub_k(pub_key_x, pub_key_y);\n        return a==address(addr);\n    }\n\n\n\n    function zkp_accountGen(bytes32 pr_k) public view returns (uint256, uint256, uint256, uint256, uint256, uint256){\n        //return uint256(pr_k);\n        return (zkp.Prover(uint256(pr_k)));\n    }\n\n    function zkp_accountVer(uint256 ux, uint256 uy, uint256 c, uint256 z, uint256 hx, uint256 hy) public view returns (bool){       \n            return (zkp.Verifier(ux,uy, c, z, hx, hy)) && address(getAddressFromPub_k(bytes32(hx),bytes32(hy)))==msg.sender;\n    }\n\n    function zkp_accountVer(uint256 ux, uint256 uy, uint256 c, uint256 z, uint256 hx, uint256 hy, address addr) public pure returns (bool){        \n            return (zkp.Verifier(ux,uy, c, z, hx, hy)) && address(getAddressFromPub_k(bytes32(hx),bytes32(hy)))==addr;\n    }\n\n\n\n    function test(bytes32 b, address addr) public view returns (bool){\n        (uint256 ux, uint256 uy, uint256 c, uint256 z, uint256 hx, uint256 hy) = zkp_accountGen(b);\n        //address addr = 0xe16C1623c1AA7D919cd2241d8b36d9E79C1Be2A2;\n        return zkp_accountVer(ux,  uy,  c,  z,  hx,  hy, addr);\n    } \n}",
  "sourcePath": "/home/davipase/Blockchain/HouseLocker/smart_contracts/zkp/contracts/accountVerification.sol",
  "compiler": {
    "name": "solc",
    "version": "0.8.20+commit.a1b79de6.Emscripten.clang"
  },
  "schemaVersion": "3.4.14",
  "updatedAt": "2023-06-22T13:02:30.098Z",
  "devdoc": {
    "kind": "dev",
    "methods": {},
    "version": 1
  },
  "userdoc": {
    "kind": "user",
    "methods": {},
    "version": 1
  }
}