{
  "contractName": "zkp",
  "abi": [
    {
      "inputs": [],
      "name": "AA",
      "outputs": [
        {
          "internalType": "uint256",
          "name": "",
          "type": "uint256"
        }
      ],
      "stateMutability": "view",
      "type": "function"
    },
    {
      "inputs": [],
      "name": "BB",
      "outputs": [
        {
          "internalType": "uint256",
          "name": "",
          "type": "uint256"
        }
      ],
      "stateMutability": "view",
      "type": "function"
    },
    {
      "inputs": [],
      "name": "GX",
      "outputs": [
        {
          "internalType": "uint256",
          "name": "",
          "type": "uint256"
        }
      ],
      "stateMutability": "view",
      "type": "function"
    },
    {
      "inputs": [],
      "name": "GY",
      "outputs": [
        {
          "internalType": "uint256",
          "name": "",
          "type": "uint256"
        }
      ],
      "stateMutability": "view",
      "type": "function"
    },
    {
      "inputs": [],
      "name": "N",
      "outputs": [
        {
          "internalType": "uint256",
          "name": "",
          "type": "uint256"
        }
      ],
      "stateMutability": "view",
      "type": "function"
    },
    {
      "inputs": [],
      "name": "PP",
      "outputs": [
        {
          "internalType": "uint256",
          "name": "",
          "type": "uint256"
        }
      ],
      "stateMutability": "view",
      "type": "function"
    },
    {
      "inputs": [
        {
          "internalType": "uint256",
          "name": "x",
          "type": "uint256"
        }
      ],
      "name": "Prover",
      "outputs": [
        {
          "internalType": "uint256",
          "name": "",
          "type": "uint256"
        },
        {
          "internalType": "uint256",
          "name": "",
          "type": "uint256"
        },
        {
          "internalType": "uint256",
          "name": "",
          "type": "uint256"
        },
        {
          "internalType": "uint256",
          "name": "",
          "type": "uint256"
        },
        {
          "internalType": "uint256",
          "name": "",
          "type": "uint256"
        },
        {
          "internalType": "uint256",
          "name": "",
          "type": "uint256"
        }
      ],
      "stateMutability": "view",
      "type": "function"
    },
    {
      "inputs": [
        {
          "internalType": "uint256",
          "name": "ux",
          "type": "uint256"
        },
        {
          "internalType": "uint256",
          "name": "uy",
          "type": "uint256"
        },
        {
          "internalType": "uint256",
          "name": "c",
          "type": "uint256"
        },
        {
          "internalType": "uint256",
          "name": "z",
          "type": "uint256"
        },
        {
          "internalType": "uint256",
          "name": "hx",
          "type": "uint256"
        },
        {
          "internalType": "uint256",
          "name": "hy",
          "type": "uint256"
        }
      ],
      "name": "Verifier",
      "outputs": [
        {
          "internalType": "bool",
          "name": "",
          "type": "bool"
        }
      ],
      "stateMutability": "pure",
      "type": "function"
    },
    {
      "inputs": [
        {
          "internalType": "uint256",
          "name": "x",
          "type": "uint256"
        }
      ],
      "name": "test",
      "outputs": [
        {
          "internalType": "bool",
          "name": "",
          "type": "bool"
        }
      ],
      "stateMutability": "view",
      "type": "function"
    }
  ],
  "bytecode": "0x61194a61004e600b8282823980515f1a607314610042577f4e487b71000000000000000000000000000000000000000000000000000000005f525f60045260245ffd5b305f52607381538281f3fe730000000000000000000000000000000000000000301460806040526004361061009c575f3560e01c80637a308a4c1161006f5780637a308a4c14610141578063997da8d41461015f578063c9e525df1461017d578063cbfce0201461019b578063eeeac01e146101cb5761009c565b806303a507be146100a057806329e99f07146100be5780635727dc5c146100ee5780636c2b90fd1461010c575b5f80fd5b6100a86101e9565b6040516100b591906113dd565b60405180910390f35b6100d860048036038101906100d39190611424565b61020d565b6040516100e59190611469565b60405180910390f35b6100f6610249565b60405161010391906113dd565b60405180910390f35b61012660048036038101906101219190611424565b61024e565b60405161013896959493929190611482565b60405180910390f35b6101496106a0565b60405161015691906113dd565b60405180910390f35b6101676106c4565b60405161017491906113dd565b60405180910390f35b6101856106c8565b60405161019291906113dd565b60405180910390f35b6101b560048036038101906101b091906114e1565b6106ec565b6040516101c29190611469565b60405180910390f35b6101d36108a8565b6040516101e091906113dd565b60405180910390f35b7f79be667ef9dcbbac55a06295ce870b07029bfcdb2dce28d959f2815b16f8179881565b5f805f805f805f61021d8861024e565b9550955095509550955095505f6102388787878787876106ec565b905080975050505050505050919050565b600781565b5f805f805f805f7ffffffffffffffffffffffffffffffffebaaedce6af48a03bbfd25e8cd0364141444260405160200161028992919061158a565b604051602081830303815290604052805190602001205f1c6102ab91906115e2565b90505f8061031c8a7f79be667ef9dcbbac55a06295ce870b07029bfcdb2dce28d959f2815b16f817987f483ada7726a3c4655da4fbfc0e1108a8fd17b448a68554199c47d08ffb10d4b85f7ffffffffffffffffffffffffffffffffffffffffffffffffffffffffefffffc2f6108cc565b915091505f8061038f857f79be667ef9dcbbac55a06295ce870b07029bfcdb2dce28d959f2815b16f817987f483ada7726a3c4655da4fbfc0e1108a8fd17b448a68554199c47d08ffb10d4b85f7ffffffffffffffffffffffffffffffffffffffffffffffffffffffffefffffc2f6108cc565b915091505f600383837f79be667ef9dcbbac55a06295ce870b07029bfcdb2dce28d959f2815b16f817987f483ada7726a3c4655da4fbfc0e1108a8fd17b448a68554199c47d08ffb10d4b889896040516020016103f196959493929190611612565b60405160208183030381529060405260405161040d91906116ed565b602060405180830381855afa158015610428573d5f803e3d5ffd5b5050506040515160601b60601c73ffffffffffffffffffffffffffffffffffffffff1690505f7ffffffffffffffffffffffffffffffffebaaedce6af48a03bbfd25e8cd03641418061047d5761047c6115b5565b5b828f0990505f8060027ffffffffffffffffffffffffffffffffebaaedce6af48a03bbfd25e8cd03641416104b19190611730565b8911156104fb5760027ffffffffffffffffffffffffffffffffebaaedce6af48a03bbfd25e8cd03641416104e59190611730565b896104f09190611760565b985060019150600190505b60027ffffffffffffffffffffffffffffffffebaaedce6af48a03bbfd25e8cd03641416105289190611730565b8311156105725760027ffffffffffffffffffffffffffffffffebaaedce6af48a03bbfd25e8cd036414161055c9190611730565b836105679190611760565b925081159150600190505b5f82156106465789846105859190611793565b905060027ffffffffffffffffffffffffffffffffebaaedce6af48a03bbfd25e8cd03641416105b49190611730565b81111561060657600160027ffffffffffffffffffffffffffffffffebaaedce6af48a03bbfd25e8cd03641416105ea9190611730565b6105f49190611793565b816105ff9190611760565b9050610641565b60027ffffffffffffffffffffffffffffffffebaaedce6af48a03bbfd25e8cd03641416106339190611730565b8161063e9190611793565b90505b61067b565b811561066b5760018a8561065a9190611793565b6106649190611760565b905061067a565b89846106779190611793565b90505b5b868686838c8c9f509f509f509f509f509f505050505050505050505091939550919395565b7f483ada7726a3c4655da4fbfc0e1108a8fd17b448a68554199c47d08ffb10d4b881565b5f81565b7ffffffffffffffffffffffffffffffffebaaedce6af48a03bbfd25e8cd036414181565b5f805f61071c8786865f7ffffffffffffffffffffffffffffffffffffffffffffffffffffffffefffffc2f6108cc565b915091505f8061078f887f79be667ef9dcbbac55a06295ce870b07029bfcdb2dce28d959f2815b16f817987f483ada7726a3c4655da4fbfc0e1108a8fd17b448a68554199c47d08ffb10d4b85f7ffffffffffffffffffffffffffffffffffffffffffffffffffffffffefffffc2f6108cc565b915091505f806107c38d8d88885f7ffffffffffffffffffffffffffffffffffffffffffffffffffffffffefffffc2f610903565b9150915060038d8d7f79be667ef9dcbbac55a06295ce870b07029bfcdb2dce28d959f2815b16f817987f483ada7726a3c4655da4fbfc0e1108a8fd17b448a68554199c47d08ffb10d4b88d8d60405160200161082496959493929190611612565b60405160208183030381529060405260405161084091906116ed565b602060405180830381855afa15801561085b573d5f803e3d5ffd5b5050506040515160601b60601c73ffffffffffffffffffffffffffffffffffffffff168b14801561088b57508184145b801561089657508083145b96505050505050509695505050505050565b7ffffffffffffffffffffffffffffffffffffffffffffffffffffffffefffffc2f81565b5f805f805f6108e08a8a8a60018b8b610991565b9250925092506108f283838389610a29565b945094505050509550959350505050565b5f805f805f888b03610954575f868061091f5761091e6115b5565b5b898c0803610935575f8094509450505050610986565b6109438b8b60018a8a610a9b565b809350819450829550505050610972565b6109658b8b60018c8c60018c610c52565b8093508194508295505050505b61097e83838389610a29565b945094505050505b965096945050505050565b5f805f8089036109a957878787925092509250610a1d565b5f8990505f805f600190505b5f8414610a0f575f60018516146109e2576109d58383838f8f8f8e610c52565b8093508194508295505050505b6002846109ef9190611730565b93506109fe8c8c8c8c8c610a9b565b809c50819d50829e505050506109b5565b828282965096509650505050505b96509650969350505050565b5f805f610a3685856112bd565b90505f8480610a4857610a476115b5565b5b82830990505f8580610a5d57610a5c6115b5565b5b828a0990505f8680610a7257610a716115b5565b5b8780610a8157610a806115b5565b5b8486098a0990508181955095505050505094509492505050565b5f805f808603610ab357878787925092509250610c47565b5f8480610ac357610ac26115b5565b5b898a0990505f8580610ad857610ad76115b5565b5b898a0990505f8680610aed57610aec6115b5565b5b898a0990505f8780610b0257610b016115b5565b5b8880610b1157610b106115b5565b5b848e0960040990505f8880610b2957610b286115b5565b5b8980610b3857610b376115b5565b5b8a80610b4757610b466115b5565b5b8586098c098a80610b5b57610b5a6115b5565b5b876003090890508880610b7157610b706115b5565b5b8980610b8057610b7f6115b5565b5b8384088a610b8e9190611760565b8a80610b9d57610b9c6115b5565b5b8384090894508880610bb257610bb16115b5565b5b8980610bc157610bc06115b5565b5b8a80610bd057610bcf6115b5565b5b8687096008098a610be19190611760565b8a80610bf057610bef6115b5565b5b8b80610bff57610bfe6115b5565b5b888d610c0b9190611760565b860884090893508880610c2157610c206115b5565b5b8980610c3057610c2f6115b5565b5b8c8e09600209925084848497509750975050505050505b955095509592505050565b5f805f808a148015610c6357505f89145b15610c76578686869250925092506112b0565b5f87148015610c8457505f86145b15610c97578989899250925092506112b0565b610c9f6113a3565b8480610cae57610cad6115b5565b5b898a09815f60048110610cc457610cc36117c6565b5b6020020181815250508480610cdc57610cdb6115b5565b5b815f60048110610cef57610cee6117c6565b5b60200201518a0981600160048110610d0a57610d096117c6565b5b6020020181815250508480610d2257610d216115b5565b5b86870981600260048110610d3957610d386117c6565b5b6020020181815250508480610d5157610d506115b5565b5b81600260048110610d6557610d646117c6565b5b6020020151870981600360048110610d8057610d7f6117c6565b5b60200201818152505060405180608001604052808680610da357610da26115b5565b5b83600260048110610db757610db66117c6565b5b60200201518e0981526020018680610dd257610dd16115b5565b5b83600360048110610de657610de56117c6565b5b60200201518d0981526020018680610e0157610e006115b5565b5b835f60048110610e1457610e136117c6565b5b60200201518b0981526020018680610e2f57610e2e6115b5565b5b83600160048110610e4357610e426117c6565b5b60200201518a09815250905080600260048110610e6357610e626117c6565b5b6020020151815f60048110610e7b57610e7a6117c6565b5b6020020151141580610ebd575080600360048110610e9c57610e9b6117c6565b5b602002015181600160048110610eb557610eb46117c6565b5b602002015114155b610efc576040517f08c379a0000000000000000000000000000000000000000000000000000000008152600401610ef39061184d565b60405180910390fd5b610f046113a3565b8580610f1357610f126115b5565b5b825f60048110610f2657610f256117c6565b5b602002015187610f369190611760565b83600260048110610f4a57610f496117c6565b5b602002015108815f60048110610f6357610f626117c6565b5b6020020181815250508580610f7b57610f7a6115b5565b5b82600160048110610f8f57610f8e6117c6565b5b602002015187610f9f9190611760565b83600360048110610fb357610fb26117c6565b5b60200201510881600160048110610fcd57610fcc6117c6565b5b6020020181815250508580610fe557610fe46115b5565b5b815f60048110610ff857610ff76117c6565b5b6020020151825f600481106110105761100f6117c6565b5b6020020151098160026004811061102a576110296117c6565b5b6020020181815250508580611042576110416115b5565b5b815f60048110611055576110546117c6565b5b60200201518260026004811061106e5761106d6117c6565b5b60200201510981600360048110611088576110876117c6565b5b6020020181815250505f86806110a1576110a06115b5565b5b826003600481106110b5576110b46117c6565b5b6020020151886110c59190611760565b88806110d4576110d36115b5565b5b846001600481106110e8576110e76117c6565b5b602002015185600160048110611101576111006117c6565b5b6020020151090890508680611119576111186115b5565b5b8780611128576111276115b5565b5b8880611137576111366115b5565b5b8460026004811061114b5761114a6117c6565b5b6020020151865f60048110611163576111626117c6565b5b602002015109600209886111779190611760565b820890505f878061118b5761118a6115b5565b5b888061119a576111996115b5565b5b838a6111a69190611760565b8a806111b5576111b46115b5565b5b866002600481106111c9576111c86117c6565b5b6020020151885f600481106111e1576111e06117c6565b5b60200201510908846001600481106111fc576111fb6117c6565b5b60200201510990508780611213576112126115b5565b5b8880611222576112216115b5565b5b84600360048110611236576112356117c6565b5b60200201518660016004811061124f5761124e6117c6565b5b602002015109896112609190611760565b820890505f8880611274576112736115b5565b5b8980611283576112826115b5565b5b8b8f09855f60048110611299576112986117c6565b5b602002015109905082828297509750975050505050505b9750975097945050505050565b5f8083141580156112ce5750818314155b80156112da57505f8214155b611319576040517f08c379a0000000000000000000000000000000000000000000000000000000008152600401611310906118b5565b60405180910390fd5b5f80600190505f8490505f5b5f87146113965786826113389190611730565b905082868061134a576113496115b5565b5b8780611359576113586115b5565b5b858409886113679190611760565b8608809450819550505086878261137e91906118d3565b836113899190611760565b8098508193505050611325565b8394505050505092915050565b6040518060800160405280600490602082028036833780820191505090505090565b5f819050919050565b6113d7816113c5565b82525050565b5f6020820190506113f05f8301846113ce565b92915050565b5f80fd5b611403816113c5565b811461140d575f80fd5b50565b5f8135905061141e816113fa565b92915050565b5f60208284031215611439576114386113f6565b5b5f61144684828501611410565b91505092915050565b5f8115159050919050565b6114638161144f565b82525050565b5f60208201905061147c5f83018461145a565b92915050565b5f60c0820190506114955f8301896113ce565b6114a260208301886113ce565b6114af60408301876113ce565b6114bc60608301866113ce565b6114c960808301856113ce565b6114d660a08301846113ce565b979650505050505050565b5f805f805f8060c087890312156114fb576114fa6113f6565b5b5f61150889828a01611410565b965050602061151989828a01611410565b955050604061152a89828a01611410565b945050606061153b89828a01611410565b935050608061154c89828a01611410565b92505060a061155d89828a01611410565b9150509295509295509295565b5f819050919050565b61158461157f826113c5565b61156a565b82525050565b5f6115958285611573565b6020820191506115a58284611573565b6020820191508190509392505050565b7f4e487b71000000000000000000000000000000000000000000000000000000005f52601260045260245ffd5b5f6115ec826113c5565b91506115f7836113c5565b925082611607576116066115b5565b5b828206905092915050565b5f61161d8289611573565b60208201915061162d8288611573565b60208201915061163d8287611573565b60208201915061164d8286611573565b60208201915061165d8285611573565b60208201915061166d8284611573565b602082019150819050979650505050505050565b5f81519050919050565b5f81905092915050565b5f5b838110156116b2578082015181840152602081019050611697565b5f8484015250505050565b5f6116c782611681565b6116d1818561168b565b93506116e1818560208601611695565b80840191505092915050565b5f6116f882846116bd565b915081905092915050565b7f4e487b71000000000000000000000000000000000000000000000000000000005f52601160045260245ffd5b5f61173a826113c5565b9150611745836113c5565b925082611755576117546115b5565b5b828204905092915050565b5f61176a826113c5565b9150611775836113c5565b925082820390508181111561178d5761178c611703565b5b92915050565b5f61179d826113c5565b91506117a8836113c5565b92508282019050808211156117c0576117bf611703565b5b92915050565b7f4e487b71000000000000000000000000000000000000000000000000000000005f52603260045260245ffd5b5f82825260208201905092915050565b7f557365206a6163446f75626c652066756e6374696f6e20696e737465616400005f82015250565b5f611837601e836117f3565b915061184282611803565b602082019050919050565b5f6020820190508181035f8301526118648161182b565b9050919050565b7f496e76616c6964206e756d6265720000000000000000000000000000000000005f82015250565b5f61189f600e836117f3565b91506118aa8261186b565b602082019050919050565b5f6020820190508181035f8301526118cc81611893565b9050919050565b5f6118dd826113c5565b91506118e8836113c5565b92508282026118f6816113c5565b9150828204841483151761190d5761190c611703565b5b509291505056fea26469706673582212200bbfa65e04695747106d6dbe1e7d6ee59d16936571bfe824c44ee7a27400667f64736f6c63430008140033",
  "immutableReferences": {},
  "source": "// SPDX-License-Identifier: MIT\n// compiler version must be greater than or equal to 0.8.17 and less than 0.9.0\npragma solidity ^0.8.17;\nimport \"./Secp256k1.sol\";\nimport \"./EllipticCurve.sol\";\nimport \"./EllipticCurveFastMult.sol\";\n//import \"./SafeMath.sol\";\n//import \"./SafeMath.sol\";\n\nlibrary zkp{\n\n\n    uint256 public constant GX = 0x79BE667EF9DCBBAC55A06295CE870B07029BFCDB2DCE28D959F2815B16F81798;\n    uint256 public constant GY = 0x483ADA7726A3C4655DA4FBFC0E1108A8FD17B448A68554199C47D08FFB10D4B8;\n    uint256 public constant AA = 0;\n    uint256 public constant BB = 7;\n    uint256 public constant PP = 0xFFFFFFFFFFFFFFFFFFFFFFFFFFFFFFFFFFFFFFFFFFFFFFFFFFFFFFFEFFFFFC2F;\n    uint256 public constant N = 0xFFFFFFFFFFFFFFFFFFFFFFFFFFFFFFFEBAAEDCE6AF48A03BBFD25E8CD0364141;\n\n    function Prover(uint256 x) public view returns (uint256, uint256, uint256, uint256, uint256, uint256) {\n            uint256 r = uint256(keccak256(abi.encodePacked(block.difficulty, block.timestamp))) % N;\n            (uint256 hx,uint256 hy) = EllipticCurve.ecMul(x, GX, GY, AA, PP);\n            (uint256 ux,uint256 uy) = EllipticCurve.ecMul(r, GX, GY, AA, PP);         \n            uint256 c256 = uint256(uint160(ripemd160(abi.encodePacked(ux,uy,GX,GY,hx,hy)))); \n            uint256 cx = mulmod(x, c256, N);\n            bool check= false;\n            bool check2=false;\n            if (r > N/2){\n                    r = r-N/2;\n                    check = true;\n                    check2= true;\n            }\n            if (cx > N/2){\n                    cx = cx-N/2;\n                    check = !check;\n                    check2=true;\n            }\n            uint256 z = 0;\n            if (check){\n                z = cx + r;\n                if (z>N/2){ z -= (N/2+1);}\n                else {z += N/2;}    \n            }\n            else{ \n                    if(check2){z = cx + r - 1;}\n                    else {z = cx + r;}}\n            return (ux, uy, c256, z, hx, hy);\n        }\n\n        function Verifier(uint256 ux, uint256 uy, uint256 c, uint256 z, uint256 hx, uint256 hy) public pure returns (bool){\n            (uint256 h_cx, uint256 h_cy) = EllipticCurve.ecMul(c, hx, hy, AA, PP);\n            (uint256 point1_x, uint256 point1_y) =  EllipticCurve.ecMul(z, GX, GY, AA, PP);\n            (uint256 point2_x, uint256 point2_y) = EllipticCurve.ecAdd(ux, uy, h_cx, h_cy, AA, PP);\n            return c ==uint256(uint160(ripemd160(abi.encodePacked(ux,uy,GX,GY,hx,hy))))  && point1_x == point2_x && point1_y == point2_y;\n    }\n\n        function test (uint256 x) public view returns (bool){\n                (uint256 a, uint256 b, uint256 c, uint256 d, uint256 e, uint256 f) = Prover(x);\n                //console.log(\"prover ok\");\n                bool v = Verifier(a, b, c, d, e, f);\n                return v;\n        }\n}",
  "sourcePath": "/home/davipase/Blockchain/HouseLocker/smart_contracts/zkp/contracts/zkp.sol",
  "compiler": {
    "name": "solc",
    "version": "0.8.20+commit.a1b79de6.Emscripten.clang"
  },
  "schemaVersion": "3.4.14",
  "updatedAt": "2023-06-22T13:02:30.104Z",
  "devdoc": {
    "kind": "dev",
    "methods": {},
    "version": 1
  },
  "userdoc": {
    "kind": "user",
    "methods": {},
    "version": 1
  }
}