{
  "contractName": "Bank",
  "abi": [
    {
      "constant": true,
      "inputs": [],
      "name": "is_full",
      "outputs": [
        {
          "internalType": "bool",
          "name": "",
          "type": "bool"
        }
      ],
      "payable": false,
      "stateMutability": "view",
      "type": "function"
    },
    {
      "constant": true,
      "inputs": [],
      "name": "get_quantity",
      "outputs": [
        {
          "internalType": "uint256",
          "name": "",
          "type": "uint256"
        }
      ],
      "payable": false,
      "stateMutability": "view",
      "type": "function"
    },
    {
      "constant": true,
      "inputs": [],
      "name": "get_limit",
      "outputs": [
        {
          "internalType": "uint256",
          "name": "",
          "type": "uint256"
        }
      ],
      "payable": false,
      "stateMutability": "view",
      "type": "function"
    },
    {
      "constant": true,
      "inputs": [],
      "name": "get_status",
      "outputs": [
        {
          "internalType": "uint256",
          "name": "",
          "type": "uint256"
        },
        {
          "internalType": "uint256",
          "name": "",
          "type": "uint256"
        },
        {
          "internalType": "uint256",
          "name": "",
          "type": "uint256"
        }
      ],
      "payable": false,
      "stateMutability": "view",
      "type": "function"
    },
    {
      "constant": true,
      "inputs": [],
      "name": "get_owner",
      "outputs": [
        {
          "internalType": "address",
          "name": "",
          "type": "address"
        }
      ],
      "payable": false,
      "stateMutability": "view",
      "type": "function"
    },
    {
      "constant": false,
      "inputs": [
        {
          "internalType": "uint256",
          "name": "qty",
          "type": "uint256"
        }
      ],
      "name": "add",
      "outputs": [
        {
          "internalType": "bool",
          "name": "",
          "type": "bool"
        },
        {
          "internalType": "uint256",
          "name": "",
          "type": "uint256"
        },
        {
          "internalType": "uint256",
          "name": "",
          "type": "uint256"
        },
        {
          "internalType": "uint256",
          "name": "",
          "type": "uint256"
        }
      ],
      "payable": false,
      "stateMutability": "nonpayable",
      "type": "function"
    },
    {
      "constant": false,
      "inputs": [
        {
          "internalType": "uint256",
          "name": "qty",
          "type": "uint256"
        }
      ],
      "name": "remove",
      "outputs": [
        {
          "internalType": "bool",
          "name": "",
          "type": "bool"
        },
        {
          "internalType": "uint256",
          "name": "",
          "type": "uint256"
        },
        {
          "internalType": "uint256",
          "name": "",
          "type": "uint256"
        },
        {
          "internalType": "uint256",
          "name": "",
          "type": "uint256"
        }
      ],
      "payable": false,
      "stateMutability": "nonpayable",
      "type": "function"
    },
    {
      "constant": true,
      "inputs": [],
      "name": "get_data",
      "outputs": [
        {
          "internalType": "string",
          "name": "",
          "type": "string"
        }
      ],
      "payable": false,
      "stateMutability": "pure",
      "type": "function"
    },
    {
      "constant": false,
      "inputs": [
        {
          "internalType": "address payable",
          "name": "_to",
          "type": "address"
        }
      ],
      "name": "send_money",
      "outputs": [
        {
          "internalType": "bool",
          "name": "",
          "type": "bool"
        }
      ],
      "payable": true,
      "stateMutability": "payable",
      "type": "function"
    }
  ],
  "bytecode": "0x608060405260008060006101000a81548160ff0219169083151502179055506000600155606460025533600360006101000a81548173ffffffffffffffffffffffffffffffffffffffff021916908373ffffffffffffffffffffffffffffffffffffffff16021790555034801561007557600080fd5b50610601806100856000396000f3fe6080604052600436106100865760003560e01c80634c2c79dc116100595780634c2c79dc146101ae5780634cc822151461020a57806350bf8b0d1461027257806355e5a0e814610302578063ed0109a51461033157610086565b80630ac298dc1461008b5780631003e2d2146100e257806339aaba251461014a5780634b414dbe14610183575b600080fd5b34801561009757600080fd5b506100a061035c565b604051808273ffffffffffffffffffffffffffffffffffffffff1673ffffffffffffffffffffffffffffffffffffffff16815260200191505060405180910390f35b3480156100ee57600080fd5b5061011b6004803603602081101561010557600080fd5b8101908080359060200190929190505050610386565b604051808515151515815260200184815260200183815260200182815260200194505050505060405180910390f35b34801561015657600080fd5b5061015f610407565b60405180848152602001838152602001828152602001935050505060405180910390f35b34801561018f57600080fd5b50610198610424565b6040518082815260200191505060405180910390f35b6101f0600480360360208110156101c457600080fd5b81019080803573ffffffffffffffffffffffffffffffffffffffff16906020019092919050505061042e565b604051808215151515815260200191505060405180910390f35b34801561021657600080fd5b506102436004803603602081101561022d57600080fd5b81019080803590602001909291905050506104d7565b604051808515151515815260200184815260200183815260200182815260200194505050505060405180910390f35b34801561027e57600080fd5b5061028761055f565b6040518080602001828103825283818151815260200191508051906020019080838360005b838110156102c75780820151818401526020810190506102ac565b50505050905090810190601f1680156102f45780820380516001836020036101000a031916815260200191505b509250505060405180910390f35b34801561030e57600080fd5b506103176105ac565b604051808215151515815260200191505060405180910390f35b34801561033d57600080fd5b506103466105c2565b6040518082815260200191505060405180910390f35b6000600360009054906101000a900473ffffffffffffffffffffffffffffffffffffffff16905090565b600080600080600254856001540111156103b457600060015460015460025403879350935093509350610400565b8460016000828254019250508190555060025460015414156103eb5760016000806101000a81548160ff0219169083151502179055505b60018054600154600254038793509350935093505b9193509193565b600080600060015460025460015460025403925092509250909192565b6000600254905090565b6000600360009054906101000a900473ffffffffffffffffffffffffffffffffffffffff1673ffffffffffffffffffffffffffffffffffffffff163373ffffffffffffffffffffffffffffffffffffffff1614156104ce578173ffffffffffffffffffffffffffffffffffffffff166108fc349081150290604051600060405180830381858888f193505050501580156104cc573d6000803e3d6000fd5b505b60009050919050565b60008060008060015485111561050157600060015460015460025403879350935093509350610558565b84600160008282540392505081905550600115156000809054906101000a900460ff16151514156105475760008060006101000a81548160ff0219169083151502179055505b600180546001548793509350935093505b9193509193565b60606000368080601f016020809104026020016040519081016040528093929190818152602001838380828437600081840152601f19601f82011690508083019250505050505050905090565b60008060009054906101000a900460ff16905090565b600060015490509056fea265627a7a7231582009af368da838a8e66df25c833811412a6991e29fb334aa765ba5f20e085633f464736f6c63430005100032",
  "source": "// SPDX-License-Identifier: MIT\n\npragma solidity >=0.5.0;\n\nimport \"hardhat/console.sol\";\n\n\ncontract Bank{\n\n    bool full = false;\n    uint quantity = 0;\n    uint limit = 100;\n    address owner = msg.sender;\n\n\n    struct result{\n        bool success;\n        uint current_quantity;\n        uint remaining_space;\n        uint qty;\n    }\n\n\n\n\n    function is_full() public view returns(bool){\n        return full;\n    }\n\n    function get_quantity() public view returns(uint){\n        return quantity;\n    }\n\n    function get_limit() public view returns(uint){\n        return limit;\n    }\n\n    function get_status() public view returns(uint, uint, uint){\n        return (quantity, limit, limit-quantity);\n    }\n\n    function get_owner() public view returns(address){\n        return (owner);\n    }\n\n\n    function add(uint qty) public returns(bool, uint, uint, uint){\n        //require(!full);\n        if(quantity + qty  > limit){\n            return (false, quantity, limit-quantity, qty);\n        }\n        else{\n            quantity += qty;\n            if(quantity == limit) full = true;\n            return (true, quantity, limit-quantity, qty);\n        }\n    }\n\n\n    function remove(uint qty) public returns (bool, uint, uint, uint){\n        if(qty > quantity){\n            return (false, quantity, limit-quantity, qty);\n        }\n        else{\n            quantity -= qty;\n            if(full == true) full = false;\n            return (true, quantity, quantity, qty);\n        }\n    }\n\n    function get_data() public pure returns (string memory){\n        return string(msg.data);\n    }\n\n    // function send_money(address payable _to) public payable returns(address,address){\n    function send_money(address payable _to) public payable returns(bool){\n\n        // receiver.transfer(1);\n        // require(owner.balance>msg.value,\"not enough ethers\");\n        if(msg.sender == owner){\n            // bool res = _to.send(msg.value);\n            _to.transfer(msg.value);   \n            // return (msg.sender,_to);\n\n        }\n        return (false);\n        // else{\n        //     return address(2);\n        // }\n        // bool sent = _to.send(qty);\n        // require(sent, \"Failed to send Ether\");\n        // return sent;\n    }\n}",
  "sourcePath": "/home/davipase/Blockchain/projects/dapp/smart_contracts/bank/contracts/Bank.sol",
  "compiler": {
    "name": "solc",
    "version": "0.5.16+commit.9c3226ce.Emscripten.clang"
  },
  "schemaVersion": "3.4.14",
  "updatedAt": "2023-06-14T12:18:47.667Z",
  "networkType": "ethereum",
  "devdoc": {
    "methods": {}
  },
  "userdoc": {
    "methods": {}
  }
}